:400000000010002011000000650500006505000080B500AF00F0AAFA80B584B000AF021CFB1D1A70204A3B1C0B3312781A701F4A3B1C0A3312781A700423013BFB6018E081
:400040001B4B1868391C0B31FA68131C5B009B18C3185B780B70164B1868391C0A31FA68131C5B009B18C3189B780B70FB68013BFB60FB68002B0ADB0D4B1968FA68131CF1
:400080005B009B185B5CFA1D12789A42D8D9094B3A1C0B3212781A60074B3A1C0A3212781A60BD4604B080BDCCF1FF0FCDF1FF0FCC0000201CFF0B4020FF0B4080B500AF4F
:4000C0001F4B1F4A12688021C9020A431A601820FFF7A2FF1B4B19221A60052000F0C8FC194B1A4A1278D2B21A60052000F0F8FC134B134A1168164A0A401A60154B164A4C
:400100001A60164B10221A60154B20221A60154B30221A60144B11221A60144B802212061A60134B134A1A60134B144A1A60144B124A1A60134B144A1A60BD4680BDC04635
:4001400000010B402CFF0B4028FF0B40E5F1FF0FFFFFFBFF04010B40060000800802024020020240240202403002024008010B40000002400E0000804000024017000080D0
:4001800080000240040002403300008080B582B000AF72B6FB1D00221A7023E0FB1D1A78131C5B009B185B00424A9B183B603B681A78597809020A43997809040A43DB7847
:4001C0001B0613431A1C3B6819795B791B020B439BB2101C191C00F047FAFB1D1A78FB1D01321A70FB1D1B78012BD7D9324A334B101C191C00F048FA314B802252001A8062
:40020000304B01221A70304B03221A602F4BEE2212021A602E4BEE221A602E4BC02252031A602D4B01221A602C4B06221A602C4B2C4A1A602C4B03221A602C4B24221A6055
:400240002B4B992212041A602A4B992212041A60294B802292021A60284B294A1A60294B294A1A60294B2A4A1A602A4B2A4A1A602A4B2A4A1278D2B202210A43D2B21A70DE
:40028000274B274A1278D2B20C218A43D2B204210A43D2B21A70214B204A1278D2B216210A43D2B21A70FFF709FF00F02DFABD4602B080BD6C0B0000780B0000940B000039
:4002C00000600F4002600F40080001400C0001401000014008010440000204400802044008030440811D0000000404400804044010500F4020500F4028500F4030500F404D
:400300000400990034500F40000002022001054012220200600105401666060000700F4001700F4010B5064C2378002B07D1054B002B02D0044800E000BF0123237010BD95
:40034000E000002000000000640B000008B5084B002B03D00748084900E000BF07480368002B03D0064B002B00D0984708BDC04600000000640B0000E4000020C8000020B8
:400380000000000080B582B000AF00F0E7F900F0A1FA00F019FBFE20642100F097F862B600F0C6FA021CBB1D1A80BB1D1A881F4B9A4212D9BB1D1A88FA23DB009A420CD871
:4003C000042000F069FBBB1D1B880220191C00F031F8012000F09CF902E0002000F098F900F020FB021C3B1D1A803B1D1A880F4B9A4219D93B1D1A88FA23DB009A4213D87B
:400400003B1D1B880A4A9B189BB2391D1A1C9218D3180B80042000F03FFB3B1D1B880120191C00F007F8BBE7BAE7C046E703000018FCFFFF80B586B000AF0A1CFB1D011C79
:4004400019703B1D1A803B1C0C33FF221A703B1C0C33FF225A703B1C0C33FA1D12789A703B1C0C330522DA703B1C0C3303221A713B1C0C331E225A713B1D1B88DAB23B1C32
:400480000C339A713B1D1B881B0A9BB2DAB23B1C0C33DA713B1C0C339A79FB1D1B78D318DAB23B1C0C33DB79D318DBB22633DBB2DB43DAB23B1C0C331A723B1C0C33181C6F
:4004C000092100F0A7F9BD4606B080BD80B586B000AF0A1CFB1D011C19703B1D1A803B1C0C33FF221A703B1C0C33FF225A703B1C0C33FA1D12789A703B1C0C330522DA7052
:400500003B1C0C3303221A713B1C0C3320225A713B1D1B88DAB23B1C0C339A713B1D1B881B0A9BB2DAB23B1C0C33DA713B1C0C339A79FB1D1B78D318DAB23B1C0C33DB791B
:40054000D318DBB22833DBB2DB43DAB23B1C0C331A723B1C0C33181C092100F05BF9BD4606B080BD80B500AFFEE7C04680B586B000AF224B7B61224B3B61204B7B6135E08A
:400580003B691B68FB603B695B68BB603B699B683B6000237B600CE0FB681A68BB681A60BB680433BB60FB680433FB607B6804337B607A683B689A42EED13B69DB683B6088
:4005C00000237B6008E0BB6800221A60BB680433BB607B6804337B607A683B689A42F2D13B6910333B617B69013B7B617B69002BC6D100F089FAFFF7C5FEFEE70100000091
:40060000FC0C000080B582B000AF00237B600FE07B68032B04D8104B7A689200D35800E00E4B0F4A796889008B507B6801337B607B682F2BECD9FFF7A9FD0A4B00221A6070
:400640008023DB058022D205126801210A431A60BD4602B080BDC046000000006505000000000020C000002080B582B000AF786039607A683B68101C00211A1C00F06AFAD6
:40068000BD4602B080BDC04680B586B000AF7860396000233B6100237B612EE07B699B007A68D3181B68BB603B1C0F33BA681A70BB68FF229343BB6017E03B695B003A68EF
:4006C000D3181B781A1CBB68D3183A69520039688A1852781A703B6901333B613B1C0F331A783B1C0F33013A1A703B1C0F331B78002BE2D17B6901337B617B69062BCDD9F6
:40070000BD4606B080BDC04680B500AFBD4680BD80B584B000AF021CFB1D1A700E4B1B68DAB23B1C0F3340218A431A70FB1D1B789B01DAB240231340D9B23B1C0F333A1C05
:400740000F3212780A431A70034B3A1C0F3212781A60BD4604B080BD0001044080B500AF064B1B78002B04D100F00AF8034B01221A7000F019F8BD4680BDC046FC0000209D
:4007800080B500AF054B07221A70054B48221A70044B03221A70BD4680BDC04620000F4030000F4081000F4090B583B000AFFC1D00F068F9031C2370084B084A1278D2B216
:4007C00010210A43D2B21A7000F044F9FB1D1B78181C00F05BF9BD4603B090BD91000F4080B582B000AF021CFB1D1A70C046074B1B78DBB21A1C04231340F8D1044BFA1D0D
:4008000012781A70BD4602B080BDC04661000F4041000F4080B584B000AF78600A1CFB1C1A703B1C0F3300221A700F4B1B78002B16D03B1C0F331B787A68D3181B78181CB2
:40084000FFF7CEFF3B1C0F331A783B1C0F3301321A703A1C0F32FB1C12781B789A42E8D3BD4604B080BDC046FC00002080B500AF094B802292041A60084B4D221A60022074
:4008800000F062F8064B181C00F044F8002000F033F8BD4680BDC0460001054024010540FFFF000090B583B000AFFC1D00F0EAF8031C2370064B064A126801210A431A6046
:4008C000FB1D1B78181C00F0E1F8BD4603B090BD0000054080B500AF064B1B78002B04D1FFF7C4FF034B01221A70FFF7DBFFBD4680BDC046FE00002080B582B000AF78606A
:40090000034B7A681204120C1A60BD4602B080BD0801054080B582B000AF7860034B7A681204120C1A60BD4602B080BD1401054080B500AF034B1B681B041B0C181CBD464F
:4009400080BDC0460C01054080B582B000AF7860024B7A681A60BD4602B080BD3801054080B500AF094B802292041A60084B4D221A60022000F062F8064B181C00F044F898
:40098000002000F033F8BD4680BDC0464001054064010540FFFF000090B583B000AFFC1D00F070F8031C2370064B064A126802210A431A60FB1D1B78181C00F067F8BD4608
:4009C00003B090BD0000054080B500AF064B1B78002B04D1FFF7C4FF034B01221A70FFF7DBFFBD4680BDC046FF00002080B582B000AF7860034B7A681204120C1A60BD4632
:400A000002B080BD4801054080B582B000AF7860034B7A681204120C1A60BD4602B080BD5401054080B500AF034B1B681B041B0C181CBD4680BDC0464C01054080B582B073
:400A400000AF7860024B7A681A60BD4602B080BD7801054080B500AF044B044A1268802109060A431A60BD4680BDC046040002400230800804D0C0460138FDD1C046C046F1
:400A8000C0467047EFF3108072B6704780F310887047C046C046C04680B582B000AF786008E00C4B1B68181CFFF7E2FF7B680A4A9B187B607A6880231B029A42F1D8074B3B
:400AC0001B687A685343181CFFF7D2FFBD4602B080BDC046DC0000200080FFFFD400002080B582B000AF021CBB1D1A80BB1D1B88044A12785343181CFFF7BAFFBD4602B073
:400B000080BDC046D800002070B50E4B0E4D0024ED1AAD101E1CAC4204D0A300F35898470134F8E700F0D8F8084B094D0024ED1AAD101E1CAC4204D0A300F358984701348D
:400B4000F8E770BDE40C0000E40C0000E40C0000EC0C0000031C8218934202D019700133FAE77047000000000400000000300F40000400400F40000401000F405D300F40A6
:400B800033310F4003330F4002420F4009430F4002600F40810F000102020404051406010E07101013031804196C1B111D701F0C200821092350253C270228012A062B10AE
:400BC0003008311F320734083610376039803A083E503F40400146014705481449FF4A074BFF4C404D204EF04F055008580459045A045F01604061A86240632082028602CC
:400C000089188B238C018D188F209337950E9D189F25A202A402A902AC02B002B13CB401B507BB22BE11C016C102C5E0C60CC70BC816C9FFCAFFCBFFCEF0CF44D00CD401A2
:400C4000D804D904DA04DB04DF01E6C0EA40EB020040010803400480050909020B081080112016801748184019091A081B401E88200121022530274829092B082C083122DE
:400C80003340350937403A043D203E804001452047404C404D014E045088530C56845D015E885F20C0BDC20AC4BACA27CCDDCE32D038D220D6F0AA80AB60E8045A40D401D5
:400CC0000002090268017102AA40C008C208DA02DC01100111010000F8B5C046F8BC08BC9E4670474D03000005060000F8B5C046F8BC08BC9E46704725030000100D000087
:400D0000C800002018000000200000000000000000000000C0F1FF0F00366E01C05D0000180000000000E02E000000000000000000000000000000000000000000000000EC
:400D40000000000000000000000000000000000000000000000000000000000000000000000000000000000000000000000000000000000000000000000000000000000073
:400D80000000000000000000000000000000000000000000000000000000000000000000000000000000000000000000000000000000000000000000000000000000000033
:400DC00000000000000000000000000000000000000000000000000000000000000000000000000000000000000000000000000000000000000000000000000000000000F3
:400E000000000000000000000000000000000000000000000000000000000000000000000000000000000000000000000000000000000000000000000000000000000000B2
:0200000490303A
:0200000044B604
:0200000490402A
:200000000000000000000000000000000000000000000000000000000000000000000000E0
:0200000490501A
:0C000000000204C81193110104CC564901
:0200000490600A
:0100000001FE
:00000001FF