:4000000000100020110000005D1600005D16000080B500AF01F026FB80B584B000AF021CFB1D1A70204A3B1C0B3312781A701F4A3B1C0A3312781A700423013BFB6018E0F1
:400040001B4B1868391C0B31FA68131C5B009B18C3185B780B70164B1868391C0A31FA68131C5B009B18C3189B780B70FB68013BFB60FB68002B0ADB0D4B1968FA68131CF1
:400080005B009B185B5CFA1D12789A42D8D9094B3A1C0B3212781A60074B3A1C0A3212781A60BD4604B080BDCCF1FF0FCDF1FF0FCC0000201CFF0B4020FF0B4080B500AF4F
:4000C000254B254A12688021C9020A431A601820FFF7A2FF214B19221A60052001F0F4FC1F4B204A1278D2B21A60052001F0A8FD194B194A11681C4A0A401A601B4B1C4A31
:400100001A601C4B20221A601B4B11221A601B4B21221A601A4B21221A601A4B21221A60194B30221A60194B10221A60184B822212061A60174B184A1A60184B184A1A6052
:40014000184B194A1A60194B174A1A60184B164A1A60BD4680BDC04600010B402CFF0B4028FF0B40E5F1FF0FFFFFFBFF04010B4006000080080202401C0202402002024087
:4001800024020240280202402C0202403002024008010B40000002400B00008040000240100000808000024017000080040002404400024080B586B000AF72B63B1C17334C
:4001C00000221A7026E03B1C17331A78131C5B009B185B00764A9B183B613B691A78597809020A43997809040A43DB781B0613431A1C3B6919795B791B020B439BB2101CBB
:40020000191C01F0ADFA3B1C17331A783B1C173301321A703B1C17331B78022BD3D93B1C173300221A7038E03B1C17331A78131C9B009B185B005F4A9B18FB60FB681A7837
:40024000597809020A43997809040A43DB781B061343BB60FB681A79597909020A43997909040A43DB791B0613437B60BA1CFB68197A5B7A1B020B431380BB1C1B88B96899
:400280007A68081C111C1A1C01F07AFA3B1C17331A783B1C173301321A703B1C17331B78002BC1D0444A454B101C191C01F07AFA434B802252001A80424B01221A70424B28
:4002C000424A1A60424BCE2292001A60414B424A1A60424B99221A60414B50221A60414B414A1A60414B07221A60414BDB2252001A60404B03221A603F4BC02212041A6068
:400300003E4B03221A603E4B80221A603D4BD82212011A603C4B80221A603C4B02221A603B4B31221A603B4B02221A603A4B992212041A60394BA02212031A60384B8C22CC
:4003400092051A60374B992212041A60364B902252031A60354B992212041A60344B992212041A60334BC02212061A60324B324A1278D2B202210A43D2B21A702F4B2F4A9E
:400380001278D2B20C218A43D2B204210A43D2B21A70294B284A1278D2B216210A43D2B21A70FFF78BFE01F03DFABD4606B080BD602800007428000080280000A428000076
:4003C00000600F4002600F400000014000000303040001400C00014000EE006010000140000004400800044089ED1800000104400801044000020440080204401802044083
:4004000000030440080304401803044000040440080404401804044000500F4004500F4008500F4010500F4018500F4020500F4030500F4038500F4000700F4001700F409C
:4004400010B5064C2378002B07D1054B002B02D0044800E000BF0123237010BDE0000020000000002828000008B5084B002B03D00748084900E000BF07480368002B03D0B6
:40048000064B002B00D0984708BDC0460000000028280000E4000020C80000200000000080B582B000AF01F0F7FA031C7B60054B01221A707B68181C01F0F8FABD4602B06C
:4004C00080BDC0469701002080B586B000AF78600A1CFB1C1A7000233B613B1C0E3300221A803B1C173300221A7010E03B1C17331B785B007A68D3181B883A69D3183B61CF
:400500003B1C17331A783B1C173301321A703A1C1732FB1C12781B789A42E7D3FB1C1B783869191C02F0F8F8031C1A1C3B1C0E331A803B1C0E331B88181CBD4606B080BD73
:4005400080B584B000AF7860FB1C1970BB1C1A70FB1C1B787A68D3181B785BB21A023B1C0E331A80BB1C1B787A68D3181B785BB29AB23B1C0C33111CFF220A401A803B1CE3
:400580000A33391C0E313A1C0C32098812880A431A803B1C0A3300215B5E002B00DA01335B109BB29AB23B1C0833054952181A803B1C08331B88181CBD4604B080BDC046D2
:4005C000DC05000080B584B000AF78603B1C0E33FA2252001A803B1C0E331B88181CBD4604B080BD80B500AF034B181C162100F0CFFEBD4680BDC0465401002080B586B0A7
:4006000000AF0A1CFB1D011C19703B1D1A803B1C0C33FF221A703B1C0C33FF225A703B1C0C33FA1D12789A703B1C0C330522DA703B1C0C3303221A713B1C0C331E225A7144
:400640003B1D1B88DAB23B1C0C339A713B1D1B881B0A9BB2DAB23B1C0C33DA713B1C0C339A79FB1D1B78D318DAB23B1C0C33DB79D318DBB22633DBB2DB43DAB23B1C0C3325
:400680001A723B1C0C33181C092101F02FFBBD4606B080BD80B586B000AF0A1CFB1D011C19703B1D1A803B1C0C33FF221A703B1C0C33FF225A703B1C0C33FA1D12789A70B6
:4006C0003B1C0C330522DA703B1C0C3303221A713B1C0C330E225A713B1D1B88DAB23B1C0C339A713B1D1B881B0A9BB2DAB23B1C0C33DA713B1C0C339A79FB1D1B78D318DB
:40070000DAB23B1C0C33DB79D318DBB21633DBB2DB43DAB23B1C0C331A723B1C0C33181C092101F0E3FABD4606B080BD80B586B000AF0A1CFB1D011C19703B1D1A803B1C2A
:400740000C33FF221A703B1C0C33FF225A703B1C0C33FA1D12789A703B1C0C330522DA703B1C0C3303221A713B1C0C3320225A713B1D1B88DAB23B1C0C339A713B1D1B88BA
:400780001B0A9BB2DAB23B1C0C33DA713B1C0C339A79FB1D1B78D318DAB23B1C0C33DB79D318DBB22833DBB2DB43DAB23B1C0C331A723B1C0C33181C092101F097FABD4600
:4007C00006B080BD90B583B000AF4B4B1B78012B03D060DD022B1CD05EE0FB1D00221A700AE0FB1D1A78454B52004549D152FB1D1A78FB1D01321A70FB1D1B78132BF0D907
:40080000404B00221A703E4B0220191CFFF7F6FE42E03C1D3C4B181C10211122FFF790FE031C2380374B1B781A1C344B5200391D0988D152334B1B78122B06D8314B1B7876
:400840000133DAB22F4B1A7002E02E4B00221A70BC1C2A4B181C1421FFF736FE031C2380BB1C1A88FA23DB009A420BD8BB1C1A88264B9A4206D9BB1C1B880220191CFFF76F
:40088000BDFE04E01E4B0220191CFFF7B7FE204B00221A7000E0C046174B1B78012B0CD002DC002B05D024E0022B0AD0032B14D01FE0114B01221A701BE00F4B03221A702D
:4008C00017E0134B1B78002B03D00B4B02221A700FE0094B03221A700BE00D4B1B78002B03D0054B02221A7002E0034B03221A70C046BD4603B090BD940100209C010020F0
:40090000DC0500002601002054010020E7030000FC00002090B583B000AF4B4B1B78012B03D060DD022B1CD05EE0FB1D00221A700AE0FB1D1A78454B52004549D152FB1D2E
:400940001A78FB1D01321A70FB1D1B78132BF0D9404B00221A703E4B0120191CFFF74EFE42E03C1D3C4B181C12211322FFF7E8FD031C2380374B1B781A1C344B5200391D59
:400980000988D152334B1B78122B06D8314B1B780133DAB22F4B1A7002E02E4B00221A70BC1C2A4B181C1421FFF78EFD031C2380BB1C1A88FA23DB009A420BD8BB1C1A88DB
:4009C000264B9A4206D9BB1C1B880120191CFFF715FE04E01E4B0120191CFFF70FFE204B00221A7000E0C046174B1B78012B0CD002DC002B05D024E0022B0AD0032B14D057
:400A00001FE0114B01221A701BE00F4B03221A7017E0134B1B78002B03D00B4B02221A700FE0094B03221A700BE00D4B1B78002B03D0054B02221A7002E0034B03221A701D
:400A4000C046BD4603B090BDC40100206C010020DC0500009601002054010020E7030000FD00002090B583B000AF3C1D0120FFF7A9FD031C2380784B1B78012B07D000DCB3
:400A8000B8E0022B1ED0032B00D1A4E0B3E0FB1D00221A700AE0FB1D1A78704B52007049D152FB1D1A78FB1D01321A70FB1D1B78132BF0D96B4B00221A70694B181C01F0C0
:400AC00053FC98E0BC1C684B181C0E210F22FFF737FD031C2380634B1B781A1C5F4B5200B91C0988D1525F4B1B78122B06D85D4B1B780133DAB25B4B1A7002E0594B0022FD
:400B00001A703C1C554B181C1421FFF7DDFC031C23803B1D1B88642B1FD83B1C1A88534B9A4204D84E4B181C01F01EFC4FE03B1C1A88FA23DB009A420AD83B1C1A884C4B23
:400B40009A4205D93B1C1B88181C01F00DFC3EE0434B181C01F008FC39E03B1D1A88444B9A421FD93B1C1A883D4B9A4204D93C4B181C01F0F9FB2AE03B1C1A88FA23DB0073
:400B80009A420AD83B1C1A88394B9A4205D93B1C1B88181C01F0E8FB19E0314B181C01F0E3FB14E03B1C1A88FA23DB009A420AD83B1C1A882E4B9A4205D93B1C1B88181CC9
:400BC00001F0D2FB03E0264B181C01F0CDFB294B00221A700FE03B1D1B88642B04D93B1D1A88234B9A4204D91D4B181C01F0BCFB01E000E0C046184B1B78012B0CD002DC78
:400C0000002B05D024E0022B0AD0032B14D01FE0114B01221A701BE00F4B03221A7017E0144B1B78002B03D00B4B02221A700FE0094B03221A700BE00E4B1B78002B03D0D9
:400C4000054B02221A7002E0034B03221A70C046BD4603B090BDC0469801002028010020DC0500005101002054010020DB050000E7030000FE00002090B583B000AF3C1D56
:400C80000020FFF79FFC031C23807A4B1B78012B07D000DCBCE0022B1ED0032B00D1A6E0B7E0FB1D00221A700AE0FB1D1A78724B52007249D152FB1D1A78FB1D01321A70F3
:400CC000FB1D1B78132BF0D96D4B00221A706B4B181C01F0F9FB9CE0BC1C6A4B181C0C210D22FFF72DFC031C2380654B1B781A1C614B5200B91C0988D152614B1B78122B19
:400D000006D85F4B1B780133DAB25D4B1A7002E05B4B00221A703C1C574B181C1421FFF7D3FB031C23803B1D1A888C235B009A421FD83B1C1A88544B9A4204D84F4B181C94
:400D400001F0C2FB4FE03B1C1A88FA23DB009A420AD83B1C1A884D4B9A4205D93B1C1B88181C01F0B1FB3EE0444B181C01F0ACFB39E03B1D1A88464B9A421FD93B1C1A88E7
:400D80003E4B9A4204D93D4B181C01F09DFB2AE03B1C1A88FA23DB009A420AD83B1C1A883A4B9A4205D93B1C1B88181C01F08CFB19E0324B181C01F087FB14E03B1C1A880B
:400DC000FA23DB009A420AD83B1C1A882F4B9A4205D93B1C1B88181C01F076FB03E0274B181C01F071FB2B4B00221A7011E03B1D1A888C235B009A4204D93B1D1A88244B61
:400E00009A4204D91D4B181C01F05EFB01E000E0C046184B1B78012B0CD002DC002B05D024E0022B0AD0032B14D01FE0114B01221A701BE00F4B03221A7017E0154B1B785D
:400E4000002B03D00B4B02221A700FE0094B03221A700BE00F4B1B78002B03D0054B02221A7002E0034B03221A70C046BD4603B090BDC04695010020F0010020DC05000014
:400E80005001002054010020DB050000E70300001F030000FF00002090B583B000AF4A4B1B78012B03D05EDD022B1CD05CE0FB1D00221A700AE0FB1D1A78444B520044499D
:400EC000D152FB1D1A78FB1D01321A70FB1D1B78132BF0D93F4B00221A70FA23DB00181C01F092F940E03C1D3B4B181C0A210B22FFF726FB031C2380364B1B781A1C334B94
:400F00005200391D0988D152324B1B78122B06D8304B1B780133DAB22E4B1A7002E02D4B00221A70BC1C294B181C1421FFF7CCFA031C2380BB1C1A88FA23DB009A420AD8F1
:400F4000BB1C1A88254B9A4205D9BB1C1B88181C01F05AF903E01E4B181C01F055F9204B00221A7000E0C046174B1B78012B0CD002DC002B05D024E0022B0AD0032B14D028
:400F80001FE0114B01221A701BE00F4B03221A7017E0134B1B78002B03D00B4B02221A700FE0094B03221A700BE00D4B1B78002B03D0054B02221A7002E0034B03221A7098
:400FC000C046BD4603B090BD52010020C8010020DC0500005301002054010020E70300000001002080B582B000AF002000F008FF0A2000F001FE012000F002FF012000F04E
:4010000025FFFB1D00221A700DE000F0DDFE031C002B00D00BE0042000F0EEFDFB1D1A78FB1D01321A70FB1D1B78632BEDD9234B00221A70224B00221A70224B00221A7042
:40104000214B00221A70214B00221A7001F0C2FA00F02AFC00F01AFC00F01CFE01F006FA01F0A4F801F052F9194B042001211A1C00F09AF8FE206421FFF758FB154BFE20E7
:40108000191CFFF707FB144B181C01F06DF9124B181C01F019FA114B181C00F0ADFD00F0FBFE01F01DF862B60D4B181C00F00AFC00F09AFCBD4602B080BDC04652010020E0
:4010C00094010020C4010020950100209801002087690000FF030000DC050000B80B0000A104000080B584B000AF0023FB603B1C0A33194A1A8001237B60FFF773FF00F02E
:4011000071FE031C002B12D100F00EF9FFF76AFA124B01221A70124B01221A70114B01221A70114B01221A70104B01221A70FFF7B3FEFFF7A1FDFFF795FCFFF743FBFFF7A8
:40114000E9FBC0460A4B1B78DBB2002BFAD0084B00221A70D3E7C04618FCFFFF00010020FD000020FC000020FF000020FE0000209701002080B582B000AF021CFB1D1A7025
:40118000FB1D1B78181C01F05FFAC04601F03CFA031C1A1C01231340F8D001F06FFA031C181CBD4602B080BD80B590B000AFFB1D1870BB1D19703B1D1A803A1C2832524B42
:4011C000111C1A1C1323081C111C1A1C01F01AFB3A1C14324D4B111C1A1C1223081C111C1A1C01F00FFB3B1C1433BA1D1278DA733B1D1B881B0A9BB2DAB23B1C14331A740A
:401200003B1D1B88DAB23B1C14335A743B1C0C33092000211A1C062300F0DAF93B1C28330A225A743B1C2833FA1D12789A743B1D1B881B0A9BB2DAB23B1C14331A713B1D32
:401240001B88DAB23B1C14335A713B1C2833002000211A1C132300F031F93B1C1433002001211A1C122300F029F93B1C0C33092000211A1C062300F021F9122001216422DD
:4012800000F0E2F8642000F0B7FC00F043F80020142100F05DF8002000F0D8FD0020FFF769FF0020FFF766FF1420FFF763FF3B1C3E3300221A8016E03B1C3E331B881B0A04
:4012C0009BB2DBB2181CFFF755FF3B1C3E331B88DBB2181CFFF74EFF3B1C3E331A883B1C3E3301321A803B1C3E331A88084B9A42E2D9012000F0AAFD3B1C0C335B79181C7E
:40130000BD4610B080BDC0462C28000040280000FF03000080B500AF01200121012200F063F8BD4680BDC04680B500AF02200121FF2200F059F817200021FF2200F054F8CF
:4013400015200021FF2200F04FF8BD4680BDC04680B582B000AF0A1CFB1D011C1970BB1D1A70BB1D1B782C2001211A1C00F03CF818200021012200F037F8FB1D1B7816206E
:4013800000211A1C00F030F8BD4602B080BDC04680B582B000AF78600A1CFB1C1A70114B19887A68FB1C1B78081C032100F010F92A20012100F0CCF8031C1A1C094B1A80E4
:4013C000084B1B88282001211A1C00F03DF801200121402200F008F8024B1B88181CBD4602B080BD0401002080B582B000AFBB1D18807B1D19703B1D1A70002000F026FDA6
:40140000BB1D1B881B0A9BB2DBB2181CFFF7B2FEBB1D1B88DBB2181CFFF7ACFE7B1D1B78DB00DBB204221343DBB2DBB2181CFFF7A1FE3B1D1B78181CFFF79CFE012000F0CA
:4014400005FDBD4602B080BD80B582B000AFBB1D18807B1D1970BB1C1A80002000F0F6FCBB1D1B881B0A9BB2DBB2181CFFF782FEBB1D1B88DBB2181CFFF77CFE7B1D1B7863
:40148000DB00DBB204221343DBB2DBB2181CFFF771FEBB1C1B881B0A9BB2DBB2181CFFF769FEBB1C1B88DBB2181CFFF763FE012000F0CCFCBD4602B080BDC04680B584B0BF
:4014C00000AF3A601A1CBB1D18807B1D19703B1D1A70002000F0BAFCBB1D1B881B0A9BB2DBB2181CFFF746FEBB1D1B88DBB2181CFFF740FE7B1D1B78DB00DBB204221343CD
:40150000DBB2DBB2181CFFF735FE3B1C0F3300221A700FE03B1C0F331B783A68D3181B78181CFFF727FE3B1C0F331A783B1C0F3301321A703A1C0F323B1D12781B789A42FC
:40154000E8D3012000F082FCBD4604B080BDC04680B584B000AF0A1CBB1D011C19807B1D1A70002000F072FCBB1D1B881B0A9BB2DBB2181CFFF7FEFDBB1D1B88DBB2181CE0
:40158000FFF7F8FD7B1D1B78DB00DBB2181CFFF7F1FD0020FFF7EEFD031C1A1C3B1C0E3312021A800020FFF7E5FD031C191C3B1C0E333A1C0E3212880A431A80012000F0ED
:4015C00045FC3B1C0E331B88181CBD4604B080BD90B585B000AF3A601A1CBB1D18807B1D19703B1D1A70002000F030FCBB1D1B881B0A9BB2DBB2181CFFF7BCFDBB1D1B88C7
:40160000DBB2181CFFF7B6FD7B1D1B78DB00DBB2181CFFF7AFFD3B1C0F3300221A7010E03B1C0F331B783A68D4180020FFF7A2FD031C23703B1C0F331A783B1C0F3301328A
:401640001A703A1C0F323B1D12781B789A42E7D3012000F0FBFBBD4605B090BD80B500AFFEE7C04680B586B000AF224B7B61224B3B61204B7B6135E03B691B68FB603B6975
:401680005B68BB603B699B683B6000237B600CE0FB681A68BB681A60BB680433BB60FB680433FB607B6804337B607A683B689A42EED13B69DB683B6000237B6008E0BB6894
:4016C00000221A60BB680433BB607B6804337B607A683B689A42F2D13B6910333B617B69013B7B617B69002BC6D101F065F8FFF7F9FCFEE701000000102B000080B582B0DA
:4017000000AF00237B600FE07B68032B04D8104B7A689200D35800E00E4B0F4A796889008B507B6801337B607B682F2BECD9FEF741FD0A4B00221A608023DB058022D2053B
:40174000126801210A431A60BD4602B080BDC046000000005D16000000000020C000002080B582B000AF786039607A683B68101C00211A1C01F04FF8BD4602B080BDC046DC
:4017800080B584B000AFF860B9607A60F968BA687B68081C111C1A1C01F034F8BD4604B080BDC04680B586B000AF7860396000233B6100237B612EE07B699B007A68D3181F
:4017C0001B68BB603B1C0F33BA681A70BB68FF229343BB6017E03B695B003A68D3181B781A1CBB68D3183A69520039688A1852781A703B6901333B613B1C0F331A783B1CF5
:401800000F33013A1A703B1C0F331B78002BE2D17B6901337B617B69082BCDD9BD4606B080BDC04680B500AF054B064A1A60064B044A1A60012000F009F8BD4680BDC0467B
:4018400000031A400300040040031A4080B584B000AF021CFB1D1A700B4B1B68FB60FB1D1B78002B05D0FB68802212061343FB6003E0FB685B005B08FB60034BFA681A6059
:40188000BD4604B080BDC04680031A4080B500AF044B044A1268802109060A431A60BD4680BDC0468000024080B500AF044B044A1268802109060A431A60BD4680BDC0461F
:4018C0004400024080B582B000AF786000F04AF87B68181C00F008F8032000F013F800F037F8BD4602B080BD80B582B000AF7860034A8C237968D150BD4602B080BDC04628
:401900000000002090B585B000AF021CFB1D1A701E23FB603C1C0B3400F0E0F8031C23700A4B0A4A126892009108FA1D1078FA68041C9440221C0A431A603B1C0B331B7881
:40194000181C00F0CFF8BD4605B090BD10E400E080B500AF024B802212031A60BD4680BD00E100E080B500AF024B802212031A60BD4680BD80E100E080B500AF094B802283
:4019800092041A60084B0C221A60012000F078F8064B181C00F048F8002000F037F8BD4680BDC046C0010540E40105401027000090B583B000AFFC1D00F090F8031C237090
:4019C000084B084A126808210A431A60FB1D1B78181C00F087F80820182100F033F8BD4603B090BD0000054080B500AF064B1B78002B04D1FFF7C0FF034B01221A70FFF758
:401A0000D7FFBD4680BDC0460601002080B582B000AF7860034B7A681204120C1A60BD4602B080BDC801054080B582B000AF7860034B7A681204120C1A60BD4602B080BDD9
:401A4000D401054090B585B000AF786039603C1C0F3400F043F8031C2370084B3A687968081C9040021C1A603B1C0F331B78181C00F038F8BD4605B090BDC0460800054000
:401A800080B582B000AF7860024B7A681A60BD4602B080BDF801054080B500AF024B1B68181CBD4680BDC046FC01054080B582B000AF7860024B7A681A60BD4602B080BD66
:401AC000F0010540000000000230800804D0C0460138FDD1C046C046C0467047EFF3108072B6704780F310887047C046C046C04680B584B000AF021C3960FB1D1A70802313
:401B00009B05FB60FB1D1B781F2B02D9002000F069F8FB1D1B7810339B00FA68D3181B68BB60FB1D1B7810339B00FA68D3183A681A60BB68181CBD4604B080BD90B587B03C
:401B400000AF0A1CFB1D011C1970BB1D1A70BB1D1B78032B02D9002000F044F8FB1D1B781F2B02D9002000F03DF8FB1D1A7803231340DB0006337B613C1C1334FFF7AEFF46
:401B8000031C2370FB1D1B789B08DBB29B0014495B181B68FB607B690322111C99400B1CDA43FB681340FB60BB1D1A787B69111C99400B1CFA681343FB60FB1D1B789B080F
:401BC000DBB29B00064A9B18FA681A603B1C13331B78181CFFF786FFBD4607B090BDC04600E400E080B582B000AF021CFB1D1A7001BEBD4602B080BD80B582B000AF7860B9
:401C000008E00C4B1B68181CFFF75EFF7B680A4A9B187B607A6880231B029A42F1D8074B1B687A685343181CFFF74EFFBD4602B080BDC046DC0000200080FFFFD400002025
:401C400080B582B000AF021CBB1D1A80BB1D1B88044A12785343181CFFF736FFBD4602B080BDC046D800002080B500AF00F058F8BD4680BD80B500AF054B054A1268802184
:401C800009060A431A6000F017F8BD4680BDC0460000064080B500AF064B1B78002B04D1FFF7E2FF034B01221A70FFF7E3FFBD4680BDC0460801002080B500AFBD4680BDBE
:401CC00080B582B000AF7860C046064B1A680F231340082BF9D0044B7A681A60BD4602B080BDC046080206404002064080B584B000AF786039600023FB6009E07A68FB68EC
:401D0000D3181B78181CFFF7DBFFFB680133FB60FA683B689A42F1D3BD4604B080BDC04680B500AF174B184A1A60184B00221A60174B01221A60174B174A1A60174B0722A8
:401D40001A60174B00221A60164B01221A60164B114A1A60154B00221A60154B00221A60144B00221A60144B00221A60134B00221A60134B00221A60124B00221A60BD46D9
:401D800080BDC046000006400B000002400006404800064000030640070000800403064010030640440006400002064004020640880E0640C80E0640480F0640080F0640F3
:401DC000C80F0640880F064080B500AF044B1A68022313405B08DBB2181CBD4680BDC0460400044080B500AF044B1B68DAB201231340DBB2181CBD4680BDC0460400044002
:401E000080B584B000AF021CFB1D1A700E4B1B68DAB23B1C0F3304218A431A70FB1D1B789B00DAB204231340D9B23B1C0F333A1C0F3212780A431A70034B3A1C0F32127876
:401E40001A60BD4604B080BD0000044080B584B000AF021CFB1D1A700E4B1B68DAB23B1C0F3308218A431A70FB1D1B78DB00DAB208231340D9B23B1C0F333A1C0F32127882
:401E80000A431A70034B3A1C0F3212781A60BD4604B080BD0000044080B500AF064B1B78002B04D100F00AF8034B01221A7000F003F9BD4680BDC0461001002090B585B098
:401EC00000AF0E200321FFF739FE604B0E20191CFFF70EFE5E4B07221A605E4B5E4A1A605E4B5F4A1A605F4B5F4A1A605F4B8022D2051A605E4B5F4A1A605F4B5D4A1A60C0
:401F00005E4B5E4A1268802149020A431A605C4B5B4A1268802149020A431A60594B00221A60594B00221A60584B01221A60584B02221A60574B1B687B607A68564B1340D3
:401F40007B607B68012213437B60524B7A681A600023FB6073E0514BFA689200D258DC239B0113407B604E4AFB68D3181B787A6813437B60FB689B004A4A9B187A681A60D5
:401F8000464BFA689200D258012313400AD03D4B3C4A1168FA680120041C9440221C92B20A431A603D4BFA689200D258022313400AD0354B344A1168FA680120041C9440F4
:401FC000221C92B20A431A60344BFA689200D25880239B00134003D080235B00BB6002E080235B01BB602D4BFA689200D25880235B00134005D12C4BFA6852000021D15256
:4020000009E0BB68002B00DA01335B1099B2264BFA685200D152BB68244A53438022D2009B18002B01DA224C1B19DB129BB219B2204BFA689200D150FB680133FB60FB688D
:40204000022B88D9BD4605B090BDC046FD20000020001A4000001A404020001304001A408400008018001A400000FF071C001A4010001A400200020014001A4000031A40DA
:4020800040031A4028021A4038021A4018021A40000F1A4030001A40FFFFFFDFDC2A0000E82A000080001A402802002010270000FF0700001C02002080B500AF074B1B68B8
:4020C000002B09DB054B054A1268802109060A431A600A20FFF7B4FDBD4680BD00001A4080B500AF044B044A1268802149020A431A60BD4680BDC04604001A4080B582B01D
:4021000000AF044B1B687B60024B7A681A60BD4602B080BD10021A4080B500AF104B8022D2041A600E4B0E4A12681A60002000F04FF80B4B0A4A12681A600A4B0C221A6074
:40214000012000F08DF8084B31221A60074B181C00F04CF8064B181C00F056F8BD4680BD400105406401054068010540204E0000DC05000090B583B000AFFC1DFFF7AEFCDF
:40218000031C2370084B084A126802210A431A60FB1D1B78181CFFF7A5FC0220182100F041F8BD4603B090BD0000054080B500AF064B1B78002B04D1FFF7AEFF034B012246
:4021C0001A70FFF7D7FFBD4680BDC0461101002080B582B000AF7860034B7A681204120C1A60BD4602B080BD4801054080B582B000AF7860034B7A681204120C1A60BD46F6
:4022000002B080BD5401054080B582B000AF7860034B7A681204120C1A60BD4602B080BD4C01054090B585B000AF786039603C1C0F34FFF753FC031C2370084B3A687968C3
:40224000081C9040021C1A603B1C0F331B78181CFFF748FCBD4605B090BDC0460800054080B582B000AF7860024B7A681A60BD4602B080BD7801054080B500AF104B8022B8
:40228000D2041A600E4B0E4A12681A60002000F04FF80B4B0A4A12681A600A4B0C221A60012000F08DF8084B31221A60074B181C00F04CF8064B181C00F056F8BD4680BDC4
:4022C00080010540A4010540A8010540204E0000DC05000090B583B000AFFC1DFFF7FEFB031C2370084B084A126804210A431A60FB1D1B78181CFFF7F5FB0420182100F0F3
:4023000041F8BD4603B090BD0000054080B500AF064B1B78002B04D1FFF7AEFF034B01221A70FFF7D7FFBD4680BDC0461201002080B582B000AF7860034B7A681204120C1F
:402340001A60BD4602B080BD8801054080B582B000AF7860034B7A681204120C1A60BD4602B080BD9401054080B582B000AF7860034B7A681204120C1A60BD4602B080BDCD
:402380008C01054090B585B000AF786039603C1C0F34FFF7A3FB031C2370084B3A687968081C9040021C1A603B1C0F331B78181CFFF798FBBD4605B090BDC046080005402D
:4023C00080B582B000AF7860024B7A681A60BD4602B080BDB801054080B500AF104B8022D2041A600E4B0E4A12681A60002000F04FF80B4B0A4A12681A600A4B0C221A608E
:40240000012000F08DF8084B31221A60074B181C00F04CF8064B181C00F056F8BD4680BD000105402401054028010540204E0000DC05000090B583B000AFFC1DFFF74EFB3D
:40244000031C2370084B084A126801210A431A60FB1D1B78181CFFF745FB0120182100F041F8BD4603B090BD0000054080B500AF064B1B78002B04D1FFF7AEFF034B0122E6
:402480001A70FFF7D7FFBD4680BDC0461301002080B582B000AF7860034B7A681204120C1A60BD4602B080BD0801054080B582B000AF7860034B7A681204120C1A60BD4671
:4024C00002B080BD1401054080B582B000AF7860034B7A681204120C1A60BD4602B080BD0C01054090B585B000AF786039603C1C0F34FFF7F3FA031C2370084B3A687968E3
:40250000081C9040021C1A603B1C0F331B78181CFFF7E8FABD4605B090BDC0460800054080B582B000AF7860024B7A681A60BD4602B080BD3801054080B500AF084B0F2210
:402540001A7000F0ABF800F05FF800F06DF8054B00221A70044B00221A70BD4680BDC04681000F4080000F4082000F4090B583B000AFFC1DFFF7B2FA031C2370124B124AA8
:402580001278D2B220210A43D2B21A700F4B0F4A1278D2B210210A43D2B21A700C4B0C4A1278D2B210210A43D2B21A70FB1D1B78181CFFF797FA00F0A1F800F01DF800F0F9
:4025C0001FF8BD4603B090BD91000F4090000F4092000F4080B500AF064B1B78002B04D1FFF7AAFF034B01221A70FFF7BFFFBD4680BDC0461401002080B500AFBD4680BD6C
:4026000080B500AFBD4680BD80B582B000AF054AFB1D12781A70FB1D1B78181CBD4602B080BDC04660000F4080B582B000AF054AFB1D12781A70FB1D1B78181CBD4602B03A
:4026400080BDC04662000F4080B582B000AF021CFB1D1A70C046074B1B78DBB21A1C04231340F8D0044BFA1D12781A70BD4602B080BDC04660000F4042000F4080B582B087
:4026800000AF054AFB1D12781A70FB1D1B78181CBD4602B080BDC04652000F4090B583B000AF01E0124B1B78124B1B78DBB21A1C20231340F6D1FC1DFFF710FA031C2370A5
:4026C0000D4B0D4A1278D2B201210A43D2B21A70094B094A1278D2B201218A43D2B21A70FB1D1B78181CFFF7FDF9BD4603B090BD52000F4062000F4092000F4080B500AF09
:40270000044B044A1268802109060A431A60BD4680BDC04600000240002934D00123002210B488422CD301242407A14204D2814202D209011B01F8E7E400A14204D281427E
:4027400002D249005B00F8E7884201D3401A1A434C08A04202D3001B5C0822438C08A04202D3001B9C082243CC08A04202D3001BDC082243002803D01B0901D00909E3E794
:40278000101C10BC7047002801D00020C04307B4024802A14018029003BDC046190000000029F0D003B5FFF7B9FF0EBC4243891A1847C0467047C04670B50E4B0E4D00247D
:4027C000ED1AAD101E1CAC4204D0A300F35898470134F8E700F08AF9084B094D0024ED1AAD101E1CAC4204D0A300F35898470134F8E770BDF82A0000F82A0000F82A0000C4
:40280000002B000010B50023934203D0CC5CC4540133F9E710BD031C8218934202D019700133FAE7704700000000000000C0A80101FFFFFF000008DCFFFFFFC0A801FE0058
:402840000200FF00FE01000000000000C0A80101698700000A090000255809000400000000300F40000280320F40800100400F400004000000320F405C2A00008000000044
:4028800001000F4042300F4029310F400E320F4048330F4006400F4008410F400A430F4002600F40810F08020A0D1413160C2015220A24192606300F320F36103A0A3E403F
:4028C000540958045B045F0180848110836085CD8807898D8A388B408C0A8DCD8E1090609112936494019572970898569A099C849D029F0DA004A1CDA280A480A501A6046D
:40290000A732A884AB80AC04AD4DAF80B080B170B27FB380B70FB808BB82BE01BF04D602D72CD804D904DB04DF010010051007420B200C820E200F04133A1795181019425D
:402940001D031E202501268027A02D012F1A3680370A3C803D023E1459295A80614065026D016E146F5774C08A10C0D2C2F4C4FCCAF0CCD0CEF0D60FD888E28085088710DC
:40298000890899029B149D1C9F02B301B50EB710BB20BF44D904DF010401061007090C800D200E4017561D301E401F1020142240230C240225402680272229202A102C8022
:4029C0002E102F1031103280376938043A103C013D823E043F20452247084C014D094E0854025610571864066710880689018B088C109214931096C097249B559D389F0ADA
:402A0000A080A103A208A402A708B208B640C0F0C2D0C4F0CAE0CCFCCEF6D0E0D230D870E280E604EC80EE400D04620164088808C220D8C05380572083208B80B104B601C9
:402A4000D460E62019081F016608830189088E08C60CD801E008E201100111010808000010080002080217000821105800080102002C00431E700000180A0000040A0B000A
:402A8000101308240802100818000000030000711C00000F00080080000000005302400006FEC0BD3BFFFFFF2200F008040000004000000004040404000000010000C000E9
:402AC00040011011C0010011400140010000000000000000000000000000000002000000020000000000000000017200F8B5C046F8BC08BC9E46704769040000FD16000063
:402B0000F8B5C046F8BC08BC9E46704741040000202B0000C8000020180000005001000000000000C0F1FF0F00366E01C05D0000180000000000E02E000000000000000047
:402B40000000000000000000000000000000000000000000000000000000000000000000000000000000000000000000000000000000000000000000000000000000000055
:402B80000000000000000000000000000000000000000000000000000000000000000000000000000000000000000000000000000000000000000000000000000000000015
:402BC00000000000000000000000000000000000000000000000000000000000000000000000000000000000000000000000000000000000000000000000000000000000D5
:402C00000000000000000000000000000000000000000000000000000000000000000000000000000000000000000000000000000000000000000000000000000000000094
:0200000490303A
:020000006ABDD7
:0200000490402A
:200000000000000000000000000000000000000000000000000000000000000000000000E0
:0200000490501A
:0C000000000204C81193110104D67C50CA
:0200000490600A
:0100000001FE
:00000001FF