:400000000010002011000000111500001115000080B500AF01F080FA80B584B000AF021CFB1D1A70204A3B1C0B3312781A701F4A3B1C0A3312781A700423013BFB6018E032
:400040001B4B1868391C0B31FA68131C5B009B18C3185B780B70164B1868391C0A31FA68131C5B009B18C3189B780B70FB68013BFB60FB68002B0ADB0D4B1968FA68131CF1
:400080005B009B185B5CFA1D12789A42D8D9094B3A1C0B3212781A60074B3A1C0A3212781A60BD4604B080BDCCF1FF0FCDF1FF0FCC0000201CFF0B4020FF0B4080B500AF4F
:4000C000254B254A12688021C9020A431A601820FFF7A2FF214B19221A60052001F03CFC1F4B204A1278D2B21A60052001F0F0FC194B194A11681C4A0A401A601B4B1C4AA2
:400100001A601C4B20221A601B4B10221A601B4B11221A601A4B21221A601A4B21221A60194B21221A60194B30221A60184B822212061A60174B802212061A60164B174A77
:400140001A60174B174A1A60174B164A1A60174B144A1A60BD4680BD00010B402CFF0B4028FF0B40E5F1FF0FFFFFFBFF04010B4006000080080202400C0202401C02024030
:400180002002024024020240280202402C02024008010B400000024040000240100000808000024017000080040002404400024080B582B000AF72B6FB1D00221A7023E0C5
:4001C000FB1D1A78131C5B009B185B004D4A9B183B603B681A78597809020A43997809040A43DB781B0613431A1C3B6819795B791B020B439BB2101C191C01F00BFAFB1DDF
:400200001A78FB1D01321A70FB1D1B78012BD7D93D4A3E4B101C191C01F00CFA3C4B3D4A1A603D4BCE2292001A603C4B3C4A1A603C4B99221A603C4B20221A603B4B3C4ACA
:400240001A603C4B20221A603B4B07221A603B4BDB2252001A603A4B03221A60394B03221A60394B80221A60384BD82212011A60374B80221A60374B02221A60364B3122C6
:400280001A60364B02221A60354B992212041A60344BA02212031A60334B992212041A60324B902212031A60314B992212041A60304B992212041A602F4B802212061A6048
:4002C0002E4B2E4A1278D2B202210A43D2B21A702B4B2B4A1278D2B20C218A43D2B204210A43D2B21A70254B244A1278D2B216210A43D2B21A70FFF7E1FE01F0DBF9BD466F
:4003000002B080BDD8240000E4240000FC240000000001400000FFFF040001400C00014000EE0060100001400000044008000440891D2700180004400001044008010440EF
:40034000000204401802044000030440080304401803044000040440080404401804044000500F4004500F4010500F4018500F4020500F4030500F4038500F4000700F4020
:4003800001700F4010B5064C2378002B07D1054B002B02D0044800E000BF0123237010BDE000002000000000A024000008B5084B002B03D00748084900E000BF0748036841
:4003C000002B03D0064B002B00D0984708BDC04600000000A0240000E4000020C80000200000000080B582B000AF01F09DFA031C7B60054B01221A707B68181C01F09EFA24
:40040000BD4602B080BDC0468401002080B586B000AF78600A1CFB1C1A7000233B613B1C0E3300221A803B1C173300221A7010E03B1C17331B785B007A68D3181B883A6974
:40044000D3183B613B1C17331A783B1C173301321A703A1C1732FB1C12781B789A42E7D3FB1C1B783869191C01F092FF031C1A1C3B1C0E331A803B1C0E331B88181CBD4600
:4004800006B080BD80B586B000AFF8607A601A1C3B1C0B3319703B1C0A331A703B1C0A331B787A68D3181B785BB21A023B1C16331A803B1C20331B787A68D3181B785BB2F7
:4004C0009AB23B1C1433111CFF220A401A803B1C1233391C16313A1C1432098812880A431A803B1C123300229B5E002B00DA01335B109BB29BB2094A9B189AB23B1C103319
:400500001A803B1C0B331B785B00FA68D3183A1C103212881A80BD4606B080BDDC05000080B584B000AF78603B1C0E33FA2252001A803B1C0E331B88181CBD4604B080BDBB
:4005400080B582B000AFFB1D00221A70FB1D00221A700CE0FB1D1B78FA1D12780749895C074AD154FB1D1A78FB1D01321A70FB1D1B780D2BEED9BD4602B080BD0C010020B2
:400580004801002080B586B000AF0A1CFB1D011C19703B1D1A803B1C0C33FF221A703B1C0C33FF225A703B1C0C33FA1D12789A703B1C0C330522DA703B1C0C3303221A7192
:4005C0003B1C0C331E225A713B1D1B88DAB23B1C0C339A713B1D1B881B0A9BB2DAB23B1C0C33DA713B1C0C339A79FB1D1B78D318DAB23B1C0C33DB79D318DBB22633DBB245
:40060000DB43DAB23B1C0C331A723B1C0C33181C092101F0B3FABD4606B080BD80B586B000AF0A1CFB1D011C19703B1D1A803B1C0C33FF221A703B1C0C33FF225A703B1C5D
:400640000C33FA1D12789A703B1C0C330522DA703B1C0C3303221A713B1C0C330E225A713B1D1B88DAB23B1C0C339A713B1D1B881B0A9BB2DAB23B1C0C33DA713B1C0C331A
:400680009A79FB1D1B78D318DAB23B1C0C33DB79D318DBB21633DBB2DB43DAB23B1C0C331A723B1C0C33181C092101F067FABD4606B080BD80B586B000AF0A1CFB1D011C50
:4006C00019703B1D1A803B1C0C33FF221A703B1C0C33FF225A703B1C0C33FA1D12789A703B1C0C330522DA703B1C0C3303221A713B1C0C3320225A713B1D1B88DAB23B1CAE
:400700000C339A713B1D1B881B0A9BB2DAB23B1C0C33DA713B1C0C339A79FB1D1B78D318DAB23B1C0C33DB79D318DBB22833DBB2DB43DAB23B1C0C331A723B1C0C33181CEA
:40074000092101F01BFABD4606B080BD90B585B002AF484B1B78012B03D059DD022B17D057E0FB1D00221A700AE0FB1D1A78424B52004249D152FB1D1A78FB1D01321A701E
:40078000FB1D1B78132BF0D93D4B00221A7040E03B4B1A7838493B4B0B200090081C111C1A1C0A23FFF76EFE354B1B78122B06D8334B1B780133DAB2314B1A7002E0304BE1
:4007C00000221A703C1D2C4B181C1421FFF71EFE031C23803B1D1A88FA23DB009A420BD83B1D1A88284B9A4206D93B1D1B880220191CFFF7C7FE04E0204B0220191CFFF7BE
:40080000C1FE224B1B780133DAB2204B1A7000E0C046184B1B78012B0CD002DC002B05D024E0022B0AD0032B14D01FE0114B01221A701BE00F4B03221A7017E0144B1B7870
:40084000002B03D00B4B02221A700FE0094B03221A700BE00E4B1B78002B03D0054B02221A7002E0034B03221A70C046BD4603B090BDC0468001002088010020DC05000098
:400880001A01002048010020E7030000860100208301002090B585B002AF484B1B78012B03D059DD022B17D057E0FB1D00221A700AE0FB1D1A78424B52004249D152FB1D91
:4008C0001A78FB1D01321A70FB1D1B78132BF0D93D4B00221A7040E03B4B1A7838493B4B0D200090081C111C1A1C0C23FFF7CAFD354B1B78122B06D8334B1B780133DAB23D
:40090000314B1A7002E0304B00221A703C1D2C4B181C1421FFF77AFD031C23803B1D1A88FA23DB009A420BD83B1D1A88284B9A4206D93B1D1B880120191CFFF723FE04E01B
:40094000204B0120191CFFF71DFE224B1B780133DAB2204B1A7000E0C046184B1B78012B0CD002DC002B05D024E0022B0AD0032B14D01FE0114B01221A701BE00F4B03228F
:400980001A7017E0144B1B78002B03D00B4B02221A700FE0094B03221A700BE00E4B1B78002B03D0054B02221A7002E0034B03221A70C046BD4603B090BDC046B00100203E
:4009C00058010020DC0500008201002048010020E7030000860100208301002090B585B002AF3C1D0120FFF79BFD031C2380754B1B78012B07D000DCB2E0022B1AD0032B5E
:400A000000D19EE0ADE0FB1D00221A700AE0FB1D1A786D4B52006D49D152FB1D1A78FB1D01321A70FB1D1B78132BF0D9684B00221A7096E0664B1A786349664B0920009040
:400A4000081C111C1A1C0823FFF71CFD604B1B78122B06D85E4B1B780133DAB25C4B1A7002E05B4B00221A70BC1C574B181C1421FFF7CCFC031C23803B1D1B88642B1FD817
:400A8000BB1C1A88544B9A4204D8504B181C01F097FB4FE0BB1C1A88FA23DB009A420AD8BB1C1A884D4B9A4205D9BB1C1B88181C01F086FB3EE0454B181C01F081FB39E063
:400AC0003B1D1A88454B9A421FD9BB1C1A883F4B9A4204D93D4B181C01F072FB2AE0BB1C1A88FA23DB009A420AD8BB1C1A883B4B9A4205D9BB1C1B88181C01F061FB19E0DC
:400B0000324B181C01F05CFB14E0BB1C1A88FA23DB009A420AD8BB1C1A88304B9A4205D9BB1C1B88181C01F04BFB03E0274B181C01F046FB2A4B1B780133DAB2284B1A7086
:400B40000FE03B1D1B88642B04D93B1D1A88234B9A4204D91D4B181C01F032FB01E000E0C046184B1B78012B0CD002DC002B05D024E0022B0AD0032B14D01FE0114B012206
:400B80001A701BE00F4B03221A7017E0154B1B78002B03D00B4B02221A700FE0094B03221A700BE00F4B1B78002B03D0054B02221A7002E0034B03221A70C046BD4603B05A
:400BC00090BDC046850100201C010020DC0500004501002048010020DB050000E7030000860100208301002090B585B002AF3C1D0020FFF795FC031C2380774B1B78012B8C
:400C000007D000DCB6E0022B1AD0032B00D1A0E0B1E0FB1D00221A700AE0FB1D1A786F4B52006F49D152FB1D1A78FB1D01321A70FB1D1B78132BF0D96A4B00221A709AE0F9
:400C4000684B1A786549684B07200090081C111C1A1C0623FFF716FC624B1B78122B06D8604B1B780133DAB25E4B1A7002E05D4B00221A70BC1C594B181C1421FFF7C6FB01
:400C8000031C23803B1D1A888C235B009A421FD8BB1C1A88554B9A4204D8514B181C01F03FFB4FE0BB1C1A88FA23DB009A420AD8BB1C1A884E4B9A4205D9BB1C1B88181CF7
:400CC00001F02EFB3EE0464B181C01F029FB39E03B1D1A88474B9A421FD9BB1C1A88404B9A4204D93E4B181C01F01AFB2AE0BB1C1A88FA23DB009A420AD8BB1C1A883C4BB0
:400D00009A4205D9BB1C1B88181C01F009FB19E0334B181C01F004FB14E0BB1C1A88FA23DB009A420AD8BB1C1A88314B9A4205D9BB1C1B88181C01F0F3FA03E0284B181CD3
:400D400001F0EEFA2C4B1B780133DAB22A4B1A7011E03B1D1A888C235B009A4204D93B1D1A88244B9A4204D91D4B181C01F0D8FA01E000E0C046184B1B78012B0CD002DCFF
:400D8000002B05D024E0022B0AD0032B14D01FE0114B01221A701BE00F4B03221A7017E0164B1B78002B03D00B4B02221A700FE0094B03221A700BE0104B1B78002B03D054
:400DC000054B02221A7002E0034B03221A70C046BD4603B090BDC04681010020DC010020DC0500004401002048010020DB050000E70300001F030000860100208301002082
:400E000090B585B002AF474B1B78012B03D057DD022B17D055E0FB1D00221A700AE0FB1D1A78414B52004149D152FB1D1A78FB1D01321A70FB1D1B78132BF0D93C4B002229
:400E40001A703EE03A4B1A7837493A4B05200090081C111C1A1C0423FFF714FB344B1B78122B06D8324B1B780133DAB2304B1A7002E02F4B00221A703C1D2B4B181C142104
:400E8000FFF7C4FA031C23803B1D1A88FA23DB009A420AD83B1D1A88274B9A4205D93B1D1B88181C01F0DCF803E0204B181C01F0D7F8224B1B780133DAB2204B1A7000E01B
:400EC000C046184B1B78012B0CD002DC002B05D024E0022B0AD0032B14D01FE0114B01221A701BE00F4B03221A7017E0144B1B78002B03D00B4B02221A700FE0094B032294
:400F00001A700BE00E4B1B78002B03D0054B02221A7002E0034B03221A70C046BD4603B090BDC04646010020B4010020DC0500004701002048010020E703000086010020E7
:400F40008301002080B500AF214B00221A70214B00221A70204B00221A70204B00221A701F4B00221A7000F0E7FB00F0D7FB00F0D9FD01F0A7F901F045F801F0F3F8194B1C
:400F8000042001211A1C00F0F1F8FE206421FFF791FB154BFE20191CFFF740FB134B181C01F00EF9114B181C01F0BAF9104B181C00F06AFD00F076FE00F098FF62B60D4BD4
:400FC000181C00F0C7FB00F057FCBD4680BDC0464601002080010020B0010020810100208501002087690000FF030000DC050000B80B0000E503000080B584B000AF0023A8
:401000003B603B1C0C33454A1A80454B00221A700123BB60FFF796FF414B1B78002B0AD0FFF78EFA3F4B01221A703F4B00221A703B4B00221A70FFF7E3FEFFF7D5FDFFF77A
:40104000CDFCFFF783FBFFF725FC374B1B78052B03D1344B00221A70FFE7C046334B1B78002BFBD0314B00221A703B1C0F331A783B1C0F3301321A703B1C0F331B78322BB3
:401080004AD1BB68002B12D03B1C0C331B8864339AB23B1C0C331A803B1C0C3300215A5EFA239B009A4213D10023BB6010E03B1C0C331B88643B9AB23B1C0C331A803B1CD9
:4010C0000C3300215A5E154B9A4201D10123BB6000237B6015E03B1C0C3300229B5E1B129BB2DAB212497B68CB181A707B6801333A1C0C321288D1B20D4AD1547B680233DA
:401100007B607B680D2BE6DD3B1C0F3300221A70034B01221A707FE77EE7C04618FCFFFF040200208301002086010020840100200C01002080B582B000AF021CFB1D1A70BA
:40114000FB1D1B78181C00F0FDFEC046064B1A6801231340FAD100F0E5FE031CDBB2181CBD4602B080BDC0462400074080B590B000AFFB1D1870BB1D19703B1D1A803A1C07
:4011800028324E4B111C1A1C1323081C111C1A1C01F074F93A1C1432494B111C1A1C1223081C111C1A1C01F069F93B1C1433BA1D1278DA733B1D1B881B0A9BB2DAB23B1C80
:4011C00014331A743B1D1B88DAB23B1C14335A743B1C0C33092000211A1C062300F052F93B1C2833FA1D12789A743B1D1B881B0A9BB2DAB23B1C14331A713B1D1B88DAB2A3
:401200003B1C14335A713B1C2833002000211A1C132300F0EDF83B1C1433002001211A1C122300F0E5F83B1C0C33092000211A1C062300F0DDF812200121642200F09EF895
:40124000642000F021FC00F03FF80020142100F045F8002000F000FD0020FFF76BFF0020FFF768FF1420FFF765FF3B1C3E3300221A8016E03B1C3E331B881B0A9BB2DBB2B8
:40128000181CFFF757FF3B1C3E331B88DBB2181CFFF750FF3B1C3E331A883B1C3E3301321A803B1C3E331A88064B9A42E2D9012000F0D2FCBD4610B080BDC046A42400003F
:4012C000B8240000FF03000080B500AF01200121012200F023F8BD4680BDC04680B582B000AF0A1CFB1D011C1970BB1D1A70BB1D1B782C2001211A1C00F010F818200021B9
:40130000012200F00BF8FB1D1B78162000211A1C00F004F8BD4602B080BDC04680B582B000AFBB1D18807B1D19703B1D1A70002000F092FCBB1D1B881B0A9BB2DBB2181CA6
:40134000FFF7F8FEBB1D1B88DBB2181CFFF7F2FE7B1D1B78DB00DBB204221343DBB2DBB2181CFFF7E7FE3B1D1B78181CFFF7E2FE012000F071FCBD4602B080BD80B582B05B
:4013800000AFBB1D18807B1D1970BB1C1A80002000F062FCBB1D1B881B0A9BB2DBB2181CFFF7C8FEBB1D1B88DBB2181CFFF7C2FE7B1D1B78DB00DBB204221343DBB2DBB289
:4013C000181CFFF7B7FEBB1C1B881B0A9BB2DBB2181CFFF7AFFEBB1C1B88DBB2181CFFF7A9FE012000F038FCBD4602B080BDC04680B584B000AF3A601A1CBB1D18807B1DB9
:4014000019703B1D1A70002000F026FCBB1D1B881B0A9BB2DBB2181CFFF78CFEBB1D1B88DBB2181CFFF786FE7B1D1B78DB00DBB204221343DBB2DBB2181CFFF77BFE3B1C08
:401440000F3300221A700FE03B1C0F331B783A68D3181B78181CFFF76DFE3B1C0F331A783B1C0F3301321A703A1C0F323B1D12781B789A42E8D3012000F0EEFBBD4604B0D9
:4014800080BDC04690B585B000AF3A601A1CBB1D18807B1D19703B1D1A70002000F0DCFBBB1D1B881B0A9BB2DBB2181CFFF742FEBB1D1B88DBB2181CFFF73CFE7B1D1B781B
:4014C000DB00DBB2181CFFF735FE3B1C0F3300221A7010E03B1C0F331B783A68D4180020FFF728FE031C23703B1C0F331A783B1C0F3301321A703A1C0F323B1D12781B78BD
:401500009A42E7D3012000F0A7FBBD4605B090BD80B500AFFEE7C04680B586B000AF224B7B61224B3B61204B7B6135E03B691B68FB603B695B68BB603B699B683B6000235D
:401540007B600CE0FB681A68BB681A60BB680433BB60FB680433FB607B6804337B607A683B689A42EED13B69DB683B6000237B6008E0BB6800221A60BB680433BB607B6824
:4015800004337B607A683B689A42F2D13B6910333B617B69013B7B617B69002BC6D100F047FFFFF729FDFEE7010000006825000080B582B000AF00237B600FE07B68032BF7
:4015C00004D8104B7A689200D35800E00E4B0F4A796889008B507B6801337B607B682F2BECD9FEF7E5FD0A4B00221A608023DB058022D205126801210A431A60BD4602B06E
:4016000080BDC046000000001115000000000020C000002080B582B000AF786039607A683B68101C00211A1C00F031FFBD4602B080BDC04680B586B000AF786039600023EC
:401640003B6100237B612EE07B699B007A68D3181B68BB603B1C0F33BA681A70BB68FF229343BB6017E03B695B003A68D3181B781A1CBB68D3183A69520039688A18527801
:401680001A703B6901333B613B1C0F331A783B1C0F33013A1A703B1C0F331B78002BE2D17B6901337B617B69052BCDD9BD4606B080BDC04680B500AF054B064A1A60064BA0
:4016C000044A1A60012000F009F8BD4680BDC04600031A400300040040031A4080B584B000AF021CFB1D1A700B4B1B68FB60FB1D1B78002B05D0FB68802212061343FB6044
:4017000003E0FB685B005B08FB60034BFA681A60BD4604B080BDC04680031A4080B500AF044B044A1268802109060A431A60BD4680BDC0468000024080B500AF044B044A4E
:401740001268802109060A431A60BD4680BDC0464400024080B582B000AF786000F04AF87B68181C00F008F8032000F013F800F037F8BD4602B080BD80B582B000AF786068
:40178000034A8C237968D150BD4602B080BDC0460000002090B585B000AF021CFB1D1A701E23FB603C1C0B3400F0E0F8031C23700A4B0A4A126892009108FA1D1078FA682E
:4017C000041C9440221C0A431A603B1C0B331B78181C00F0CFF8BD4605B090BD10E400E080B500AF024B802212031A60BD4680BD00E100E080B500AF024B802212031A603F
:40180000BD4680BD80E100E080B500AF094B802292041A60084B0C221A60012000F078F8064B181C00F048F8002000F037F8BD4680BDC046C0010540E40105401027000020
:4018400090B583B000AFFC1D00F090F8031C2370084B084A126808210A431A60FB1D1B78181C00F087F80820182100F033F8BD4603B090BD0000054080B500AF064B1B7815
:40188000002B04D1FFF7C0FF034B01221A70FFF7D7FFBD4680BDC046FC00002080B582B000AF7860034B7A681204120C1A60BD4602B080BDC801054080B582B000AF786090
:4018C000034B7A681204120C1A60BD4602B080BDD401054090B585B000AF786039603C1C0F3400F043F8031C2370084B3A687968081C9040021C1A603B1C0F331B78181C2A
:4019000000F038F8BD4605B090BDC0460800054080B582B000AF7860024B7A681A60BD4602B080BDF801054080B500AF024B1B68181CBD4680BDC046FC01054080B582B091
:4019400000AF7860024B7A681A60BD4602B080BDF0010540000000000230800804D0C0460138FDD1C046C046C0467047EFF3108072B6704780F310887047C046C046C04686
:4019800080B584B000AF021C3960FB1D1A7080239B05FB60FB1D1B781F2B02D9002000F069F8FB1D1B7810339B00FA68D3181B68BB60FB1D1B7810339B00FA68D3183A68EB
:4019C0001A60BB68181CBD4604B080BD90B587B000AF0A1CFB1D011C1970BB1D1A70BB1D1B78032B02D9002000F044F8FB1D1B781F2B02D9002000F03DF8FB1D1A7803230C
:401A00001340DB0006337B613C1C1334FFF7AEFF031C2370FB1D1B789B08DBB29B0014495B181B68FB607B690322111C99400B1CDA43FB681340FB60BB1D1A787B69111C6C
:401A400099400B1CFA681343FB60FB1D1B789B08DBB29B00064A9B18FA681A603B1C13331B78181CFFF786FFBD4607B090BDC04600E400E080B582B000AF021CFB1D1A7078
:401A800001BEBD4602B080BD80B582B000AF786008E00C4B1B68181CFFF75EFF7B680A4A9B187B607A6880231B029A42F1D8074B1B687A685343181CFFF74EFFBD4602B0B9
:401AC00080BDC046DC0000200080FFFFD400002080B582B000AF021CBB1D1A80BB1D1B88044A12785343181CFFF736FFBD4602B080BDC046D800002080B500AF00F058F833
:401B0000BD4680BD80B500AF054B054A1268802109060A431A6000F017F8BD4680BDC0460000064080B500AF064B1B78002B04D1FFF7E2FF034B01221A70FFF7E3FFBD46F1
:401B400080BDC0460001002080B500AFBD4680BD80B582B000AF7860C046064B1A680F231340082BF9D0044B7A681A60BD4602B080BDC046080206404002064080B584B0B1
:401B800000AF786039600023FB6009E07A68FB68D3181B78181CFFF7DBFFFB680133FB60FA683B689A42F1D3BD4604B080BDC04680B500AF174B184A1A60184B00221A6025
:401BC000174B01221A60174B174A1A60174B07221A60174B00221A60164B01221A60164B114A1A60154B00221A60154B00221A60144B00221A60144B00221A60134B002204
:401C00001A60134B00221A60124B00221A60BD4680BDC046000006400B000002400006404800064000030640070000800403064010030640440006400002064004020640F6
:401C4000880E0640C80E0640480F0640080F0640C80F0640880F064080B584B000AF021CFB1D1A700E4B1B68DAB23B1C0F3308218A431A70FB1D1B78DB00DAB2082313408F
:401C8000D9B23B1C0F333A1C0F3212780A431A70034B3A1C0F3212781A60BD4604B080BD0000044080B500AF064B1B78002B04D100F00AF8034B01221A7000F003F9BD4643
:401CC00080BDC0460801002090B585B000AF0E200321FFF77BFE604B0E20191CFFF750FE5E4B07221A605E4B5E4A1A605E4B5F4A1A605F4B5F4A1A605F4B8022D2051A60EF
:401D00005E4B5F4A1A605F4B5D4A1A605E4B5E4A1268802149020A431A605C4B5B4A1268802149020A431A60594B00221A60594B00221A60584B01221A60584B02221A6014
:401D4000574B1B687B607A68564B13407B607B68012213437B60524B7A681A600023FB6073E0514BFA689200D258DC239B0113407B604E4AFB68D3181B787A6813437B60A2
:401D8000FB689B004A4A9B187A681A60464BFA689200D258012313400AD03D4B3C4A1168FA680120041C9440221C92B20A431A603D4BFA689200D258022313400AD0354BC3
:401DC000344A1168FA680120041C9440221C92B20A431A60344BFA689200D25880239B00134003D080235B00BB6002E080235B01BB602D4BFA689200D25880235B0013402F
:401E000005D12C4BFA6852000021D15209E0BB68002B00DA01335B1099B2264BFA685200D152BB68244A53438022D2009B18002B01DA224C1B19DB129BB219B2204BFA6852
:401E40009200D150FB680133FB60FB68022B88D9BD4605B090BDC046091F000020001A4000001A404020001304001A408400008018001A400000FF071C001A4010001A4098
:401E80000200020014001A4000031A4040031A4028021A4038021A4018021A40000F1A4030001A40FFFFFFDF342500004025000080001A401402002010270000FF07000050
:401EC0000802002080B500AF074B1B68002B09DB054B054A1268802109060A431A600A20FFF7F6FDBD4680BD00001A4080B500AF044B044A1268802149020A431A60BD4602
:401F000080BDC04604001A4080B582B000AF044B1B687B60024B7A681A60BD4602B080BD10021A4080B582B000AF00237B60044B1B687B607B68181CBD4602B080BDC04666
:401F40004003074080B582B000AF7860C046064B1A680F231340082BF9D0044B7A681A60BD4602B080BDC046080207404002074080B500AF104B8022D2041A600E4B0E4A30
:401F800012681A60002000F04FF80B4B0A4A12681A600A4B0C221A60012000F08DF8084B31221A60074B181C00F04CF8064B181C00F056F8BD4680BD400105406401054098
:401FC00068010540204E0000DC05000090B583B000AFFC1DFFF7CAFC031C2370084B084A126802210A431A60FB1D1B78181CFFF7C1FC0220182100F041F8BD4603B090BD14
:402000000000054080B500AF064B1B78002B04D1FFF7AEFF034B01221A70FFF7D7FFBD4680BDC0460901002080B582B000AF7860034B7A681204120C1A60BD4602B080BDFB
:402040004801054080B582B000AF7860034B7A681204120C1A60BD4602B080BD5401054080B582B000AF7860034B7A681204120C1A60BD4602B080BD4C01054090B585B0B0
:4020800000AF786039603C1C0F34FFF76FFC031C2370084B3A687968081C9040021C1A603B1C0F331B78181CFFF764FCBD4605B090BDC0460800054080B582B000AF7860F4
:4020C000024B7A681A60BD4602B080BD7801054080B500AF104B8022D2041A600E4B0E4A12681A60002000F04FF80B4B0A4A12681A600A4B0C221A60012000F08DF8084BD6
:4021000031221A60074B181C00F04CF8064B181C00F056F8BD4680BD80010540A4010540A8010540204E0000DC05000090B583B000AFFC1DFFF71AFC031C2370084B084A85
:40214000126804210A431A60FB1D1B78181CFFF711FC0420182100F041F8BD4603B090BD0000054080B500AF064B1B78002B04D1FFF7AEFF034B01221A70FFF7D7FFBD4614
:4021800080BDC0460A01002080B582B000AF7860034B7A681204120C1A60BD4602B080BD8801054080B582B000AF7860034B7A681204120C1A60BD4602B080BD940105408D
:4021C00080B582B000AF7860034B7A681204120C1A60BD4602B080BD8C01054090B585B000AF786039603C1C0F34FFF7BFFB031C2370084B3A687968081C9040021C1A6056
:402200003B1C0F331B78181CFFF7B4FBBD4605B090BDC0460800054080B582B000AF7860024B7A681A60BD4602B080BDB801054080B500AF104B8022D2041A600E4B0E4AD8
:4022400012681A60002000F04FF80B4B0A4A12681A600A4B0C221A60012000F08DF8084B31221A60074B181C00F04CF8064B181C00F056F8BD4680BD000105402401054055
:4022800028010540204E0000DC05000090B583B000AFFC1DFFF76AFB031C2370084B084A126801210A431A60FB1D1B78181CFFF761FB0120182100F041F8BD4603B090BD55
:4022C0000000054080B500AF064B1B78002B04D1FFF7AEFF034B01221A70FFF7D7FFBD4680BDC0460B01002080B582B000AF7860034B7A681204120C1A60BD4602B080BD37
:402300000801054080B582B000AF7860034B7A681204120C1A60BD4602B080BD1401054080B582B000AF7860034B7A681204120C1A60BD4602B080BD0C01054090B585B0AD
:4023400000AF786039603C1C0F34FFF70FFB031C2370084B3A687968081C9040021C1A603B1C0F331B78181CFFF704FBBD4605B090BDC0460800054080B582B000AF7860F3
:40238000024B7A681A60BD4602B080BD38010540002934D00123002210B488422CD301242407A14204D2814202D209011B01F8E7E400A14204D2814202D249005B00F8E7A8
:4023C000884201D3401A1A434C08A04202D3001B5C0822438C08A04202D3001B9C082243CC08A04202D3001BDC082243002803D01B0901D00909E3E7101C10BC7047002898
:4024000001D00020C04307B4024802A14018029003BDC046190000000029F0D003B5FFF7B9FF0EBC4243891A1847C0467047C04670B50E4B0E4D0024ED1AAD101E1CAC42EB
:4024400004D0A300F35898470134F8E700F07AF8084B094D0024ED1AAD101E1CAC4204D0A300F35898470134F8E770BD5025000050250000502500005825000010B50023E6
:40248000934203D0CC5CC4540133F9E710BD031C8218934202D019700133FAE7704700000000000000C0A80101FFFFFF000008DCFFFFFFC0A801FE000200FF00FE010000EF
:4024C00000000000C0A80101698700000A090000255809000400000000300F40000400400F40000404300F4001310F4003330F4007410F400A430F4002600F4036013E40AD
:4025000058045F011801B401E204E6025208581082088410D4A0E220E6401B081D01610281018708A102B502C60CD802EC08020111010000020000000200000000000000FF
:4025400000017200F8B5C046F8BC08BC9E467047AD030000B1150000F8B5C046F8BC08BC9E4670478503000078250000C8000020180000004001000000000000C0F1FF0FC1
:4025800000366E01C05D0000180000000000E02E00000000000000000000000000000000000000000000000000000000000000000000000000000000000000000000000033
:4025C00000000000000000000000000000000000000000000000000000000000000000000000000000000000000000000000000000000000000000000000000000000000DB
:40260000000000000000000000000000000000000000000000000000000000000000000000000000000000000000000000000000000000000000000000000000000000009A
:40264000000000000000000000000000000000000000000000000000000000000000000000000000000000000000000000000000000000000000000000000000000000005A
:40268000000000000000000000000000000000000000000000000000000000000000000000000000000000000000000000000000000000000000000000000000000000001A
:0200000490303A
:02000000812558
:0200000490402A
:200000000000000000000000000000000000000000000000000000000000000000000000E0
:0200000490501A
:0C000000000204C81193110104D492B84E
:0200000490600A
:0100000001FE
:00000001FF