:400000000010002011000000E9190000E919000080B500AF01F0ECFC80B584B000AF021CFB1D1A70204A3B1C0B3312781A701F4A3B1C0A3312781A700423013BFB6018E00C
:400040001B4B1868391C0B31FA68131C5B009B18C3185B780B70164B1868391C0A31FA68131C5B009B18C3189B780B70FB68013BFB60FB68002B0ADB0D4B1968FA68131CF1
:400080005B009B185B5CFA1D12789A42D8D9094B3A1C0B3212781A60074B3A1C0A3212781A60BD4604B080BDCCF1FF0FCDF1FF0FCC0000201CFF0B4020FF0B4080B500AF4F
:4000C000284B284A12688021C9020A431A601820FFF7A2FF244B19221A60052001F0DCFE224B234A1278D2B21A60052001F090FF1C4B1C4A11681F4A0A401A601E4B1F4A3F
:400100001A601F4B30221A601E4B20221A601E4B21221A601D4B31221A601D4B31221A601C4B31221A601C4B11221A601B4B10221A601B4B822212061A601A4B1A4A1A6021
:400140001A4B1B4A1A601B4B194A1A601A4B1B4A1A601B4B194A1A601A4B184A1A60BD4680BDC04600010B402CFF0B4028FF0B40E5F1FF0FFFFFFBFF04010B400600008004
:40018000080202400C0202401C0202402002024024020240280202402C0202403002024008010B40000002400B000080400002401000008080000240040002401700008055
:4001C000440002408400024080B586B000AF72B63B1C173300221A7026E03B1C17331A78131C5B009B185B00734A9B183B613B691A78597809020A43997809040A43DB782A
:400200001B0613431A1C3B6919795B791B020B439BB2101C191C01F069FC3B1C17331A783B1C173301321A703B1C17331B78022BD3D93B1C173300221A7038E03B1C1733F4
:400240001A78131C9B009B185B005C4A9B18FB60FB681A78597809020A43997809040A43DB781B061343BB60FB681A79597909020A43997909040A43DB791B0613437B60C0
:40028000BA1CFB68197A5B7A1B020B431380BB1C1B88B9687A68081C111C1A1C01F036FC3B1C17331A783B1C173301321A703B1C17331B78002BC1D0414A424B101C191C7E
:4002C00001F036FC404B802252001A803F4B01221A703F4B3F4A1A603F4BCE2292001A603E4B3F4A1A603F4B99221A603E4B50221A603E4B3E4A1A603E4B07221A603E4B78
:400300003E4A1A603E4B0F221A603E4B0F221A603D4B02221A603D4B3D4A1A603D4B02221A603D4B02221A603C4B31221A603C4B02221A603B4B992212041A603A4BA022C7
:4003400012031A60394B8C2292051A60384B992212041A60374B902292031A60364B992212041A60354B992212041A60344BAA2212061A60334B334A1278D2B202210A43AD
:40038000D2B21A70304B304A1278D2B20C218A43D2B204210A43D2B21A702A4B294A1278D2B216210A43D2B21A70FFF787FE01F0FFFBBD4606B080BD302C0000442C00007E
:4003C000502C0000742C000000600F4002600F400000014000000303040001400C00014099EE000010000140000004400800044089ED18000001044008010440B601180051
:4004000000020440180204400003044008030440B19D24001803044000040440080404401804044000500F4004500F4008500F4010500F4018500F4020500F4030500F40DC
:4004400034500F4000700F4001700F4010B5064C2378002B07D1054B002B02D0044800E000BF0123237010BDE000002000000000F82B000008B5084B002B03D007480849E8
:4004800000E000BF07480368002B03D0064B002B00D0984708BDC04600000000F82B0000E4000020C80000200000000080B582B000AF01F0DBFC031C7B60054B01221A700B
:4004C0007B68181C01F0DCFCBD4602B080BDC0469F01002080B586B000AF78600A1CFB1C1A7000233B613B1C0E3300221A803B1C173300221A7010E03B1C17331B785B00CC
:400500007A68D3181B883A69D3183B613B1C17331A783B1C173301321A703A1C1732FB1C12781B789A42E7D3FB1C1B783869191C02F0DAFA031C1A1C3B1C0E331A803B1C03
:400540000E331B88181CBD4606B080BD80B582B000AF0A1CFB1D011C1970BB1D1A70FB1D1A78BB1D1B78013B9A4205DAFB1D1A78FB1D01321A7002E0FB1D00221A70FB1DC8
:400580001B78181CBD4602B080BDC04680B586B000AFF8607B603B1C0B3319703B1C0A331A703B1C0B331B78002B07D03B1C17333A1C0B321278013A1A7006E03B1C1733BF
:4005C0003A1C0A321278013A1A707B68002B2ADA3B1C17331B785B00FA68D3181B881A1C7B68FA218900CB1A9A4212DB3B1C0B331B785B00FA68D3183A1C173212785200D3
:40060000F9688A1811887A6892B28A1892B21A8033E03B1C0B331B785B00FA68D318FA2292001A8029E03B1C17331B785B00FA68D3181B881A1C7B68FA21C900CB1A9A4207
:4006400012DC3B1C0B331B785B00FA68D3183A1C173212785200F9688A1811887A6892B28A1892B21A8008E03B1C0B331B785B00FA68D318FA22D2001A803B1C0B331A7898
:400680003B1C0A331B78101C191CFFF75FFF031C181CBD4606B080BD90B583B000AF3960111C1A1CFB1D1870BB1D19703B1D1A803B1D1A88724B9A4211D93B1D1A88714BCC
:4006C0009A420CD8FC1D3868FB1D1978BB1D1A7864235B42FFF75AFF031C2370CAE03B1D1A88684B9A4211D93B1D1A88664B9A420CD8FC1D3868FB1D1978BB1D1A783223A0
:400700005B42FFF743FF031C2370B3E03B1D1A885D4B9A4211D93B1D1A885C4B9A420CD8FC1D3868FB1D1978BB1D1A780A235B42FFF72CFF031C23709CE03B1D1A88534B59
:400740009A4211D93B1D1A88514B9A420CD8FC1D3868FB1D1978BB1D1A7805235B42FFF715FF031C237085E03B1D1A88494B9A4210D83B1D1A88464B9A420BD9FC1DFB1DDD
:400780001A78BB1D1B78101C191CFFF7DFFE031C23706FE03B1D1A883E4B9A4213D93B1D1A883D4B9A420ED8FC1D3968FB1D1A78BB1D1B78081C111C1A1C0523FFF7E6FE20
:4007C000031C237056E03B1D1A88334B9A4213D93B1D1A88314B9A420ED8FC1D3968FB1D1A78BB1D1B78081C111C1A1C0A23FFF7CDFE031C23703DE03B1D1A88274B9A423E
:4008000013D93B1D1A88264B9A420ED8FC1D3968FB1D1A78BB1D1B78081C111C1A1C3223FFF7B4FE031C237024E03B1D1A881C4B9A4214D93B1D1A88FA23DB009A420ED8B8
:40084000FC1D3968FB1D1A78BB1D1B78081C111C1A1C6423FFF79AFE031C23700AE0FC1DFB1D1A78BB1D1B78101C191CFFF76EFE031C2370FB1D1B78181CBD4603B090BDEC
:40088000E703000064040000E10400005E050000D1050000E605000059060000D60600005307000080B584B000AF7860FB1C1970BB1C1A70FB1C1B787A68D3181B785BB240
:4008C0001A023B1C0E331A80BB1C1B787A68D3181B785BB29AB23B1C0C33111CFF220A401A803B1C0A33391C0E313A1C0C32098812880A431A803B1C0A3300215B5E002B58
:4009000000DA01335B109BB29AB23B1C0833054952181A803B1C08331B88181CBD4604B080BDC046DC05000080B584B000AF78603B1C0E33FA2252001A803B1C0E331B88B2
:40094000181CBD4604B080BD80B500AFBD4680BD80B500AF034B181C162100F0DFFEBD4680BDC0465C01002080B586B000AF0A1CFB1D011C19703B1D1A803B1C0C33FF2257
:400980001A703B1C0C33FF225A703B1C0C33FA1D12789A703B1C0C330522DA703B1C0C3303221A713B1C0C331E225A713B1D1B88DAB23B1C0C339A713B1D1B881B0A9BB268
:4009C000DAB23B1C0C33DA713B1C0C339A79FB1D1B78D318DAB23B1C0C33DB79D318DBB22633DBB2DB43DAB23B1C0C331A723B1C0C33181C092101F061FBBD4606B080BD74
:400A000080B586B000AF0A1CFB1D011C19703B1D1A803B1C0C33FF221A703B1C0C33FF225A703B1C0C33FA1D12789A703B1C0C330522DA703B1C0C3303221A713B1C0C33E0
:400A40000E225A713B1D1B88DAB23B1C0C339A713B1D1B881B0A9BB2DAB23B1C0C33DA713B1C0C339A79FB1D1B78D318DAB23B1C0C33DB79D318DBB21633DBB2DB43DAB2CC
:400A80003B1C0C331A723B1C0C33181C092101F015FBBD4606B080BD80B586B000AF0A1CFB1D011C19703B1D1A803B1C0C33FF221A703B1C0C33FF225A703B1C0C33FA1DCA
:400AC00012789A703B1C0C330522DA703B1C0C3303221A713B1C0C3320225A713B1D1B88DAB23B1C0C339A713B1D1B881B0A9BB2DAB23B1C0C33DA713B1C0C339A79FB1DAF
:400B00001B78D318DAB23B1C0C33DB79D318DBB22833DBB2DB43DAB23B1C0C331A723B1C0C33181C092101F0C9FABD4606B080BD90B583B000AF4B4B1B78012B03D060DD6B
:400B4000022B1CD05EE0FB1D00221A700AE0FB1D1A78454B52004549D152FB1D1A78FB1D01321A70FB1D1B78132BF0D9404B00221A703E4B0220191CFFF7F6FE42E03C1D86
:400B80003C4B181C10211122FFF78CFE031C2380374B1B781A1C344B5200391D0988D152334B1B78122B06D8314B1B780133DAB22F4B1A7002E02E4B00221A70BC1C2A4B5B
:400BC000181C1421FFF786FC031C2380BB1C1A88FA23DB009A420BD8BB1C1A88264B9A4206D9BB1C1B880220191CFFF7BDFE04E01E4B0220191CFFF7B7FE204B00221A7095
:400C000000E0C046174B1B78012B0CD002DC002B05D024E0022B0AD0032B14D01FE0114B01221A701BE00F4B03221A7017E0134B1B78002B03D00B4B02221A700FE0094B9D
:400C400003221A700BE00D4B1B78002B03D0054B02221A7002E0034B03221A70C046BD4603B090BD9C010020A4010020DC0500002E0100205C010020E7030000FC000020D6
:400C800090B583B000AF4B4B1B78012B03D060DD022B1CD05EE0FB1D00221A700AE0FB1D1A78454B52004549D152FB1D1A78FB1D01321A70FB1D1B78132BF0D9404B002288
:400CC0001A703E4B0120191CFFF74EFE42E03C1D3C4B181C12211322FFF7E4FD031C2380374B1B781A1C344B5200391D0988D152334B1B78122B06D8314B1B780133DAB2F1
:400D00002F4B1A7002E02E4B00221A70BC1C2A4B181C1421FFF7DEFB031C2380BB1C1A88FA23DB009A420BD8BB1C1A88264B9A4206D9BB1C1B880120191CFFF715FE04E0CF
:400D40001E4B0120191CFFF70FFE204B00221A7000E0C046174B1B78012B0CD002DC002B05D024E0022B0AD0032B14D01FE0114B01221A701BE00F4B03221A7017E0134B5B
:400D80001B78002B03D00B4B02221A700FE0094B03221A700BE00D4B1B78002B03D0054B02221A7002E0034B03221A70C046BD4603B090BDCC01002074010020DC0500008F
:400DC0009E0100205C010020E7030000FD00002090B583B000AF3C1D0120FFF7A5FD031C2380784B1B78012B07D000DCB8E0022B1ED0032B00D1A4E0B3E0FB1D00221A70F3
:400E00000AE0FB1D1A78704B52007049D152FB1D1A78FB1D01321A70FB1D1B78132BF0D96B4B00221A70694B181C01F085FC98E0BC1C684B181C0E210F22FFF733FD031C6C
:400E40002380634B1B781A1C5F4B5200B91C0988D1525F4B1B78122B06D85D4B1B780133DAB25B4B1A7002E0594B00221A703C1C554B181C1421FFF72DFB031C23803B1D85
:400E80001B88642B1FD83B1C1A88534B9A4204D84E4B181C01F050FC4FE03B1C1A88FA23DB009A420AD83B1C1A884C4B9A4205D93B1C1B88181C01F03FFC3EE0434B181C4E
:400EC00001F03AFC39E03B1D1A88444B9A421FD93B1C1A883D4B9A4204D93C4B181C01F02BFC2AE03B1C1A88FA23DB009A420AD83B1C1A88394B9A4205D93B1C1B88181C2A
:400F000001F01AFC19E0314B181C01F015FC14E03B1C1A88FA23DB009A420AD83B1C1A882E4B9A4205D93B1C1B88181C01F004FC03E0264B181C01F0FFFB294B00221A707E
:400F40000FE03B1D1B88642B04D93B1D1A88234B9A4204D91D4B181C01F0EEFB01E000E0C046184B1B78012B0CD002DC002B05D024E0022B0AD0032B14D01FE0114B012246
:400F80001A701BE00F4B03221A7017E0144B1B78002B03D00B4B02221A700FE0094B03221A700BE00E4B1B78002B03D0054B02221A7002E0034B03221A70C046BD4603B058
:400FC00090BDC046A001002030010020DC050000590100205C010020DB050000E7030000FE00002090B583B000AF3C1D0020FFF79BFC031C23807A4B1B78012B07D000DCA6
:40100000BCE0022B1ED0032B00D1A6E0B7E0FB1D00221A700AE0FB1D1A78724B52007249D152FB1D1A78FB1D01321A70FB1D1B78132BF0D96D4B00221A706B4B181C01F028
:401040002BFC9CE0BC1C6A4B181C0C210D22FFF729FC031C2380654B1B781A1C614B5200B91C0988D152614B1B78122B06D85F4B1B780133DAB25D4B1A7002E05B4B0022A0
:401080001A703C1C574B181C1421FFF723FA031C23803B1D1A888C235B009A421FD83B1C1A88544B9A4204D84F4B181C01F0F4FB4FE03B1C1A88FA23DB009A420AD83B1C64
:4010C0001A884D4B9A4205D93B1C1B88181C01F0E3FB3EE0444B181C01F0DEFB39E03B1D1A88464B9A421FD93B1C1A883E4B9A4204D93D4B181C01F0CFFB2AE03B1C1A8827
:40110000FA23DB009A420AD83B1C1A883A4B9A4205D93B1C1B88181C01F0BEFB19E0324B181C01F0B9FB14E03B1C1A88FA23DB009A420AD83B1C1A882F4B9A4205D93B1C73
:401140001B88181C01F0A8FB03E0274B181C01F0A3FB2B4B00221A7011E03B1D1A888C235B009A4204D93B1D1A88244B9A4204D91D4B181C01F090FB01E000E0C046184BB8
:401180001B78012B0CD002DC002B05D024E0022B0AD0032B14D01FE0114B01221A701BE00F4B03221A7017E0154B1B78002B03D00B4B02221A700FE0094B03221A700BE0C4
:4011C0000F4B1B78002B03D0054B02221A7002E0034B03221A70C046BD4603B090BDC0469D010020D0010020DC050000580100205C010020DB050000E70300001F030000A6
:40120000FF00002090B585B000AF021C3960FB1D1A704E4B1B78012B03D063DD022B21D061E03B1C0F3300221A700EE03B1C0F331B785B003A68D318454A1A803B1C0F333A
:401240001A783B1C0F3301321A703B1C0F331B78132BEBD9FB1D00221A703D4B181C01F0BBF940E03C1C0C343A4B181C0A210B22FFF718FB031C2380FC1DFB1D19783A683B
:401280003B1C0C331B88081C111C1422FFF704FA031C23703C1C0A343B68181C1421FFF719F9031C23803B1C0A331A88FA23DB009A420CD83B1C0A331A88274B9A4206D90B
:4012C0003B1C0A331B88181C01F086F906E0012000F016FD1E4B181C01F07EF91F4B00221A7000E0C046194B1B78012B0CD002DC002B05D024E0022B0AD0032B14D01FE00F
:40130000124B01221A701BE0104B03221A7017E0124B1B78002B03D00C4B02221A700FE00A4B03221A700BE00C4B1B78002B03D0064B02221A7002E0044B03221A70C04609
:40134000FB1D1B78181CBD4605B090BD5A010020DC0500005C010020E70300000001002080B582B000AF002000F032FF0A2000F02BFE012000F02CFF012000F04FFFFB1D58
:4013800000221A700DE000F007FF031C002B00D00BE0042000F018FEFB1D1A78FB1D01321A70FB1D1B78632BEDD9234B00221A70224B00221A70224B00221A70214B002217
:4013C0001A70214B00221A7001F0ECFA00F030FC00F020FC00F046FE01F030FA01F0CEF801F07CF9194B042001211A1C00F0A2F8FE206421FFF750FB154BFE20191CFFF7E9
:40140000FFFA144B181C01F097F9124B181C01F043FA114B181C00F0D7FD00F025FF01F047F862B60D4B181C00F010FC00F0C6FCBD4602B080BDC0465A0100209C010020C6
:40144000CC0100209D010020A001002087690000FF030000DC050000B80B0000AD04000090B591B000AF0023BB6301237B6300233B63FFF775FF00F09DFE031C002B12D15E
:4014800000F018F9FFF764FA174B01221A70174B01221A70164B01221A70164B01221A70154B01221A703C1C3F343B1C3F331A783B1C101C191CFFF7A5FE031C2370FFF771
:4014C00091FDFFF785FCFFF733FBFFF7D9FBFFF73BFAC046094B1B78DBB2002BFAD0074B00221A70C7E7C04600010020FD000020FC000020FF000020FE0000209F01002056
:4015000080B582B000AF021CFB1D1A70FB1D1B78181C01F081FAC04601F05EFA031C1A1C01231340F8D001F091FA031C181CBD4602B080BD80B590B000AFFB1D1870BB1D4A
:4015400019703B1D1A803A1C2832524B111C1A1C1323081C111C1A1C01F03CFB3A1C14324D4B111C1A1C1223081C111C1A1C01F031FB3B1C1433BA1D1278DA733B1D1B88A4
:401580001B0A9BB2DAB23B1C14331A743B1D1B88DAB23B1C14335A743B1C0C33092000211A1C062300F0DAF93B1C28330A225A743B1C2833FA1D12789A743B1D1B881B0ADF
:4015C0009BB2DAB23B1C14331A713B1D1B88DAB23B1C14335A713B1C2833002000211A1C132300F031F93B1C1433002001211A1C122300F029F93B1C0C33092000211A1C0D
:40160000062300F021F912200121642200F0E2F8642000F0D9FC00F043F80020142100F05DF8002000F0FAFD0020FFF769FF0020FFF766FF1420FFF763FF3B1C3E3300224F
:401640001A8016E03B1C3E331B881B0A9BB2DBB2181CFFF755FF3B1C3E331B88DBB2181CFFF74EFF3B1C3E331A883B1C3E3301321A803B1C3E331A88084B9A42E2D901200F
:4016800000F0CCFD3B1C0C335B79181CBD4610B080BDC046FC2B0000102C0000FF03000080B500AF01200121012200F063F8BD4680BDC04680B500AF02200121FF2200F054
:4016C00059F817200021FF2200F054F815200021FF2200F04FF8BD4680BDC04680B582B000AF0A1CFB1D011C1970BB1D1A70BB1D1B782C2001211A1C00F03CF81820002108
:40170000012200F037F8FB1D1B78162000211A1C00F030F8BD4602B080BDC04680B582B000AF78600A1CFB1C1A70114B19887A68FB1C1B78081C032100F010F92A20012134
:4017400000F0CCF8031C1A1C094B1A80084B1B88282001211A1C00F03DF801200121402200F008F8024B1B88181CBD4602B080BD0401002080B582B000AFBB1D18807B1DC9
:4017800019703B1D1A70002000F048FDBB1D1B881B0A9BB2DBB2181CFFF7B2FEBB1D1B88DBB2181CFFF7ACFE7B1D1B78DB00DBB204221343DBB2DBB2181CFFF7A1FE3B1DEF
:4017C0001B78181CFFF79CFE012000F027FDBD4602B080BD80B582B000AFBB1D18807B1D1970BB1C1A80002000F018FDBB1D1B881B0A9BB2DBB2181CFFF782FEBB1D1B888F
:40180000DBB2181CFFF77CFE7B1D1B78DB00DBB204221343DBB2DBB2181CFFF771FEBB1C1B881B0A9BB2DBB2181CFFF769FEBB1C1B88DBB2181CFFF763FE012000F0EEFC1E
:40184000BD4602B080BDC04680B584B000AF3A601A1CBB1D18807B1D19703B1D1A70002000F0DCFCBB1D1B881B0A9BB2DBB2181CFFF746FEBB1D1B88DBB2181CFFF740FED5
:401880007B1D1B78DB00DBB204221343DBB2DBB2181CFFF735FE3B1C0F3300221A700FE03B1C0F331B783A68D3181B78181CFFF727FE3B1C0F331A783B1C0F3301321A7052
:4018C0003A1C0F323B1D12781B789A42E8D3012000F0A4FCBD4604B080BDC04680B584B000AF0A1CBB1D011C19807B1D1A70002000F094FCBB1D1B881B0A9BB2DBB2181C5E
:40190000FFF7FEFDBB1D1B88DBB2181CFFF7F8FD7B1D1B78DB00DBB2181CFFF7F1FD0020FFF7EEFD031C1A1C3B1C0E3312021A800020FFF7E5FD031C191C3B1C0E333A1C0E
:401940000E3212880A431A80012000F067FC3B1C0E331B88181CBD4604B080BD90B585B000AF3A601A1CBB1D18807B1D19703B1D1A70002000F052FCBB1D1B881B0A9BB218
:40198000DBB2181CFFF7BCFDBB1D1B88DBB2181CFFF7B6FD7B1D1B78DB00DBB2181CFFF7AFFD3B1C0F3300221A7010E03B1C0F331B783A68D4180020FFF7A2FD031C237013
:4019C0003B1C0F331A783B1C0F3301321A703A1C0F323B1D12781B789A42E7D3012000F01DFCBD4605B090BD80B500AFFEE7C04680B586B000AF224B7B61224B3B61204BEF
:401A00007B6135E03B691B68FB603B695B68BB603B699B683B6000237B600CE0FB681A68BB681A60BB680433BB60FB680433FB607B6804337B607A683B689A42EED13B69E0
:401A4000DB683B6000237B6008E0BB6800221A60BB680433BB607B6804337B607A683B689A42F2D13B6910333B617B69013B7B617B69002BC6D101F087F8FFF7F1FCFEE7F8
:401A800001000000982E000080B582B000AF00237B600FE07B68032B04D8104B7A689200D35800E00E4B0F4A796889008B507B6801337B607B682F2BECD9FEF785FB0A4BE0
:401AC00000221A608023DB058022D205126801210A431A60BD4602B080BDC04600000000E919000000000020C000002080B582B000AF786039607A683B68101C00211A1C62
:401B000001F071F8BD4602B080BDC04680B584B000AFF860B9607A60F968BA687B68081C111C1A1C01F056F8BD4604B080BDC04680B586B000AF7860396000233B6100235D
:401B40007B612EE07B699B007A68D3181B68BB603B1C0F33BA681A70BB68FF229343BB6017E03B695B003A68D3181B781A1CBB68D3183A69520039688A1852781A703B698D
:401B800001333B613B1C0F331A783B1C0F33013A1A703B1C0F331B78002BE2D17B6901337B617B69082BCDD9BD4606B080BDC04680B500AF054B0F221A60054B0F221A603B
:401BC000012000F007F8BD4680BDC04600031A4040031A4080B584B000AF021CFB1D1A700B4B1B68FB60FB1D1B78002B05D0FB68802212061343FB6003E0FB685B005B080C
:401C0000FB60034BFA681A60BD4604B080BDC04680031A4080B500AF044B044A1268802109060A431A60BD4680BDC0460400024080B500AF044B044A1268802109060A4352
:401C40001A60BD4680BDC0468400024080B582B000AF786000F04AF87B68181C00F008F8032000F013F800F037F8BD4602B080BD80B582B000AF7860034A8C237968D1509C
:401C8000BD4602B080BDC0460000002090B585B000AF021CFB1D1A701E23FB603C1C0B3400F004F9031C23700A4B0A4A126892009108FA1D1078FA68041C9440221C0A4383
:401CC0001A603B1C0B331B78181C00F0F3F8BD4605B090BD10E400E080B500AF024B802212031A60BD4680BD00E100E080B500AF024B802212031A60BD4680BD80E100E014
:401D000080B584B000AF021CFB1D1A700E4B1B68DAB23B1C0F3340218A431A70FB1D1B789B01DAB240231340D9B23B1C0F333A1C0F3212780A431A70034B3A1C0F321278FE
:401D40001A60BD4604B080BD0001044080B500AF094B802292041A60084B0C221A60012000F078F8064B181C00F048F8002000F037F8BD4680BDC046C0010540E4010540E0
:401D80001027000090B583B000AFFC1D00F08EF8031C2370084B084A126808210A431A60FB1D1B78181C00F085F80820182100F033F8BD4603B090BD0000054080B500AF81
:401DC000064B1B78002B04D1FFF7C0FF034B01221A70FFF7D7FFBD4680BDC0460601002080B582B000AF7860034B7A681204120C1A60BD4602B080BDC801054080B582B0E3
:401E000000AF7860034B7A681204120C1A60BD4602B080BDD401054090B585B000AF786039603C1C0F3400F041F8031C2370084B3A687968081C9040021C1A603B1C0F3326
:401E40001B78181C00F036F8BD4605B090BDC0460800054080B582B000AF7860024B7A681A60BD4602B080BDF801054080B500AF024B1B68181CBD4680BDC046FC010540EE
:401E800080B582B000AF7860024B7A681A60BD4602B080BDF00105400230800804D0C0460138FDD1C046C046C0467047EFF3108072B6704780F310887047C046C046C046DA
:401EC00080B584B000AF021C3960FB1D1A7080239B05FB60FB1D1B781F2B02D9002000F069F8FB1D1B7810339B00FA68D3181B68BB60FB1D1B7810339B00FA68D3183A68A6
:401F00001A60BB68181CBD4604B080BD90B587B000AF0A1CFB1D011C1970BB1D1A70BB1D1B78032B02D9002000F044F8FB1D1B781F2B02D9002000F03DF8FB1D1A780323C6
:401F40001340DB0006337B613C1C1334FFF7AEFF031C2370FB1D1B789B08DBB29B0014495B181B68FB607B690322111C99400B1CDA43FB681340FB60BB1D1A787B69111C27
:401F800099400B1CFA681343FB60FB1D1B789B08DBB29B00064A9B18FA681A603B1C13331B78181CFFF786FFBD4607B090BDC04600E400E080B582B000AF021CFB1D1A7033
:401FC00001BEBD4602B080BD80B582B000AF786008E00C4B1B68181CFFF75EFF7B680A4A9B187B607A6880231B029A42F1D8074B1B687A685343181CFFF74EFFBD4602B074
:4020000080BDC046DC0000200080FFFFD400002080B582B000AF021CBB1D1A80BB1D1B88044A12785343181CFFF736FFBD4602B080BDC046D800002080B500AF00F058F8ED
:40204000BD4680BD80B500AF054B054A1268802109060A431A6000F017F8BD4680BDC0460000074080B500AF064B1B78002B04D1FFF7E2FF034B01221A70FFF7E3FFBD46AB
:4020800080BDC0460801002080B500AFBD4680BD80B582B000AF7860C046064B1A680F231340082BF9D0044B7A681A60BD4602B080BDC046080207404002074080B584B062
:4020C00000AF786039600023FB6009E07A68FB68D3181B78181CFFF7DBFFFB680133FB60FA683B689A42F1D3BD4604B080BDC04680B500AF174B184A1A60184B00221A60E0
:40210000174B01221A60174B174A1A60174B07221A60174B00221A60164B01221A60164B114A1A60154B00221A60154B00221A60144B00221A60144B00221A60134B0022BE
:402140001A60134B00221A60124B00221A60BD4680BDC046000007400B000002400007404800074000030740070000800403074010030740440007400002074004020740A8
:40218000880E0740C80E0740480F0740080F0740C80F0740880F074080B500AF044B1A68022313405B08DBB2181CBD4680BDC0460400044080B500AF044B1B68DAB20123E8
:4021C0001340DBB2181CBD4680BDC0460400044080B584B000AF021CFB1D1A700E4B1B68DAB23B1C0F3304218A431A70FB1D1B789B00DAB204231340D9B23B1C0F333A1C22
:402200000F3212780A431A70034B3A1C0F3212781A60BD4604B080BD0000044080B584B000AF021CFB1D1A700E4B1B68DAB23B1C0F3308218A431A70FB1D1B78DB00DAB270
:4022400008231340D9B23B1C0F333A1C0F3212780A431A70034B3A1C0F3212781A60BD4604B080BD0000044080B500AF064B1B78002B04D100F00AF8034B01221A7000F0FE
:4022800003F9BD4680BDC0461001002090B585B000AF0E200321FFF739FE604B0E20191CFFF70EFE5E4B0F221A605E4B5E4A1A605E4B5F4A1A605F4B5F4A1A605F4B8022EF
:4022C000D2051A605E4B5F4A1A605F4B5D4A1A605E4B5E4A1268802149020A431A605C4B5B4A1268802149020A431A60594B00221A60594B00221A60584B01221A60584B9C
:4023000002221A60574B1B687B607A68564B13407B607B68012213437B60524B7A681A600023FB6073E0514BFA689200D258DC239B0113407B604E4AFB68D3181B787A686F
:4023400013437B60FB689B004A4A9B187A681A60464BFA689200D258012313400AD03D4B3C4A1168FA680120041C9440221C92B20A431A603D4BFA689200D2580223134026
:402380000AD0354B344A1168FA680120041C9440221C92B20A431A60344BFA689200D25880239B00134003D080235B00BB6002E080235B01BB602D4BFA689200D2588023BD
:4023C0005B00134005D12C4BFA6852000021D15209E0BB68002B00DA01335B1099B2264BFA685200D152BB68244A53438022D2009B18002B01DA224C1B19DB129BB219B2AC
:40240000204BFA689200D150FB680133FB60FB68032B88D9BD4605B090BDC046CD24000020001A4000001A404020001304001A408400008018001A400000FF071C001A40A5
:4024400010001A400200020014001A4000031A4040031A4028021A4038021A4018021A40000F1A4030001A40FFFFFFDF602E0000702E000080001A400C02002010270000C0
:40248000FF070000FC01002080B500AF074B1B68002B09DB054B054A1268802109060A431A600A20FFF7B4FDBD4680BD00001A4080B500AF044B044A1268802149020A4302
:4024C0001A60BD4680BDC04604001A4080B582B000AF044B1B687B60024B7A681A60BD4602B080BD10021A4080B500AF104B8022D2041A600E4B0E4A12681A60002000F00E
:402500004FF80B4B0A4A12681A600A4B0C221A60012000F08DF8084B31221A60074B181C00F04CF8064B181C00F056F8BD4680BD400105406401054068010540204E0000FA
:40254000DC05000090B583B000AFFC1DFFF7AEFC031C2370084B084A126802210A431A60FB1D1B78181CFFF7A5FC0220182100F041F8BD4603B090BD0000054080B500AFB9
:40258000064B1B78002B04D1FFF7AEFF034B01221A70FFF7D7FFBD4680BDC0461101002080B582B000AF7860034B7A681204120C1A60BD4602B080BD4801054080B582B0A2
:4025C00000AF7860034B7A681204120C1A60BD4602B080BD5401054080B582B000AF7860034B7A681204120C1A60BD4602B080BD4C01054090B585B000AF786039603C1CA8
:402600000F34FFF753FC031C2370084B3A687968081C9040021C1A603B1C0F331B78181CFFF748FCBD4605B090BDC0460800054080B582B000AF7860024B7A681A60BD4672
:4026400002B080BD7801054080B500AF104B8022D2041A600E4B0E4A12681A60002000F04FF80B4B0A4A12681A600A4B0C221A60012000F08DF8084B31221A60074B181CA9
:4026800000F04CF8064B181C00F056F8BD4680BD80010540A4010540A8010540204E0000DC05000090B583B000AFFC1DFFF7FEFB031C2370084B084A126804210A431A600A
:4026C000FB1D1B78181CFFF7F5FB0420182100F041F8BD4603B090BD0000054080B500AF064B1B78002B04D1FFF7AEFF034B01221A70FFF7D7FFBD4680BDC046120100209C
:4027000080B582B000AF7860034B7A681204120C1A60BD4602B080BD8801054080B582B000AF7860034B7A681204120C1A60BD4602B080BD9401054080B582B000AF786087
:40274000034B7A681204120C1A60BD4602B080BD8C01054090B585B000AF786039603C1C0F34FFF7A3FB031C2370084B3A687968081C9040021C1A603B1C0F331B78181C7A
:40278000FFF798FBBD4605B090BDC0460800054080B582B000AF7860024B7A681A60BD4602B080BDB801054080B500AF104B8022D2041A600E4B0E4A12681A60002000F0CB
:4027C0004FF80B4B0A4A12681A600A4B0C221A60012000F08DF8084B31221A60074B181C00F04CF8064B181C00F056F8BD4680BD000105402401054028010540204E0000F8
:40280000DC05000090B583B000AFFC1DFFF74EFB031C2370084B084A126801210A431A60FB1D1B78181CFFF745FB0120182100F041F8BD4603B090BD0000054080B500AFBA
:40284000064B1B78002B04D1FFF7AEFF034B01221A70FFF7D7FFBD4680BDC0461301002080B582B000AF7860034B7A681204120C1A60BD4602B080BD0801054080B582B01D
:4028800000AF7860034B7A681204120C1A60BD4602B080BD1401054080B582B000AF7860034B7A681204120C1A60BD4602B080BD0C01054090B585B000AF786039603C1C65
:4028C0000F34FFF7F3FA031C2370084B3A687968081C9040021C1A603B1C0F331B78181CFFF7E8FABD4605B090BDC0460800054080B582B000AF7860024B7A681A60BD4674
:4029000002B080BD3801054080B500AF084B0F221A7000F0ABF800F05FF800F06DF8054B00221A70044B00221A70BD4680BDC04682000F4083000F4081000F4090B583B0E1
:4029400000AFFC1DFFF7B2FA031C2370124B124A1278D2B220210A43D2B21A700F4B0F4A1278D2B210210A43D2B21A700C4B0C4A1278D2B210210A43D2B21A70FB1D1B7899
:40298000181CFFF797FA00F0A1F800F01DF800F01FF8BD4603B090BD92000F4093000F4091000F4080B500AF064B1B78002B04D1FFF7AAFF034B01221A70FFF7BFFFBD4608
:4029C00080BDC0461401002080B500AFBD4680BD80B500AFBD4680BD80B582B000AF054AFB1D12781A70FB1D1B78181CBD4602B080BDC04663000F4080B582B000AF054A98
:402A0000FB1D12781A70FB1D1B78181CBD4602B080BDC04661000F4080B582B000AF021CFB1D1A70C046074B1B78DBB21A1C04231340F8D0044BFA1D12781A70BD4602B0EE
:402A400080BDC04663000F4041000F4080B582B000AF054AFB1D12781A70FB1D1B78181CBD4602B080BDC04651000F4090B583B000AF01E0124B1B78124B1B78DBB21A1C1E
:402A800020231340F6D1FC1DFFF710FA031C23700D4B0D4A1278D2B201210A43D2B21A70094B094A1278D2B201218A43D2B21A70FB1D1B78181CFFF7FDF9BD4603B090BD34
:402AC00051000F4061000F4091000F4080B500AF044B044A1268802109060A431A60BD4680BDC04600000240002934D00123002210B488422CD301242407A14204D28142E0
:402B000002D209011B01F8E7E400A14204D2814202D249005B00F8E7884201D3401A1A434C08A04202D3001B5C0822438C08A04202D3001B9C082243CC08A04202D3001BAC
:402B4000DC082243002803D01B0901D00909E3E7101C10BC7047002801D00020C04307B4024802A14018029003BDC046190000000029F0D003B5FFF7B9FF0EBC4243891AC3
:402B80001847C0467047C04670B50E4B0E4D0024ED1AAD101E1CAC4204D0A300F35898470134F8E700F066F9084B094D0024ED1AAD101E1CAC4204D0A300F3589847013477
:402BC000F8E770BD802E0000802E0000802E0000882E000010B50023934203D0CC5CC4540133F9E710BD031C8218934202D019700133FAE7704700000000000000C0A8013A
:402C000001FFFFFF000008DCFFFFFFC0A801FE000200FF00FE01000000000000C0A80101698700000A090000255809000400000000300F40800000310F40000300400F4046
:402C40000004000080300F40E02D00008000000001000F400B300F4028310F4033320F4039330F4006400F4007410F4006430F4002600F40820F050E1504170919051B0A3E
:402C80001D031F04350F392059045F01042807400E620F0812C01510160217091D041E601F102004254026802710312032083340360A371038043DA0452A4D104E0A4F0900
:402CC0005610574A661067218902C070C2F0C4F0CCEECE32D0E0D230D870E4200007011A0238040405180702080109C10B380C040E80106011181302140A1518161018562B
:402D0000199C1A091B031C841D331F442084211A24802502260427182884298230083113328033E0347F350F360238203B283E4556025720580459045B045F01D409DB042F
:402D4000DF01051407410E2A0F80150417161C011D181E402530261E27682D252F08350437613D203E06580559205A40600166406C146D016E066F157602770288018908CA
:402D80009428980499049A409D109E029F49A348A538A60BB004B302B510B710C0F0C2F0C470CAE0CCF0CEE0D60FD818E201E610EA40EE400C01620166028801C220D8C016
:402DC0005202568082028E80B603D4C0E28018801E1082108C40C60CE608100111010000010032008D004000CD05003A0002000D02230D0C1009603600008010CD000000FC
:402E00004D0080001200640072000800CD0000000F0070308000000F00000A80000010002605300004DDFBEC3FFFFFFF2200F0080400000040000000040404040000000162
:402E40000000C00040011011C001001140014001000000000000000000000000000000000200000002000000000000000000000000010203F8B5C046F8BC08BC9E4670470C
:402E800075040000891A0000F8B5C046F8BC08BC9E4670474D040000A82E0000C8000020180000003801000000000000C0F1FF0F00366E01C05D0000180000000000E02E29
:402EC00000000000000000000000000000000000000000000000000000000000000000000000000000000000000000000000000000000000000000000000000000000000D2
:402F00000000000000000000000000000000000000000000000000000000000000000000000000000000000000000000000000000000000000000000000000000000000091
:402F40000000000000000000000000000000000000000000000000000000000000000000000000000000000000000000000000000000000000000000000000000000000051
:402F80000000000000000000000000000000000000000000000000000000000000000000000000000000000000000000000000000000000000000000000000000000000011
:0200000490303A
:0200000086C3B5
:0200000490402A
:200000000000000000000000000000000000000000000000000000000000000000000000E0
:0200000490501A
:0C000000000204C81193110104D79856A7
:0200000490600A
:0100000001FE
:00000001FF