:4000000000100020110000008D1900008D19000080B500AF01F0BEFC80B584B000AF021CFB1D1A70204A3B1C0B3312781A701F4A3B1C0A3312781A700423013BFB6018E0F2
:400040001B4B1868391C0B31FA68131C5B009B18C3185B780B70164B1868391C0A31FA68131C5B009B18C3189B780B70FB68013BFB60FB68002B0ADB0D4B1968FA68131CF1
:400080005B009B185B5CFA1D12789A42D8D9094B3A1C0B3212781A60074B3A1C0A3212781A60BD4604B080BDCCF1FF0FCDF1FF0FD00000201CFF0B4020FF0B4080B500AF4B
:4000C000284B284A12688021C9020A431A601820FFF7A2FF244B19221A60052001F0B0FE224B234A1278D2B21A60052001F064FF1C4B1C4A11681F4A0A401A601E4B1F4A97
:400100001A601F4B30221A601E4B20221A601E4B21221A601D4B31221A601D4B31221A601C4B31221A601C4B11221A601B4B10221A601B4B822212061A601A4B1A4A1A6021
:400140001A4B1B4A1A601B4B194A1A601A4B1B4A1A601B4B194A1A601A4B184A1A60BD4680BDC04600010B402CFF0B4028FF0B40E5F1FF0FFFFFFBFF04010B400600008004
:40018000080202400C0202401C0202402002024024020240280202402C0202403002024008010B40000002400B000080400002401000008080000240040002401700008055
:4001C000440002408400024080B586B000AF72B63B1C173300221A7026E03B1C17331A78131C5B009B185B00734A9B183B613B691A78597809020A43997809040A43DB782A
:400200001B0613431A1C3B6919795B791B020B439BB2101C191C01F03BFC3B1C17331A783B1C173301321A703B1C17331B78022BD3D93B1C173300221A7038E03B1C173322
:400240001A78131C9B009B185B005C4A9B18FB60FB681A78597809020A43997809040A43DB781B061343BB60FB681A79597909020A43997909040A43DB791B0613437B60C0
:40028000BA1CFB68197A5B7A1B020B431380BB1C1B88B9687A68081C111C1A1C01F008FC3B1C17331A783B1C173301321A703B1C17331B78002BC1D0414A424B101C191CAC
:4002C00001F008FC404B802252001A803F4B01221A703F4B3F4A1A603F4BCE2292001A603E4B3F4A1A603F4B99221A603E4B50221A603E4B3E4A1A603E4B07221A603E4BA6
:400300003E4A1A603E4B0F221A603E4B0F221A603D4B02221A603D4B3D4A1A603D4B02221A603D4B02221A603C4B31221A603C4B02221A603B4B992212041A603A4BA022C7
:4003400012031A60394B8C2292051A60384B992212041A60374B902292031A60364B992212041A60354B992212041A60344BAA2212061A60334B334A1278D2B202210A43AD
:40038000D2B21A70304B304A1278D2B20C218A43D2B204210A43D2B21A702A4B294A1278D2B216210A43D2B21A70FFF787FE01F0D1FBBD4606B080BDBC2B0000D02B000096
:4003C000DC2B0000002C000000600F4002600F400000014000000303040001400C00014099EE000010000140000004400800044089ED18000001044008010440B60118003A
:4004000000020440180204400003044008030440B19D24001803044000040440080404401804044000500F4004500F4008500F4010500F4018500F4020500F4030500F40DC
:4004400034500F4000700F4001700F4010B5064C2378002B07D1054B002B02D0044800E000BF0123237010BDE800002000000000842B000008B5084B002B03D00748084954
:4004800000E000BF07480368002B03D0064B002B00D0984708BDC04600000000842B0000EC000020C80000200000000080B582B000AF01F0ADFC031C7B60054B01221A70A5
:4004C0007B68181C01F0AEFCBD4602B080BDC046A301002080B586B000AF78600A1CFB1C1A7000233B613B1C0E3300221A803B1C173300221A7010E03B1C17331B785B00F6
:400500007A68D3181B883A69D3183B613B1C17331A783B1C173301321A703A1C1732FB1C12781B789A42E7D3FB1C1B783869191C02F0A0FA031C1A1C3B1C0E331A803B1C3D
:400540000E331B88181CBD4606B080BD80B582B000AF0A1CFB1D011C1970BB1D1A70FB1D1A78BB1D1B78013B9A4205DAFB1D1A78FB1D01321A7002E0FB1D00221A70FB1DC8
:400580001B78181CBD4602B080BDC04680B586B000AFF8607B603B1C0B3319703B1C0A331A703B1C0B331B78002B07D03B1C17333A1C0B321278013A1A7006E03B1C1733BF
:4005C0003A1C0A321278013A1A707B68002B2ADA3B1C17331B785B00FA68D3181B881A1C7B68FA218900CB1A9A4212DB3B1C0B331B785B00FA68D3183A1C173212785200D3
:40060000F9688A1811887A6892B28A1892B21A8033E03B1C0B331B785B00FA68D318FA2292001A8029E03B1C17331B785B00FA68D3181B881A1C7B68FA21C900CB1A9A4207
:4006400012DC3B1C0B331B785B00FA68D3183A1C173212785200F9688A1811887A6892B28A1892B21A8008E03B1C0B331B785B00FA68D318FA22D2001A803B1C0B331A7898
:400680003B1C0A331B78101C191CFFF75FFF031C181CBD4606B080BD90B583B000AF3960111C1A1CFB1D1870BB1D19703B1D1A803B1D1A88724B9A4211D93B1D1A88714BCC
:4006C0009A420CD8FC1D3868FB1D1978BB1D1A7864235B42FFF75AFF031C2370CAE03B1D1A88684B9A4211D93B1D1A88664B9A420CD8FC1D3868FB1D1978BB1D1A784B2387
:400700005B42FFF743FF031C2370B3E03B1D1A885D4B9A4211D93B1D1A885C4B9A420CD8FC1D3868FB1D1978BB1D1A7832235B42FFF72CFF031C23709CE03B1D1A88534B31
:400740009A4211D93B1D1A88514B9A420CD8FC1D3868FB1D1978BB1D1A7819235B42FFF715FF031C237085E03B1D1A88494B9A4210D83B1D1A88464B9A420BD9FC1DFB1DC9
:400780001A78BB1D1B78101C191CFFF7DFFE031C23706FE03B1D1A883E4B9A4213D93B1D1A883D4B9A420ED8FC1D3968FB1D1A78BB1D1B78081C111C1A1C1923FFF7E6FE0C
:4007C000031C237056E03B1D1A88334B9A4213D93B1D1A88314B9A420ED8FC1D3968FB1D1A78BB1D1B78081C111C1A1C3223FFF7CDFE031C23703DE03B1D1A88274B9A4216
:4008000013D93B1D1A88264B9A420ED8FC1D3968FB1D1A78BB1D1B78081C111C1A1C4B23FFF7B4FE031C237024E03B1D1A881C4B9A4214D93B1D1A88FA23DB009A420ED89F
:40084000FC1D3968FB1D1A78BB1D1B78081C111C1A1C6423FFF79AFE031C23700AE0FC1DFB1D1A78BB1D1B78101C191CFFF76EFE031C2370FB1D1B78181CBD4603B090BDEC
:40088000E703000064040000E10400005E050000D1050000E605000059060000D60600005307000080B584B000AF7860FB1C1970BB1C1A70FB1C1B787A68D3181B785BB240
:4008C0001A023B1C0E331A80BB1C1B787A68D3181B785BB29AB23B1C0C33111CFF220A401A803B1C0A33391C0E313A1C0C32098812880A431A803B1C0A3300215B5E002B58
:4009000000DA01335B109BB29AB23B1C0833054952181A803B1C08331B88181CBD4604B080BDC046DC05000080B584B000AF78603B1C0E33FA2252001A803B1C0E331B88B2
:40094000181CBD4604B080BD80B500AFBD4680BD80B582B000AFFB1D00221A70FB1D00221A700CE0FB1D1B78FA1D12780749895C074AD154FB1D1A78FB1D01321A70FB1D13
:400980001B78152BEED9BD4602B080BD1C0100206001002080B586B000AF0A1CFB1D011C19703B1D1A803B1C0C33FF221A703B1C0C33FF225A703B1C0C33FA1D12789A70FA
:4009C0003B1C0C330522DA703B1C0C3303221A713B1C0C331E225A713B1D1B88DAB23B1C0C339A713B1D1B881B0A9BB2DAB23B1C0C33DA713B1C0C339A79FB1D1B78D318C8
:400A0000DAB23B1C0C33DB79D318DBB22633DBB2DB43DAB23B1C0C331A723B1C0C33181C092101F01FFBBD4606B080BD80B586B000AF0A1CFB1D011C19703B1D1A803B1CDA
:400A40000C33FF221A703B1C0C33FF225A703B1C0C33FA1D12789A703B1C0C330522DA703B1C0C3303221A713B1C0C330E225A713B1D1B88DAB23B1C0C339A713B1D1B88C9
:400A80001B0A9BB2DAB23B1C0C33DA713B1C0C339A79FB1D1B78D318DAB23B1C0C33DB79D318DBB21633DBB2DB43DAB23B1C0C331A723B1C0C33181C092101F0D3FABD46D3
:400AC00006B080BD80B586B000AF0A1CFB1D011C19703B1D1A803B1C0C33FF221A703B1C0C33FF225A703B1C0C33FA1D12789A703B1C0C330522DA703B1C0C3303221A71C3
:400B00003B1C0C3320225A713B1D1B88DAB23B1C0C339A713B1D1B881B0A9BB2DAB23B1C0C33DA713B1C0C339A79FB1D1B78D318DAB23B1C0C33DB79D318DBB22833DBB2FB
:400B4000DB43DAB23B1C0C331A723B1C0C33181C092101F087FABD4606B080BD90B583B000AF4B4B1B78012B03D060DD022B1CD05EE0FB1D00221A700AE0FB1D1A78454B82
:400B800052004549D152FB1D1A78FB1D01321A70FB1D1B78132BF0D9404B00221A703E4B0220191CFFF7F6FE42E03C1D3C4B181C10211122FFF776FE031C2380374B1B7825
:400BC0001A1C344B5200391D0988D152334B1B78122B06D8314B1B780133DAB22F4B1A7002E02E4B00221A70BC1C2A4B181C1421FFF770FC031C2380BB1C1A88FA23DB0093
:400C00009A420BD8BB1C1A88264B9A4206D9BB1C1B880220191CFFF7BDFE04E01E4B0220191CFFF7B7FE204B00221A7000E0C046174B1B78012B0CD002DC002B05D024E0A3
:400C4000022B0AD0032B14D01FE0114B01221A701BE00F4B03221A7017E0134B1B78002B03D00B4B02221A700FE0094B03221A700BE00D4B1B78002B03D0054B02221A70A1
:400C800002E0034B03221A70C046BD4603B090BDA0010020A8010020DC0500003201002060010020E70300000401002090B583B000AF4B4B1B78012B03D060DD022B1CD059
:400CC0005EE0FB1D00221A700AE0FB1D1A78454B52004549D152FB1D1A78FB1D01321A70FB1D1B78132BF0D9404B00221A703E4B0120191CFFF74EFE42E03C1D3C4B181C0C
:400D000012211322FFF7CEFD031C2380374B1B781A1C344B5200391D0988D152334B1B78122B06D8314B1B780133DAB22F4B1A7002E02E4B00221A70BC1C2A4B181C1421E6
:400D4000FFF7C8FB031C2380BB1C1A88FA23DB009A420BD8BB1C1A88264B9A4206D9BB1C1B880120191CFFF715FE04E01E4B0120191CFFF70FFE204B00221A7000E0C046A7
:400D8000174B1B78012B0CD002DC002B05D024E0022B0AD0032B14D01FE0114B01221A701BE00F4B03221A7017E0134B1B78002B03D00B4B02221A700FE0094B03221A7053
:400DC0000BE00D4B1B78002B03D0054B02221A7002E0034B03221A70C046BD4603B090BDD001002078010020DC050000A201002060010020E70300000501002090B583B002
:400E000000AF3C1D0120FFF78FFD031C2380784B1B78012B07D000DCB8E0022B1ED0032B00D1A4E0B3E0FB1D00221A700AE0FB1D1A78704B52007049D152FB1D1A78FB1D44
:400E400001321A70FB1D1B78132BF0D96B4B00221A70694B181C01F035FC98E0BC1C684B181C0E210F22FFF71DFD031C2380634B1B781A1C5F4B5200B91C0988D1525F4B88
:400E80001B78122B06D85D4B1B780133DAB25B4B1A7002E0594B00221A703C1C554B181C1421FFF717FB031C23803B1D1B88642B1FD83B1C1A88534B9A4204D84E4B181C5F
:400EC00001F000FC4FE03B1C1A88FA23DB009A420AD83B1C1A884C4B9A4205D93B1C1B88181C01F0EFFB3EE0434B181C01F0EAFB39E03B1D1A88444B9A421FD93B1C1A88AF
:400F00003D4B9A4204D93C4B181C01F0DBFB2AE03B1C1A88FA23DB009A420AD83B1C1A88394B9A4205D93B1C1B88181C01F0CAFB19E0314B181C01F0C5FB14E03B1C1A88D3
:400F4000FA23DB009A420AD83B1C1A882E4B9A4205D93B1C1B88181C01F0B4FB03E0264B181C01F0AFFB294B00221A700FE03B1D1B88642B04D93B1D1A88234B9A4204D907
:400F80001D4B181C01F09EFB01E000E0C046184B1B78012B0CD002DC002B05D024E0022B0AD0032B14D01FE0114B01221A701BE00F4B03221A7017E0144B1B78002B03D058
:400FC0000B4B02221A700FE0094B03221A700BE00E4B1B78002B03D0054B02221A7002E0034B03221A70C046BD4603B090BDC046A401002034010020DC0500005D010020C1
:4010000060010020DB050000E70300000601002090B583B000AF3C1D0020FFF785FC031C23807A4B1B78012B07D000DCBCE0022B1ED0032B00D1A6E0B7E0FB1D00221A7097
:401040000AE0FB1D1A78724B52007249D152FB1D1A78FB1D01321A70FB1D1B78132BF0D96D4B00221A706B4B181C01F0DBFB9CE0BC1C6A4B181C0C210D22FFF713FC031CEC
:401080002380654B1B781A1C614B5200B91C0988D152614B1B78122B06D85F4B1B780133DAB25D4B1A7002E05B4B00221A703C1C574B181C1421FFF70DFA031C23803B1D56
:4010C0001A888C235B009A421FD83B1C1A88544B9A4204D84F4B181C01F0A4FB4FE03B1C1A88FA23DB009A420AD83B1C1A884D4B9A4205D93B1C1B88181C01F093FB3EE0CF
:40110000444B181C01F08EFB39E03B1D1A88464B9A421FD93B1C1A883E4B9A4204D93D4B181C01F07FFB2AE03B1C1A88FA23DB009A420AD83B1C1A883A4B9A4205D93B1C50
:401140001B88181C01F06EFB19E0324B181C01F069FB14E03B1C1A88FA23DB009A420AD83B1C1A882F4B9A4205D93B1C1B88181C01F058FB03E0274B181C01F053FB2B4BBF
:4011800000221A7011E03B1D1A888C235B009A4204D93B1D1A88244B9A4204D91D4B181C01F040FB01E000E0C046184B1B78012B0CD002DC002B05D024E0022B0AD0032B0F
:4011C00014D01FE0114B01221A701BE00F4B03221A7017E0154B1B78002B03D00B4B02221A700FE0094B03221A700BE00F4B1B78002B03D0054B02221A7002E0034B0322F8
:401200001A70C046BD4603B090BDC046A1010020D4010020DC0500005C01002060010020DB050000E70300001F0300000701002090B585B000AF021C3960FB1D1A705A4B44
:401240001B78012B04D000DC79E0022B21D077E03B1C0F3300221A700EE03B1C0F331B785B003A68D318514A1A803B1C0F331A783B1C0F3301321A703B1C0F331B78132BCA
:40128000EBD9FB1D00221A70484B181C01F06AF956E03C1C0C34464B181C0A210B22FFF701FB031C2380FC1DFB1D19783A683B1C0C331B88081C111C1422FFF7EDF9031CCD
:4012C00023703C1C0A343B68181C1421FFF702F9031C23803B1C0A331A88FA239B009A4206D03B1C0A331A88FA23DB009A4207D1304B1B889BB25B429BB29AB22D4B1A80D1
:401300003B1C0A331A88FA23DB009A420CD83B1C0A331A88284B9A4206D93B1C0A331B88181C01F01FF906E0012000F0BBFC1F4B181C01F017F9214B00221A7000E0C0469C
:40134000194B1B78012B0CD002DC002B05D024E0022B0AD0032B14D01FE0134B01221A701BE0114B03221A7017E0144B1B78002B03D00D4B02221A700FE00B4B03221A7082
:401380000BE00E4B1B78002B03D0074B02221A7002E0054B03221A70C046FB1D1B78181CBD4605B090BDC0465E010020DC05000060010020CC000020E703000008010020A7
:4013C00080B582B000AF002000F0C8FE0A2000F0CFFD012000F0C2FE012000F0E5FEFB1D00221A700DE000F0ABFE031C002B00D00BE0042000F0BCFDFB1D1A78FB1D013245
:401400001A70FB1D1B78632BEDD9234B00221A70224B00221A70224B00221A70214B00221A70214B00221A7001F082FA00F0D2FB00F0C2FB00F0EAFD01F0C6F901F064F8FC
:4014400001F012F9194B042001211A1C00F0C4F8FE206421FFF736FB154BFE20191CFFF7E5FA144B181C01F02DF9124B181C01F0D9F9114B181C00F07BFD00F0BBFE00F003
:40148000DDFF62B60D4B181C00F0B2FB00F068FCBD4602B080BDC0465E010020A0010020D0010020A1010020A401002087690000FF030000DC050000B80B0000AD040000C4
:4014C00090B593B000AF0023FB630123BB6300237B63FFF775FF2A4B1B78002B13D0FFF737FA284B01221A70274B01221A70274B01221A70264B01221A70264B01221A70B0
:401500001F4B00221A703C1C47343B1C47331A783B1D101C191CFFF78BFE031C2370FFF777FDFFF76BFCFFF719FBFFF7BFFBFFF70BFAC046184B1B78DBB2002BFAD0164B1A
:4015400000221A7000233B6413E0144B1B881BB21B129BB2DAB212493B6CCB181A703B6C01330E4A1288D1B20D4AD1543B6C02333B643B6C152BE8DD014B01221A70AAE749
:40158000FC0100200801002005010020040100200701002006010020A3010020CC0000201C01002080B582B000AF021CFB1D1A70FB1D1B78181C01F0F5F9C04601F0D2F908
:4015C000031C1A1C01231340F8D001F005FA031C181CBD4602B080BD80B590B000AFFB1D1870BB1D19703B1D1A803A1C2832524B111C1A1C1323081C111C1A1C01F0B0FA03
:401600003A1C14324D4B111C1A1C1223081C111C1A1C01F0A5FA3B1C1433BA1D1278DA733B1D1B881B0A9BB2DAB23B1C14331A743B1D1B88DAB23B1C14335A743B1C0C33CD
:40164000092000211A1C062300F05AF93B1C28330A225A743B1C2833FA1D12789A743B1D1B881B0A9BB2DAB23B1C14331A713B1D1B88DAB23B1C14335A713B1C283300208D
:4016800000211A1C132300F0F1F83B1C1433002001211A1C122300F0E9F83B1C0C33092000211A1C062300F0E1F812200121642200F0A2F8642000F05BFC00F043F8002026
:4016C000142100F049F8002000F06EFD0020FFF769FF0020FFF766FF1420FFF763FF3B1C3E3300221A8016E03B1C3E331B881B0A9BB2DBB2181CFFF755FF3B1C3E331B88B7
:40170000DBB2181CFFF74EFF3B1C3E331A883B1C3E3301321A803B1C3E331A88084B9A42E2D9012000F040FD3B1C0C335B79181CBD4610B080BDC046882B00009C2B0000E6
:40174000FF03000080B500AF01200121012200F023F8BD4680BDC04680B582B000AF0A1CFB1D011C1970BB1D1A70BB1D1B782C2001211A1C00F010F818200021012200F0FD
:401780000BF8FB1D1B78162000211A1C00F004F8BD4602B080BDC04680B582B000AFBB1D18807B1D19703B1D1A70002000F0FCFCBB1D1B881B0A9BB2DBB2181CFFF7F2FEE5
:4017C000BB1D1B88DBB2181CFFF7ECFE7B1D1B78DB00DBB204221343DBB2DBB2181CFFF7E1FE3B1D1B78181CFFF7DCFE012000F0DBFCBD4602B080BD80B582B000AFBB1DE4
:4018000018807B1D1970BB1C1A80002000F0CCFCBB1D1B881B0A9BB2DBB2181CFFF7C2FEBB1D1B88DBB2181CFFF7BCFE7B1D1B78DB00DBB204221343DBB2DBB2181CFFF703
:40184000B1FEBB1C1B881B0A9BB2DBB2181CFFF7A9FEBB1C1B88DBB2181CFFF7A3FE012000F0A2FCBD4602B080BDC04680B584B000AF3A601A1CBB1D18807B1D19703B1D25
:401880001A70002000F090FCBB1D1B881B0A9BB2DBB2181CFFF786FEBB1D1B88DBB2181CFFF780FE7B1D1B78DB00DBB204221343DBB2DBB2181CFFF775FE3B1C0F330022A9
:4018C0001A700FE03B1C0F331B783A68D3181B78181CFFF767FE3B1C0F331A783B1C0F3301321A703A1C0F323B1D12781B789A42E8D3012000F058FCBD4604B080BDC04611
:4019000090B585B000AF3A601A1CBB1D18807B1D19703B1D1A70002000F046FCBB1D1B881B0A9BB2DBB2181CFFF73CFEBB1D1B88DBB2181CFFF736FE7B1D1B78DB00DBB212
:40194000181CFFF72FFE3B1C0F3300221A7010E03B1C0F331B783A68D4180020FFF722FE031C23703B1C0F331A783B1C0F3301321A703A1C0F323B1D12781B789A42E7D316
:40198000012000F011FCBD4605B090BD80B500AFFEE7C04680B586B000AF224B7B61224B3B61204B7B6135E03B691B68FB603B695B68BB603B699B683B6000237B600CE03D
:4019C000FB681A68BB681A60BB680433BB60FB680433FB607B6804337B607A683B689A42EED13B69DB683B6000237B6008E0BB6800221A60BB680433BB607B6804337B6055
:401A00007A683B689A42F2D13B6910333B617B69013B7B617B69002BC6D101F07BF8FFF74FFDFEE701000000242E000080B582B000AF00237B600FE07B68032B04D8104B34
:401A40007A689200D35800E00E4B0F4A796889008B507B6801337B607B682F2BECD9FEF7B3FB0A4B00221A608023DB058022D205126801210A431A60BD4602B080BDC04611
:401A8000000000008D19000000000020C000002080B582B000AF786039607A683B68101C00211A1C01F065F8BD4602B080BDC04680B584B000AFF860B9607A60F968BA68C5
:401AC0007B68081C111C1A1C01F04AF8BD4604B080BDC04680B586B000AF7860396000233B6100237B612EE07B699B007A68D3181B68BB603B1C0F33BA681A70BB68FF2285
:401B00009343BB6017E03B695B003A68D3181B781A1CBB68D3183A69520039688A1852781A703B6901333B613B1C0F331A783B1C0F33013A1A703B1C0F331B78002BE2D1C7
:401B40007B6901337B617B69082BCDD9BD4606B080BDC04680B500AF054B0F221A60054B0F221A60012000F007F8BD4680BDC04600031A4040031A4080B584B000AF021C58
:401B8000FB1D1A700B4B1B68FB60FB1D1B78002B05D0FB68802212061343FB6003E0FB685B005B08FB60034BFA681A60BD4604B080BDC04680031A4080B500AF044B044AF5
:401BC0001268802109060A431A60BD4680BDC0460400024080B500AF044B044A1268802109060A431A60BD4680BDC0468400024080B582B000AF786000F04AF87B68181CB3
:401C000000F008F8032000F013F800F037F8BD4602B080BD80B582B000AF7860034A8C237968D150BD4602B080BDC0460000002090B585B000AF021CFB1D1A701E23FB60FC
:401C40003C1C0B3400F006F9031C23700A4B0A4A126892009108FA1D1078FA68041C9440221C0A431A603B1C0B331B78181C00F0F5F8BD4605B090BD10E400E080B500AFEE
:401C8000024B802212031A60BD4680BD00E100E080B500AF024B802212031A60BD4680BD80E100E080B584B000AF021CFB1D1A700E4B1B68DAB23B1C0F3340218A431A7031
:401CC000FB1D1B789B01DAB240231340D9B23B1C0F333A1C0F3212780A431A70034B3A1C0F3212781A60BD4604B080BD0001044080B500AF094B802292041A60084B0C22B2
:401D00001A60012000F078F8064B181C00F048F8002000F037F8BD4680BDC046C0010540E40105401027000090B583B000AFFC1D00F090F8031C2370084B084A1268082155
:401D40000A431A60FB1D1B78181C00F087F80820182100F033F8BD4603B090BD0000054080B500AF064B1B78002B04D1FFF7C0FF034B01221A70FFF7D7FFBD4680BDC04600
:401D80000901002080B582B000AF7860034B7A681204120C1A60BD4602B080BDC801054080B582B000AF7860034B7A681204120C1A60BD4602B080BDD401054090B585B0DB
:401DC00000AF786039603C1C0F3400F043F8031C2370084B3A687968081C9040021C1A603B1C0F331B78181C00F038F8BD4605B090BDC0460800054080B582B000AF786023
:401E0000024B7A681A60BD4602B080BDF801054080B500AF024B1B68181CBD4680BDC046FC01054080B582B000AF7860024B7A681A60BD4602B080BDF0010540000000009A
:401E40000230800804D0C0460138FDD1C046C046C0467047EFF3108072B6704780F310887047C046C046C04680B584B000AF021C3960FB1D1A7080239B05FB60FB1D1B781F
:401E80001F2B02D9002000F069F8FB1D1B7810339B00FA68D3181B68BB60FB1D1B7810339B00FA68D3183A681A60BB68181CBD4604B080BD90B587B000AF0A1CFB1D011C55
:401EC0001970BB1D1A70BB1D1B78032B02D9002000F044F8FB1D1B781F2B02D9002000F03DF8FB1D1A7803231340DB0006337B613C1C1334FFF7AEFF031C2370FB1D1B7870
:401F00009B08DBB29B0014495B181B68FB607B690322111C99400B1CDA43FB681340FB60BB1D1A787B69111C99400B1CFA681343FB60FB1D1B789B08DBB29B00064A9B18BD
:401F4000FA681A603B1C13331B78181CFFF786FFBD4607B090BDC04600E400E080B582B000AF021CFB1D1A7001BEBD4602B080BD80B582B000AF786008E00C4B1B68181C6A
:401F8000FFF75EFF7B680A4A9B187B607A6880231B029A42F1D8074B1B687A685343181CFFF74EFFBD4602B080BDC046E00000200080FFFFD800002080B582B000AF021C5C
:401FC000BB1D1A80BB1D1B88044A12785343181CFFF736FFBD4602B080BDC046DC00002080B500AF00F058F8BD4680BD80B500AF054B054A1268802109060A431A6000F06B
:4020000017F8BD4680BDC0460000074080B500AF064B1B78002B04D1FFF7E2FF034B01221A70FFF7E3FFBD4680BDC0460C01002080B500AFBD4680BD80B582B000AF78600D
:40204000C046064B1A680F231340082BF9D0044B7A681A60BD4602B080BDC046080207404002074080B584B000AF786039600023FB6009E07A68FB68D3181B78181CFFF7AC
:40208000DBFFFB680133FB60FA683B689A42F1D3BD4604B080BDC04680B500AF174B184A1A60184B00221A60174B01221A60174B174A1A60174B07221A60174B00221A6055
:4020C000164B01221A60164B114A1A60154B00221A60154B00221A60144B00221A60144B00221A60134B00221A60134B00221A60124B00221A60BD4680BDC0460000074044
:402100000B000002400007404800074000030740070000800403074010030740440007400002074004020740880E0740C80E0740480F0740080F0740C80F0740880F0740F0
:4021400080B500AF044B1A68022313405B08DBB2181CBD4680BDC0460400044080B584B000AF021CFB1D1A700E4B1B68DAB23B1C0F3304218A431A70FB1D1B789B00DAB259
:4021800004231340D9B23B1C0F333A1C0F3212780A431A70034B3A1C0F3212781A60BD4604B080BD0000044080B584B000AF021CFB1D1A700E4B1B68DAB23B1C0F33082166
:4021C0008A431A70FB1D1B78DB00DAB208231340D9B23B1C0F333A1C0F3212780A431A70034B3A1C0F3212781A60BD4604B080BD0000044080B500AF064B1B78002B04D1F3
:4022000000F00AF8034B01221A7000F003F9BD4680BDC0461401002090B585B000AF0E200321FFF747FE604B0E20191CFFF71CFE5E4B0F221A605E4B5E4A1A605E4B5F4A05
:402240001A605F4B5F4A1A605F4B8022D2051A605E4B5F4A1A605F4B5D4A1A605E4B5E4A1268802149020A431A605C4B5B4A1268802149020A431A60594B00221A60594B08
:4022800000221A60584B01221A60584B02221A60574B1B687B607A68564B13407B607B68012213437B60524B7A681A600023FB6073E0514BFA689200D258DC239B011340A7
:4022C0007B604E4AFB68D3181B787A6813437B60FB689B004A4A9B187A681A60464BFA689200D258012313400AD03D4B3C4A1168FA680120041C9440221C92B20A431A608F
:402300003D4BFA689200D258022313400AD0354B344A1168FA680120041C9440221C92B20A431A60344BFA689200D25880239B00134003D080235B00BB6002E080235B0173
:40234000BB602D4BFA689200D25880235B00134005D12C4BFA6852000021D15209E0BB68002B00DA01335B1099B2264BFA685200D152BB68244A53438022D2009B18002B5A
:4023800001DA224C1B19DB129BB219B2204BFA689200D150FB680133FB60FB68032B88D9BD4605B090BDC0465924000020001A4000001A404020001304001A408400008006
:4023C00018001A400000FF071C001A4010001A400200020014001A4000031A4040031A4028021A4038021A4018021A40000F1A4030001A40FFFFFFDFEC2D0000FC2D00007C
:4024000080001A401002002010270000FF0700000002002080B500AF074B1B68002B09DB054B054A1268802109060A431A600A20FFF7C2FDBD4680BD00001A4080B500AF7C
:40244000044B044A1268802149020A431A60BD4680BDC04604001A4080B582B000AF044B1B687B60024B7A681A60BD4602B080BD10021A4080B500AF104B8022D2041A60F3
:402480000E4B0E4A12681A60002000F04FF80B4B0A4A12681A600A4B0C221A60012000F08DF8084B31221A60074B181C00F04CF8064B181C00F056F8BD4680BD400105408C
:4024C0006401054068010540204E0000DC05000090B583B000AFFC1DFFF7BCFC031C2370084B084A126802210A431A60FB1D1B78181CFFF7B3FC0220182100F041F8BD4681
:4025000003B090BD0000054080B500AF064B1B78002B04D1FFF7AEFF034B01221A70FFF7D7FFBD4680BDC0461501002080B582B000AF7860034B7A681204120C1A60BD46D9
:4025400002B080BD4801054080B582B000AF7860034B7A681204120C1A60BD4602B080BD5401054080B582B000AF7860034B7A681204120C1A60BD4602B080BD4C01054036
:4025800090B585B000AF786039603C1C0F34FFF761FC031C2370084B3A687968081C9040021C1A603B1C0F331B78181CFFF756FCBD4605B090BDC0460800054080B582B018
:4025C00000AF7860024B7A681A60BD4602B080BD7801054080B500AF104B8022D2041A600E4B0E4A12681A60002000F04FF80B4B0A4A12681A600A4B0C221A60012000F022
:402600008DF8084B31221A60074B181C00F04CF8064B181C00F056F8BD4680BD80010540A4010540A8010540204E0000DC05000090B583B000AFFC1DFFF70CFC031C23705B
:40264000084B084A126804210A431A60FB1D1B78181CFFF703FC0420182100F041F8BD4603B090BD0000054080B500AF064B1B78002B04D1FFF7AEFF034B01221A70FFF751
:40268000D7FFBD4680BDC0461601002080B582B000AF7860034B7A681204120C1A60BD4602B080BD8801054080B582B000AF7860034B7A681204120C1A60BD4602B080BD7D
:4026C0009401054080B582B000AF7860034B7A681204120C1A60BD4602B080BD8C01054090B585B000AF786039603C1C0F34FFF7B1FB031C2370084B3A687968081C90401D
:40270000021C1A603B1C0F331B78181CFFF7A6FBBD4605B090BDC0460800054080B582B000AF7860024B7A681A60BD4602B080BDB801054080B500AF104B8022D2041A60FA
:402740000E4B0E4A12681A60002000F04FF80B4B0A4A12681A600A4B0C221A60012000F08DF8084B31221A60074B181C00F04CF8064B181C00F056F8BD4680BD0001054009
:402780002401054028010540204E0000DC05000090B583B000AFFC1DFFF75CFB031C2370084B084A126801210A431A60FB1D1B78181CFFF753FB0120182100F041F8BD4602
:4027C00003B090BD0000054080B500AF064B1B78002B04D1FFF7AEFF034B01221A70FFF7D7FFBD4680BDC0461701002080B582B000AF7860034B7A681204120C1A60BD4615
:4028000002B080BD0801054080B582B000AF7860034B7A681204120C1A60BD4602B080BD1401054080B582B000AF7860034B7A681204120C1A60BD4602B080BD0C01054033
:4028400090B585B000AF786039603C1C0F34FFF701FB031C2370084B3A687968081C9040021C1A603B1C0F331B78181CFFF7F6FABD4605B090BDC0460800054080B582B018
:4028800000AF7860024B7A681A60BD4602B080BD3801054080B500AF084B0F221A7000F0ABF800F05FF800F06DF8054B00221A70044B00221A70BD4680BDC04682000F4049
:4028C00083000F4081000F4090B583B000AFFC1DFFF7C0FA031C2370124B124A1278D2B220210A43D2B21A700F4B0F4A1278D2B210210A43D2B21A700C4B0C4A1278D2B229
:4029000010210A43D2B21A70FB1D1B78181CFFF7A5FA00F0A1F800F01DF800F01FF8BD4603B090BD92000F4093000F4091000F4080B500AF064B1B78002B04D1FFF7AAFFF5
:40294000034B01221A70FFF7BFFFBD4680BDC0461801002080B500AFBD4680BD80B500AFBD4680BD80B582B000AF054AFB1D12781A70FB1D1B78181CBD4602B080BDC04679
:4029800063000F4080B582B000AF054AFB1D12781A70FB1D1B78181CBD4602B080BDC04661000F4080B582B000AF021CFB1D1A70C046074B1B78DBB21A1C04231340F8D087
:4029C000044BFA1D12781A70BD4602B080BDC04663000F4041000F4080B582B000AF054AFB1D12781A70FB1D1B78181CBD4602B080BDC04651000F4090B583B000AF01E013
:402A0000124B1B78124B1B78DBB21A1C20231340F6D1FC1DFFF71EFA031C23700D4B0D4A1278D2B201210A43D2B21A70094B094A1278D2B201218A43D2B21A70FB1D1B7826
:402A4000181CFFF70BFABD4603B090BD51000F4061000F4091000F4080B500AF044B044A1268802109060A431A60BD4680BDC04600000240002934D00123002210B48842F9
:402A80002CD301242407A14204D2814202D209011B01F8E7E400A14204D2814202D249005B00F8E7884201D3401A1A434C08A04202D3001B5C0822438C08A04202D3001B11
:402AC0009C082243CC08A04202D3001BDC082243002803D01B0901D00909E3E7101C10BC7047002801D00020C04307B4024802A14018029003BDC046190000000029F0D0ED
:402B000003B5FFF7B9FF0EBC4243891A1847C0467047C04670B50E4B0E4D0024ED1AAD101E1CAC4204D0A300F35898470134F8E700F066F9084B094D0024ED1AAD101E1C63
:402B4000AC4204D0A300F35898470134F8E770BD0C2E00000C2E00000C2E0000142E000010B50023934203D0CC5CC4540133F9E710BD031C8218934202D019700133FAE7E6
:402B8000704700000000000000C0A80101FFFFFF000008DCFFFFFFC0A801FE000200FF00FE01000000000000C0A80101698700000A090000255809000400000000300F4039
:402BC000800000310F40000300400F400004000080300F406C2D00008000000001000F400B300F4028310F4033320F4039330F4006400F4007410F4006430F4002600F40C1
:402C0000820F050E1504170919051B0A1D031F04350F392059045F01042807400E620F0812C01510160217091D041E601F102004254026802710312032083340360A3710F5
:402C400038043DA0452A4D104E0A4F095610574A661067218902C070C2F0C4F0CCEECE32D0E0D230D870E4200007011A0238040405180702080109C10B380C040E80106033
:402C800011181302140A151816101856199C1A091B031C841D331F442084211A24802502260427182884298230083113328033E0347F350F360238203B283E4556025720C7
:402CC000580459045B045F01D409DB04DF01051407410E2A0F80150417161C011D181E402530261E27682D252F08350437613D203E06580559205A40600166406C146D011A
:402D00006E066F1576027702880189089428980499049A409D109E029F49A348A538A60BB004B302B510B710C0F0C2F0C470CAE0CCF0CEE0D60FD818E201E610EA40EE406E
:402D40000C01620166028801C220D8C05202568082028E80B603D4C0E28018801E1082108C40C60CE608100111010000010032008D004000CD05003A0002000D02230D0CAD
:402D80001009603600008010CD0000004D0080001200640072000800CD0000000F0070308000000F00000A80000010002605300004DDFBEC3FFFFFFF2200F0080400000028
:402DC0004000000004040404000000010000C00040011011C00100114001400100000000000000000000000000000000020000000200000000000000000000000001020302
:402E0000F8B5C046F8BC08BC9E467047750400002D1A0000F8B5C046F8BC08BC9E4670474D040000382E0000C8000020200000003001000000000000000000000CFE00004C
:402E4000C0F1FF0F00366E01C05D0000180000000000E02E0000000000000000000000000000000000000000000000000000000000000000000000000000000000000000AB
:402E80000000000000000000000000000000000000000000000000000000000000000000000000000000000000000000000000000000000000000000000000000000000012
:402EC00000000000000000000000000000000000000000000000000000000000000000000000000000000000000000000000000000000000000000000000000000000000D2
:402F00000000000000000000000000000000000000000000000000000000000000000000000000000000000000000000000000000000000000000000000000000000000091
:402F40000000000000000000000000000000000000000000000000000000000000000000000000000000000000000000000000000000000000000000000000000000000051
:0200000490303A
:020000004D2C85
:0200000490402A
:200000000000000000000000000000000000000000000000000000000000000000000000E0
:0200000490501A
:0C000000000204C81193110104D75EBF78
:0200000490600A
:0100000001FE
:00000001FF