:400000000010002011000000212000002120000080B500AF02F008F880B584B000AF021CFB1D1A70204A3B1C0B3312781A701F4A3B1C0A3312781A700423013BFB6018E075
:400040001B4B1868391C0B31FA68131C5B009B18C3185B780B70164B1868391C0A31FA68131C5B009B18C3189B780B70FB68013BFB60FB68002B0ADB0D4B1968FA68131CF1
:400080005B009B185B5CFA1D12789A42D8D9094B3A1C0B3212781A60074B3A1C0A3212781A60BD4604B080BDCCF1FF0FCDF1FF0FDC0000201CFF0B4020FF0B4080B500AF3F
:4000C000294B294A12688021C9020A431A601820FFF7A2FF254B19221A60052002F0F8F9234B244A1278D2B21A60052002F0ACFA1D4B1D4A1168204A0A401A601F4B204A05
:400100001A60204B20221A601F4B30221A601F4B21221A601E4B31221A601E4B31221A601D4B31221A601D4B11221A601C4B10221A601C4B31221A601B4B822212061A6028
:400140001A4B1B4A1A601B4B1B4A1A601B4B1C4A1A601C4B1C4A1A601C4B1B4A1A601C4B194A1A60BD4680BD00010B402CFF0B4028FF0B40E5F1FF0FFFFFFBFF04010B403F
:4001800006000080080202400C0202401C0202402002024024020240280202402C020240340202403C02024008010B40000002400B000080400002400E000080800002402A
:4001C000100000800400024017000080440002408400024080B586B000AF72B63B1C173300221A7026E03B1C17331A78131C5B009B185B00784A9B183B613B691A785978CE
:4002000009020A43997809040A43DB781B0613431A1C3B6919795B791B020B439BB2101C191C01F07FFF3B1C17331A783B1C173301321A703B1C17331B78022BD3D93B1C74
:40024000173300221A7038E03B1C17331A78131C9B009B185B00614A9B18FB60FB681A78597809020A43997809040A43DB781B061343BB60FB681A79597909020A4399790C
:4002800009040A43DB791B0613437B60BA1CFB68197A5B7A1B020B431380BB1C1B88B9687A68081C111C1A1C01F04CFF3B1C17331A783B1C173301321A703B1C17331B789A
:4002C000002BC1D0464A474B101C191C01F04CFF454BA02212011A80444B01221A70444B444A1A60444BCE2292001A60434BC02292021A60424B434A1A60434BEE221A60FC
:40030000424B50221A60424B424A1A60424B07221A60424B424A1A60424B1F221A60424BC022D2011A60414B0F221A60404BF2221A60404B404A1A60404B02221A60404B57
:4003400003221A603F4B24221A603F4B992212041A603E4BA02212031A603D4B8C2292051A603C4B992212041A603B4B902212031A603A4B992212041A60394BC022920439
:400380001A60384B992212041A60374BAA2212061A60364B354A1278D2B202210A43D2B21A70334B324A1278D2B20C218A43D2B204210A43D2B21A702C4B2C4A1278D2B288
:4003C00016210A43D2B21A70FFF778FE01F00CFFBD4606B080BDC046784500008C45000098450000C045000000600F4002600F400000014000000303040001400800014062
:400400000C00014099EE000010000140000004400800044089ED18000001044008010440B60118000002044008020440180204400003044008030440B12D4900180304400A
:40044000000404400804044000500F4004500F4008500F4010500F4018500F4020500F4028500F4030500F4034500F4000700F4001700F4010B5064C2378002B07D1054BE9
:40048000002B02D0044800E000BF0123237010BDF0000020000000004045000008B5084B002B03D00748084900E000BF07480368002B03D0064B002B00D0984708BDC04640
:4004C0000000000040450000F4000020C80000200000000080B582B000AF01F0E3FF031C7B60054B01221A707B68181C01F0E4FFBD4602B080BDC0466C010020000000002B
:40050000B0B586B000AF021CBB1D1A803B1C113303221A703B1C173300221A703B1C123300221A805DE0002001F006FFBB1D1A885F4B9A420BD804E0BB1D1B88181C02F037
:4005400039FC02F039FE031C002BF5D115E0BB1D1A88584B9A420BD904E0BB1D1B88181C02F028FC02F01AFE031C002BF5D104E0BB1D1B88181C02F01DFC4E4B181C02F01B
:4005800019FC0123FB60FB68181C00F0BFFA031C191C3B1C12333A1C123212888A181A80BB1D1B88434AD31A9AB23B1C0A331A803B1C0A331B883F4A9B189BB2181C02F0B2
:4005C000F9FBFA239B00181C02F01AF8394B181C02F0F0FB3B1C17331A783B1C173301321A703A1C17323B1C113312781B789A4299D3BB1D1A882F4B9A4220D93B1C1233ED
:400600001A883B1C11331B78101C191C02F006FF031C181C03F07CFD031C0C1C181C211C204B1F4A02F07CFF031C0C1C3D1C1435181C211C02F054FF031C2B8028E0BB1D91
:400640001A881B4B9A4220D83B1C12331A883B1C11331B78101C191C02F0E0FE031C181C03F056FD031C0C1C181C211C0E4A0F4B02F056FF031C0C1C3D1C1435181C211C5D
:4006800002F02EFF031C2B8002E0012001F054FE3B1C14331B88181CBD4606B0B0BDC046CDCCCCCCCCCCEC3F9A9999999999F13FDB050000DC05000080B586B000AF7860FC
:4006C0000A1CFB1C1A7000233B613B1C0E3300221A803B1C173300221A7010E03B1C17331B785B007A68D3181B883A69D3183B613B1C17331A783B1C173301321A703A1CD3
:400700001732FB1C12781B789A42E7D3FB1C1B783869191C02F034FE031C1A1C3B1C0E331A803B1C0E331B88181CBD4606B080BD80B582B000AF0A1CFB1D011C1970BB1D44
:400740001A70FB1D1A78BB1D1B78013B9A4205DAFB1D1A78FB1D01321A7002E0FB1D00221A70FB1D1B78181CBD4602B080BDC04680B586B000AFF8607B603B1C0B3319707C
:400780003B1C0A331A703B1C0B331B78002B07D03B1C17333A1C0B321278013A1A7006E03B1C17333A1C0A321278013A1A707B68002B2ADA3B1C17331B785B00FA68D31818
:4007C0001B881A1C7B68FA218900CB1A9A4212DB3B1C0B331B785B00FA68D3183A1C173212785200F9688A1811887A6892B28A1892B21A8033E03B1C0B331B785B00FA6866
:40080000D318FA2292001A8029E03B1C17331B785B00FA68D3181B881A1C7B68FA21C900CB1A9A4212DC3B1C0B331B785B00FA68D3183A1C173212785200F9688A1811886A
:400840007A6892B28A1892B21A8008E03B1C0B331B785B00FA68D318FA22D2001A803B1C0B331A783B1C0A331B78101C191CFFF75FFF031C181CBD4606B080BD90B583B0CE
:4008800000AF3960111C1A1CFB1D1870BB1D19703B1D1A803B1D1A88724B9A4211D93B1D1A88714B9A420CD8FC1D3868FB1D1978BB1D1A7864235B42FFF75AFF031C2370B6
:4008C000CAE03B1D1A88684B9A4211D93B1D1A88664B9A420CD8FC1D3868FB1D1978BB1D1A7832235B42FFF743FF031C2370B3E03B1D1A885D4B9A4211D93B1D1A885C4B2C
:400900009A420CD8FC1D3868FB1D1978BB1D1A780A235B42FFF72CFF031C23709CE03B1D1A88534B9A4211D93B1D1A88514B9A420CD8FC1D3868FB1D1978BB1D1A7805236A
:400940005B42FFF715FF031C237085E03B1D1A88494B9A4210D83B1D1A88464B9A420BD9FC1DFB1D1A78BB1D1B78101C191CFFF7DFFE031C23706FE03B1D1A883E4B9A425A
:4009800013D93B1D1A883D4B9A420ED8FC1D3968FB1D1A78BB1D1B78081C111C1A1C0523FFF7E6FE031C237056E03B1D1A88334B9A4213D93B1D1A88314B9A420ED8FC1D36
:4009C0003968FB1D1A78BB1D1B78081C111C1A1C0A23FFF7CDFE031C23703DE03B1D1A88274B9A4213D93B1D1A88264B9A420ED8FC1D3968FB1D1A78BB1D1B78081C111C7C
:400A00001A1C3223FFF7B4FE031C237024E03B1D1A881C4B9A4214D93B1D1A88FA23DB009A420ED8FC1D3968FB1D1A78BB1D1B78081C111C1A1C6423FFF79AFE031C2370D2
:400A40000AE0FC1DFB1D1A78BB1D1B78101C191CFFF76EFE031C2370FB1D1B78181CBD4603B090BDE703000064040000E10400005E050000D1050000E6050000590600004D
:400A8000D60600005307000080B584B000AF7860FB1C1970BB1C1A70FB1C1B787A68D3181B785BB21A023B1C0E331A80BB1C1B787A68D3181B785BB29AB23B1C0C33111CC4
:400AC000FF220A401A803B1C0A33391C0E313A1C0C32098812880A431A803B1C0A3300215B5E002B00DA01335B109BB29AB23B1C0833054952181A803B1C08331B88181C2B
:400B0000BD4604B080BDC046DC05000080B584B000AF78607B68181C01F0F4FF031C1A1C3B1C0E331A803B1C0E331B88181CBD4604B080BD80B500AFBD4680BD80B500AFFD
:400B4000034B181C162101F005F9BD4680BDC0465401002080B586B000AF0A1CFB1D011C19703B1D1A803B1C0C33FF221A703B1C0C33FF225A703B1C0C33FA1D12789A701F
:400B80003B1C0C330522DA703B1C0C3303221A713B1C0C331E225A713B1D1B88DAB23B1C0C339A713B1D1B881B0A9BB2DAB23B1C0C33DA713B1C0C339A79FB1D1B78D31806
:400BC000DAB23B1C0C33DB79D318DBB22633DBB2DB43DAB23B1C0C331A723B1C0C33181C092101F087FDBD4606B080BD80B586B000AF0A1CFB1D011C19703B1D1A803B1CAF
:400C00000C33FF221A703B1C0C33FF225A703B1C0C33FA1D12789A703B1C0C330522DA703B1C0C3303221A713B1C0C330E225A713B1D1B88DAB23B1C0C339A713B1D1B8807
:400C40001B0A9BB2DAB23B1C0C33DA713B1C0C339A79FB1D1B78D318DAB23B1C0C33DB79D318DBB21633DBB2DB43DAB23B1C0C331A723B1C0C33181C092101F03BFDBD46A6
:400C800006B080BD80B586B000AF0A1CFB1D011C19703B1D1A803B1C0C33FF221A703B1C0C33FF225A703B1C0C33FA1D12789A703B1C0C330522DA703B1C0C3303221A7101
:400CC0003B1C0C3320225A713B1D1B88DAB23B1C0C339A713B1D1B881B0A9BB2DAB23B1C0C33DA713B1C0C339A79FB1D1B78D318DAB23B1C0C33DB79D318DBB22833DBB23A
:400D0000DB43DAB23B1C0C331A723B1C0C33181C092101F0EFFCBD4606B080BD90B585B000AF021C3960FB1D1A70524B1B78012B03D06BDD022B22D069E03B1C0F33002205
:400D40001A700EE03B1C0F331B785B003A68D318494A1A803B1C0F331A783B1C0F3301321A703B1C0F331B78132BEBD9FB1D00221A70414B0220191CFFF7ECFE47E03C1C05
:400D80000C343E4B181C10211122FFF77DFE031C2380FB1D1B785B003A68D3183A1C0C3212881A80FB1D1B78122B05D8FB1D1A78FB1D01321A7002E0FB1D00221A703C1C02
:400DC0000A343B68181C1421FFF776FC031C23803B1C0A331A88FA23DB009A420DD83B1C0A331A88264B9A4207D93B1C0A331B880220191CFFF7AEFE04E01F4B0220191C58
:400E0000FFF7A8FE1F4B00221A7000E0C046194B1B78012B0CD002DC002B05D024E0022B0AD0032B14D01FE0124B01221A701BE0104B03221A7017E0124B1B78002B03D02D
:400E40000C4B02221A700FE00A4B03221A700BE00C4B1B78002B03D0064B02221A7002E0044B03221A70C046FB1D1B78181CBD4605B090BD6A010020DC05000054010020FD
:400E8000E70300000C01002090B585B000AF021C3960FB1D1A70524B1B78012B03D06BDD022B22D069E03B1C0F3300221A700EE03B1C0F331B785B003A68D318494A1A8046
:400EC0003B1C0F331A783B1C0F3301321A703B1C0F331B78132BEBD9FB1D00221A70414B0120191CFFF736FE47E03C1C0C343E4B181C12211322FFF7C7FD031C2380FB1DFB
:400F00001B785B003A68D3183A1C0C3212881A80FB1D1B78122B05D8FB1D1A78FB1D01321A7002E0FB1D00221A703C1C0A343B68181C1421FFF7C0FB031C23803B1C0A33DB
:400F40001A88FA23DB009A420DD83B1C0A331A88264B9A4207D93B1C0A331B880120191CFFF7F8FD04E01F4B0120191CFFF7F2FD1F4B00221A7000E0C046194B1B78012B93
:400F80000CD002DC002B05D024E0022B0AD0032B14D01FE0124B01221A701BE0104B03221A7017E0124B1B78002B03D00C4B02221A700FE00A4B03221A700BE00C4B1B789A
:400FC000002B03D0064B02221A7002E0044B03221A70C046FB1D1B78181CBD4605B090BD6F010020DC05000054010020E70300000D0100200000000090B585B000AF021CE5
:401000003960FB1D1A703C1C0C340120FFF77EFD031C2380B24B1B78012B07D000DC21E1022B24D0032B00D108E11CE13B1C0F3300221A700EE03B1C0F331B785B003A68B6
:40104000D318A84A1A803B1C0F331A783B1C0F3301321A703B1C0F331B78132BEBD9FB1D00221A709F4B181C01F0A4FEFBE03C1C0A349D4B181C0E210F22FFF705FD031CD1
:401080002380FB1D1B785B003A68D3183A1C0A3212881A80FB1D1B78122B05D8FB1D1A78FB1D01321A7002E0FB1D00221A703C1C08343B68181C1421FFF7FEFA031C2380FA
:4010C00002F07AF8031C002B05D002F067F8031C002B00D06FE03B1C0C331A88834B1B689A4223D83B1C08331A88814B9A4204D87C4B181C01F05EFE5CE03B1C08331A88E3
:40110000FA23DB009A420CD83B1C08331A88794B9A4206D93B1C08331B88181C01F04AFE48E0704B181C01F045FE43E03B1C0C331A88714B1B689A4223D33B1C08331A88B7
:40114000684B9A4204D9674B181C01F033FE31E03B1C08331A88FA23DB009A420CD83B1C08331A88634B9A4206D93B1C08331B88181C01F01FFE1DE05A4B181C01F01AFE0B
:4011800018E03B1C08331A88FA23DB009A420CD83B1C08331A88574B9A4206D93B1C08331B88181C01F006FE04E04E4B181C01F001FE3FE03EE001F0FFFF031C002B18D15C
:4011C0000120FFF7A3FC031C181C02F0A1FF031C0C1C181C211C3F4B3D4A02F0A1F9031C0C1C181C211C02F07BF9021C3F4B1A6020E001F0D3FF031C002B18D10120FFF7B2
:4012000085FC031C181C02F083FF031C0C1C181C211C314A314B02F083F9031C0C1C181C211C02F05DF9021C334B1A6002E0012001F082F8314B00221A7014E03B1C0C3313
:401240001A882A4B1B689A4206D93B1C0C331A88294B1B689A4204D3224B181C01F0AAFD01E000E0C0461E4B1B78012B0CD002DC002B05D024E0022B0AD0032B14D01FE039
:40128000174B01221A701BE0154B03221A7017E01A4B1B78002B03D0114B02221A700FE00F4B03221A700BE0144B1B78002B03D00B4B02221A7002E0094B03221A70C0465C
:4012C000FB1D1B78181CBD4605B090BDC046C0469A9999999999F13FCDCCCCCCCCCCEC3F6D010020DC05000054010020D0000020DB050000E7030000CC0000200E0100208A
:4013000090B585B000AF021C3960FB1D1A703C1C0C340020FFF7FAFB031C2380B24B1B78012B07D000DC21E1022B24D0032B00D108E11CE13B1C0F3300221A700EE03B1CC5
:401340000F331B785B003A68D318A84A1A803B1C0F331A783B1C0F3301321A703B1C0F331B78132BEBD9FB1D00221A709F4B181C01F0D0FDFBE03C1C0A349D4B181C0C211B
:401380000D22FFF781FB031C2380FB1D1B785B003A68D3183A1C0A3212881A80FB1D1B78122B05D8FB1D1A78FB1D01321A7002E0FB1D00221A703C1C08343B68181C1421E7
:4013C000FFF77AF9031C238001F0DAFE031C002B05D001F0C7FE031C002B00D06FE03B1C0C331A88834B1B689A4223D83B1C08331A88814B9A4204D87C4B181C01F08AFD30
:401400005CE03B1C08331A88FA23DB009A420CD83B1C08331A88794B9A4206D93B1C08331B88181C01F076FD48E0704B181C01F071FD43E03B1C0C331A88714B1B689A4218
:4014400023D33B1C08331A88684B9A4204D9674B181C01F05FFD31E03B1C08331A88FA23DB009A420CD83B1C08331A88634B9A4206D93B1C08331B88181C01F04BFD1DE06A
:401480005A4B181C01F046FD18E03B1C08331A88FA23DB009A420CD83B1C08331A88574B9A4206D93B1C08331B88181C01F032FD04E04E4B181C01F02DFD3FE03EE001F027
:4014C0005FFE031C002B18D10020FFF71FFB031C181C02F01DFE031C0C1C181C211C3F4B3D4A02F01DF8031C0C1C181C211C01F0F7FF021C3F4B1A6020E001F033FE031CFA
:40150000002B18D10020FFF701FB031C181C02F0FFFD031C0C1C181C211C314A314B01F0FFFF031C0C1C181C211C01F0D9FF021C334B1A6002E0012000F0FEFE314B002282
:401540001A7014E03B1C0C331A882A4B1B689A4206D93B1C0C331A88294B1B689A4204D3224B181C01F0D6FC01E000E0C0461E4B1B78012B0CD002DC002B05D024E0022BE2
:401580000AD0032B14D01FE0174B01221A701BE0154B03221A7017E01A4B1B78002B03D0114B02221A700FE00F4B03221A700BE0144B1B78002B03D00B4B02221A7002E077
:4015C000094B03221A70C046FB1D1B78181CBD4605B090BDC046C0469A9999999999F13FCDCCCCCCCCCCEC3F6B010020DC05000054010020D8000020DB050000E703000093
:40160000D40000200F01002090B585B000AF021C3960FB1D1A704E4B1B78012B03D063DD022B21D061E03B1C0F3300221A700EE03B1C0F331B785B003A68D318454A1A80CA
:401640003B1C0F331A783B1C0F3301321A703B1C0F331B78132BEBD9FB1D00221A703D4B181C01F0F7FA40E03C1C0C343A4B181C0A210B22FFF708FA031C2380FC1DFB1DA5
:4016800019783A683B1C0C331B88081C111C1422FFF7F4F8031C23703C1C0A343B68181C1421FFF709F8031C23803B1C0A331A88FA23DB009A420CD83B1C0A331A88274BB2
:4016C0009A4206D93B1C0A331B88181C01F0C2FA06E0012000F030FE1E4B181C01F0BAFA1F4B00221A7000E0C046194B1B78012B0CD002DC002B05D024E0022B0AD0032B9E
:4017000014D01FE0124B01221A701BE0104B03221A7017E0124B1B78002B03D00C4B02221A700FE00A4B03221A700BE00C4B1B78002B03D0064B02221A7002E0044B0322B2
:401740001A70C046FB1D1B78181CBD4605B090BD52010020DC05000054010020E70300001001002090B583B000AF304B1B78012B03D029DD022B05D027E02D4B181C01F031
:40178000CBFD22E0BC1D2B4B181C14211522FFF77BF9031C2380BB1D1A88FA23DB009A420AD8BB1D1A88244B9A4205D9BB1D1B88181C01F0B1FD03E01D4B181C01F0AAFB0E
:4017C0001E4B00221A7000E0C046184B1B78012B0CD002DC002B05D024E0022B0AD0032B14D01FE0114B01221A701BE00F4B03221A7017E0114B1B78002B03D00B4B02228B
:401800001A700FE0094B03221A700BE00B4B1B78002B03D0054B02221A7002E0034B03221A70C046BD4603B090BDC0466E010020DC05000054010020E7030000110100206D
:4018400080B582B000AF002000F0DEFF0A2000F0D7FE012000F0D8FF012000F0FBFFFB1D00221A700DE000F0B3FF031C002B00D00BE0042000F0C4FEFB1D1A78FB1D013260
:401880001A70FB1D1B78632BEDD9304B00221A702F4B00221A702F4B00221A702E4B00221A702E4B00221A702D4B00221A7001F0B7FB00F0D9FC00F0C9FC00F0EFFE01F0D3
:4018C000FBFA01F099F901F047FA01F083FC00F0E7FF01F009F9234B042001211A1C00F045F9FE206421FFF7CDF91F4BFE20191CFFF77CF9012000F01FFD1C4B181C01F0AD
:4019000059FA1A4B181C01F005FB194B181C00F077FE002000F010FD164B181CFEF7F0FD031C1A1C144B1A60144B181CFEF7E8FD031C1A1C124B1A6062B6124B181C00F0D9
:40194000A1FC00F057FDBD4602B080BD520100206A0100206F0100206B0100206D0100206E01002087690000FF030000DC050000B80B0000A4060000CC0000201405000018
:40198000D0000020D504000090B5B7B000AF3B1CD23300221A703B1CCA335D4A1A80FFF74FFF01F009FC031C002B03D0012000F0C3FC02E0002000F0BFFC00F017FF031C6D
:4019C000002B1DD100F092F9FFF7B8F8514B01221A70514B01221A70504B01221A70504B01221A704F4B01221A704F4B01221A704E4B01221A703B1CD23300221A7006E0C9
:401A00003B1CD2333A1CD232127801321A703B1CD2331B78312B2CD93B1CCA333C4A1A800023CC20C01903601DE03B1CCA3300229B5E1B129BB2DAB23D49CC20C019036872
:401A4000CB181A70CC22D219136801333A1CCA321288D1B2364AD154CC20C01903680233CC22D2191360CC20C0190368152BDCDD43E03C1CD7343B1CD7331A783B1CA033E0
:401A8000101C191CFFF7C0FD031C23703C1CD6343B1CD6331A783B1C7833101C191CFFF72FFC031C23703C1CD5343B1CD5331A783B1C5033101C191CFFF79EFA031C237009
:401AC0003C1CD4343B1CD4331A783B1C2833101C191CFFF723F9031C23703C1CD3343B1CD3331A783B1C101C191CFFF7CDF9031C2370FFF737FEFFF71DF8C0460D4B1B7824
:401B0000DBB2002BFAD00B4B00221A7049E7C046DC050000100100200D0100200C0100200F0100200E0100201101002012010020540100206C01002080B582B000AF021C84
:401B4000FB1D1A70FB1D1B78181C01F0A3FAC04601F080FA031C1A1C01231340F8D001F0B3FA031C181CBD4602B080BD80B590B000AFFB1D1870BB1D19703B1D1A803A1C01
:401B80002832524B111C1A1C1323081C111C1A1C02F0C4FC3A1C14324D4B111C1A1C1223081C111C1A1C02F0B9FC3B1C1433BA1D1278DA733B1D1B881B0A9BB2DAB23B1CC6
:401BC00014331A743B1D1B88DAB23B1C14335A743B1C0C33092000211A1C062300F0DAF93B1C28330A225A743B1C2833FA1D12789A743B1D1B881B0A9BB2DAB23B1C143377
:401C00001A713B1D1B88DAB23B1C14335A713B1C2833002000211A1C132300F031F93B1C1433002001211A1C122300F029F93B1C0C33092000211A1C062300F021F91220D8
:401C40000121642200F0E2F8642000F0D9FC00F043F80020142100F05DF8002000F0FAFD0020FFF769FF0020FFF766FF1420FFF763FF3B1C3E3300221A8016E03B1C3E3316
:401C80001B881B0A9BB2DBB2181CFFF755FF3B1C3E331B88DBB2181CFFF74EFF3B1C3E331A883B1C3E3301321A803B1C3E331A88084B9A42E2D9012000F0CCFD3B1C0C33D2
:401CC0005B79181CBD4610B080BDC0464445000058450000FF03000080B500AF01200121012200F063F8BD4680BDC04680B500AF02200121FF2200F059F817200021FF22D0
:401D000000F054F815200021FF2200F04FF8BD4680BDC04680B582B000AF0A1CFB1D011C1970BB1D1A70BB1D1B782C2001211A1C00F03CF818200021012200F037F8FB1D31
:401D40001B78162000211A1C00F030F8BD4602B080BDC04680B582B000AF78600A1CFB1C1A70114B19887A68FB1C1B78081C032100F010F92A20012100F0CCF8031C1A1C3F
:401D8000094B1A80084B1B88282001211A1C00F03DF801200121402200F008F8024B1B88181CBD4602B080BD2601002080B582B000AFBB1D18807B1D19703B1D1A700020DF
:401DC00000F048FDBB1D1B881B0A9BB2DBB2181CFFF7B2FEBB1D1B88DBB2181CFFF7ACFE7B1D1B78DB00DBB204221343DBB2DBB2181CFFF7A1FE3B1D1B78181CFFF79CFEDD
:401E0000012000F027FDBD4602B080BD80B582B000AFBB1D18807B1D1970BB1C1A80002000F018FDBB1D1B881B0A9BB2DBB2181CFFF782FEBB1D1B88DBB2181CFFF77CFE6E
:401E40007B1D1B78DB00DBB204221343DBB2DBB2181CFFF771FEBB1C1B881B0A9BB2DBB2181CFFF769FEBB1C1B88DBB2181CFFF763FE012000F0EEFCBD4602B080BDC04611
:401E800080B584B000AF3A601A1CBB1D18807B1D19703B1D1A70002000F0DCFCBB1D1B881B0A9BB2DBB2181CFFF746FEBB1D1B88DBB2181CFFF740FE7B1D1B78DB00DBB2F4
:401EC00004221343DBB2DBB2181CFFF735FE3B1C0F3300221A700FE03B1C0F331B783A68D3181B78181CFFF727FE3B1C0F331A783B1C0F3301321A703A1C0F323B1D127826
:401F00001B789A42E8D3012000F0A4FCBD4604B080BDC04680B584B000AF0A1CBB1D011C19807B1D1A70002000F094FCBB1D1B881B0A9BB2DBB2181CFFF7FEFDBB1D1B8824
:401F4000DBB2181CFFF7F8FD7B1D1B78DB00DBB2181CFFF7F1FD0020FFF7EEFD031C1A1C3B1C0E3312021A800020FFF7E5FD031C191C3B1C0E333A1C0E3212880A431A8073
:401F8000012000F067FC3B1C0E331B88181CBD4604B080BD90B585B000AF3A601A1CBB1D18807B1D19703B1D1A70002000F052FCBB1D1B881B0A9BB2DBB2181CFFF7BCFD23
:401FC000BB1D1B88DBB2181CFFF7B6FD7B1D1B78DB00DBB2181CFFF7AFFD3B1C0F3300221A7010E03B1C0F331B783A68D4180020FFF7A2FD031C23703B1C0F331A783B1CBB
:402000000F3301321A703A1C0F323B1D12781B789A42E7D3012000F01DFCBD4605B090BD80B500AFFEE7C04680B586B000AF224B7B61224B3B61204B7B6135E03B691B6812
:40204000FB603B695B68BB603B699B683B6000237B600CE0FB681A68BB681A60BB680433BB60FB680433FB607B6804337B607A683B689A42EED13B69DB683B6000237B60D6
:4020800008E0BB6800221A60BB680433BB607B6804337B607A683B689A42F2D13B6910333B617B69013B7B617B69002BC6D102F00FFAFFF769FCFEE701000000D44800006E
:4020C00080B582B000AF00237B600FE07B68032B04D8104B7A689200D35800E00E4B0F4A796889008B507B6801337B607B682F2BECD9FEF76FF80A4B00221A608023DB055B
:402100008022D205126801210A431A60BD4602B080BDC046000000002120000000000020C000002080B582B000AF786039607A683B68101C00211A1C02F0F9F9BD4602B062
:4021400080BDC04680B584B000AFF860B9607A60F968BA687B68081C111C1A1C02F0DEF9BD4604B080BDC04680B586B000AF7860396000233B6100237B612EE07B699B0033
:402180007A68D3181B68BB603B1C0F33BA681A70BB68FF229343BB6017E03B695B003A68D3181B781A1CBB68D3183A69520039688A1852781A703B6901333B613B1C0F3347
:4021C0001A783B1C0F33013A1A703B1C0F331B78002BE2D17B6901337B617B69092BCDD9BD4606B080BDC04680B500AF054B0F221A60054B0F221A60012000F007F8BD464A
:4022000080BDC04600031A4040031A4080B584B000AF021CFB1D1A700B4B1B68FB60FB1D1B78002B05D0FB68802212061343FB6003E0FB685B005B08FB60034BFA681A6053
:40224000BD4604B080BDC04680031A4080B500AF044B044A1268802109060A431A60BD4680BDC0460400024080B500AF044B044A1268802109060A431A60BD4680BDC046D1
:402280008400024080B582B000AF786000F04AF87B68181C00F008F8032000F013F800F037F8BD4602B080BD80B582B000AF7860034A8C237968D150BD4602B080BDC0461E
:4022C0000000002090B585B000AF021CFB1D1A701E23FB603C1C0B3400F004F9031C23700A4B0A4A126892009108FA1D1078FA68041C9440221C0A431A603B1C0B331B7893
:40230000181C00F0F3F8BD4605B090BD10E400E080B500AF024B802212031A60BD4680BD00E100E080B500AF024B802212031A60BD4680BD80E100E080B584B000AF021C39
:40234000FB1D1A700E4B1B68DAB23B1C0F3340218A431A70FB1D1B789B01DAB240231340D9B23B1C0F333A1C0F3212780A431A70034B3A1C0F3212781A60BD4604B080BD80
:402380000001044080B500AF094B802292041A60084B0C221A60012000F078F8064B181C00F048F8002000F037F8BD4680BDC046C0010540E40105401027000090B583B059
:4023C00000AFFC1D00F08EF8031C2370084B084A126808210A431A60FB1D1B78181C00F085F80820182100F033F8BD4603B090BD0000054080B500AF064B1B78002B04D106
:40240000FFF7C0FF034B01221A70FFF7D7FFBD4680BDC0462801002080B582B000AF7860034B7A681204120C1A60BD4602B080BDC801054080B582B000AF7860034B7A68A7
:402440001204120C1A60BD4602B080BDD401054090B585B000AF786039603C1C0F3400F041F8031C2370084B3A687968081C9040021C1A603B1C0F331B78181C00F036F8B2
:40248000BD4605B090BDC0460800054080B582B000AF7860024B7A681A60BD4602B080BDF801054080B500AF024B1B68181CBD4680BDC046FC01054080B582B000AF78609F
:4024C000024B7A681A60BD4602B080BDF00105400230800804D0C0460138FDD1C046C046C0467047EFF3108072B6704780F310887047C046C046C04680B584B000AF021C4C
:402500003960FB1D1A7080239B05FB60FB1D1B781F2B02D9002000F069F8FB1D1B7810339B00FA68D3181B68BB60FB1D1B7810339B00FA68D3183A681A60BB68181CBD46C1
:4025400004B080BD90B587B000AF0A1CFB1D011C1970BB1D1A70BB1D1B78032B02D9002000F044F8FB1D1B781F2B02D9002000F03DF8FB1D1A7803231340DB0006337B6111
:402580003C1C1334FFF7AEFF031C2370FB1D1B789B08DBB29B0014495B181B68FB607B690322111C99400B1CDA43FB681340FB60BB1D1A787B69111C99400B1CFA6813436C
:4025C000FB60FB1D1B789B08DBB29B00064A9B18FA681A603B1C13331B78181CFFF786FFBD4607B090BDC04600E400E080B582B000AF021CFB1D1A7001BEBD4602B080BDF4
:4026000080B582B000AF786008E00C4B1B68181CFFF75EFF7B680A4A9B187B607A6880231B029A42F1D8074B1B687A685343181CFFF74EFFBD4602B080BDC046EC0000208F
:402640000080FFFFE400002080B582B000AF021CBB1D1A80BB1D1B88044A12785343181CFFF736FFBD4602B080BDC046E800002080B500AF00F058F8BD4680BD80B500AFA2
:40268000054B054A1268802109060A431A6000F017F8BD4680BDC0460000074080B500AF064B1B78002B04D1FFF7E2FF034B01221A70FFF7E3FFBD4680BDC0462C010020F9
:4026C00080B500AFBD4680BD80B582B000AF7860C046064B1A680F231340082BF9D0044B7A681A60BD4602B080BDC046080207404002074080B584B000AF78603960002345
:40270000FB6009E07A68FB68D3181B78181CFFF7DBFFFB680133FB60FA683B689A42F1D3BD4604B080BDC04680B500AF174B184A1A60184B00221A60174B01221A60174B7B
:40274000174A1A60174B07221A60174B00221A60164B01221A60164B114A1A60154B00221A60154B00221A60144B00221A60144B00221A60134B00221A60134B00221A6065
:40278000124B00221A60BD4680BDC046000007400B000002400007404800074000030740070000800403074010030740440007400002074004020740880E0740C80E0740DC
:4027C000480F0740080F0740C80F0740880F074080B500AF044B1A68022313405B08DBB2181CBD4680BDC0460400044080B500AF044B1B68DAB201231340DBB2181CBD4685
:4028000080BDC0460400044080B584B000AF021CFB1D1A700E4B1B68DAB23B1C0F3304218A431A70FB1D1B789B00DAB204231340D9B23B1C0F333A1C0F3212780A431A7050
:40284000034B3A1C0F3212781A60BD4604B080BD0000044080B584B000AF021CFB1D1A700E4B1B68DAB23B1C0F3308218A431A70FB1D1B78DB00DAB208231340D9B23B1C6C
:402880000F333A1C0F3212780A431A70034B3A1C0F3212781A60BD4604B080BD0000044080B500AF064B1B78002B04D100F00AF8034B01221A7000F003F9BD4680BDC046D6
:4028C0003401002090B585B000AF0E200321FFF739FE604B0E20191CFFF70EFE5E4B0F221A605E4B5E4A1A605E4B5F4A1A605F4B5F4A1A605F4B8022D2051A605E4B5F4A24
:402900001A605F4B5D4A1A605E4B5E4A1268802149020A431A605C4B5B4A1268802149020A431A60594B00221A60594B00221A60584B01221A60584B02221A60574B1B6835
:402940007B607A68564B13407B607B68012213437B60524B7A681A600023FB6073E0514BFA689200D258DC239B0113407B604E4AFB68D3181B787A6813437B60FB689B00BD
:402980004A4A9B187A681A60464BFA689200D258012313400AD03D4B3C4A1168FA680120041C9440221C92B20A431A603D4BFA689200D258022313400AD0354B344A1168BE
:4029C000FA680120041C9440221C92B20A431A60344BFA689200D25880239B00134003D080235B00BB6002E080235B01BB602D4BFA689200D25880235B00134005D12C4BCD
:402A0000FA6852000021D15209E0BB68002B00DA01335B1099B2264BFA685200D152BB68244A53438022D2009B18002B01DA224C1B19DB129BB219B2204BFA689200D150E0
:402A4000FB680133FB60FB68032B88D9BD4605B090BDC046492B000020001A4000001A404020001304001A408400008018001A400000FF071C001A4010001A4002000200EE
:402A800014001A4000031A4040031A4028021A4038021A4018021A40000F1A4030001A40FFFFFFDF5C4800006C48000080001A408401002010270000FF07000074010020AA
:402AC00080B500AF074B1B68002B09DB054B054A1268802109060A431A600A20FFF7B4FDBD4680BD00001A4080B500AF044B044A1268802149020A431A60BD4680BDC0461F
:402B000004001A4080B584B000AF78607B68032B02D90020FFF76AFD7B68032B08D87B689B00084A9B181B681B041B0CFB6001E00023FB60FB689BB21BB2181CBD4604B07F
:402B400080BDC04680011A4080B582B000AF044B1B687B60024B7A681A60BD4602B080BD10021A4080B500AF104B8022D2041A600E4B0E4A12681A60002000F04FF80B4BEA
:402B80000A4A12681A600A4B0C221A60012000F08DF8084B31221A60074B181C00F04CF8064B181C00F056F8BD4680BD400105406401054068010540204E0000DC05000030
:402BC00090B583B000AFFC1DFFF78CFC031C2370084B084A126802210A431A60FB1D1B78181CFFF783FC0220182100F041F8BD4603B090BD0000054080B500AF064B1B7874
:402C0000002B04D1FFF7AEFF034B01221A70FFF7D7FFBD4680BDC0463501002080B582B000AF7860034B7A681204120C1A60BD4602B080BD4801054080B582B000AF786054
:402C4000034B7A681204120C1A60BD4602B080BD5401054080B582B000AF7860034B7A681204120C1A60BD4602B080BD4C01054090B585B000AF786039603C1C0F34FFF76F
:402C800031FC031C2370084B3A687968081C9040021C1A603B1C0F331B78181CFFF726FCBD4605B090BDC0460800054080B582B000AF7860024B7A681A60BD4602B080BD7A
:402CC0007801054080B500AF104B8022D2041A600E4B0E4A12681A60002000F04FF80B4B0A4A12681A600A4B0C221A60012000F08DF8084B31221A60074B181C00F04CF8DE
:402D0000064B181C00F056F8BD4680BD80010540A4010540A8010540204E0000DC05000090B583B000AFFC1DFFF7DCFB031C2370084B084A126804210A431A60FB1D1B782E
:402D4000181CFFF7D3FB0420182100F041F8BD4603B090BD0000054080B500AF064B1B78002B04D1FFF7AEFF034B01221A70FFF7D7FFBD4680BDC0463601002080B582B057
:402D800000AF7860034B7A681204120C1A60BD4602B080BD8801054080B582B000AF7860034B7A681204120C1A60BD4602B080BD9401054080B582B000AF7860034B7A6838
:402DC0001204120C1A60BD4602B080BD8C01054090B585B000AF786039603C1C0F34FFF781FB031C2370084B3A687968081C9040021C1A603B1C0F331B78181CFFF776FBDF
:402E0000BD4605B090BDC0460800054080B582B000AF7860024B7A681A60BD4602B080BDB801054080B500AF104B8022D2041A600E4B0E4A12681A60002000F04FF80B4B30
:402E40000A4A12681A600A4B0C221A60012000F08DF8084B31221A60074B181C00F04CF8064B181C00F056F8BD4680BD000105402401054028010540204E0000DC0500002D
:402E800090B583B000AFFC1DFFF72CFB031C2370084B084A126801210A431A60FB1D1B78181CFFF723FB0120182100F041F8BD4603B090BD0000054080B500AF064B1B7875
:402EC000002B04D1FFF7AEFF034B01221A70FFF7D7FFBD4680BDC0463701002080B582B000AF7860034B7A681204120C1A60BD4602B080BD0801054080B582B000AF7860D0
:402F0000034B7A681204120C1A60BD4602B080BD1401054080B582B000AF7860034B7A681204120C1A60BD4602B080BD0C01054090B585B000AF786039603C1C0F34FFF72C
:402F4000D1FA031C2370084B3A687968081C9040021C1A603B1C0F331B78181CFFF7C6FABD4605B090BDC0460800054080B582B000AF7860024B7A681A60BD4602B080BD7B
:402F80003801054080B500AF084B0F221A7000F0ABF800F05FF800F06DF8054B00221A70044B00221A70BD4680BDC04681000F4083000F4082000F4090B583B000AFFC1D82
:402FC000FFF790FA031C2370124B124A1278D2B220210A43D2B21A700F4B0F4A1278D2B210210A43D2B21A700C4B0C4A1278D2B210210A43D2B21A70FB1D1B78181CFFF7D3
:4030000075FA00F0A1F800F01DF800F01FF8BD4603B090BD91000F4093000F4092000F4080B500AF064B1B78002B04D1FFF7AAFF034B01221A70FFF7BFFFBD4680BDC0468A
:403040003801002080B500AFBD4680BD80B500AFBD4680BD80B582B000AF054AFB1D12781A70FB1D1B78181CBD4602B080BDC04663000F4080B582B000AF054AFB1D12788E
:403080001A70FB1D1B78181CBD4602B080BDC04662000F4080B582B000AF021CFB1D1A70C046074B1B78DBB21A1C04231340F8D0044BFA1D12781A70BD4602B080BDC046C6
:4030C00063000F4042000F4080B582B000AF054AFB1D12781A70FB1D1B78181CBD4602B080BDC04652000F4090B583B000AF01E0124B1B78124B1B78DBB21A1C2023134043
:40310000F6D1FC1DFFF7EEF9031C23700D4B0D4A1278D2B201210A43D2B21A70094B094A1278D2B201218A43D2B21A70FB1D1B78181CFFF7DBF9BD4603B090BD52000F40E7
:4031400062000F4092000F4080B500AF044B044A1268802109060A431A60BD4680BDC0460000024080B500AF044B1A68102313401B09DBB2181CBD4680BDC0460403044012
:4031800080B500AF044B1A68202313405B09DBB2181CBD4680BDC0460403044080B500AF044B1A68402313409B09DBB2181CBD4680BDC0460403044080B500AF044B1A68F8
:4031C00080231340DB09DBB2181CBD4680BDC0460403044080B500AF064B1B78002B04D100F00AF8034B01221A7000F057F8BD4680BDC0463901002090B583B000AF224B7B
:403200001B78DAB2FB1D3F218A431A701E4BFA1D12780B210A43D2B21A701C4B1B4A1278D2B201210A43D2B21A70194B184A1278D2B201210A43D2B21A70164B181C00F0E2
:403240003DF8144B181C00F057F8134B181C00F063F8002000F070F8BC1DFFF743F9031C23700A4B094A1278D2B210210A43D2B21A70BB1D1B78181CFFF738F900F02EF817
:40328000BD4603B090BDC04670000F4090000F4091000F40204E00004448000080B500AF054B054A1278D2B2802149420A43D2B21A70BD4680BDC04670000F4080B582B009
:4032C00000AF021CBB1D1A80034BBA1D12881A80BD4602B080BDC04600100F4080B500AF01E000F043F800F037F8031C1A1C10231340F6D1BD4680BD80B582B000AF021CBA
:40330000BB1D1A80034BBA1D12881A80BD4602B080BDC04680100F4080B582B000AF021CBB1D1A80034BBA1D12881A80BD4602B080BDC04640100F4080B582B000AF021C21
:40334000FB1D1A70034BFA1D12781A70BD4602B080BDC04680000F4080B500AF024B1B78DBB2181CBD4680BD60000F4080B500AF024B1B889BB2181CBD4680BDA0100F4063
:40338000002934D00123002210B488422CD301242407A14204D2814202D209011B01F8E7E400A14204D2814202D249005B00F8E7884201D3401A1A434C08A04202D3001B36
:4033C0005C0822438C08A04202D3001B9C082243CC08A04202D3001BDC082243002803D01B0901D00909E3E7101C10BC7047002801D00020C04307B4024802A1401802907D
:4034000003BDC046D90000000029F0D003B5FFF7B9FF0EBC4243891A1847C046002941D010B4041C4C40A44601230022002900D54942002800D5404288422CD3012424074C
:40344000A14204D2814202D209011B01F8E7E400A14204D2814202D249005B00F8E7884201D3401A1A434C08A04202D3001B5C0822438C08A04202D3001B9C082243CC08B9
:40348000A04202D3001BDC082243002803D01B0901D00909E3E7101C6446002C00D5404210BC7047002806D003DB0020C043400801E08020000607B4024802A140180290E9
:4034C00003BDC046190000000029EBD003B5FFF7A7FF0EBC4243891A1847C0467047C04638B50E4B0C4A041C0D1C00F083FE002804D1201C291C00F0D7FD38BD074B064A72
:40350000201C291C00F09CFA00F0CEFD80231B06C018F2E7C046C046000000000000E041F0B5564644465F464D46F0B41F1C0B031B0B9A464B0087B0041C80465B0DC80F8A
:40354000161C02938146002B68D0694B0299994232D08022534652031A43D200630F1A439246644AE000891880460291002400253B031B0B9B467800FB0F321C400D0393FF
:4035800000D175E05A4B984269D08022594652030A43730FD2001A43564B9346C018F200002303994E4671401C430F2C00D9A9E0514EA4003459A74653461C4300D087E069
:4035C0000025AA46A84608240225D1E74946022D6CD0032D00D117E2012D00D058E10D40EDB20024A9460023A0460020002125030A0D1C052D0B1205404B2A4313402343E9
:403600005B004C465B08E207191C4046114307B03CBC90469946A246AB46F0BD5346234350D05346002B00D184E1504600F0ECFD031E272B00DD76E128210D1A211C083B39
:403640005246E9409A400D1C1543221C9A40AA4690462B4B00241B1A0293002588E75B461E430323002E9CD1B3460022022398E75B46334321D05846002800D14EE100F018
:40368000C3FD272800DD42E128210F1A021C311C083A5B46F94093400F1C1F43331C9340BB461A1C164B181A00237AE701230B4000249946A0460E4B97E70027BB460022B9
:4036C00001236EE7002104248A46884601254FE70C2403254CE700258024A9462403A846034B82E7DA46904603991D1C6FE7C046FF07000001FCFFFF70480000FFFF0F8092
:403700000DFCFFFF029F160C381804904046070C0004000C1204120C031C5343041C3D1C7443554398463B1C73436419A44644460293230C63449D4204D9029D80246402D5
:403740002D1902951D0C039545462C041B04240C1C1905945C46230C051C58432404240C8446381C604365435F438146CC44280C6044BB46814502D980277F02BB442D043A
:40378000070C2D0C000440195546BC462F04E3448446280C3D0C2F1C5743B8462F1C77434243B94647463F0C9144BA46D14446434A4502D980225202B6184F463A0CB61894
:4037C0003A0447463F043F0CB8462F1C67435D434443584365190190380C2D184244B846AC4204D9019880235B02C0180190039C029F201C6044C0196045A441474664421C
:40380000A4462B043C049946240C4C44A046D8448018C246E24490429241574652429146F219E245BF417F424B46BC46D845BF41D4187F4263461F432D0C7F19B242924128
:403840004C45AD4152426D421543019E7D19AB19E20D5B02059F134342023A439A46531E9A41C30D101C18436402204380465046C0010DD5454601225646049C6B082A401C
:403880001A43F30701341A43760804949046B246049E634FF319002B61DD404640070BD00F2244462240042A06D042460432424580414042824490465546ED0107D5594B7C
:4038C0005646049F80201E40C000B2463B18564A934200DDEAE644465546E2086807104301226C025B050A408046240B5B0D91467BE6DA4690461D1C69E6802424035746D7
:4039000027421CD13C432403240B484B6DE6031C283B311C99408B460022C3E6301C00F073FC2030ADE6283B211C994000228A4690468EE6201C00F067FC203078E6584614
:40394000204207D1044303992403240B89469046364B4AE63C432403240B344B45E6344B049E9B1B382B06DD01230B4000249946A046002339E61F2B25DC049C2D4D464657
:403980006019524644468640DC4082405746301C2243DF40441EA04102433B1C540709D00F201040042805D0101D9042924152429B18021C1D021AD501230B400024994611
:4039C000A046012311E61C48049C5546001BC540281C202B16D0194E5746A21997403A1C43461A43531E9A4102430023D6E758075B02D2081C0B01230B401043994680462B
:403A00000023F2E50022EBE78024240350460123044319402403240B8946044BE5E5C046FF030000FFFFFFFEFE070000FF07000002FCFFFF1E040000E2FBFFFF3E040000EC
:403A4000F8B55F46564644464D46F0B40C034D00CF0F610A440F2143C4001803DE0F8046B44646465800760A530F3343D600D14A6D0DBA46400DB346904200D1F5E06246A2
:403A8000012672409446674500D1ABE02F1A002F00DC11E100283ED15846184300D0F1E0600700D197E00F232340042B00D122E1221DA242A4416442802309191B04012733
:403AC00050460B400740141C002B00D179E0B94B01359D4200D10BE1B74BE40819404807490204430B0B002000211B031A0B0B0D6D051B0513436A08B04DFF071D40154357
:403B00006D006D08291C3943201C3CBC90469946A246AB46F8BDA7488542C1D0802000040343382F00DDFDE01F2F00DD31E12020C01B1A1C5E468240FE40324394465A46F8
:403B40008240101C421E9041FB40624602431F1CA21A9442A4416442C91B091B141C0A029ED549024F0A002F00D1D6E0381C00F04BFB021C083A1F2A00DDC3E02821231C5A
:403B8000091A9740CB401F439440954200DDC0E0551B691C1F2900DDEAE01F22551B3B1C221CAB40CA40AC40651EAC411343CF401C43391C002573E780217E4D0027C90304
:403BC00000247C4B4807E4080443C9089D4250D009030B0B87E780231B04012752460B40174071E72A1A9446002A00DCA1E0002854D07048854200D152E780200004034318
:403C00006046382800DD0EE11F2800DD57E162462020801A1E1C8640B1465E46D6404A4632435E4686409046301C421E9041424602436046C3401219A242A44164425918E0
:403C40000919141C080200D42AE75A4B01359D4200D131E1584B60081940012323401C1C0443CB071C4349081AE71E4300D00AE705E7231C0B433BD080231B030B431B03A6
:403C80001B0B30E7013F002F6DD15E46A21B9442A4416442C91A091B141C60E75846184300D1FDE601267642B4446046002800D0D0E05E463219BFE7002F00D080E0681C90
:403CC0004005400D012800DCE8E05A46A21A9442BF41C81A7F42C71B3E0200D498E05846041BA3459241591A52428F1AE2463AE700230024F7E680231B04012756460B40BC
:403D00003740E1E6271C283887400024954200DC3EE72949AD1A3940C2E6201C00F074FA203026E75A461A43531E9A41D2B200270EE7002A00D0DEE0681C4605760D012E6C
:403D400000DC90E01B4DA84200D1F5E05E463219A242A441644259180919CC07520814434908051C9CE61348854200D0D9E697E62B1C1F3B3E1CDE40331C20296FD03F2217
:403D8000551BAF403C43601E84411C430021002586E6381C20381E1CC640301C202F60D04022D71BBB405A461A43531E9A4102430027CDE6FF070000FFFF7FFFFFFF0F8054
:403DC000002D37D0B64DA84200D18FE080252D047F422943382F00DDA8E01F2F00DD24E12025ED1B0E1CAE40B046261CFE404246AC401643651EAC413443F9405A46141BCC
:403E0000A34592415B1A5242991A051CE246A6E6131C3B43141C002B00D0A4E60027002100250024CDE65A461A43531E9A41D2B2002300E70D1C254358D0FF43002F51D16D
:403E40005A46141BA3459241591A5242891A051CE24684E69248854200D0D1E620E6002790E700239FE7081C2043002D00D0C2E0002800D1EFE05846184300D110E658469A
:403E80000219A242A441644259180919141C0A0200D405E6834B0125194001E6081C2043002D38D100286FD15946194303D0191C5C46E246F4E500270021002481E6604672
:403EC00020381A1CC2406646101C202E00D1AAE04022921B93405A461A43531E9A4102430023A8E66E4DA84200D073E7191C5C46051CE246D4E5002D22D10D1C254376D0F1
:403F0000D543002D70D15C445C459241591852428918051C96E600284CD15946194300D14AE6191C5C46E2465D4DB9E50C43611E8C41E4B2002161E7051C0021002440E6F6
:403F4000574DA84253D05542802216043143382D7BDC1F2D00DD8CE02022561B0A1CB446B240261CEE403243904662469440661EB44142461443E9405C445C459241CB1804
:403F800052429918051C5DE65846184300D187E55E46A71BBC429241C81A5242801A060260D55846041BA3459241591A5242891AE24675E55846184333D04807E40804437C
:403FC0008020C9080003014208D0DD08054205D15946CA085C071443291CE246630FC9001943E4002E4D5BE52D4A9042AFD1191C5C46051C54E5002830D05846184310D067
:4040000080254807E408C9082D0304432942E5D0D8082842E2D15D46EA085C071443011CDCE71F4D3CE5002355E73D1C203D0E1CEE40351C202F2ED04026F71BB9400C43B4
:40404000611E8C412C430021D8E60C43611E8C41E4B2002190E7191C5C4621E5191C5C460F4D1DE5031C3B4300D124E7011C3C1C16E52026764276190A1CF2409046202DDA
:404080000BD04026751BA9400C43611E8C4145462C43002170E70021D1E70021F4E7C046FF070000FFFF7FFF70B50B1C124C09030E0B5900021C490DDD0F0020A14211DD63
:4040C0000E4881420FDC8020400306430C48401A1F280BDD0B4A521AD640321C5042002D00D1101C70BD084BE818FBE7074BC240C9188E403243F1E7FE0300001D040000FE
:404100003304000013040000FFFFFF7FEDFBFFFFF8B5041E31D0C70F00D04442201C00F073F8184D2D1A0A2819DD0B38844024036D05240B6D0D3A1C0026002000210B0D4A
:404140002403240B1B0523430F4C2D051C402C4364006408D307211C301C1943F8BD061C1536231CB3401E1C0B23181AC44024036D05240B6D0D3A1CDFE7002200250024C1
:404180000026DAE71E040000FFFF0F808446101C62468C46191C634600E0C0461FB500F019F9002801D40021C8421FBD10B500F049F84042013010BD10B500F00BF9002804
:4041C00001DB002010BD012010BDC04610B500F001F9002801DD002010BD012010BDC04610B500F079F8002801DC002010BD012010BDC04610B500F06FF8002801DA002021
:4042000010BD012010BDC0461C2101231B04984201D3000C10391B0A984201D3000A08391B09984201D30009043902A2105C40187047C046040302020101010100000000D0
:4042400000000000F0B55F4656464D464446F0B40D1C041C8046E80F814618030F03000B3F0B83B084461B48009749005E00DF0F490D9246760DBB4681420CD01548864246
:4042800010D00120B14215D003B03CBC90469946A246AB46F0BD009F01202743F4D10D488642EED1604602430120002AECD10120B142E9D1009B6345E6D1D045E4D1D945D1
:4042C00006D00029E0D11C43201C441EA041DBE70020D9E7FF070000F0B55F4656464D464446F0B4CD0FDE0FAC461D032D0BB146374E0F034C00AB465D0080463F0B640D25
:4043000092466D0DB44232D0314EB54235D0002C0ED1384341424141081C002D0BD0002919D1CC452DD0654668420123184318E0002DF6D1281C59460A435342534100289F
:4043400006D1002BEDD0634658420123184308E00020002B05D14A46504250414042012318433CBC90469946A246AB46F0BD3E1C0643C9D002204042F3E75E461643C6D07F
:40438000F8E7AC4207DC0BDA614648424841404201231843E5E76646704201231843E0E75F450AD80ED000205F45DAD2654668426841404201231843D3E762465042012352
:4043C0001843CEE7D045F8D80020D045EED3C8E7FF070000F0B556464D4644465F46F0B40D1C83B0041C0190E80F814618030F03000B3F0B84463548009749005E00DF0FB6
:40440000490D9246760DB846814234D02F48864236D0002918D0002E1FD1341C67463A4353425341002C1FD00020002B05D142465042504140420123184303B03CBC904686
:404440009946A246AB46F0BD0098044360426041041C002EE2D00028E9D1C14515D04F46784201231843E8E7002BF6D04B46584201231843E1E7009F02202743DDD1C5E763
:40448000674602201743D8D1C3E7B14204DD4A46504201231843D0E7B14207DB00986045E4D80AD0009F00206745C6D24F4678427841404201231843BFE7019A5245D5D81B
:4044C000019A00205245F1D3B7E7C046FF07000070B50E4B0E4D0024ED1AAD101E1CAC4204D0A300F35898470134F8E700F0E0F9084B094D0024ED1AAD101E1CAC4204D008
:40450000A300F35898470134F8E770BDBC480000BC480000BC480000C448000010B50023934203D0CC5CC4540133F9E710BD031C8218934202D019700133FAE770470000EF
:404540000000000000C0A80101FFFFFF000008DCFFFFFFC0A801FE000200FF00FE01000000000000C0A80101698700000A090000255809000400000000300F400002803262
:404580000F40800100400F400004000000320F40DC4700008000000002000F4066300F4035310F4013320F4042330F4007400F400A410F4002420F4007430F4002600F4024
:4045C000800D810F010107020C0613021C0629012D012E03300132023302340437013F044040410649FF4AFF4BFF4DA04F04501852805405580459045A045B045C335D336A
:404600005F01604062C06440654066C068C06AC06CC06EC080048280840188048C849007911092389327940A953896109B019C84A056A209A480A604A884A914AB2BAC60D3
:40464000AD0EAF10B303B47FB53CB680B820B920BE40C040C102C5D0C601C702C836C9FFCAFFCBFFCDAFCE0FCF04D018D602D728D804D904DA04DB04DC11DD13DF01E04082
:40468000E2C0E440E540E6C0E8C0EAC0ECC0EEC002010406059009400D0A0E02134016021716181019201A401C041D801E012244272829202A402F063301372A3A09424085
:4046C00043014608470148044D0254045540564959025A8865046C016D026E9A6F147340748075808004C0F1C2B1C4F1CA3CCCE1CE03D0A1D204D60BD84088028A0D90231B
:40470000921C98359A0AAC29AE16B010B20FB620BA08BE41D409D804DB04DC01DD10DF0100100590074009020B080C100D0A0E020F0811801716181119041A401D1A1F0649
:404740002402256027222C802F06364437623D023E103F8845AA46084C014D084E0856525744581059085A41600166589211970899809B149D149E029F02A080A181A24DD5
:40478000A50AA702AF20B410B608C0D2C2FAC471CAB0CCF0CEF0D0D0D230D60FD878E204E602EC400C02620266018201C220D8C0E2205208581082088410AE02B402D4A076
:4047C000E220E640EA406480D8011B081D0181018708B480C60CE808100A1101988D020000400000388DC0009A00008013426408218DD8000202000D9A0D0080FC8D030025
:4048000002009800986202140011002213000F0FE0800070000028880000001035041000060EFDBC3DFFFFFF2200F008040000004000000004040404111100010000C00039
:4048400040011011C00100114001400100000000000000000000000000000000020000000200000000000000000000000001020304370000F2380000F2380000E4360000CF
:40488000CE350000CE350000D6360000E4360000CE350000D6360000CE350000E4360000CC350000CC350000CC350000FA380000F8B5C046F8BC08BC9E4670479D04000004
:4048C000C1200000F8B5C046F8BC08BC9E46704775040000E8480000C800002028000000A00000000000000000000000E8030000640000002003000018010000C0F1FF0F6E
:4049000000366E01C05D0000180000000000E02E0000000000000000000000000000000000000000000000000000000000000000000000000000000000000000000000008F
:404940000000000000000000000000000000000000000000000000000000000000000000000000000000000000000000000000000000000000000000000000000000000037
:4049800000000000000000000000000000000000000000000000000000000000000000000000000000000000000000000000000000000000000000000000000000000000F7
:4049C00000000000000000000000000000000000000000000000000000000000000000000000000000000000000000000000000000000000000000000000000000000000B7
:404A00000000000000000000000000000000000000000000000000000000000000000000000000000000000000000000000000000000000000000000000000000000000076
:0200000490303A
:02000000332AA1
:0200000490402A
:200000000000000000000000000000000000000000000000000000000000000000000000E0
:0200000490501A
:0C000000000204C81193110104E044BD8B
:0200000490600A
:0100000001FE
:00000001FF