:4000000000100020110000004D1600004D16000080B500AF01F01EFB80B584B000AF021CFB1D1A70204A3B1C0B3312781A701F4A3B1C0A3312781A700423013BFB6018E019
:400040001B4B1868391C0B31FA68131C5B009B18C3185B780B70164B1868391C0A31FA68131C5B009B18C3189B780B70FB68013BFB60FB68002B0ADB0D4B1968FA68131CF1
:400080005B009B185B5CFA1D12789A42D8D9094B3A1C0B3212781A60074B3A1C0A3212781A60BD4604B080BDCCF1FF0FCDF1FF0FCC0000201CFF0B4020FF0B4080B500AF4F
:4000C000254B254A12688021C9020A431A601820FFF7A2FF214B19221A60052001F0ECFC1F4B204A1278D2B21A60052001F0A0FD194B194A11681C4A0A401A601B4B1C4A41
:400100001A601C4B20221A601B4B11221A601B4B21221A601A4B21221A601A4B21221A60194B30221A60194B10221A60184B822212061A60174B184A1A60184B184A1A6052
:40014000184B194A1A60194B174A1A60184B164A1A60BD4680BDC04600010B402CFF0B4028FF0B40E5F1FF0FFFFFFBFF04010B4006000080080202401C0202402002024087
:4001800024020240280202402C0202403002024008010B40000002400B00008040000240100000808000024017000080040002404400024080B586B000AF72B63B1C17334C
:4001C00000221A7026E03B1C17331A78131C5B009B185B00764A9B183B613B691A78597809020A43997809040A43DB781B0613431A1C3B6919795B791B020B439BB2101CBB
:40020000191C01F0A5FA3B1C17331A783B1C173301321A703B1C17331B78022BD3D93B1C173300221A7038E03B1C17331A78131C9B009B185B005F4A9B18FB60FB681A783F
:40024000597809020A43997809040A43DB781B061343BB60FB681A79597909020A43997909040A43DB791B0613437B60BA1CFB68197A5B7A1B020B431380BB1C1B88B96899
:400280007A68081C111C1A1C01F072FA3B1C17331A783B1C173301321A703B1C17331B78002BC1D0444A454B101C191C01F072FA434B802252001A80424B01221A70424B38
:4002C000424A1A60424BCE2292001A60414B424A1A60424B99221A60414B50221A60414B414A1A60414B07221A60414BDB2252001A60404B03221A603F4BC02212041A6068
:400300003E4B03221A603E4B80221A603D4BD82212011A603C4B80221A603C4B02221A603B4B31221A603B4B02221A603A4B992212041A60394BA02212031A60384B8C22CC
:4003400092051A60374B992212041A60364B902252031A60354B992212041A60344B992212041A60334BC02212061A60324B324A1278D2B202210A43D2B21A702F4B2F4A9E
:400380001278D2B20C218A43D2B204210A43D2B21A70294B284A1278D2B216210A43D2B21A70FFF78BFE01F035FABD4606B080BD50280000642800007028000094280000BE
:4003C00000600F4002600F400000014000000303040001400C00014000EE006010000140000004400800044089ED1800000104400801044000020440080204401802044083
:4004000000030440080304401803044000040440080404401804044000500F4004500F4008500F4010500F4018500F4020500F4030500F4038500F4000700F4001700F409C
:4004400010B5064C2378002B07D1054B002B02D0044800E000BF0123237010BDE0000020000000001828000008B5084B002B03D00748084900E000BF07480368002B03D0C6
:40048000064B002B00D0984708BDC0460000000018280000E4000020C80000200000000080B582B000AF01F0EFFA031C7B60054B01221A707B68181C01F0F0FABD4602B08C
:4004C00080BDC0468C01002080B586B000AF78600A1CFB1C1A7000233B613B1C0E3300221A803B1C173300221A7010E03B1C17331B785B007A68D3181B883A69D3183B61DA
:400500003B1C17331A783B1C173301321A703A1C1732FB1C12781B789A42E7D3FB1C1B783869191C02F0F0F8031C1A1C3B1C0E331A803B1C0E331B88181CBD4606B080BD7B
:4005400080B584B000AF7860FB1C1970BB1C1A70FB1C1B787A68D3181B785BB21A023B1C0E331A80BB1C1B787A68D3181B785BB29AB23B1C0C33111CFF220A401A803B1CE3
:400580000A33391C0E313A1C0C32098812880A431A803B1C0A3300215B5E002B00DA01335B109BB29AB23B1C0833054952181A803B1C08331B88181CBD4604B080BDC046D2
:4005C000DC05000080B584B000AF78603B1C0E33FA2252001A803B1C0E331B88181CBD4604B080BD80B500AF034B181C0E2100F0C7FEBD4680BDC0465001002080B586B0BB
:4006000000AF0A1CFB1D011C19703B1D1A803B1C0C33FF221A703B1C0C33FF225A703B1C0C33FA1D12789A703B1C0C330522DA703B1C0C3303221A713B1C0C331E225A7144
:400640003B1D1B88DAB23B1C0C339A713B1D1B881B0A9BB2DAB23B1C0C33DA713B1C0C339A79FB1D1B78D318DAB23B1C0C33DB79D318DBB22633DBB2DB43DAB23B1C0C3325
:400680001A723B1C0C33181C092101F027FBBD4606B080BD80B586B000AF0A1CFB1D011C19703B1D1A803B1C0C33FF221A703B1C0C33FF225A703B1C0C33FA1D12789A70BE
:4006C0003B1C0C330522DA703B1C0C3303221A713B1C0C330E225A713B1D1B88DAB23B1C0C339A713B1D1B881B0A9BB2DAB23B1C0C33DA713B1C0C339A79FB1D1B78D318DB
:40070000DAB23B1C0C33DB79D318DBB21633DBB2DB43DAB23B1C0C331A723B1C0C33181C092101F0DBFABD4606B080BD80B586B000AF0A1CFB1D011C19703B1D1A803B1C32
:400740000C33FF221A703B1C0C33FF225A703B1C0C33FA1D12789A703B1C0C330522DA703B1C0C3303221A713B1C0C3320225A713B1D1B88DAB23B1C0C339A713B1D1B88BA
:400780001B0A9BB2DAB23B1C0C33DA713B1C0C339A79FB1D1B78D318DAB23B1C0C33DB79D318DBB22833DBB2DB43DAB23B1C0C331A723B1C0C33181C092101F08FFABD4608
:4007C00006B080BD90B583B000AF4A4B1B78012B03D05EDD022B17D05CE0FB1D00221A700AE0FB1D1A78444B52004449D152FB1D1A78FB1D01321A70FB1D1B78132BF0D913
:400800003F4B00221A7045E03C1D3E4B181C0A210B22FFF795FE031C2380394B1B781A1C354B5200391D0988D152354B1B78122B06D8334B1B780133DAB2314B1A7002E094
:400840002F4B00221A70BC1C2B4B181C1421FFF73BFE031C2380BB1C1A88FA23DB009A420BD8BB1C1A88284B9A4206D9BB1C1B880220191CFFF7C2FE04E0204B0220191CA6
:40088000FFF7BCFE214B1B780133DAB21F4B1A7000E0C046174B1B78012B0CD002DC002B05D024E0022B0AD0032B14D01FE0114B01221A701BE00F4B03221A7017E0144B95
:4008C0001B78002B03D00B4B02221A700FE0094B03221A700BE00E4B1B78002B03D0054B02221A7002E0034B03221A70C046BD4603B090BD8801002090010020DC0500007B
:400900002201002050010020E70300008E0100208B01002090B583B000AF4A4B1B78012B03D05EDD022B17D05CE0FB1D00221A700AE0FB1D1A78444B52004449D152FB1DE4
:400940001A78FB1D01321A70FB1D1B78132BF0D93F4B00221A7045E03C1D3E4B181C0C210D22FFF7EDFD031C2380394B1B781A1C354B5200391D0988D152354B1B78122B76
:4009800006D8334B1B780133DAB2314B1A7002E02F4B00221A70BC1C2B4B181C1421FFF793FD031C2380BB1C1A88FA23DB009A420BD8BB1C1A88284B9A4206D9BB1C1B882A
:4009C0000120191CFFF71AFE04E0204B0120191CFFF714FE214B1B780133DAB21F4B1A7000E0C046174B1B78012B0CD002DC002B05D024E0022B0AD0032B14D01FE0114BFA
:400A000001221A701BE00F4B03221A7017E0144B1B78002B03D00B4B02221A700FE0094B03221A700BE00E4B1B78002B03D0054B02221A7002E0034B03221A70C046BD466D
:400A400003B090BDB801002060010020DC0500008A01002050010020E70300008E0100208B01002090B583B000AF3C1D0120FFF7A9FD031C2380774B1B78012B07D000DCA7
:400A8000B7E0022B1AD0032B00D1A3E0B2E0FB1D00221A700AE0FB1D1A786F4B52006F49D152FB1D1A78FB1D01321A70FB1D1B78132BF0D96A4B00221A709BE0BC1C694B9C
:400AC000181C08210922FFF73BFD031C2380644B1B781A1C604B5200B91C0988D152604B1B78122B06D85E4B1B780133DAB25C4B1A7002E05A4B00221A703C1C564B181C9A
:400B00001421FFF7E1FC031C23803B1D1B88642B1FD83B1C1A88544B9A4204D84F4B181C01F01AFC4FE03B1C1A88FA23DB009A420AD83B1C1A884D4B9A4205D93B1C1B8822
:400B4000181C01F009FC3EE0444B181C01F004FC39E03B1D1A88454B9A421FD93B1C1A883E4B9A4204D93D4B181C01F0F5FB2AE03B1C1A88FA23DB009A420AD83B1C1A8878
:400B80003A4B9A4205D93B1C1B88181C01F0E4FB19E0324B181C01F0DFFB14E03B1C1A88FA23DB009A420AD83B1C1A882F4B9A4205D93B1C1B88181C01F0CEFB03E0274B76
:400BC000181C01F0C9FB2A4B1B780133DAB2284B1A700FE03B1D1B88642B04D93B1D1A88224B9A4204D91D4B181C01F0B5FB01E000E0C046174B1B78012B0CD002DC002BC7
:400C000005D024E0022B0AD0032B14D01FE0114B01221A701BE00F4B03221A7017E0154B1B78002B03D00B4B02221A700FE0094B03221A700BE00F4B1B78002B03D0054BB2
:400C400002221A7002E0034B03221A70C046BD4603B090BD8D01002024010020DC0500004D01002050010020DB050000E70300008E0100208B01002090B583B000AF3C1D86
:400C80000020FFF79FFC031C2380794B1B78012B07D000DCBBE0022B1AD0032B00D1A5E0B6E0FB1D00221A700AE0FB1D1A78714B52007149D152FB1D1A78FB1D01321A70FD
:400CC000FB1D1B78132BF0D96C4B00221A709FE0BC1C6B4B181C06210722FFF731FC031C2380664B1B781A1C624B5200B91C0988D152624B1B78122B06D8604B1B7801339A
:400D0000DAB25E4B1A7002E05C4B00221A703C1C584B181C1421FFF7D7FB031C23803B1D1A888C235B009A421FD83B1C1A88554B9A4204D8504B181C01F0BEFB4FE03B1CAA
:400D40001A88FA23DB009A420AD83B1C1A884E4B9A4205D93B1C1B88181C01F0ADFB3EE0454B181C01F0A8FB39E03B1D1A88474B9A421FD93B1C1A883F4B9A4204D93E4B54
:400D8000181C01F099FB2AE03B1C1A88FA23DB009A420AD83B1C1A883B4B9A4205D93B1C1B88181C01F088FB19E0334B181C01F083FB14E03B1C1A88FA23DB009A420AD829
:400DC0003B1C1A88304B9A4205D93B1C1B88181C01F072FB03E0284B181C01F06DFB2C4B1B780133DAB22A4B1A7011E03B1D1A888C235B009A4204D93B1D1A88234B9A429B
:400E000004D91D4B181C01F057FB01E000E0C046174B1B78012B0CD002DC002B05D024E0022B0AD0032B14D01FE0114B01221A701BE00F4B03221A7017E0164B1B78002B15
:400E400003D00B4B02221A700FE0094B03221A700BE0104B1B78002B03D0054B02221A7002E0034B03221A70C046BD4603B090BD89010020E4010020DC0500004C010020EF
:400E800050010020DB050000E70300001F0300008E0100208B01002090B583B000AF4B4B1B78012B03D060DD022B1BD05EE0FB1D00221A700AE0FB1D1A78454B52004549D0
:400EC000D152FB1D1A78FB1D01321A70FB1D1B78132BF0D9404B00221A703E4B181C01F08BF943E03C1D3D4B181C08210922FFF727FB031C2380384B1B781A1C344B5200B2
:400F0000391D0988D152344B1B78122B06D8324B1B780133DAB2304B1A7002E02E4B00221A70BC1C2A4B181C1421FFF7CDFA031C2380BB1C1A88FA23DB009A420AD8BB1C63
:400F40001A88274B9A4205D9BB1C1B88181C01F053F903E01F4B181C01F04EF9214B1B780133DAB21F4B1A7000E0C046174B1B78012B0CD002DC002B05D024E0022B0AD080
:400F8000032B14D01FE0114B01221A701BE00F4B03221A7017E0144B1B78002B03D00B4B02221A700FE0094B03221A700BE00E4B1B78002B03D0054B02221A7002E0034B33
:400FC00003221A70C046BD4603B090BD4E010020BC010020DC0500004F01002050010020E70300008E0100208B01002080B582B000AF002000F0FCFE0A2000F0F5FD012099
:4010000000F0F6FE012000F019FFFB1D00221A700DE000F0D1FE031C002B00D00BE0042000F0E2FDFB1D1A78FB1D01321A70FB1D1B78632BEDD9234B00221A70224B002214
:401040001A70224B00221A70214B00221A70214B00221A7001F0B6FA00F01EFC00F00EFC00F010FE01F0FAF901F098F801F046F9194B042001211A1C00F092F8FE20642168
:40108000FFF754FB154BFE20191CFFF703FB144B181C01F061F9124B181C01F00DFA114B181C00F0A1FD00F0EFFE01F011F862B60D4B181C00F0FEFB00F08EFCBD4602B02C
:4010C00080BDC0464E01002088010020B8010020890100208D01002087690000FF030000DC050000B80B0000A104000080B584B000AF0023FB603B1C0A33184A1A800123DF
:401100007B60FFF773FF00F065FE031C002B09D100F002F9FFF766FA114B01221A70114B00221A70FFF7B8FEFFF7A6FDFFF79AFCFFF748FBFFF7EEFB0A4B1B78052B03D1CE
:40114000074B00221A70FFE7C046074B1B78DBB2002BFAD0044B00221A70D4E718FCFFFF8B0100208E0100208C01002080B582B000AF021CFB1D1A70FB1D1B78181C01F0A8
:401180005BFAC04601F038FA031C1A1C01231340F8D001F06BFA031C181CBD4602B080BD80B590B000AFFB1D1870BB1D19703B1D1A803A1C2832504B111C1A1C1323081C63
:4011C000111C1A1C01F016FB3A1C14324B4B111C1A1C1223081C111C1A1C01F00BFB3B1C1433BA1D1278DA733B1D1B881B0A9BB2DAB23B1C14331A743B1D1B88DAB23B1CF3
:4012000014335A743B1C0C33092000211A1C062300F0D6F93B1C2833FA1D12789A743B1D1B881B0A9BB2DAB23B1C14331A713B1D1B88DAB23B1C14335A713B1C2833002056
:4012400000211A1C132300F031F93B1C1433002001211A1C122300F029F93B1C0C33092000211A1C062300F021F912200121642200F0E2F8642000F0B7FC00F043F800200B
:40128000142100F05DF8002000F0D8FD0020FFF76DFF0020FFF76AFF1420FFF767FF3B1C3E3300221A8016E03B1C3E331B881B0A9BB2DBB2181CFFF759FF3B1C3E331B886D
:4012C000DBB2181CFFF752FF3B1C3E331A883B1C3E3301321A803B1C3E331A88084B9A42E2D9012000F0AAFD3B1C0C335B79181CBD4610B080BDC0461C280000302800009B
:40130000FF03000080B500AF01200121012200F063F8BD4680BDC04680B500AF02200121FF2200F059F817200021FF2200F054F815200021FF2200F04FF8BD4680BDC0469D
:4013400080B582B000AF0A1CFB1D011C1970BB1D1A70BB1D1B782C2001211A1C00F03CF818200021012200F037F8FB1D1B78162000211A1C00F030F8BD4602B080BDC046FB
:4013800080B582B000AF78600A1CFB1C1A70114B19887A68FB1C1B78081C032100F010F92A20012100F0CCF8031C1A1C094B1A80084B1B88282001211A1C00F03DF801206F
:4013C0000121402200F008F8024B1B88181CBD4602B080BDFE00002080B582B000AFBB1D18807B1D19703B1D1A70002000F026FDBB1D1B881B0A9BB2DBB2181CFFF7B6FE31
:40140000BB1D1B88DBB2181CFFF7B0FE7B1D1B78DB00DBB204221343DBB2DBB2181CFFF7A5FE3B1D1B78181CFFF7A0FE012000F005FDBD4602B080BD80B582B000AFBB1D30
:4014400018807B1D1970BB1C1A80002000F0F6FCBB1D1B881B0A9BB2DBB2181CFFF786FEBB1D1B88DBB2181CFFF780FE7B1D1B78DB00DBB204221343DBB2DBB2181CFFF715
:4014800075FEBB1C1B881B0A9BB2DBB2181CFFF76DFEBB1C1B88DBB2181CFFF767FE012000F0CCFCBD4602B080BDC04680B584B000AF3A601A1CBB1D18807B1D19703B1D73
:4014C0001A70002000F0BAFCBB1D1B881B0A9BB2DBB2181CFFF74AFEBB1D1B88DBB2181CFFF744FE7B1D1B78DB00DBB204221343DBB2DBB2181CFFF739FE3B1C0F330022F7
:401500001A700FE03B1C0F331B783A68D3181B78181CFFF72BFE3B1C0F331A783B1C0F3301321A703A1C0F323B1D12781B789A42E8D3012000F082FCBD4604B080BDC046E6
:4015400080B584B000AF0A1CBB1D011C19807B1D1A70002000F072FCBB1D1B881B0A9BB2DBB2181CFFF702FEBB1D1B88DBB2181CFFF7FCFD7B1D1B78DB00DBB2181CFFF773
:40158000F5FD0020FFF7F2FD031C1A1C3B1C0E3312021A800020FFF7E9FD031C191C3B1C0E333A1C0E3212880A431A80012000F045FC3B1C0E331B88181CBD4604B080BDE5
:4015C00090B585B000AF3A601A1CBB1D18807B1D19703B1D1A70002000F030FCBB1D1B881B0A9BB2DBB2181CFFF7C0FDBB1D1B88DBB2181CFFF7BAFD7B1D1B78DB00DBB266
:40160000181CFFF7B3FD3B1C0F3300221A7010E03B1C0F331B783A68D4180020FFF7A6FD031C23703B1C0F331A783B1C0F3301321A703A1C0F323B1D12781B789A42E7D353
:40164000012000F0FBFBBD4605B090BD80B500AFFEE7C04680B586B000AF224B7B61224B3B61204B7B6135E03B691B68FB603B695B68BB603B699B683B6000237B600CE097
:40168000FB681A68BB681A60BB680433BB60FB680433FB607B6804337B607A683B689A42EED13B69DB683B6000237B6008E0BB6800221A60BB680433BB607B6804337B6098
:4016C0007A683B689A42F2D13B6910333B617B69013B7B617B69002BC6D101F065F8FFF705FDFEE701000000002B000080B582B000AF00237B600FE07B68032B04D8104BFF
:401700007A689200D35800E00E4B0F4A796889008B507B6801337B607B682F2BECD9FEF749FD0A4B00221A608023DB058022D205126801210A431A60BD4602B080BDC046BC
:40174000000000004D16000000000020C000002080B582B000AF786039607A683B68101C00211A1C01F04FF8BD4602B080BDC04680B584B000AFF860B9607A60F968BA6861
:401780007B68081C111C1A1C01F034F8BD4604B080BDC04680B586B000AF7860396000233B6100237B612EE07B699B007A68D3181B68BB603B1C0F33BA681A70BB68FF22DE
:4017C0009343BB6017E03B695B003A68D3181B781A1CBB68D3183A69520039688A1852781A703B6901333B613B1C0F331A783B1C0F33013A1A703B1C0F331B78002BE2D10B
:401800007B6901337B617B69082BCDD9BD4606B080BDC04680B500AF054B064A1A60064B044A1A60012000F009F8BD4680BDC04600031A400300040040031A4080B584B022
:4018400000AF021CFB1D1A700B4B1B68FB60FB1D1B78002B05D0FB68802212061343FB6003E0FB685B005B08FB60034BFA681A60BD4604B080BDC04680031A4080B500AF08
:40188000044B044A1268802109060A431A60BD4680BDC0468000024080B500AF044B044A1268802109060A431A60BD4680BDC0464400024080B582B000AF786000F04AF834
:4018C0007B68181C00F008F8032000F013F800F037F8BD4602B080BD80B582B000AF7860034A8C237968D150BD4602B080BDC0460000002090B585B000AF021CFB1D1A70C5
:401900001E23FB603C1C0B3400F0E0F8031C23700A4B0A4A126892009108FA1D1078FA68041C9440221C0A431A603B1C0B331B78181C00F0CFF8BD4605B090BD10E400E0C6
:4019400080B500AF024B802212031A60BD4680BD00E100E080B500AF024B802212031A60BD4680BD80E100E080B500AF094B802292041A60084B0C221A60012000F078F8BB
:40198000064B181C00F048F8002000F037F8BD4680BDC046C0010540E40105401027000090B583B000AFFC1D00F090F8031C2370084B084A126808210A431A60FB1D1B7862
:4019C000181C00F087F80820182100F033F8BD4603B090BD0000054080B500AF064B1B78002B04D1FFF7C0FF034B01221A70FFF7D7FFBD4680BDC0460001002080B582B06E
:401A000000AF7860034B7A681204120C1A60BD4602B080BDC801054080B582B000AF7860034B7A681204120C1A60BD4602B080BDD401054090B585B000AF786039603C1C77
:401A40000F3400F043F8031C2370084B3A687968081C9040021C1A603B1C0F331B78181C00F038F8BD4605B090BDC0460800054080B582B000AF7860024B7A681A60BD4672
:401A800002B080BDF801054080B500AF024B1B68181CBD4680BDC046FC01054080B582B000AF7860024B7A681A60BD4602B080BDF0010540000000000230800804D0C04636
:401AC0000138FDD1C046C046C0467047EFF3108072B6704780F310887047C046C046C04680B584B000AF021C3960FB1D1A7080239B05FB60FB1D1B781F2B02D9002000F002
:401B000069F8FB1D1B7810339B00FA68D3181B68BB60FB1D1B7810339B00FA68D3183A681A60BB68181CBD4604B080BD90B587B000AF0A1CFB1D011C1970BB1D1A70BB1D4A
:401B40001B78032B02D9002000F044F8FB1D1B781F2B02D9002000F03DF8FB1D1A7803231340DB0006337B613C1C1334FFF7AEFF031C2370FB1D1B789B08DBB29B0014498E
:401B80005B181B68FB607B690322111C99400B1CDA43FB681340FB60BB1D1A787B69111C99400B1CFA681343FB60FB1D1B789B08DBB29B00064A9B18FA681A603B1C1333F0
:401BC0001B78181CFFF786FFBD4607B090BDC04600E400E080B582B000AF021CFB1D1A7001BEBD4602B080BD80B582B000AF786008E00C4B1B68181CFFF75EFF7B680A4ADD
:401C00009B187B607A6880231B029A42F1D8074B1B687A685343181CFFF74EFFBD4602B080BDC046DC0000200080FFFFD400002080B582B000AF021CBB1D1A80BB1D1B8884
:401C4000044A12785343181CFFF736FFBD4602B080BDC046D800002080B500AF00F058F8BD4680BD80B500AF054B054A1268802109060A431A6000F017F8BD4680BDC0468A
:401C80000000064080B500AF064B1B78002B04D1FFF7E2FF034B01221A70FFF7E3FFBD4680BDC0460401002080B500AFBD4680BD80B582B000AF7860C046064B1A680F23E4
:401CC0001340082BF9D0044B7A681A60BD4602B080BDC046080206404002064080B584B000AF786039600023FB6009E07A68FB68D3181B78181CFFF7DBFFFB680133FB6071
:401D0000FA683B689A42F1D3BD4604B080BDC04680B500AF174B184A1A60184B00221A60174B01221A60174B174A1A60174B07221A60174B00221A60164B01221A60164B45
:401D4000114A1A60154B00221A60154B00221A60144B00221A60144B00221A60134B00221A60134B00221A60124B00221A60BD4680BDC046000006400B0000024000064094
:401D80004800064000030640070000800403064010030640440006400002064004020640880E0640C80E0640480F0640080F0640C80F0640880F064080B500AF044B1A6860
:401DC000022313405B08DBB2181CBD4680BDC0460400044080B500AF044B1B68DAB201231340DBB2181CBD4680BDC0460400044080B584B000AF021CFB1D1A700E4B1B68FD
:401E0000DAB23B1C0F3304218A431A70FB1D1B789B00DAB204231340D9B23B1C0F333A1C0F3212780A431A70034B3A1C0F3212781A60BD4604B080BD0000044080B584B00F
:401E400000AF021CFB1D1A700E4B1B68DAB23B1C0F3308218A431A70FB1D1B78DB00DAB208231340D9B23B1C0F333A1C0F3212780A431A70034B3A1C0F3212781A60BD46DA
:401E800004B080BD0000044080B500AF064B1B78002B04D100F00AF8034B01221A7000F003F9BD4680BDC0460C01002090B585B000AF0E200321FFF739FE604B0E20191C23
:401EC000FFF70EFE5E4B07221A605E4B5E4A1A605E4B5F4A1A605F4B5F4A1A605F4B8022D2051A605E4B5F4A1A605F4B5D4A1A605E4B5E4A1268802149020A431A605C4BD7
:401F00005B4A1268802149020A431A60594B00221A60594B00221A60584B01221A60584B02221A60574B1B687B607A68564B13407B607B68012213437B60524B7A681A60ED
:401F40000023FB6073E0514BFA689200D258DC239B0113407B604E4AFB68D3181B787A6813437B60FB689B004A4A9B187A681A60464BFA689200D258012313400AD03D4B58
:401F80003C4A1168FA680120041C9440221C92B20A431A603D4BFA689200D258022313400AD0354B344A1168FA680120041C9440221C92B20A431A60344BFA689200D25896
:401FC00080239B00134003D080235B00BB6002E080235B01BB602D4BFA689200D25880235B00134005D12C4BFA6852000021D15209E0BB68002B00DA01335B1099B2264BD0
:40200000FA685200D152BB68244A53438022D2009B18002B01DA224C1B19DB129BB219B2204BFA689200D150FB680133FB60FB68022B88D9BD4605B090BDC046ED20000053
:4020400020001A4000001A404020001304001A408400008018001A400000FF071C001A4010001A400200020014001A4000031A4040031A4028021A4038021A4018021A4067
:40208000000F1A4030001A40FFFFFFDFCC2A0000D82A000080001A401C02002010270000FF0700001002002080B500AF074B1B68002B09DB054B054A1268802109060A43F4
:4020C0001A600A20FFF7B4FDBD4680BD00001A4080B500AF044B044A1268802149020A431A60BD4680BDC04604001A4080B582B000AF044B1B687B60024B7A681A60BD463A
:4021000002B080BD10021A4080B500AF104B8022D2041A600E4B0E4A12681A60002000F04FF80B4B0A4A12681A600A4B0C221A60012000F08DF8084B31221A60074B181C40
:4021400000F04CF8064B181C00F056F8BD4680BD400105406401054068010540204E0000DC05000090B583B000AFFC1DFFF7AEFC031C2370084B084A126802210A431A6060
:40218000FB1D1B78181CFFF7A5FC0220182100F041F8BD4603B090BD0000054080B500AF064B1B78002B04D1FFF7AEFF034B01221A70FFF7D7FFBD4680BDC0460D01002037
:4021C00080B582B000AF7860034B7A681204120C1A60BD4602B080BD4801054080B582B000AF7860034B7A681204120C1A60BD4602B080BD5401054080B582B000AF78604D
:40220000034B7A681204120C1A60BD4602B080BD4C01054090B585B000AF786039603C1C0F34FFF753FC031C2370084B3A687968081C9040021C1A603B1C0F331B78181C4E
:40224000FFF748FCBD4605B090BDC0460800054080B582B000AF7860024B7A681A60BD4602B080BD7801054080B500AF104B8022D2041A600E4B0E4A12681A60002000F09F
:402280004FF80B4B0A4A12681A600A4B0C221A60012000F08DF8084B31221A60074B181C00F04CF8064B181C00F056F8BD4680BD80010540A4010540A8010540204E0000BD
:4022C000DC05000090B583B000AFFC1DFFF7FEFB031C2370084B084A126804210A431A60FB1D1B78181CFFF7F5FB0420182100F041F8BD4603B090BD0000054080B500AF9A
:40230000064B1B78002B04D1FFF7AEFF034B01221A70FFF7D7FFBD4680BDC0460E01002080B582B000AF7860034B7A681204120C1A60BD4602B080BD8801054080B582B0E7
:4023400000AF7860034B7A681204120C1A60BD4602B080BD9401054080B582B000AF7860034B7A681204120C1A60BD4602B080BD8C01054090B585B000AF786039603C1CAA
:402380000F34FFF7A3FB031C2370084B3A687968081C9040021C1A603B1C0F331B78181CFFF798FBBD4605B090BDC0460800054080B582B000AF7860024B7A681A60BD4657
:4023C00002B080BDB801054080B500AF104B8022D2041A600E4B0E4A12681A60002000F04FF80B4B0A4A12681A600A4B0C221A60012000F08DF8084B31221A60074B181CEC
:4024000000F04CF8064B181C00F056F8BD4680BD000105402401054028010540204E0000DC05000090B583B000AFFC1DFFF74EFB031C2370084B084A126801210A431A60BF
:40244000FB1D1B78181CFFF745FB0120182100F041F8BD4603B090BD0000054080B500AF064B1B78002B04D1FFF7AEFF034B01221A70FFF7D7FFBD4680BDC0460F010020D4
:4024800080B582B000AF7860034B7A681204120C1A60BD4602B080BD0801054080B582B000AF7860034B7A681204120C1A60BD4602B080BD1401054080B582B000AF78600A
:4024C000034B7A681204120C1A60BD4602B080BD0C01054090B585B000AF786039603C1C0F34FFF7F3FA031C2370084B3A687968081C9040021C1A603B1C0F331B78181C2E
:40250000FFF7E8FABD4605B090BDC0460800054080B582B000AF7860024B7A681A60BD4602B080BD3801054080B500AF084B0F221A7000F0ABF800F05FF800F06DF8054BF3
:4025400000221A70044B00221A70BD4680BDC04681000F4080000F4082000F4090B583B000AFFC1DFFF7B2FA031C2370124B124A1278D2B220210A43D2B21A700F4B0F4A54
:402580001278D2B210210A43D2B21A700C4B0C4A1278D2B210210A43D2B21A70FB1D1B78181CFFF797FA00F0A1F800F01DF800F01FF8BD4603B090BD91000F4090000F407D
:4025C00092000F4080B500AF064B1B78002B04D1FFF7AAFF034B01221A70FFF7BFFFBD4680BDC0461001002080B500AFBD4680BD80B500AFBD4680BD80B582B000AF054AC0
:40260000FB1D12781A70FB1D1B78181CBD4602B080BDC04660000F4080B582B000AF054AFB1D12781A70FB1D1B78181CBD4602B080BDC04662000F4080B582B000AF021C9B
:40264000FB1D1A70C046074B1B78DBB21A1C04231340F8D0044BFA1D12781A70BD4602B080BDC04660000F4042000F4080B582B000AF054AFB1D12781A70FB1D1B78181CA6
:40268000BD4602B080BDC04652000F4090B583B000AF01E0124B1B78124B1B78DBB21A1C20231340F6D1FC1DFFF710FA031C23700D4B0D4A1278D2B201210A43D2B21A7074
:4026C000094B094A1278D2B201218A43D2B21A70FB1D1B78181CFFF7FDF9BD4603B090BD52000F4062000F4092000F4080B500AF044B044A1268802109060A431A60BD46B2
:4027000080BDC04600000240002934D00123002210B488422CD301242407A14204D2814202D209011B01F8E7E400A14204D2814202D249005B00F8E7884201D3401A1A4363
:402740004C08A04202D3001B5C0822438C08A04202D3001B9C082243CC08A04202D3001BDC082243002803D01B0901D00909E3E7101C10BC7047002801D00020C04307B4BA
:40278000024802A14018029003BDC046190000000029F0D003B5FFF7B9FF0EBC4243891A1847C0467047C04670B50E4B0E4D0024ED1AAD101E1CAC4204D0A300F358984776
:4027C0000134F8E700F08AF9084B094D0024ED1AAD101E1CAC4204D0A300F35898470134F8E770BDE82A0000E82A0000E82A0000F02A000010B50023934203D0CC5CC45497
:402800000133F9E710BD031C8218934202D019700133FAE7704700000000000000C0A80101FFFFFF000008DCFFFFFFC0A801FE000200FF00FE01000000000000C0A80101E9
:40284000698700000A090000255809000400000000300F40000280320F40800100400F400004000000320F404C2A00008000000001000F4042300F4029310F400E320F4075
:4028800048330F4006400F4008410F400A430F4002600F40810F08020A0D1413160C2015220A24192606300F320F36103A0A3E40540958045B045F0180848110836085CD46
:4028C0008807898D8A388B408C0A8DCD8E1090609112936494019572970898569A099C849D029F0DA004A1CDA280A480A501A604A732A884AB80AC04AD4DAF80B080B17055
:40290000B27FB380B70FB808BB82BE01BF04D602D72CD804D904DB04DF010010051007420B200C820E200F04133A1795181019421D031E202501268027A02D012F1A368099
:40294000370A3C803D023E1459295A80614065026D016E146F5774C08A10C0D2C2F4C4FCCAF0CCD0CEF0D60FD888E28085088710890899029B149D1C9F02B301B50EB71087
:40298000BB20BF44D904DF010401061007090C800D200E4017561D301E401F1020142240230C240225402680272229202A102C802E102F1031103280376938043A103C01C2
:4029C0003D823E043F20452247084C014D094E0854025610571864066710880689018B088C109214931096C097249B559D389F0AA080A103A208A402A708B208B640C0F08A
:402A0000C2D0C4F0CAE0CCFCCEF6D0E0D230D870E280E604EC80EE400D04620164088808C220D8C05380572083208B80B104B601D460E62019081F016608830189088E0858
:402A4000C60CD801E008E201100111010808000010080002080217000821105800080102002C00431E700000180A0000040A0B0010130824080210081800000003000071A1
:402A80001C00000F00080080000000005302400006FEC0BD3BFFFFFF2200F008040000004000000004040404000000010000C00040011011C0010011400140010000000030
:402AC00000000000000000000000000002000000020000000000000000017200F8B5C046F8BC08BC9E46704769040000ED160000F8B5C046F8BC08BC9E467047410400001E
:402B0000102B0000C8000020180000004801000000000000C0F1FF0F00366E01C05D0000180000000000E02E0000000000000000000000000000000000000000000000006A
:402B40000000000000000000000000000000000000000000000000000000000000000000000000000000000000000000000000000000000000000000000000000000000055
:402B80000000000000000000000000000000000000000000000000000000000000000000000000000000000000000000000000000000000000000000000000000000000015
:402BC00000000000000000000000000000000000000000000000000000000000000000000000000000000000000000000000000000000000000000000000000000000000D5
:402C00000000000000000000000000000000000000000000000000000000000000000000000000000000000000000000000000000000000000000000000000000000000094
:0200000490303A
:0200000063A8F3
:0200000490402A
:200000000000000000000000000000000000000000000000000000000000000000000000E0
:0200000490501A
:0C000000000204C81193110104D6753BE6
:0200000490600A
:0100000001FE
:00000001FF