:4000000000100020110000006D0300006D03000008B500F09BFD00F0ABF90000F8B572B680220021D2004A4800F00FFF8023DA004848002100F009FF0023181C4649FF259C
:400040005C584700261CAE431031E2B2351CC919002A07D00E784F787619013A3770D2B20231F5E7E4B204330019102BE6D1C0233A4D3B4F9904802499263A483A4B29609C
:400080003E60E103394E046040251960C0273848384935607C03384B384E046031250A6002221A609927356035488021354D3C040B06354E046080272B6034483449354B56
:4000C0003460354DBC05046019602E78062732432A702A78314C3A432A7020688021CB0203432F4D2F4E236028782F4F31783A78172A05D92D4B7878B978033F9F42F6D161
:400100002B4D2C4E2C4F19222860316005203A6000F0DEFA29482A4B01780520196000F00BFB284E2568284A2E4028482660202710241460264D0760264E274F8021274CE4
:40014000274A28480B062B60336014600760F8BD00300F4000400F40680E0000040001401000014000000440080004400001044008010440080304400004044008040440BC
:4001800000500F4004500F4010500F4018500F40100001002001054000700F4000010B40CCF1FF0FCDF1FF0FC9F1FF0FBDF1FF0F1CFF0B4020FF0B402CFF0B40E5F1FF0FD0
:4001C00028FF0B40FFFFFBFF080202402002024008010B4004010B40AF04008010000080000002404000024010B5064C2378002B07D10548002802D0044800E000BF0121B1
:40020000217010BDF000002000000000640E000008B5084B002B03D00748084900E000BF07480168002903D0064A002A00D0904708BDC04600000000640E0000F40000206B
:40024000D00000200000000010B562B600F0E2FC00280ED16524012000F058FA00F0DAFC002806D1013CE4B2002CF4D1034B40221A6000F0C1FC00F03BFCFEE7C0000020A4
:4002800008B500F0CDF800F005F900F06DF908BD70B5054B0D1C161C0024C9B21C8000F057F93580201C70BD0C010020F0B50A275F4387B002900591161C00252A4CBD428A
:4002C00019DA00F0D5F880B220802388002B0CD00220278800F01AFA00F0CAF881B221802288BA42F4D8002706E00120013500F00DFAADB2E2E705270025358020880028A4
:400300002FD023883088019301994218059993B233808B4221D201982A1893B2049304998D4209D002994819039000F087F8039A01351070ADB2F2E772B62088019A831AF0
:4003400099B2218062B602984219013A1378172BD4D0052000F0DAF9D0E7308000F09AF80527381C07B0F0BD0C01002000B5FEE770B50F490F4A01394B1C14D0506895684C
:400380001468031C1E1AAE4202D040CC40C3F9E7D0681D1C5C1B844202D0002640C3F9E710320139E8E700F021FDFFF74DFFFEE701000000B80E000008B500239A00032B41
:4003C00002D80C48815800E00B490C4801338150302BF3D1FFF722FE09490A4B086800221A60002800D1086080230122D9050A6008BDC046000000006D03000000000020B7
:40040000C0000020C800002008B5044B8022196810060843186000F049F908BD0000064008B5054B1A78002A03D10120187000F0BDF8FFF7E9FF08BD10010020094B00B5E7
:400440001968094B1A6891420AD019684A1C4039481E8141484205490240885C1A6000E0002000BDAC0100202401002068010020064B074A1B68116800B58B4202D31268B1
:40048000981A02E010684133181A00BDAC010020240100200C4A0D4B002130B5106811601D68802464022C431C601D68084C2C401C60084B084C1D68084B25601970084D01
:4004C00008492960106030BDC80F064004030640FFFFFEFF24010020AC010020A9010020C00F0640ED0F0000124910B50A68531C3F3A541EA241544223400F4A1468A342F1
:40050000FBD00C681268944208D10C4C0F2224682240082A02D00A4A10600AE0094C02222260094CC0B2E0540B60084B19680A431A6010BD200100201C0100200802064093
:4005400040020640800F064028010020880F064038B5041C4518AC4204D02078FFF7C4FF0134F8E738BD00000B4A0023116810B513600A4B80201C684002204318601C682F
:40058000074820401860074B07481C68022399430460116010BDC046880F064004020640FFFFFEFF1C010020200100201B4A1C4B1C4810B51C4900241A60046001221B4BBF
:4005C0001B480A601B490360072008601A491B4804600A601A4A13601A4B1C6000F06EF8194800F049F8032000F04CF817481849184A194B04600C60146018491C60184A44
:40060000184B04200860146017481C601749184A184B04600C7014601C6010BD0B000002000006404000064048000640070000800003064004030640440006401003064053
:400640000002064004020640250C0000880E0640C80E0640480F0640080F0640C80F0640880F0640AC01002024010020A9010020200100201C010020014B98667047C04668
:400680000000002038B5041C00F02BF8054B06491D68A2052C1C0C4014431C6000F025F838BDC04608E400E0FFFF3FFF8022024BD00018607047C04600E100E08022024B14
:4006C000D00018607047C04680E100E0000000000230800804D0C0460138FDD1C046C0467047EFF3108072B6704780F31088704701BE7047034B04491A6890B208431860AB
:400700007047C0460CED00E00400FA0510B5041C8022074B1002844205D91868FFF7D8FF04496418F4E758686043FFF7D1FF10BDD40000200080FFFF08B5034B197A48430F
:40074000FFF7C6FF08BDC046D40000200047000038B5041C013806280BD800F03DFB2406260F11080400174820E0174B09E0174B07E00020FFF7BCFF002302E0144B00E0B5
:40078000144B5A78187800021043022C04D0032C07D0012C15D104E0040A0302234398B20FE000BA0DE00C4800E00C48C578817842780378180628430D0228431104084375
:4007C000E3E738BDD87F0000C57F0000D47F0000D27F0000D67F0000C17F0000C97F000038B50220FFF7B4FF051C0320FFF7B0FF6C1CE1010C180220FFF7AAFF0023421CAD
:40080000D201191CA24209D21078451EEDB2FD2D00D80121C318DBB20132F3E705485B420578DCB2AC4201D0062002E00029FBD0002038BDC07F0000F0B5A34CA544FFF757
:400840001FFD62B600250095002603AF962124A849003A1CFF23FFF729FD0028F5D139880423062967D924AA1478012C63D193236B4492221F786A4413783C021C4324AFF9
:400880003A19177953790197E71D9C4603238F4251D89179042317294DD1E3189BB2002B08D0BAAA8949D7187A181778013BC01980B2F3E762464042019F110282B239431D
:4008C0000823914237D168E0342900D09AE0012D00D0F6E0032C00D0F3E06FA80021802200F0B3FA80266FA9881935192639E21EFF39AEB200F0A0FA832E00D0DAE0BC7948
:400900007979009F26020E43002F0AD1391C802204A800F09AFAFF2004A900F0F3F901200090301C6FA900F0EDF90125002800D1C3E000260A2300216846913001270370A9
:400940006A4624AC6B4692330E32277000200F1D197058701180BBB25C4FBAACE418E4192778013BC0199BB280B2002BF4D14442A0B2BAAF564C7B181F19564C38701F19B2
:40098000554C000A38701B19172707311F7089B224A89623FFF77CFC57E724AF79783B79081C31380A2801D90523C4E700F00AFA0611FC8C2FFC32428C507800012D00D0D7
:4009C0007FE0002C7DD1FFF70BFF434243413B7163E0012D75D1012C73D1002B71D13F4A25A8146821889524CF0907703A0A97209627FF216C446F446844397022700370BC
:400A0000042199E7012D5CD1022C5AD96BE7012D57D119E7012D54D19620371943009F424DD86FAA901925A9221C00F005FABEB2002380E7002C44D104AB294A191CA0CA52
:400A4000A0C125AF21CB21C708210125231C73E7012D36D1032C34D196226A449521177869440C7838021A0220438718FF01002280210139CC5D1219D2B20029F9D1002BF5
:400A800008D1FF2806D1174B174918780C78171A3A1BD2B2504224AB1871002301214BE7FFF79EFE002802D1104880240460FFF721FE06E00125002601E0061CB8E7032322
:400AC00039E7042337E7C04614FDFFFFA7FDFFFFACFDFFFFADFDFFFFAEFDFFFFE40000208C0E0000D07F0000D17F0000C0000020144810B50368002219680B1C013BBF2B49
:400B000003D01C781219D2B2F8E740680478A21AD3B2A34201D1002902D10020FFF7E8FDFFF75EFE084C2168221C402901D0002803D000231360FFF77FFE80202060FFF7EC
:400B4000D9FD10BDE4000020C000002008B50B4B10201A680A49024000D10A600B68802B0BD1002201200A60FFF7F2FD002804D00120FFF7EDFDFFF7E9FD08BD00030B40E1
:400B8000C00000200D4B8422D004186019688022500208431860196809481960C3239A000260084B084A09480021196002600849084B09481C2219600260704700010540A9
:400BC00024010540380105401027000014010540881300000C0105402801054008B5FFF780FD044B01211A680A431A60FFF77DFD08BDC0460000054010B5054C2378002BDB
:400C000003D1FFF7BFFF01202070FFF7E7FF10BD18010020024B18680106C80F7047C04604000440264B10B51868002800D0804724490A6852071DD5234C23681A0716D049
:400C4000224B234A186811684B1C40394C1EA1414C42204923400C68A34203D11E4B20221A70E9E71D49C0B2C8541360E4E71C49042008601B4A1468A20720D51A4B0F21B2
:400C800018680140082917D0184A194B1468186884420CD01C68621C3F3C601E8441614214480A40845C14490C601A60E6E7134C022122688A432260114B0220186010BDE0
:400CC00014010020CC0F06400803064040030640AC01002024010020A901002068010020C00F06408C0F064008020640200100201C0100202801002040020640880F0640ED
:400D0000800F0640F0B50023A7B0071C0193FF2845D8994243D0244A244C04AE26607F25049206A88022756000F086F8204D214929602B68002BFCDB2068A0210290029A87
:400D40000B069A4201D1002004E00298020F0F2A02D10920019003E021680B0F0A2BFBD1019A002A1DD12660134E3F0437430497FFF7B7FC1149124A0B6803932A602F683D
:400D8000002FFCDB039DA0260D60FFF7AEFC2468310602940298884203D0029800E001200190019827B0F0BDB6D70000080000400400004004000080B6D8000008010B4062
:400DC0000500008002B4714649084900095649008E4402BC7047C04602B4714649084900095C49008E4402BC7047C04670B50E4B0E4D0024E81A85101E1CAC4204D0A1003F
:400E0000725890470134F8E700F044F80849094A0E1C541AA5100024AC4204D0A300F05880470134F8E770BDA00E0000A00E0000A00E0000A80E000010B50023934203D0B7
:400E4000CC5CC4540133F9E710BD00B58218031C934202D019700133FAE700BDE80E0000050000000000000001330F4003410F4004430F4002600F40E61062048E04D84083
:400E800018808C40C608E608020111019311C80411140101F8B5C046F8BC08BC9E46704711020000B9030000F8B5C046F8BC08BC9E467047E9010000C80E0000D00000205B
:400EC00020000000C0000000000000000000E02EC05D00001800000000366E015C0E0000600E00000000000000000000000000000000000000000000000000000000000052
:400F000000100020110F0000591800005918000080B500AF024B83F3088800F0C9FCC0460010002080B584B000AF021CFB1D1A70204A3B1C0B3312781A701F4A3B1C0A3375
:400F400012781A700423013BFB6018E01B4B1868391C0B31FA68131C5B009B18C3185B780B70164B1868391C0A31FA68131C5B009B18C3189B780B70FB68013BFB60FB6892
:400F8000002B0ADB0D4B1968FA68131C5B009B185B5CFA1D12789A42D8D9094B3A1C0B3212781A60074B3A1C0A3212781A60BD4604B080BDCCF1FF0FCDF1FF0FD80000206E
:400FC0001CFF0B4020FF0B4080B500AF224B224A12688021C9020A431A601820FFF7A2FF1E4B19221A60052000F09AFE1C4B1D4A1278D2B21A60052000F04EFF164B164AA4
:401000001168194A0A401A60184B194A1A60194B30221A60184B11221A60184B11221A60174B11221A60174B20221A60164B10221A60164B822212061A60154B154A1A6076
:40104000154B164A1A60164B144A1A60154B134A1A60BD4680BDC04600010B402CFF0B4028FF0B40E5F1FF0FFFFFFBFF04010B40060000801C02024020020240240202406E
:40108000280202402C0202403002024008010B40000002400B0000804000024017000080800002400400024080B586B000AF72B63B1C173300221A7026E03B1C17331A78D6
:4010C000131C5B009B185B00694A9B183B613B691A78597809020A43997809040A43DB781B0613431A1C3B6919795B791B020B439BB2101C191C00F061FC3B1C17331A78E9
:401100003B1C173301321A703B1C17331B78022BD3D93B1C173300221A7038E03B1C17331A78131C9B009B185B00524A9B18FB60FB681A78597809020A43997809040A43A1
:40114000DB781B061343BB60FB681A79597909020A43997909040A43DB791B0613437B60BA1CFB68197A5B7A1B020B431380BB1C1B88B9687A68081C111C1A1C00F02EFC9B
:401180003B1C17331A783B1C173301321A703B1C17331B78002BC1D0374A384B101C191C00F02EFC364B802252001A80354B01221A70354B354A1A60354B364A1A60364B7F
:4011C000EE2212021A60354B50221A60344B354A1A60354B05221A60344BC32252001A60334B03221A60334B03221A60324BD82212011A60314B992212041A60304BA022DA
:4012000012031A602F4B8C2292051A602E4B992212041A602D4B842292031A602C4B992212041A602B4B992212041A602A4B2A4A1278D2B202210A43D2B21A70274B274A1A
:401240001278D2B23C218A43D2B214210A43D2B21A70214B204A1278D2B216210A43D2B21A70FFF7B1FE00F00BFCBD4606B080BD782800008C28000098280000BC28000022
:4012800000600F4002600F40000001400000030304000140030300000C000140000004400800044089ED1800000104400801044000020440180204400803044000500F40AD
:4012C00004500F4008500F4010500F4018500F4020500F4030500F4000700F4001700F4010B5064C2378002B07D1054B002B02D0044800E000BF0123237010BD500100204F
:40130000000000007028000008B5084B002B03D00748084900E000BF07480368002B03D0064B002B00D0984708BDC046000000007028000054010020D0000020000000001D
:4013400080B582B000AF00F0D3FC031C7B60054B01221A707B68181C00F0D4FCBD4602B080BDC046D901002080B584B000AF78607B68181C01F030F8031C1A1C3B1C0E33CB
:401380001A803B1C0E331B88181CBD4604B080BD80B582B000AFFB1D00221A70FB1D00221A700FE0FB1D1A78FB1D1978094B4900CB5A99B2084B5200D152FB1D1A78FB1DB9
:4013C00001321A70FB1D1B78092BEBD9BD4602B080BDC04678010020B801002080B586B000AF78600A1CFB1C1A7000233B613B1C0E3300221A803B1C173300221A7010E01A
:401400003B1C17331B785B007A68D3181B883A69D3183B613B1C17331A783B1C173301321A703A1C1732FB1C12781B789A42E7D3FB1C1B783869191C00F0FEFF031C1A1CC7
:401440003B1C0E331A803B1C0E331B88181CBD4606B080BD90B583B000AF5C4B1B78012B04D000DC81E0022B17D07FE0FB1D00221A700AE0FB1D1A78554B52005549D152B9
:40148000FB1D1A78FB1D01321A70FB1D1B78132BF0D9514B00221A7068E0504B9B881A024E4BDB88134300D501335B109AB23B1D484952181A80484B1B781A1C444B520055
:4014C000391D0988D152444B1B78122B06D8424B1B780133DAB2404B1A7002E03E4B00221A70BC1C3A4B181C1421FFF777FF031C23803C1C0120FFF737FF031C23803B1CE7
:401500001B88002B15D1BB1C1A88354B9A4204D8304B181C00F0FCFD04E0BB1C1B88181C00F0F6FD2F4B1B780133DAB22D4B1A701AE03B1C1A882C4B9A420FD9BB1C1A88C3
:40154000244B9A4204D9234B181C00F0E1FD0BE0BB1C1B88181C00F0DBFD07E0BB1C1B88181C00F0D5FD01E000E0C046174B1B78012B0CD002DC002B05D024E0022B0AD06E
:40158000032B14D01FE0114B01221A701BE00F4B03221A7017E0154B1B78002B03D00B4B02221A700FE0094B03221A700BE00F4B1B78002B03D0054B02221A7002E0034B2B
:4015C00003221A70C046BD4603B090BDDA0100208C010020DC050000B4010020B8010020DB050000DC010020FFF90000D801002090B583B000AF444B1B78012B03D051DDB8
:40160000022B17D04FE0FB1D00221A700AE0FB1D1A783E4B52003E49D152FB1D1A78FB1D01321A70FB1D1B78132BF0D9394B00221A7038E0384B1B891A02374B5B89134312
:4016400000D501335B109AB23B1D314952181A80304B1B781A1C2D4B5200391D0988D1522C4B1B78122B06D82A4B1B780133DAB2284B1A7002E0274B00221A70BC1C234B8C
:40168000181C1421FFF7AAFE031C2380BB1C1B88181C00F08DFC214B1B780133DAB21F4B1A7000E0C046184B1B78012B0CD002DC002B05D024E0022B0AD0032B14D01FE0A9
:4016C000114B01221A701BE00F4B03221A7017E0134B1B78002B03D00B4B02221A700FE0094B03221A700BE00D4B1B78002B03D0054B02221A7002E0034B03221A70C0464A
:40170000BD4603B090BDC046B5010020E0010020DC050000B6010020B8010020DC010020D801002080B584B000AF62B600F0E8F900F0D8F900F00EFC3D4B181C00F038FCA6
:401740003C4B181C00F084FB00F0B4FC00F078FA00F016FD00F032FE374B181C00F0DEF93B1C181C00F0E4FF031C181C00F074FF324B1B78002B07D0FFF70AFE304B0122DB
:401780001A70304B00221A70FFF732FFFFF762FE2C4B1B78022B03D1294B00221A70FFE7C046294B1B78002BFBD0274B00221A703B1C0F331A783B1C0F3301321A703B1CF1
:4017C0000F331B78642B31D10023BB6023E000F073FF031C181C1D4900F0D2FE0B1C9BB21B4A9B189AB2BB1D1A80BB1D00229B5E1B1299B2174BBA685200D152BB685A1C20
:40180000BB1D1988FF230B4099B2124B5200D152BB680233BB60BB68092BD8DD3B1C0F3300221A70054B01221A70A1E7A0E7C046DC05000010270000411300000802002039
:40184000D8010020DC010020D9010020D107000018FCFFFF7801002080B500AFFEE7C04680B584B000AF78600F4B1A687B68D3181A1C0E4BD31A802B09DC0B4B1B68FB604C
:40188000094B1A687B68D218074B1A6007E000F0A5FE031C0C221A6001235B42FB60FB68181CBD4604B080BDD40000202002002080B586B000AF224B7B61224B3B61204BC4
:4018C0007B6135E03B691B68FB603B695B68BB603B699B683B6000237B600CE0FB681A68BB681A60BB680433BB60FB680433FB607B6804337B607A683B689A42EED13B6922
:40190000DB683B6000237B6008E0BB6800221A60BB680433BB607B6804337B607A683B689A42F2D13B6910333B617B69013B7B617B69002BC6D100F057FEFFF7F3FEFEE760
:4019400001000000DC2A000080B582B000AF00237B600FE07B68032B04D8134B7A689200D35800E0114B124A796889008B507B6801337B607B682F2BECD9FFF795FB0D4BC4
:4019800000221A600C4B1B68002B02D10A4B00221A608023DB058022D205126801210A431A60BD4602B080BD000F00005918000000000020C8000020C000002080B582B0A2
:4019C00000AF786039607A683B68101C00211A1C00F039FEBD4602B080BDC04680B584B000AFF860B9607A60F968BA687B68081C111C1A1C00F01EFEBD4604B080BDC0464A
:401A000080B586B000AF7860396000233B6100237B612EE07B699B007A68D3181B68BB603B1C0F33BA681A70BB68FF229343BB6017E03B695B003A68D3181B781A1CBB687C
:401A4000D3183A69520039688A1852781A703B6901333B613B1C0F331A783B1C0F33013A1A703B1C0F331B78002BE2D17B6901337B617B69082BCDD9BD4606B080BDC0463B
:401A800080B500AF054B03221A60054B03221A60012000F007F8BD4680BDC04600031A4040031A4080B584B000AF021CFB1D1A700B4B1B68FB60FB1D1B78002B05D0FB68FA
:401AC000802212061343FB6003E0FB685B005B08FB60034BFA681A60BD4604B080BDC04680031A4080B500AF044B044A1268802109060A431A60BD4680BDC04640000240E1
:401B000080B500AF044B044A1268802109060A431A60BD4680BDC0460400024080B582B000AF786000F04AF87B68181C00F008F8032000F013F800F037F8BD4602B080BD51
:401B400080B582B000AF7860034A8C237968D150BD4602B080BDC0460000002090B585B000AF021CFB1D1A701E23FB603C1C0B3400F0E0F8031C23700A4B0A4A1268920016
:401B80009108FA1D1078FA68041C9440221C0A431A603B1C0B331B78181C00F0CFF8BD4605B090BD10E400E080B500AF024B802212031A60BD4680BD00E100E080B500AF5F
:401BC000024B802212031A60BD4680BD80E100E080B500AF094B802292041A60084B0C221A60012000F078F8064B181C00F048F8002000F037F8BD4680BDC046C001054040
:401C0000E40105401027000090B583B000AFFC1D00F090F8031C2370084B084A126808210A431A60FB1D1B78181C00F087F80820182100F033F8BD4603B090BD00000540B8
:401C400080B500AF064B1B78002B04D1FFF7C0FF034B01221A70FFF7D7FFBD4680BDC0466C01002080B582B000AF7860034B7A681204120C1A60BD4602B080BDC801054081
:401C800080B582B000AF7860034B7A681204120C1A60BD4602B080BDD401054090B585B000AF786039603C1C0F3400F043F8031C2370084B3A687968081C9040021C1A60D8
:401CC0003B1C0F331B78181C00F038F8BD4605B090BDC0460800054080B582B000AF7860024B7A681A60BD4602B080BDF801054080B500AF024B1B68181CBD4680BDC04617
:401D0000FC01054080B582B000AF7860024B7A681A60BD4602B080BDF0010540000000000230800804D0C0460138FDD1C046C046C0467047EFF3108072B6704780F31088E2
:401D40007047C046C046C04680B584B000AF021C3960FB1D1A7080239B05FB60FB1D1B781F2B02D9002000F069F8FB1D1B7810339B00FA68D3181B68BB60FB1D1B781033E8
:401D80009B00FA68D3183A681A60BB68181CBD4604B080BD90B587B000AF0A1CFB1D011C1970BB1D1A70BB1D1B78032B02D9002000F044F8FB1D1B781F2B02D9002000F0C3
:401DC0003DF8FB1D1A7803231340DB0006337B613C1C1334FFF7AEFF031C2370FB1D1B789B08DBB29B0014495B181B68FB607B690322111C99400B1CDA43FB681340FB601F
:401E0000BB1D1A787B69111C99400B1CFA681343FB60FB1D1B789B08DBB29B00064A9B18FA681A603B1C13331B78181CFFF786FFBD4607B090BDC04600E400E080B582B0A8
:401E400000AF021CFB1D1A7001BEBD4602B080BD80B582B000AF786008E00C4B1B68181CFFF75EFF7B680A4A9B187B607A6880231B029A42F1D8074B1B687A685343181C7E
:401E8000FFF74EFFBD4602B080BDC046E80000200080FFFFE000002080B582B000AF021CBB1D1A80BB1D1B88044A12785343181CFFF736FFBD4602B080BDC046E400002077
:401EC00080B500AF104B8022D2041A600E4B0E4A12681A60002000F04FF80B4B0A4A12681A600A4B0C221A60012000F08DF8084B31221A60074B181C00F04CF8064B181C25
:401F000000F056F8BD4680BD400105406401054068010540204E0000DC05000090B583B000AFFC1DFFF706FF031C2370084B084A126802210A431A60FB1D1B78181CFFF72B
:401F4000FDFE0220182100F041F8BD4603B090BD0000054080B500AF064B1B78002B04D1FFF7AEFF034B01221A70FFF7D7FFBD4680BDC0466D01002080B582B000AF7860A6
:401F8000034B7A681204120C1A60BD4602B080BD4801054080B582B000AF7860034B7A681204120C1A60BD4602B080BD5401054080B582B000AF7860034B7A681204120C19
:401FC0001A60BD4602B080BD4C01054090B585B000AF786039603C1C0F34FFF7ABFE031C2370084B3A687968081C9040021C1A603B1C0F331B78181CFFF7A0FEBD4605B04F
:4020000090BDC0460800054080B582B000AF7860024B7A681A60BD4602B080BD7801054080B500AF104B8022D2041A600E4B0E4A12681A60002000F04FF80B4B0A4A126868
:402040001A600A4B0C221A60012000F08DF8084B31221A60074B181C00F04CF8064B181C00F056F8BD4680BD000105402401054028010540204E0000DC05000090B583B091
:4020800000AFFC1DFFF756FE031C2370084B084A126801210A431A60FB1D1B78181CFFF74DFE0120182100F041F8BD4603B090BD0000054080B500AF064B1B78002B04D1A1
:4020C000FFF7AEFF034B01221A70FFF7D7FFBD4680BDC0466E01002080B582B000AF7860034B7A681204120C1A60BD4602B080BD0801054080B582B000AF7860034B7A6877
:402100001204120C1A60BD4602B080BD1401054080B582B000AF7860034B7A681204120C1A60BD4602B080BD0C01054090B585B000AF786039603C1C0F34FFF7FBFD031C53
:402140002370084B3A687968081C9040021C1A603B1C0F331B78181CFFF7F0FDBD4605B090BDC0460800054080B582B000AF7860024B7A681A60BD4602B080BD38010540C8
:4021800080B500AF064B1B78002B04D100F00AF8034B01221A7000F0FDF8BD4680BDC0466F01002090B585B000AF0E200321FFF7F1FD5D4B0E20191CFFF7C6FD5B4B0322C1
:4021C0001A605B4B5B4A1A605B4B5C4A1A605C4B5C4A1A605C4B8022D2051A605B4B5C4A1A605C4B5A4A1A605B4B5B4A1268802149020A431A60594B584A126880214902CA
:402200000A431A60564B00221A60564B00221A60554B01221A60554B02221A60544B1B687B607A68534B13407B607B68012213437B604F4B7A681A600023FB606EE04E4BA5
:40224000FA689200D258DC239B0113407B604B4AFB68D3181B787A6813437B60FB689B00474A9B187A681A60434BFA689200D258012313400AD03A4B394A1168FA6801204F
:40228000041C9440221C92B20A431A603A4BFA689200D258022313400AD0324B314A1168FA680120041C9440221C92B20A431A60314BFA689200D25880239B00134003D0BD
:4022C00080235B00BB6002E080235B01BB602A4BFA689200D25880235B00134005D1294BFA6852000021D15204E0264BFA6852000021D152BB68244A53438022D2009B1808
:40230000002B01DA214C1B19DB129BB219B2204BFA689200D150FB680133FB60FB68012B8DD9BD4605B090BD1D24000020001A4000001A404020001304001A408C00008093
:4023400018001A400000FF071C001A4010001A400200020014001A4000031A4040031A4028021A4038021A4018021A40000F1A4030001A40FFFFFFDFA82A0000B02A000092
:4023800080001A401402002010270000FF0700000C02002080B500AF074B1B68002B09DB054B054A1268802109060A431A600A20FFF772FDBD4680BD00001A4080B500AF3D
:4023C000044B044A1268802149020A431A60BD4680BDC04604001A4080B584B000AF78607B68012B02D90020FFF728FD7B68012B08D87B689B00084A9B181B681B041B0C1F
:40240000FB6001E00023FB60FB689BB21BB2181CBD4604B080BDC04680011A4080B582B000AF044B1B687B60024B7A681A60BD4602B080BD10021A40002934D0012300221F
:4024400010B488422CD301242407A14204D2814202D209011B01F8E7E400A14204D2814202D249005B00F8E7884201D3401A1A434C08A04202D3001B5C0822438C08A042B9
:4024800002D3001B9C082243CC08A04202D3001BDC082243002803D01B0901D00909E3E7101C10BC7047002801D00020C04307B4024802A14018029003BDC046D90000006C
:4024C0000029F0D003B5FFF7B9FF0EBC4243891A1847C046002941D010B4041C4C40A44601230022002900D54942002800D5404288422CD301242407A14204D2814202D2EB
:4025000009011B01F8E7E400A14204D2814202D249005B00F8E7884201D3401A1A434C08A04202D3001B5C0822438C08A04202D3001B9C082243CC08A04202D3001BDC08A2
:402540002243002803D01B0901D00909E3E7101C6446002C00D5404210BC7047002806D003DB0020C043400801E08020000607B4024802A14018029003BDC046190000000F
:402580000029EBD003B5FFF7A7FF0EBC4243891A1847C0467047C0469C460304F0B51B0C17043F0C150C1E1C041C000C7E436B4347434543FB18300C1818874202D98023E6
:4025C0005B02ED18030CED1863465C434A433604360CA118000480194919F0BD014B18687047C0464C01002070B50E4B0E4D0024ED1AAD101E1CAC4204D0A300F35898472F
:402600000134F8E700F058FA084B094D0024ED1AAD101E1CAC4204D0A300F35898470134F8E770BDC42A0000C42A0000C42A0000CC2A000010B50023934203D0CC5CC45419
:402640000133F9E710BD031C8218934202D019700133FAE77047000038B5104B051C1C68A36B002B15D1182000F08AF80C4BA06303800C4B43800C4B83800C4BC3800C4BCC
:402680000381052343810B2383810122002302614361A36B00221D615A6138BD4C0100200E330000CDABFFFF341200006DE6FFFFECDEFFFF00000000174B10B51C68A36B91
:4026C000002B15D1182000F05BF8144BA0630380134B4380134B8380134BC380134B0381052343810B2383810122002302614361084B074AA46B20696169FFF74DFF01228E
:40270000002380185941206161614800400810BD2D7F954C2DF451584C0100200E330000CDABFFFF341200006DE6FFFFECDEFFFF13B5094B041C69461868002200F00EF847
:40274000002805DB002C01D0009B2360009801E00120404216BDC0464C01002038B5074C0023051C081C111C236000F079F8431C03D12368002B00D02B6038BD18020020A8
:4027800008B5034B011C186800F004F808BDC0464C01002070B50323CD1C9D430835061C0C2D01D20C2501E0002D3FDB8D423DD3204B1C681A1C211C002913D00868431B5A
:4027C0000DD40B2B02D90B60CC181EE08C4202D1636813601AE0486860600C1C16E00C1C4968E9E7144C2068002803D1301C00F025F82060301C291C00F020F8431C15D0F0
:40280000C41C03239C4384420AD12560201C0B300722231D9043C31A0BD05A42E25008E0211A301C00F00AF80130EED10C233360002070BD740100207001002038B5074C8E
:402840000023051C081C2360FFF70AF8431C03D12368002B00D02B6038BDC04618020020024B5822012040421A60704718020020000000000400000000300F4080000031F3
:402880000F40000300400F400004000080300F40282A00008000000001000F400B300F4028310F4033320F4039330F4006400F4007410F4006430F4002600F40820F050E58
:4028C0001504170919051B0A1D031F04350F392059045F01042807400E620F0812C01510160217091D041E601F102004254026802710312032083340360A371038043DA0C4
:40290000452A4D104E0A4F095610574A661067218902C070C2F0C4F0CCEECE32D0E0D230D870E4200007011A0238040405180702080109C10B380C040E8010601118130251
:40294000140A151816101856199C1A091B031C841D331F442084211A24802502260427182884298230083113328033E0347F350F360238203B283E4556025720580459048F
:402980005B045F01D409DB04DF01051407410E2A0F80150417161C011D181E402530261E27682D252F08350437613D203E06580559205A40600166406C146D016E066F151E
:4029C00076027702880189089428980499049A409D109E029F49A348A538A60BB004B302B510B710C0F0C2F0C470CAE0CCF0CEE0D60FD818E201E610EA40EE400C0162013A
:402A000066028801C220D8C05202568082028E80B603D4C0E28018801E1082108C40C60CE608100111010000010032008D004000CD05003A0002000D02230D0C10096036B1
:402A400000008010CD0000004D0080001200640072000800CD0000000F0070308000000F00000A80000010002605300004DDFBEC3FFFFFFF2200F0080400000040000000DA
:402A800004040404000000010000C00040011011C0010011400140010000000000000000000000000000000002000000020000000001000043000000F8B5C046F8BC08BC1C
:402AC0009E4670470913000049190000F8B5C046F8BC08BC9E467047E1120000F02A0000D000002080000000D0000000000000000000000020020020C0F1FF0F00366E0104
:402B0000C05D0000180000000000E02E0000000000000000000000000000000000000000000000000000000000000000B42A00000000000000000000000000000000000074
:402B40000000000000000000000000000000000000000000000000000000000000000000000000000000000000000000EC0000200000000000000000000000000000000049
:402B80000000000000000000000000000000000000000000000000000000000000000000000000000000000000000000000000000000000000000000000000000000000015
:402BC00000000000000000000000000000000000000000000000000000000000000000000000000000000000000000000000000000000000000000000000000000000000D5
:402C00000000000000000000000000000000000000000000000000000000000000000000000000000000000000000000000000000000000000000000000000000000000094
:402C40000000000000000000000000000000000000000000000000000000000000000000000000000000000000000000000000000000000000000000000000000000000054
:407FC00007110F00001D000000801C0000000000000001000000000000000000000000000000000000000000000000000000000000000000000000000000000000000000A0
:0200000490303A
:02000000AECC84
:0200000490402A
:20000000FFFF010000000000000000000000000000000000000000000000000000000000E1
:0200000490501A
:0C000000000204C81193110004D5C05F79
:0200000490600A
:0100000001FE
:00000001FF