:400000000010002011000000C5210000C521000080B500AF02F0DAF880B584B000AF021CFB1D1A70204A3B1C0B3312781A701F4A3B1C0A3312781A700423013BFB6018E059
:400040001B4B1868391C0B31FA68131C5B009B18C3185B780B70164B1868391C0A31FA68131C5B009B18C3189B780B70FB68013BFB60FB68002B0ADB0D4B1968FA68131CF1
:400080005B009B185B5CFA1D12789A42D8D9094B3A1C0B3212781A60074B3A1C0A3212781A60BD4604B080BDCCF1FF0FCDF1FF0FDC0000201CFF0B4020FF0B4080B500AF3F
:4000C000264B264A12688021C9020A431A601820FFF7A2FF224B19221A60052002F0CCFA204B214A1278D2B21A60052002F080FB1A4B1A4A11681D4A0A401A601C4B1D4A79
:400100001A601D4B20221A601C4B11221A601C4B21221A601B4B21221A601B4B21221A601A4B30221A601A4B10221A60194B21221A60194B822212061A60184B184A1A6067
:40014000184B194A1A60194B194A1A60194B184A1A60194B164A1A60BD4680BD00010B402CFF0B4028FF0B40E5F1FF0FFFFFFBFF04010B4006000080080202401C020240AE
:400180002002024024020240280202402C020240340202403C02024008010B40000002400B00008040000240100000808000024017000080040002404400024080B586B0DC
:4001C00000AF72B63B1C173300221A7026E03B1C17331A78131C5B009B185B00764A9B183B613B691A78597809020A43997809040A43DB781B0613431A1C3B6919795B7927
:400200001B020B439BB2101C191C02F05DF83B1C17331A783B1C173301321A703B1C17331B78022BD3D93B1C173300221A7038E03B1C17331A78131C9B009B185B005F4AA7
:400240009B18FB60FB681A78597809020A43997809040A43DB781B061343BB60FB681A79597909020A43997909040A43DB791B0613437B60BA1CFB68197A5B7A1B020B43C4
:400280001380BB1C1B88B9687A68081C111C1A1C02F02AF83B1C17331A783B1C173301321A703B1C17331B78012BC1D9444A454B101C191C02F02AF8434BA02212011A8078
:4002C000424B01221A70424B424A1A60424BCE2292001A60414BC02292021A60404BEE2212021A603F4B99221A603F4B50221A603E4B3F4A1A603F4B07221A603E4B3F4A03
:400300001A603F4B1F221A603E4BC022D2011A603D4B0F221A603D4BF0221A603C4B3D4A1A603D4B02221A603C4B31221A603C4B02221A603B4B992212041A603A4BA022C0
:4003400012031A60394B8C2292051A60384B992212041A60374B842292031A60364B992212041A60354B992212041A60344BAA2212061A60334B334A1278D2B202210A43B9
:40038000D2B21A70304B304A1278D2B20C218A43D2B204210A43D2B21A702A4B294A1278D2B216210A43D2B21A70FFF787FE01F0EDFFBD4606B080BD34370000483700006E
:4003C0005C3700008437000000600F4002600F40000001400000030304000140080001400C00014010000140000004400800044089ED18000001044008010440B60118005D
:400400000002044008020440180204400003044008030440802D490000040440080404401804044000500F4004500F4008500F4010500F4018500F4020500F4030500F4069
:4004400034500F4000700F4001700F4010B5064C2378002B07D1054B002B02D0044800E000BF0123237010BDF000002000000000FC36000008B5084B002B03D007480849C9
:4004800000E000BF07480368002B03D0064B002B00D0984708BDC04600000000FC360000F4000020C80000200000000080B582B000AF02F0C9F8031C7B60054B01221A7001
:4004C0007B68181C02F0CAF8BD4602B080BDC0466C01002080B586B000AF021CBB1D1A803B1C113303221A703B1C173300221A703B1C123300221A805DE0002001F0EEFFD8
:40050000BB1D1A884B4B9A420BD804E0BB1D1B88181C02F023FD02F023FF031C002BF5D115E0BB1D1A88444B9A420BD904E0BB1D1B88181C02F012FD02F004FF031C002B92
:40054000F5D104E0BB1D1B88181C02F007FD3A4B181C02F003FD0123FB60FB68181C00F097FA031C191C3B1C12333A1C123212888A181A80BB1D1B882F4AD31A9AB23B1C06
:400580000A331A803B1C0A331B882B4A9B189BB2181C02F0E3FCFA239B00181C02F004F9254B181C02F0DAFC3B1C17331A783B1C173301321A703A1C17323B1C1133127817
:4005C0001B789A4299D3BB1D1A881B4B9A4210D93B1C12331A883B1C11331B78101C191C02F0F2FF031C9AB23B1C1433143A1A8018E0BB1D1A880F4B9A4210D83B1C1233AE
:400600001A883B1C11331B78101C191C02F0DCFF031C9AB23B1C143314321A8002E0012001F05CFF3B1C14331B88181CBD4606B080BDC046DB050000DC05000080B586B0E7
:4006400000AF78600A1CFB1C1A7000233B613B1C0E3300221A803B1C173300221A7010E03B1C17331B785B007A68D3181B883A69D3183B613B1C17331A783B1C17330132AC
:400680001A703A1C1732FB1C12781B789A42E7D3FB1C1B783869191C02F048FF031C1A1C3B1C0E331A803B1C0E331B88181CBD4606B080BD80B582B000AF0A1CFB1D011C31
:4006C0001970BB1D1A70FB1D1A78BB1D1B78013B9A4205DAFB1D1A78FB1D01321A7002E0FB1D00221A70FB1D1B78181CBD4602B080BDC04680B586B000AFF8607B603B1C63
:400700000B3319703B1C0A331A703B1C0B331B78002B07D03B1C17333A1C0B321278013A1A7006E03B1C17333A1C0A321278013A1A707B68002B2ADA3B1C17331B785B001E
:40074000FA68D3181B881A1C7B68FA218900CB1A9A4212DB3B1C0B331B785B00FA68D3183A1C173212785200F9688A1811887A6892B28A1892B21A8033E03B1C0B331B7856
:400780005B00FA68D318FA2292001A8029E03B1C17331B785B00FA68D3181B881A1C7B68FA21C900CB1A9A4212DC3B1C0B331B785B00FA68D3183A1C173212785200F96869
:4007C0008A1811887A6892B28A1892B21A8008E03B1C0B331B785B00FA68D318FA22D2001A803B1C0B331A783B1C0A331B78101C191CFFF75FFF031C181CBD4606B080BD8C
:4008000090B583B000AF3960111C1A1CFB1D1870BB1D19703B1D1A803B1D1A88724B9A4211D93B1D1A88714B9A420CD8FC1D3868FB1D1978BB1D1A7864235B42FFF75AFF70
:40084000031C2370CAE03B1D1A88684B9A4211D93B1D1A88664B9A420CD8FC1D3868FB1D1978BB1D1A7832235B42FFF743FF031C2370B3E03B1D1A885D4B9A4211D93B1D43
:400880001A885C4B9A420CD8FC1D3868FB1D1978BB1D1A780A235B42FFF72CFF031C23709CE03B1D1A88534B9A4211D93B1D1A88514B9A420CD8FC1D3868FB1D1978BB1D5C
:4008C0001A7805235B42FFF715FF031C237085E03B1D1A88494B9A4210D83B1D1A88464B9A420BD9FC1DFB1D1A78BB1D1B78101C191CFFF7DFFE031C23706FE03B1D1A8886
:400900003E4B9A4213D93B1D1A883D4B9A420ED8FC1D3968FB1D1A78BB1D1B78081C111C1A1C0523FFF7E6FE031C237056E03B1D1A88334B9A4213D93B1D1A88314B9A4250
:400940000ED8FC1D3968FB1D1A78BB1D1B78081C111C1A1C0A23FFF7CDFE031C23703DE03B1D1A88274B9A4213D93B1D1A88264B9A420ED8FC1D3968FB1D1A78BB1D1B784E
:40098000081C111C1A1C3223FFF7B4FE031C237024E03B1D1A881C4B9A4214D93B1D1A88FA23DB009A420ED8FC1D3968FB1D1A78BB1D1B78081C111C1A1C6423FFF79AFEB4
:4009C000031C23700AE0FC1DFB1D1A78BB1D1B78101C191CFFF76EFE031C2370FB1D1B78181CBD4603B090BDE703000064040000E10400005E050000D1050000E60500007B
:400A000059060000D60600005307000080B584B000AF7860FB1C1970BB1C1A70FB1C1B787A68D3181B785BB21A023B1C0E331A80BB1C1B787A68D3181B785BB29AB23B1C51
:400A40000C33111CFF220A401A803B1C0A33391C0E313A1C0C32098812880A431A803B1C0A3300215B5E002B00DA01335B109BB29AB23B1C0833054952181A803B1C083316
:400A80001B88181CBD4604B080BDC046DC05000080B584B000AF78607B68181C02F006F9031C1A1C3B1C0E331A803B1C0E331B88181CBD4604B080BD80B582B000AF021C6E
:400AC000FB1D1A70FB1D1B78002B32D03A4B07221A70394B07225A70374B07229A70364B0722DA70344B07221A71334B07225A71314B07229A71304B0722DA712E4B07223E
:400B00001A722D4B07225A722B4B07229A722A4B0722DA72284B07221A73274BEE225A73254B181C0E2101F0F1F9012001F0D6FC31E0214B07221A701F4B07225A701E4B27
:400B400007229A701C4B0722DA701B4B07221A71194B07225A71184B07229A71164B0722DA71154B07221A72134B07225A72124B07229A72104B0722DA720F4B07221A73B0
:400B80000D4BFF225A730C4B181C0E2101F0BEF9012001F0A3FC01F03FF9C04601F0FAFE031C012BFAD001F051F9002001F096FCBD4602B080BDC0467401002080B500AF60
:400BC000034B181C162101F075F9BD4680BDC0465401002080B586B000AF0A1CFB1D011C19703B1D1A803B1C0C33FF221A703B1C0C33FF225A703B1C0C33FA1D12789A702F
:400C00003B1C0C330522DA703B1C0C3303221A713B1C0C331E225A713B1D1B88DAB23B1C0C339A713B1D1B881B0A9BB2DAB23B1C0C33DA713B1C0C339A79FB1D1B78D31885
:400C4000DAB23B1C0C33DB79D318DBB22633DBB2DB43DAB23B1C0C331A723B1C0C33181C092101F01BFEBD4606B080BD80B586B000AF0A1CFB1D011C19703B1D1A803B1C99
:400C80000C33FF221A703B1C0C33FF225A703B1C0C33FA1D12789A703B1C0C330522DA703B1C0C3303221A713B1C0C330E225A713B1D1B88DAB23B1C0C339A713B1D1B8887
:400CC0001B0A9BB2DAB23B1C0C33DA713B1C0C339A79FB1D1B78D318DAB23B1C0C33DB79D318DBB21633DBB2DB43DAB23B1C0C331A723B1C0C33181C092101F0CFFDBD4692
:400D000006B080BD80B586B000AF0A1CFB1D011C19703B1D1A803B1C0C33FF221A703B1C0C33FF225A703B1C0C33FA1D12789A703B1C0C330522DA703B1C0C3303221A7180
:400D40003B1C0C3320225A713B1D1B88DAB23B1C0C339A713B1D1B881B0A9BB2DAB23B1C0C33DA713B1C0C339A79FB1D1B78D318DAB23B1C0C33DB79D318DBB22833DBB2B9
:400D8000DB43DAB23B1C0C331A723B1C0C33181C092101F083FDBD4606B080BD90B585B000AF021C3960FB1D1A70524B1B78012B03D06BDD022B22D069E03B1C0F330022F0
:400DC0001A700EE03B1C0F331B785B003A68D318494A1A803B1C0F331A783B1C0F3301321A703B1C0F331B78132BEBD9FB1D00221A70414B0220191CFFF7ECFE47E03C1C85
:400E00000C343E4B181C10211122FFF7FFFD031C2380FB1D1B785B003A68D3183A1C0C3212881A80FB1D1B78122B05D8FB1D1A78FB1D01321A7002E0FB1D00221A703C1C00
:400E40000A343B68181C1421FFF7F8FB031C23803B1C0A331A88FA23DB009A420DD83B1C0A331A88264B9A4207D93B1C0A331B880220191CFFF7AEFE04E01F4B0220191C56
:400E8000FFF7A8FE1F4B00221A7000E0C046194B1B78012B0CD002DC002B05D024E0022B0AD0032B14D01FE0124B01221A701BE0104B03221A7017E0124B1B78002B03D0AD
:400EC0000C4B02221A700FE00A4B03221A700BE00C4B1B78002B03D0064B02221A7002E0044B03221A70C046FB1D1B78181CBD4605B090BD6A010020DC050000540100207D
:400F0000E70300000C01002090B585B000AF021C3960FB1D1A70524B1B78012B03D06BDD022B22D069E03B1C0F3300221A700EE03B1C0F331B785B003A68D318494A1A80C5
:400F40003B1C0F331A783B1C0F3301321A703B1C0F331B78132BEBD9FB1D00221A70414B0120191CFFF736FE47E03C1C0C343E4B181C12211322FFF749FD031C2380FB1DF8
:400F80001B785B003A68D3183A1C0C3212881A80FB1D1B78122B05D8FB1D1A78FB1D01321A7002E0FB1D00221A703C1C0A343B68181C1421FFF742FB031C23803B1C0A33D9
:400FC0001A88FA23DB009A420DD83B1C0A331A88264B9A4207D93B1C0A331B880120191CFFF7F8FD04E01F4B0120191CFFF7F2FD1F4B00221A7000E0C046194B1B78012B13
:401000000CD002DC002B05D024E0022B0AD0032B14D01FE0124B01221A701BE0104B03221A7017E0124B1B78002B03D00C4B02221A700FE00A4B03221A700BE00C4B1B7819
:40104000002B03D0064B02221A7002E0044B03221A70C046FB1D1B78181CBD4605B090BD6F010020DC05000054010020E70300000D01002090B585B000AF021C3960FB1DB3
:401080001A703C1C0C340120FFF702FD031C2380BB4B1B78012B07D000DC47E1022B24D0032B00D12EE142E13B1C0F3300221A700EE03B1C0F331B785B003A68D318B14A02
:4010C0001A803B1C0F331A783B1C0F3301321A703B1C0F331B78132BEBD9FB1D00221A70A84B181C01F03AFF21E13C1C0A34A64B181C0E210F22FFF789FC031C2380FB1D20
:401100001B785B003A68D3183A1C0A3212881A80FB1D1B78122B05D8FB1D1A78FB1D01321A7002E0FB1D00221A703C1C08343B68181C1421FFF782FA031C238002F010F9B5
:40114000031C002B05D002F0FDF8031C002B00D06FE03B1C0C331A888C4B1B689A4223D83B1C08331A888A4B9A4204D8854B181C01F0F4FE5CE03B1C08331A88FA23DB0087
:401180009A420CD83B1C08331A88824B9A4206D93B1C08331B88181C01F0E0FE48E0794B181C01F0DBFE43E03B1C0C331A887A4B1B689A4223D33B1C08331A88714B9A4250
:4011C00004D9704B181C01F0C9FE31E03B1C08331A88FA23DB009A420CD83B1C08331A886C4B9A4206D93B1C08331B88181C01F0B5FE1DE0634B181C01F0B0FE18E03B1CEE
:4012000008331A88FA23DB009A420CD83B1C08331A88604B9A4206D93B1C08331B88181C01F09CFE04E0574B181C01F097FE65E064E002F095F8031C002B2BD10120FFF7E6
:4012400027FC031C14331A1C504B1A603B1C08331A884F4B9A4204D84A4B181C01F07EFE4CE03B1C08331A88FA23DB009A420CD83B1C08331A88474B9A4206D93B1C0833B3
:401280001B88181C01F06AFE38E03E4B181C01F065FE33E002F056F8031C002B2BD10120FFF7F6FB031C143B1A1C3B4B1A603B1C08331A88334B9A4204D9324B181C01F083
:4012C0004DFE1BE03B1C08331A88FA23DB009A420CD83B1C08331A882E4B9A4206D93B1C08331B88181C01F039FE07E0254B181C01F034FE02E0012001F0F0F8274B0022A5
:401300001A7014E03B1C0C331A88204B1B689A4206D93B1C0C331A881F4B1B689A4204D3184B181C01F01AFE01E000E0C046144B1B78012B0CD002DC002B05D034E0022BF6
:401340000AD0032B14D02FE00D4B01221A702BE00B4B03221A7027E0104B1B78002B03D0074B02221A701FE0054B03221A701BE00A4B1B78002B13D0014B02221A7012E08F
:401380006D010020DC05000054010020D0000020DB050000E7030000CC0000200E010020044B03221A70C046FB1D1B78181CBD4605B090BD6D01002090B585B000AF021CB7
:4013C0003960FB1D1A703C1C0C340020FFF760FB031C2380BB4B1B78012B07D000DC47E1022B24D0032B00D12EE142E13B1C0F3300221A700EE03B1C0F331B785B003A6899
:40140000D318B14A1A803B1C0F331A783B1C0F3301321A703B1C0F331B78132BEBD9FB1D00221A70A84B181C01F048FE21E13C1C0A34A64B181C0C210D22FFF7E7FA031C4C
:401440002380FB1D1B785B003A68D3183A1C0A3212881A80FB1D1B78122B05D8FB1D1A78FB1D01321A7002E0FB1D00221A703C1C08343B68181C1421FFF7E0F8031C238056
:4014800001F052FF031C002B05D001F03FFF031C002B00D06FE03B1C0C331A888C4B1B689A4223D83B1C08331A888A4B9A4204D8854B181C01F002FE5CE03B1C08331A88A4
:4014C000FA23DB009A420CD83B1C08331A88824B9A4206D93B1C08331B88181C01F0EEFD48E0794B181C01F0E9FD43E03B1C0C331A887A4B1B689A4223D33B1C08331A8893
:40150000714B9A4204D9704B181C01F0D7FD31E03B1C08331A88FA23DB009A420CD83B1C08331A886C4B9A4206D93B1C08331B88181C01F0C3FD1DE0634B181C01F0BEFD3A
:4015400018E03B1C08331A88FA23DB009A420CD83B1C08331A88604B9A4206D93B1C08331B88181C01F0AAFD04E0574B181C01F0A5FD65E064E001F0F3FE031C002B2BD1EE
:401580000020FFF785FA031C14331A1C504B1A603B1C08331A884F4B9A4204D84A4B181C01F08CFD4CE03B1C08331A88FA23DB009A420CD83B1C08331A88474B9A4206D983
:4015C0003B1C08331B88181C01F078FD38E03E4B181C01F073FD33E001F0B4FE031C002B2BD10020FFF754FA031C143B1A1C3B4B1A603B1C08331A88334B9A4204D9324BFA
:40160000181C01F05BFD1BE03B1C08331A88FA23DB009A420CD83B1C08331A882E4B9A4206D93B1C08331B88181C01F047FD07E0254B181C01F042FD02E0012000F04EFF45
:40164000274B00221A7014E03B1C0C331A88204B1B689A4206D93B1C0C331A881F4B1B689A4204D3184B181C01F028FD01E000E0C046144B1B78012B0CD002DC002B05D053
:4016800034E0022B0AD0032B14D02FE00D4B01221A702BE00B4B03221A7027E0104B1B78002B03D0074B02221A701FE0054B03221A701BE00A4B1B78002B13D0014B022287
:4016C0001A7012E06B010020DC05000054010020D8000020DB050000E7030000D40000200F010020044B03221A70C046FB1D1B78181CBD4605B090BD6B01002090B585B0B8
:4017000000AF021C3960FB1D1A704E4B1B78012B03D063DD022B21D061E03B1C0F3300221A700EE03B1C0F331B785B003A68D318454A1A803B1C0F331A783B1C0F33013270
:401740001A703B1C0F331B78132BEBD9FB1D00221A703D4B181C01F051FB40E03C1C0C343A4B181C0A210B22FFF750F9031C2380FC1DFB1D19783A683B1C0C331B88081C69
:40178000111C1422FFF73CF8031C23703C1C0A343B68181C1421FEF751FF031C23803B1C0A331A88FA23DB009A420CD83B1C0A331A88274B9A4206D93B1C0A331B88181C85
:4017C00001F01CFB06E0012000F088FE1E4B181C01F014FB1F4B00221A7000E0C046194B1B78012B0CD002DC002B05D024E0022B0AD0032B14D01FE0124B01221A701BE0CD
:40180000104B03221A7017E0124B1B78002B03D00C4B02221A700FE00A4B03221A700BE00C4B1B78002B03D0064B02221A7002E0044B03221A70C046FB1D1B78181CBD4627
:4018400005B090BD52010020DC05000054010020E70300001001002090B583B000AF304B1B78012B03D029DD022B05D027E02D4B181C01F027FE22E0BC1D2B4B181C1421C3
:401880001522FFF7C3F8031C2380BB1D1A88FA23DB009A420AD8BB1D1A88244B9A4205D9BB1D1B88181C01F00DFE03E01D4B181C01F004FC1E4B00221A7000E0C046184B32
:4018C0001B78012B0CD002DC002B05D024E0022B0AD0032B14D01FE0114B01221A701BE00F4B03221A7017E0114B1B78002B03D00B4B02221A700FE0094B03221A700BE081
:401900000B4B1B78002B03D0054B02221A7002E0034B03221A70C046BD4603B090BDC0466E010020DC05000054010020E70300001101002080B582B000AF002001F038F87C
:401940000A2000F031FF012001F032F8012001F055F8FB1D00221A700DE001F00DF8031C002B00D00BE0042000F01EFFFB1D1A78FB1D01321A70FB1D1B78632BEDD9374BA5
:4019800000221A70364B00221A70364B00221A70354B00221A70354B00221A70344B00221A7000233B6007E0324A3B68D31800221A703B6801333B603B680D2BF4DD01F034
:4019C00003FC00F023FD00F013FD00F03BFF01F047FB01F0E5F901F093FA01F0CFFC01F033F801F055F9244B042001211A1C00F053F9FE206421FFF785F9204BFE20191C1B
:401A0000FFF734F9012000F069FD1D4B181C01F0A5FA1B4B181C01F051FB1A4B181C00F0C3FE002000F05AFD174B181CFEF752FD031C1A1C154B1A60154B181CFEF74AFD7F
:401A4000031C1A1C134B1A6062B6134B181C00F0EBFC00F0A1FDBD4602B080BD520100206A0100206F0100206B0100206D0100206E0100207401002087690000FF0300007A
:401A8000DC050000B80B0000A4060000CC00002014050000D0000020AD04000090B5B7B000AF3B1CD23300221A703B1CCA33624A1A80FFF73FFF01F053FC031C002B03D0A4
:401AC000012000F00BFD02E0002000F007FD00F061FF031C002B20D100F0B8F9FFF76EF8564B01221A70564B01221A70554B01221A70554B01221A70544B01221A70544B2E
:401B000001221A70534B01221A703B1CD23300221A700120FEF7D0FF06E03B1CD2333A1CD232127801321A703B1CD2331B78312B2CD93B1CCA33404A1A800023CC20C0192D
:401B400003601DE03B1CCA3300229B5E1B129BB2DAB24149CC20C0190368CB181A70CC22D219136801333A1CCA321288D1B23A4AD154CC20C01903680233CC22D219136018
:401B8000CC20C0190368152BDCDD4AE03C1CD7343B1CD7331A783B1CA033101C191CFFF7ADFD031C23703C1CD6343B1CD6331A783B1C7833101C191CFFF7FEFB031C237047
:401BC0003C1CD5343B1CD5331A783B1C5033101C191CFFF74FFA031C23703C1CD4343B1CD4331A783B1C2833101C191CFFF7D6F8031C23703C1CD3343B1CD3331A783B1CE9
:401C0000101C191CFFF780F9031C2370FFF724FE124B5B780133DAB2104B5A700020FEF74BFFC0460E4B1B78DBB2002BFAD00C4B00221A703FE7C046DC05000010010020E1
:401C40000D0100200C0100200F0100200E010020110100201201002054010020740100206C01002080B582B000AF021CFB1D1A70FB1D1B78181C01F0E1FAC04601F0BEFA7E
:401C8000031C1A1C01231340F8D001F0F1FA031C181CBD4602B080BD80B590B000AFFB1D1870BB1D19703B1D1A803A1C2832524B111C1A1C1323081C111C1A1C01F00CFDF1
:401CC0003A1C14324D4B111C1A1C1223081C111C1A1C01F001FD3B1C1433BA1D1278DA733B1D1B881B0A9BB2DAB23B1C14331A743B1D1B88DAB23B1C14335A743B1C0C33A8
:401D0000092000211A1C062300F016FA3B1C28330A225A743B1C2833FA1D12789A743B1D1B881B0A9BB2DAB23B1C14331A713B1D1B88DAB23B1C14335A713B1C2833002009
:401D400000211A1C132300F06DF93B1C1433002001211A1C122300F065F93B1C0C33092000211A1C062300F05DF912200121642200F01EF9642000F017FD00F043F80020AE
:401D8000142100F077F8002000F038FE0020FFF769FF0020FFF766FF1420FFF763FF3B1C3E3300221A8016E03B1C3E331B881B0A9BB2DBB2181CFFF755FF3B1C3E331B88F7
:401DC000DBB2181CFFF74EFF3B1C3E331A883B1C3E3301321A803B1C3E331A88084B9A42E2D9012000F00AFE3B1C0C335B79181CBD4610B080BDC04600370000143700004D
:401E0000FF03000080B500AF01200121012200F09FF8BD4680BDC04680B500AF0A4B1B88242001211A1C00F0C3F801200121202200F08EF82420012100F03EF9031C1A1C89
:401E4000014B1A80BD4680BD2401002080B500AF02200121FF2200F07BF817200021FF2200F076F815200021FF2200F071F8BD4680BDC04680B582B000AF0A1CFB1D011CED
:401E80001970BB1D1A70BB1D1B782C2001211A1C00F05EF818200021012200F059F8FB1D1B78162000211A1C00F052F8BD4602B080BDC04680B582B000AF78600A1CFB1C90
:401EC0001A70114B19887A68FB1C1B78081C032100F032F92A20012100F0EEF8031C1A1C094B1A80084B1B88282001211A1C00F05FF801200121402200F02AF8024B1B8863
:401F0000181CBD4602B080BD2601002080B582B000AF78600A1CFB1C1A700C4B19887A68FB1C1B78081C022100F07CF8FB1C1B789AB2064B1B88D3189AB2044B1A80034BF8
:401F40001B88181CBD4602B080BDC0462401002080B582B000AFBB1D18807B1D19703B1D1A70002000F04AFDBB1D1B881B0A9BB2DBB2181CFFF776FEBB1D1B88DBB2181C19
:401F8000FFF770FE7B1D1B78DB00DBB204221343DBB2DBB2181CFFF765FE3B1D1B78181CFFF760FE012000F029FDBD4602B080BD80B582B000AFBB1D18807B1D1970BB1CED
:401FC0001A80002000F01AFDBB1D1B881B0A9BB2DBB2181CFFF746FEBB1D1B88DBB2181CFFF740FE7B1D1B78DB00DBB204221343DBB2DBB2181CFFF735FEBB1C1B881B0AA3
:402000009BB2DBB2181CFFF72DFEBB1C1B88DBB2181CFFF727FE012000F0F0FCBD4602B080BDC04680B584B000AF3A601A1CBB1D18807B1D19703B1D1A70002000F0DEFCE1
:40204000BB1D1B881B0A9BB2DBB2181CFFF70AFEBB1D1B88DBB2181CFFF704FE7B1D1B78DB00DBB204221343DBB2DBB2181CFFF7F9FD3B1C0F3300221A700FE03B1C0F336A
:402080001B783A68D3181B78181CFFF7EBFD3B1C0F331A783B1C0F3301321A703A1C0F323B1D12781B789A42E8D3012000F0A6FCBD4604B080BDC04680B584B000AF0A1C4C
:4020C000BB1D011C19807B1D1A70002000F096FCBB1D1B881B0A9BB2DBB2181CFFF7C2FDBB1D1B88DBB2181CFFF7BCFD7B1D1B78DB00DBB2181CFFF7B5FD0020FFF7B2FD0C
:40210000031C1A1C3B1C0E3312021A800020FFF7A9FD031C191C3B1C0E333A1C0E3212880A431A80012000F069FC3B1C0E331B88181CBD4604B080BD90B585B000AF3A60A9
:402140001A1CBB1D18807B1D19703B1D1A70002000F054FCBB1D1B881B0A9BB2DBB2181CFFF780FDBB1D1B88DBB2181CFFF77AFD7B1D1B78DB00DBB2181CFFF773FD3B1C08
:402180000F3300221A7010E03B1C0F331B783A68D4180020FFF766FD031C23703B1C0F331A783B1C0F3301321A703A1C0F323B1D12781B789A42E7D3012000F01FFCBD460A
:4021C00005B090BD80B500AFFEE7C04680B586B000AF224B7B61224B3B61204B7B6135E03B691B68FB603B695B68BB603B699B683B6000237B600CE0FB681A68BB681A6094
:40220000BB680433BB60FB680433FB607B6804337B607A683B689A42EED13B69DB683B6000237B6008E0BB6800221A60BB680433BB607B6804337B607A683B689A42F2D16A
:402240003B6910333B617B69013B7B617B69002BC6D101F01BFAFFF721FCFEE701000000703A000080B582B000AF00237B600FE07B68032B04D8104B7A689200D35800E0C6
:402280000E4B0F4A796889008B507B6801337B607B682F2BECD9FDF791FF0A4B00221A608023DB058022D205126801210A431A60BD4602B080BDC04600000000C521000081
:4022C00000000020C000002080B582B000AF786039607A683B68101C00211A1C01F005FABD4602B080BDC04680B584B000AFF860B9607A60F968BA687B68081C111C1A1C17
:4023000001F0EAF9BD4604B080BDC04680B586B000AF7860396000233B6100237B612EE07B699B007A68D3181B68BB603B1C0F33BA681A70BB68FF229343BB6017E03B6979
:402340005B003A68D3181B781A1CBB68D3183A69520039688A1852781A703B6901333B613B1C0F331A783B1C0F33013A1A703B1C0F331B78002BE2D17B6901337B617B6933
:40238000092BCDD9BD4606B080BDC04680B500AF054B0F221A60054B0F221A60012000F007F8BD4680BDC04600031A4040031A4080B584B000AF021CFB1D1A700B4B1B686C
:4023C000FB60FB1D1B78002B05D0FB68802212061343FB6003E0FB685B005B08FB60034BFA681A60BD4604B080BDC04680031A4080B500AF044B044A1268802109060A43B1
:402400001A60BD4680BDC0468000024080B500AF044B044A1268802109060A431A60BD4680BDC0464400024080B582B000AF786000F04AF87B68181C00F008F8032000F0A2
:4024400013F800F037F8BD4602B080BD80B582B000AF7860034A8C237968D150BD4602B080BDC0460000002090B585B000AF021CFB1D1A701E23FB603C1C0B3400F006F931
:40248000031C23700A4B0A4A126892009108FA1D1078FA68041C9440221C0A431A603B1C0B331B78181C00F0F5F8BD4605B090BD10E400E080B500AF024B802212031A60AE
:4024C000BD4680BD00E100E080B500AF024B802212031A60BD4680BD80E100E080B584B000AF021CFB1D1A700E4B1B68DAB23B1C0F3340218A431A70FB1D1B789B01DAB294
:4025000040231340D9B23B1C0F333A1C0F3212780A431A70034B3A1C0F3212781A60BD4604B080BD0001044080B500AF094B802292041A60084B0C221A60012000F078F841
:40254000064B181C00F048F8002000F037F8BD4680BDC046C0010540E40105401027000090B583B000AFFC1D00F090F8031C2370084B084A126808210A431A60FB1D1B7896
:40258000181C00F087F80820182100F033F8BD4603B090BD0000054080B500AF064B1B78002B04D1FFF7C0FF034B01221A70FFF7D7FFBD4680BDC0462801002080B582B07A
:4025C00000AF7860034B7A681204120C1A60BD4602B080BDC801054080B582B000AF7860034B7A681204120C1A60BD4602B080BDD401054090B585B000AF786039603C1CAC
:402600000F3400F043F8031C2370084B3A687968081C9040021C1A603B1C0F331B78181C00F038F8BD4605B090BDC0460800054080B582B000AF7860024B7A681A60BD46A6
:4026400002B080BDF801054080B500AF024B1B68181CBD4680BDC046FC01054080B582B000AF7860024B7A681A60BD4602B080BDF0010540000000000230800804D0C0466A
:402680000138FDD1C046C046C0467047EFF3108072B6704780F310887047C046C046C04680B584B000AF021C3960FB1D1A7080239B05FB60FB1D1B781F2B02D9002000F036
:4026C00069F8FB1D1B7810339B00FA68D3181B68BB60FB1D1B7810339B00FA68D3183A681A60BB68181CBD4604B080BD90B587B000AF0A1CFB1D011C1970BB1D1A70BB1D7F
:402700001B78032B02D9002000F044F8FB1D1B781F2B02D9002000F03DF8FB1D1A7803231340DB0006337B613C1C1334FFF7AEFF031C2370FB1D1B789B08DBB29B001449C2
:402740005B181B68FB607B690322111C99400B1CDA43FB681340FB60BB1D1A787B69111C99400B1CFA681343FB60FB1D1B789B08DBB29B00064A9B18FA681A603B1C133324
:402780001B78181CFFF786FFBD4607B090BDC04600E400E080B582B000AF021CFB1D1A7001BEBD4602B080BD80B582B000AF786008E00C4B1B68181CFFF75EFF7B680A4A11
:4027C0009B187B607A6880231B029A42F1D8074B1B687A685343181CFFF74EFFBD4602B080BDC046EC0000200080FFFFE400002080B582B000AF021CBB1D1A80BB1D1B8899
:40280000044A12785343181CFFF736FFBD4602B080BDC046E800002080B500AF00F058F8BD4680BD80B500AF054B054A1268802109060A431A6000F017F8BD4680BDC046AE
:402840000000064080B500AF064B1B78002B04D1FFF7E2FF034B01221A70FFF7E3FFBD4680BDC0462C01002080B500AFBD4680BD80B582B000AF7860C046064B1A680F23F0
:402880001340082BF9D0044B7A681A60BD4602B080BDC046080206404002064080B584B000AF786039600023FB6009E07A68FB68D3181B78181CFFF7DBFFFB680133FB60A5
:4028C000FA683B689A42F1D3BD4604B080BDC04680B500AF174B184A1A60184B00221A60174B01221A60174B174A1A60174B07221A60174B00221A60164B01221A60164B7A
:40290000114A1A60154B00221A60154B00221A60144B00221A60144B00221A60134B00221A60134B00221A60124B00221A60BD4680BDC046000006400B00000240000640C8
:402940004800064000030640070000800403064010030640440006400002064004020640880E0640C80E0640480F0640080F0640C80F0640880F064080B500AF044B1A6894
:40298000022313405B08DBB2181CBD4680BDC0460400044080B500AF044B1B68DAB201231340DBB2181CBD4680BDC0460400044080B584B000AF021CFB1D1A700E4B1B6831
:4029C000DAB23B1C0F3304218A431A70FB1D1B789B00DAB204231340D9B23B1C0F333A1C0F3212780A431A70034B3A1C0F3212781A60BD4604B080BD0000044080B584B044
:402A000000AF021CFB1D1A700E4B1B68DAB23B1C0F3308218A431A70FB1D1B78DB00DAB208231340D9B23B1C0F333A1C0F3212780A431A70034B3A1C0F3212781A60BD460E
:402A400004B080BD0000044080B500AF064B1B78002B04D100F00AF8034B01221A7000F003F9BD4680BDC0463401002090B585B000AF0E200321FFF739FE604B0E20191C2F
:402A8000FFF70EFE5E4B0F221A605E4B5E4A1A605E4B5F4A1A605F4B5F4A1A605F4B8022D2051A605E4B5F4A1A605F4B5D4A1A605E4B5E4A1268802149020A431A605C4B03
:402AC0005B4A1268802149020A431A60594B00221A60594B00221A60584B01221A60584B02221A60574B1B687B607A68564B13407B607B68012213437B60524B7A681A6022
:402B00000023FB6073E0514BFA689200D258DC239B0113407B604E4AFB68D3181B787A6813437B60FB689B004A4A9B187A681A60464BFA689200D258012313400AD03D4B8C
:402B40003C4A1168FA680120041C9440221C92B20A431A603D4BFA689200D258022313400AD0354B344A1168FA680120041C9440221C92B20A431A60344BFA689200D258CA
:402B800080239B00134003D080235B00BB6002E080235B01BB602D4BFA689200D25880235B00134005D12C4BFA6852000021D15209E0BB68002B00DA01335B1099B2264B04
:402BC000FA685200D152BB68244A53438022D2009B18002B01DA224C1B19DB129BB219B2204BFA689200D150FB680133FB60FB68032B88D9BD4605B090BDC046F12C000077
:402C000020001A4000001A404020001304001A408400008018001A400000FF071C001A4010001A400200020014001A4000031A4040031A4028021A4038021A4018021A409B
:402C4000000F1A4030001A40FFFFFFDF383A0000483A000080001A409401002010270000FF0700008401002080B500AF074B1B68002B09DB054B054A1268802109060A4342
:402C80001A600A20FFF7B4FDBD4680BD00001A4080B500AF044B044A1268802149020A431A60BD4680BDC04604001A4080B584B000AF78607B68032B02D90020FFF76AFD84
:402CC0007B68032B08D87B689B00084A9B181B681B041B0CFB6001E00023FB60FB689BB21BB2181CBD4604B080BDC04680011A4080B582B000AF044B1B687B60024B7A6865
:402D00001A60BD4602B080BD10021A4080B500AF104B8022D2041A600E4B0E4A12681A60002000F04FF80B4B0A4A12681A600A4B0C221A60012000F08DF8084B31221A603D
:402D4000074B181C00F04CF8064B181C00F056F8BD4680BD400105406401054068010540204E0000DC05000090B583B000AFFC1DFFF78CFC031C2370084B084A12680221B7
:402D80000A431A60FB1D1B78181CFFF783FC0220182100F041F8BD4603B090BD0000054080B500AF064B1B78002B04D1FFF7AEFF034B01221A70FFF7D7FFBD4680BDC046B4
:402DC0003501002080B582B000AF7860034B7A681204120C1A60BD4602B080BD4801054080B582B000AF7860034B7A681204120C1A60BD4602B080BD5401054080B582B072
:402E000000AF7860034B7A681204120C1A60BD4602B080BD4C01054090B585B000AF786039603C1C0F34FFF731FC031C2370084B3A687968081C9040021C1A603B1C0F33A4
:402E40001B78181CFFF726FCBD4605B090BDC0460800054080B582B000AF7860024B7A681A60BD4602B080BD7801054080B500AF104B8022D2041A600E4B0E4A12681A60FE
:402E8000002000F04FF80B4B0A4A12681A600A4B0C221A60012000F08DF8084B31221A60074B181C00F04CF8064B181C00F056F8BD4680BD80010540A4010540A80105400F
:402EC000204E0000DC05000090B583B000AFFC1DFFF7DCFB031C2370084B084A126804210A431A60FB1D1B78181CFFF7D3FB0420182100F041F8BD4603B090BD0000054048
:402F000080B500AF064B1B78002B04D1FFF7AEFF034B01221A70FFF7D7FFBD4680BDC0463601002080B582B000AF7860034B7A681204120C1A60BD4602B080BD8801054036
:402F400080B582B000AF7860034B7A681204120C1A60BD4602B080BD9401054080B582B000AF7860034B7A681204120C1A60BD4602B080BD8C01054090B585B000AF786028
:402F800039603C1C0F34FFF781FB031C2370084B3A687968081C9040021C1A603B1C0F331B78181CFFF776FBBD4605B090BDC0460800054080B582B000AF7860024B7A681B
:402FC0001A60BD4602B080BDB801054080B500AF104B8022D2041A600E4B0E4A12681A60002000F04FF80B4B0A4A12681A600A4B0C221A60012000F08DF8084B31221A60E9
:40300000074B181C00F04CF8064B181C00F056F8BD4680BD000105402401054028010540204E0000DC05000090B583B000AFFC1DFFF72CFB031C2370084B084A1268012116
:403040000A431A60FB1D1B78181CFFF723FB0120182100F041F8BD4603B090BD0000054080B500AF064B1B78002B04D1FFF7AEFF034B01221A70FFF7D7FFBD4680BDC04653
:403080003701002080B582B000AF7860034B7A681204120C1A60BD4602B080BD0801054080B582B000AF7860034B7A681204120C1A60BD4602B080BD1401054080B582B02D
:4030C00000AF7860034B7A681204120C1A60BD4602B080BD0C01054090B585B000AF786039603C1C0F34FFF7D1FA031C2370084B3A687968081C9040021C1A603B1C0F3384
:403100001B78181CFFF7C6FABD4605B090BDC0460800054080B582B000AF7860024B7A681A60BD4602B080BD3801054080B500AF084B0F221A7000F0ABF800F05FF800F0F7
:403140006DF8054B00221A70044B00221A70BD4680BDC04680000F4081000F4083000F4090B583B000AFFC1DFFF790FA031C2370124B124A1278D2B220210A43D2B21A7067
:403180000F4B0F4A1278D2B210210A43D2B21A700C4B0C4A1278D2B210210A43D2B21A70FB1D1B78181CFFF775FA00F0A1F800F01DF800F01FF8BD4603B090BD90000F40C0
:4031C00091000F4093000F4080B500AF064B1B78002B04D1FFF7AAFF034B01221A70FFF7BFFFBD4680BDC0463801002080B500AFBD4680BD80B500AFBD4680BD80B582B0A9
:4032000000AF054AFB1D12781A70FB1D1B78181CBD4602B080BDC04661000F4080B582B000AF054AFB1D12781A70FB1D1B78181CBD4602B080BDC04663000F4080B582B05C
:4032400000AF021CFB1D1A70C046074B1B78DBB21A1C04231340F8D0044BFA1D12781A70BD4602B080BDC04661000F4043000F4080B582B000AF054AFB1D12781A70FB1D92
:403280001B78181CBD4602B080BDC04653000F4090B583B000AF01E0124B1B78124B1B78DBB21A1C20231340F6D1FC1DFFF7EEF9031C23700D4B0D4A1278D2B201210A43D1
:4032C000D2B21A70094B094A1278D2B201218A43D2B21A70FB1D1B78181CFFF7DBF9BD4603B090BD53000F4063000F4093000F4080B500AF044B044A1268802109060A4334
:403300001A60BD4680BDC0460000024080B500AF044B1A68102313401B09DBB2181CBD4680BDC0460403044080B500AF044B1A68202313405B09DBB2181CBD4680BDC04624
:403340000403044080B500AF044B1A68402313409B09DBB2181CBD4680BDC0460403044080B500AF044B1A6880231340DB09DBB2181CBD4680BDC0460403044080B500AFDC
:40338000064B1B78002B04D100F00AF8034B01221A7000F059F8BD4680BDC0463901002090B583B000AF224B1B78DAB2FB1D3F218A431A701E4BFA1D12780B210A43D2B2D2
:4033C0001A701C4B1B4A1278D2B201210A43D2B21A70194B184A1278D2B201210A43D2B21A70164B181C00F03FF8144B181C00F059F8134B181C00F065F8002000F072F8B2
:40340000BC1DFFF743F9031C23700E4B0D4A1278D2B210210A43D2B21A70BB1D1B78181CFFF738F900F030F8BD4603B090BDC04672000F4090000F4091000F40204E0000B0
:403440004448000092000F4080B500AF054B054A1278D2B2802149420A43D2B21A70BD4680BDC04672000F4080B582B000AF021CBB1D1A80034BBA1D12881A80BD4602B00C
:4034800080BDC04600100F4080B500AF01E000F043F800F037F8031C1A1C10231340F6D1BD4680BD80B582B000AF021CBB1D1A80034BBA1D12881A80BD4602B080BDC04682
:4034C00080100F4080B582B000AF021CBB1D1A80034BBA1D12881A80BD4602B080BDC04640100F4080B582B000AF021CFB1D1A70034BFA1D12781A70BD4602B080BDC04610
:4035000082000F4080B500AF024B1B78DBB2181CBD4680BD62000F4080B500AF024B1B889BB2181CBD4680BDA0100F40002934D00123002210B488422CD301242407A1427D
:4035400004D2814202D209011B01F8E7E400A14204D2814202D249005B00F8E7884201D3401A1A434C08A04202D3001B5C0822438C08A04202D3001B9C082243CC08A042B9
:4035800002D3001BDC082243002803D01B0901D00909E3E7101C10BC7047002801D00020C04307B4024802A14018029003BDC046D90000000029F0D003B5FFF7B9FF0EBCF1
:4035C0004243891A1847C046002941D010B4041C4C40A44601230022002900D54942002800D5404288422CD301242407A14204D2814202D209011B01F8E7E400A14204D251
:40360000814202D249005B00F8E7884201D3401A1A434C08A04202D3001B5C0822438C08A04202D3001B9C082243CC08A04202D3001BDC082243002803D01B0901D00909CC
:40364000E3E7101C6446002C00D5404210BC7047002806D003DB0020C043400801E08020000607B4024802A14018029003BDC046190000000029EBD003B5FFF7A7FF0EBC63
:403680004243891A1847C0467047C04670B50E4B0E4D0024ED1AAD101E1CAC4204D0A300F35898470134F8E700F0D0F9084B094D0024ED1AAD101E1CAC4204D0A300F358EE
:4036C00098470134F8E770BD583A0000583A0000583A0000603A000010B50023934203D0CC5CC4540133F9E710BD031C8218934202D019700133FAE77047000000000000F4
:4037000000C0A80101FFFFFF000008DCFFFFFFC0A801FE000200FF00FE01000000000000C0A80101698700000A090000255809000400000080300F40000200330F4000015F
:4037400000400F400004000000300F40B8390000800080320F4038390000800002000F4029300F4035310F4016320F4049330F4005400F400A410F4002420F4007430F406A
:4037800002600F40800F820D800484098612940C9610A81EAA01B010B207B608BA08BE41C040C103C5D0C620C710C83AC9FFCAFFCBFFCDAFCE0FCF04D018D409D804DA04C4
:4037C000DB04DC01DD13DF01E040E2C0E440E540E6C0E8C0EAC0ECC0EEC0008601200404050109800A900B080E2010201312172019A01A011D401EA01F0C20042250233038
:4038000029012B883008325139443A023B10404042204301462047014D01562857015C205E815F0462086540686969446A5272027302C03FC22FC44ECA05CC0FCE0FD0C3E8
:40384000D6F0D812010105010E0219011C0C2602280C2E05300132083402360437013E1052805405580459045B045C335D305F0100840102030804400A410B100F02102A08
:40388000130216281740181019021A011C401E281F80221826402B083218361038043B103E083F024006430849814B145002518152105D015E8860106290774079027A803C
:4038C00087808802890290049101924093109440970499809A289B029D01A068A309A580A608A820AB80AD20C08FC28DC4EFCA04CC26CEC6D00ED20CD6D0D80EE020E285F1
:40390000E4080E8060206410C220D8C0520A820A88208A409C20A240AC10D4A0E2A0EE406302D60219011E10810182108701A701C60C100A11010000000010002133024C4E
:40394000025538AA4D0000000D0040000202340D00E0000002000D004D0000004D0000004D490096000040003000400F00F00F0000208008000004006302500001CEFBD0C1
:403980002FFFFFFF2200F008040000004000000004040404111100010000C00040011011C00100114001400100000000000000000000000000000000049A800007983802DD
:4039C000012100D884980002049A00008002049856130964603800C084020000840000000AFC1003000000000000000F7F1380E02000008800004000400300000000000076
:403A000000FFFFFF00A00004180000000000022804040404111300014000C0004040C000C000C000C000C0000000000000000000000000000000000002000000020000002A
:403A4000000000000000000000010203F8B5C046F8BC08BC9E4670477504000065220000F8B5C046F8BC08BC9E4670474D040000803A0000C800002028000000B0000000E9
:403A800000000000E8030000640000002003000018010000C0F1FF0F00366E01C05D0000180000000000E02E000000000000000000000000000000000000000000000000D4
:403AC00000000000000000000000000000000000000000000000000000000000000000000000000000000000000000000000000000000000000000000000000000000000C6
:403B00000000000000000000000000000000000000000000000000000000000000000000000000000000000000000000000000000000000000000000000000000000000085
:403B40000000000000000000000000000000000000000000000000000000000000000000000000000000000000000000000000000000000000000000000000000000000045
:403B80000000000000000000000000000000000000000000000000000000000000000000000000000000000000000000000000000000000000000000000000000000000005
:0200000490303A
:0200000046D1E7
:0200000490402A
:200000000000000000000000000000000000000000000000000000000000000000000000E0
:0200000490501A
:0C000000000204C81193110104DB5864D5
:0200000490600A
:0100000001FE
:00000001FF