:400000000010002011000000412400004124000080B500AF02F018FA80B584B000AF021CFB1D1A70204A3B1C0B3312781A701F4A3B1C0A3312781A700423013BFB6018E01B
:400040001B4B1868391C0B31FA68131C5B009B18C3185B780B70164B1868391C0A31FA68131C5B009B18C3189B780B70FB68013BFB60FB68002B0ADB0D4B1968FA68131CF1
:400080005B009B185B5CFA1D12789A42D8D9094B3A1C0B3212781A60074B3A1C0A3212781A60BD4604B080BDCCF1FF0FCDF1FF0FDC0000201CFF0B4020FF0B4080B500AF3F
:4000C000264B264A12688021C9020A431A601820FFF7A2FF224B19221A60052002F008FC204B214A1278D2B21A60052002F0BCFC1A4B1A4A11681D4A0A401A601C4B1D4AFE
:400100001A601D4B20221A601C4B11221A601C4B21221A601B4B21221A601B4B21221A601A4B30221A601A4B10221A60194B21221A60194B822212061A60184B184A1A6067
:40014000184B194A1A60194B194A1A60194B184A1A60194B164A1A60BD4680BD00010B402CFF0B4028FF0B40E5F1FF0FFFFFFBFF04010B4006000080080202401C020240AE
:400180002002024024020240280202402C020240340202403C02024008010B40000002400B00008040000240100000808000024017000080040002404400024080B586B0DC
:4001C00000AF72B63B1C173300221A7026E03B1C17331A78131C5B009B185B00764A9B183B613B691A78597809020A43997809040A43DB781B0613431A1C3B6919795B7927
:400200001B020B439BB2101C191C02F09BF93B1C17331A783B1C173301321A703B1C17331B78022BD3D93B1C173300221A7038E03B1C17331A78131C9B009B185B005F4A68
:400240009B18FB60FB681A78597809020A43997809040A43DB781B061343BB60FB681A79597909020A43997909040A43DB791B0613437B60BA1CFB68197A5B7A1B020B43C4
:400280001380BB1C1B88B9687A68081C111C1A1C02F068F93B1C17331A783B1C173301321A703B1C17331B78012BC1D9444A454B101C191C02F068F9434BA02212011A80FA
:4002C000424B01221A70424B424A1A60424BCE2292001A60414BC02292021A60404BEE2212021A603F4B99221A603F4B50221A603E4B3F4A1A603F4B07221A603E4B3F4A03
:400300001A603F4B1F221A603E4BC022D2011A603D4B0F221A603D4BF0221A603C4B3D4A1A603D4B02221A603C4B31221A603C4B02221A603B4B992212041A603A4BA022C0
:4003400012031A60394B8C2292051A60384B992212041A60374B842292031A60364B992212041A60354B992212041A60344BAA2212061A60334B334A1278D2B202210A43B9
:40038000D2B21A70304B304A1278D2B20C218A43D2B204210A43D2B21A702A4B294A1278D2B216210A43D2B21A70FFF787FE02F02BF9BD4606B080BDAC390000C039000041
:4003C000D4390000FC39000000600F4002600F40000001400000030304000140080001400C00014010000140000004400800044089ED18000001044008010440B601180069
:400400000002044008020440180204400003044008030440802D490000040440080404401804044000500F4004500F4008500F4010500F4018500F4020500F4030500F4069
:4004400034500F4000700F4001700F4010B5064C2378002B07D1054B002B02D0044800E000BF0123237010BDF0000020000000007439000008B5084B002B03D0074808494E
:4004800000E000BF07480368002B03D0064B002B00D0984708BDC0460000000074390000F4000020C80000200000000080B582B000AF02F007FA031C7B60054B01221A7046
:4004C0007B68181C02F008FABD4602B080BDC0466C01002080B586B000AF021CBB1D1A803B1C113303221A703B1C173300221A703B1C123300221A8070E0002002F02CF94C
:40050000BB1D1A88554B9A420BD804E0BB1D1B88181C02F05FFE03F05FF8031C002BF5D115E0BB1D1A884E4B9A420BD904E0BB1D1B88181C02F04EFE03F040F8031C002B98
:40054000F5D104E0BB1D1B88181C02F043FE444B181C02F03FFE012002F0FEF8FA239B00181C02F05DFA0123FB60FB68181C00F06BFB031C191C3B1C12333A1C123212882F
:400580008A181A80BB1D1B88354AD31A9AB23B1C0A331A803B1C0A331B88314A9B189BB2181C02F017FE002002F0D6F8FA239B00181C02F035FA2A4B181C02F00BFE0120FF
:4005C00002F0CAF8FA239B00181C02F029FA3B1C17331A783B1C173301321A703A1C17323B1C113312781B789A4200D285E7BB1D1A881B4B9A4210D93B1C12331A883B1C0A
:4006000011331B78101C191C03F01AF9031C9AB23B1C1433143A1A8018E0BB1D1A880F4B9A4210D83B1C12331A883B1C11331B78101C191C03F004F9031C9AB23B1C143335
:4006400014321A8002E0012002F086F83B1C14331B88181CBD4606B080BDC046DB050000DC05000080B586B000AF021CBB1D1A803B1C113303221A703B1C173300221A70B4
:400680003B1C123300221A8070E0002002F064F8BB1D1A88554B9A420BD804E0BB1D1B88181C02F047FE02F07BFF031C002BF5D115E0BB1D1A884E4B9A420BD904E0BB1D81
:4006C0001B88181C02F036FE02F05CFF031C002BF5D104E0BB1D1B88181C02F02BFE444B181C02F027FE012002F036F8FA239B00181C02F095F90023FB60FB68181C00F066
:40070000A3FA031C191C3B1C12333A1C123212888A181A80BB1D1B88354AD31A9AB23B1C0A331A803B1C0A331B88314A9B189BB2181C02F0FFFD002002F00EF8FA239B00B7
:40074000181C02F06DF92A4B181C02F0F3FD012002F002F8FA239B00181C02F061F93B1C17331A783B1C173301321A703A1C17323B1C113312781B789A4200D285E7BB1D43
:400780001A881B4B9A4210D93B1C12331A883B1C11331B78101C191C03F052F8031C9AB23B1C1433143A1A8018E0BB1D1A880F4B9A4210D83B1C12331A883B1C11331B7875
:4007C000101C191C03F03CF8031C9AB23B1C143314321A8002E0012001F0BEFF3B1C14331B88181CBD4606B080BDC046DB050000DC05000080B586B000AF78600A1CFB1C76
:400800001A7000233B613B1C0E3300221A803B1C173300221A7010E03B1C17331B785B007A68D3181B883A69D3183B613B1C17331A783B1C173301321A703A1C1732FB1C6E
:4008400012781B789A42E7D3FB1C1B783869191C02F0A8FF031C1A1C3B1C0E331A803B1C0E331B88181CBD4606B080BD80B582B000AF0A1CFB1D011C1970BB1D1A70FB1D4C
:400880001A78BB1D1B78013B9A4205DAFB1D1A78FB1D01321A7002E0FB1D00221A70FB1D1B78181CBD4602B080BDC04680B586B000AFF8607B603B1C0B3319703B1C0A3349
:4008C0001A703B1C0B331B78002B07D03B1C17333A1C0B321278013A1A7006E03B1C17333A1C0A321278013A1A707B68002B2ADA3B1C17331B785B00FA68D3181B881A1C92
:400900007B68FA218900CB1A9A4212DB3B1C0B331B785B00FA68D3183A1C173212785200F9688A1811887A6892B28A1892B21A8033E03B1C0B331B785B00FA68D318FA22F6
:4009400092001A8029E03B1C17331B785B00FA68D3181B881A1C7B68FA21C900CB1A9A4212DC3B1C0B331B785B00FA68D3183A1C173212785200F9688A1811887A6892B20A
:400980008A1892B21A8008E03B1C0B331B785B00FA68D318FA22D2001A803B1C0B331A783B1C0A331B78101C191CFFF75FFF031C181CBD4606B080BD90B583B000AF39606B
:4009C000111C1A1CFB1D1870BB1D19703B1D1A803B1D1A88724B9A4211D93B1D1A88714B9A420CD8FC1D3868FB1D1978BB1D1A7864235B42FFF75AFF031C2370CAE03B1DBB
:400A00001A88684B9A4211D93B1D1A88664B9A420CD8FC1D3868FB1D1978BB1D1A7832235B42FFF743FF031C2370B3E03B1D1A885D4B9A4211D93B1D1A885C4B9A420CD82C
:400A4000FC1D3868FB1D1978BB1D1A780A235B42FFF72CFF031C23709CE03B1D1A88534B9A4211D93B1D1A88514B9A420CD8FC1D3868FB1D1978BB1D1A7805235B42FFF756
:400A800015FF031C237085E03B1D1A88494B9A4210D83B1D1A88464B9A420BD9FC1DFB1D1A78BB1D1B78101C191CFFF7DFFE031C23706FE03B1D1A883E4B9A4213D93B1D68
:400AC0001A883D4B9A420ED8FC1D3968FB1D1A78BB1D1B78081C111C1A1C0523FFF7E6FE031C237056E03B1D1A88334B9A4213D93B1D1A88314B9A420ED8FC1D3968FB1D80
:400B00001A78BB1D1B78081C111C1A1C0A23FFF7CDFE031C23703DE03B1D1A88274B9A4213D93B1D1A88264B9A420ED8FC1D3968FB1D1A78BB1D1B78081C111C1A1C322368
:400B4000FFF7B4FE031C237024E03B1D1A881C4B9A4214D93B1D1A88FA23DB009A420ED8FC1D3968FB1D1A78BB1D1B78081C111C1A1C6423FFF79AFE031C23700AE0FC1D19
:400B8000FB1D1A78BB1D1B78101C191CFFF76EFE031C2370FB1D1B78181CBD4603B090BDE703000064040000E10400005E050000D1050000E605000059060000D606000033
:400BC0005307000080B584B000AF7860FB1C1970BB1C1A70FB1C1B787A68D3181B785BB21A023B1C0E331A80BB1C1B787A68D3181B785BB29AB23B1C0C33111CFF220A40F4
:400C00001A803B1C0A33391C0E313A1C0C32098812880A431A803B1C0A3300215B5E002B00DA01335B109BB29AB23B1C0833054952181A803B1C08331B88181CBD4604B09D
:400C400080BDC046DC05000080B584B000AF78607B68181C02F066F9031C1A1C3B1C0E331A803B1C0E331B88181CBD4604B080BD80B582B000AF021CFB1D1A70FB1D1B788D
:400C8000002B32D03A4B07221A70394B07225A70374B07229A70364B0722DA70344B07221A71334B07225A71314B07229A71304B0722DA712E4B07221A722D4B07225A72D0
:400CC0002B4B07229A722A4B0722DA72284B07221A73274BEE225A73254B181C0E2101F053FA012001F038FD31E0214B07221A701F4B07225A701E4B07229A701C4B0722D6
:400D0000DA701B4B07221A71194B07225A71184B07229A71164B0722DA71154B07221A72134B07225A72124B07229A72104B0722DA720F4B07221A730D4BFF225A730C4B14
:400D4000181C0E2101F020FA012001F005FD01F0A1F9C04601F05AFF031C012BFAD001F0B3F9002001F0F8FCBD4602B080BDC0467401002080B500AF034B181C162101F044
:400D8000D7F9BD4680BDC0465401002080B586B000AF0A1CFB1D011C19703B1D1A803B1C0C33FF221A703B1C0C33FF225A703B1C0C33FA1D12789A703B1C0C330522DA70AE
:400DC0003B1C0C3303221A713B1C0C331E225A713B1D1B88DAB23B1C0C339A713B1D1B881B0A9BB2DAB23B1C0C33DA713B1C0C339A79FB1D1B78D318DAB23B1C0C33DB7955
:400E0000D318DBB22633DBB2DB43DAB23B1C0C331A723B1C0C33181C092101F07BFEBD4606B080BD80B586B000AF0A1CFB1D011C19703B1D1A803B1C0C33FF221A703B1CAC
:400E40000C33FF225A703B1C0C33FA1D12789A703B1C0C330522DA703B1C0C3303221A713B1C0C330E225A713B1D1B88DAB23B1C0C339A713B1D1B881B0A9BB2DAB23B1CB1
:400E80000C33DA713B1C0C339A79FB1D1B78D318DAB23B1C0C33DB79D318DBB21633DBB2DB43DAB23B1C0C331A723B1C0C33181C092101F02FFEBD4606B080BD80B586B066
:400EC00000AF0A1CFB1D011C19703B1D1A803B1C0C33FF221A703B1C0C33FF225A703B1C0C33FA1D12789A703B1C0C330522DA703B1C0C3303221A713B1C0C3320225A717A
:400F00003B1D1B88DAB23B1C0C339A713B1D1B881B0A9BB2DAB23B1C0C33DA713B1C0C339A79FB1D1B78D318DAB23B1C0C33DB79D318DBB22833DBB2DB43DAB23B1C0C335A
:400F40001A723B1C0C33181C092101F0E3FDBD4606B080BD90B585B000AF021C3960FB1D1A705B4B1B78012B0AD003DC002B00D173E06EE0022B25D0032B00D16FE068E035
:400F80003B1C0F3300221A700EE03B1C0F331B785B003A68D3184F4A1A803B1C0F331A783B1C0F3301321A703B1C0F331B78132BEBD9FB1D00221A70464B0220191CFFF766
:400FC000E5FE4DE03C1C0C34434B181C10211122FFF7F8FD031C2380FB1D1B785B003A68D3183A1C0C3212881A80FB1D1B78122B05D8FB1D1A78FB1D01321A7002E0FB1DDD
:4010000000221A703C1C0A343B68181C1421FFF7F1FB031C23803B1C0A331A88FA23DB009A420DD83B1C0A331A882C4B9A4207D93B1C0A331B880220191CFFF7A7FE04E059
:40104000244B0220191CFFF7A1FE254B00221A7006E01F4B00221A7002E0C04600E0C0461B4B1B78012B0CD002DC002B05D024E0022B0AD0032B14D01FE0154B01221A7027
:401080001FE0134B03221A701BE0154B1B78002B03D00F4B02221A7013E00D4B03221A700FE00F4B1B78002B03D0094B02221A7007E0074B03221A7003E0054B00221A7093
:4010C000C046FB1D1B78181CBD4605B090BDC0466A010020DC05000054010020E70300000C01002090B585B000AF021C3960FB1D1A705B4B1B78012B0AD003DC002B00D16C
:4011000073E06EE0022B25D0032B00D16FE068E03B1C0F3300221A700EE03B1C0F331B785B003A68D3184F4A1A803B1C0F331A783B1C0F3301321A703B1C0F331B78132BF1
:40114000EBD9FB1D00221A70464B0120191CFFF71DFE4DE03C1C0C34434B181C12211322FFF730FD031C2380FB1D1B785B003A68D3183A1C0C3212881A80FB1D1B78122BD8
:4011800005D8FB1D1A78FB1D01321A7002E0FB1D00221A703C1C0A343B68181C1421FFF729FB031C23803B1C0A331A88FA23DB009A420DD83B1C0A331A882C4B9A4207D957
:4011C0003B1C0A331B880120191CFFF7DFFD04E0244B0120191CFFF7D9FD254B00221A7006E01F4B00221A7002E0C04600E0C0461B4B1B78012B0CD002DC002B05D024E052
:40120000022B0AD0032B14D01FE0154B01221A701FE0134B03221A701BE0154B1B78002B03D00F4B02221A7013E00D4B03221A700FE00F4B1B78002B03D0094B02221A70B3
:4012400007E0074B03221A7003E0054B00221A70C046FB1D1B78181CBD4605B090BDC0466F010020DC05000054010020E70300000D01002090B585B000AF021C3960FB1DC1
:401280001A703C1C0C340120FFF7DEFC031C2380BB4B1B78012B0AD003DC002B00D14CE147E1022B24D0032B00D12EE141E13B1C0F3300221A700EE03B1C0F331B785B007F
:4012C0003A68D318AF4A1A803B1C0F331A783B1C0F3301321A703B1C0F331B78132BEBD9FB1D00221A70A74B181C01F073FF25E13C1C0A34A44B181C0E210F22FFF762FC5F
:40130000031C2380FB1D1B785B003A68D3183A1C0A3212881A80FB1D1B78122B05D8FB1D1A78FB1D01321A7002E0FB1D00221A703C1C08343B68181C1421FFF75BFA031C9E
:40134000238002F049F9031C002B05D002F036F9031C002B00D06FE03B1C0C331A888B4B1B689A4223D83B1C08331A88884B9A4204D8844B181C01F02DFF5CE03B1C0833D8
:401380001A88FA23DB009A420CD83B1C08331A88804B9A4206D93B1C08331B88181C01F019FF48E0774B181C01F014FF43E03B1C0C331A88784B1B689A4223D33B1C083380
:4013C0001A88704B9A4204D96E4B181C01F002FF31E03B1C08331A88FA23DB009A420CD83B1C08331A886B4B9A4206D93B1C08331B88181C01F0EEFE1DE0624B181C01F041
:40140000E9FE18E03B1C08331A88FA23DB009A420CD83B1C08331A885E4B9A4206D93B1C08331B88181C01F0D5FE04E0554B181C01F0D0FE65E064E002F0CEF8031C002B1A
:401440002BD10120FFF700FC031C14331A1C4F4B1A603B1C08331A884D4B9A4204D8494B181C01F0B7FE4CE03B1C08331A88FA23DB009A420CD83B1C08331A88454B9A4203
:4014800006D93B1C08331B88181C01F0A3FE38E03C4B181C01F09EFE33E002F08FF8031C002B2BD10120FFF7CFFB031C143B1A1C394B1A603B1C08331A88324B9A4204D933
:4014C000304B181C01F086FE1BE03B1C08331A88FA23DB009A420CD83B1C08331A882D4B9A4206D93B1C08331B88181C01F072FE07E0244B181C01F06DFE02E0012001F0D6
:401500002BF9264B00221A7018E03B1C0C331A881E4B1B689A4206D93B1C0C331A881E4B1B689A4204D3174B181C01F053FE05E004E0134B00221A7000E0C046104B1B783D
:40154000012B0CD002DC002B05D035E0022B0AD0032B25D030E00A4B01221A7030E0084B03221A702CE00D4B1B78002B03D0044B02221A7024E0024B03221A7020E0C0462A
:401580006D010020DC05000054010020D0000020DB050000E7030000CC0000200E0100200A4B1B78002B03D0094B02221A7007E0074B03221A7003E0054B00221A70C046BD
:4015C000FB1D1B78181CBD4605B090BD0E0100206D01002090B585B000AF021C3960FB1D1A703C1C0C340020FFF72EFB031C2380BB4B1B78012B0AD003DC002B00D14CE188
:4016000047E1022B24D0032B00D12EE141E13B1C0F3300221A700EE03B1C0F331B785B003A68D318AF4A1A803B1C0F331A783B1C0F3301321A703B1C0F331B78132BEBD9A8
:40164000FB1D00221A70A74B181C01F073FE25E13C1C0A34A44B181C0C210D22FFF7B2FA031C2380FB1D1B785B003A68D3183A1C0A3212881A80FB1D1B78122B05D8FB1D69
:401680001A78FB1D01321A7002E0FB1D00221A703C1C08343B68181C1421FFF7ABF8031C238001F07DFF031C002B05D001F06AFF031C002B00D06FE03B1C0C331A888B4BC5
:4016C0001B689A4223D83B1C08331A88884B9A4204D8844B181C01F02DFE5CE03B1C08331A88FA23DB009A420CD83B1C08331A88804B9A4206D93B1C08331B88181C01F076
:4017000019FE48E0774B181C01F014FE43E03B1C0C331A88784B1B689A4223D33B1C08331A88704B9A4204D96E4B181C01F002FE31E03B1C08331A88FA23DB009A420CD87B
:401740003B1C08331A886B4B9A4206D93B1C08331B88181C01F0EEFD1DE0624B181C01F0E9FD18E03B1C08331A88FA23DB009A420CD83B1C08331A885E4B9A4206D93B1CF7
:4017800008331B88181C01F0D5FD04E0554B181C01F0D0FD65E064E001F01EFF031C002B2BD10020FFF750FA031C14331A1C4F4B1A603B1C08331A884D4B9A4204D8494BD9
:4017C000181C01F0B7FD4CE03B1C08331A88FA23DB009A420CD83B1C08331A88454B9A4206D93B1C08331B88181C01F0A3FD38E03C4B181C01F09EFD33E001F0DFFE031C20
:40180000002B2BD10020FFF71FFA031C143B1A1C394B1A603B1C08331A88324B9A4204D9304B181C01F086FD1BE03B1C08331A88FA23DB009A420CD83B1C08331A882D4B90
:401840009A4206D93B1C08331B88181C01F072FD07E0244B181C01F06DFD02E0012000F07BFF264B00221A7018E03B1C0C331A881E4B1B689A4206D93B1C0C331A881E4BFD
:401880001B689A4204D3174B181C01F053FD05E004E0134B00221A7000E0C046104B1B78012B0CD002DC002B05D035E0022B0AD0032B25D030E00A4B01221A7030E0084BDA
:4018C00003221A702CE00D4B1B78002B03D0044B02221A7024E0024B03221A7020E0C0466B010020DC05000054010020D8000020DB050000E7030000D40000200F01002079
:401900000A4B1B78002B03D0094B02221A7007E0074B03221A7003E0054B00221A70C046FB1D1B78181CBD4605B090BD0F0100206B01002090B585B000AF021C3960FB1D5A
:401940001A70564B1B78012B08D002DC002B6AD065E0022B23D0032B67D060E03B1C0F3300221A700EE03B1C0F331B785B003A68D3184B4A1A803B1C0F331A783B1C0F331E
:4019800001321A703B1C0F331B78132BEBD9FB1D00221A70424B181C01F06CFB46E03C1C0C34404B181C0A210B22FFF70BF9031C2380FC1DFB1D19783A683B1C0C331B8831
:4019C000081C111C1422FEF7F7FF031C23703C1C0A343B68181C1421FEF70CFF031C23803B1C0A331A88FA23DB009A420CD83B1C0A331A882C4B9A4206D93B1C0A331B88D2
:401A0000181C01F037FB06E0012000F0A5FE244B181C01F02FFB254B00221A7006E01F4B00221A7002E0C04600E0C0461B4B1B78012B0CD002DC002B05D024E0022B0AD027
:401A4000032B14D01FE0154B01221A701FE0134B03221A701BE0154B1B78002B03D00F4B02221A7013E00D4B03221A700FE00F4B1B78002B03D0094B02221A7007E0074B39
:401A800003221A7003E0054B00221A70C046FB1D1B78181CBD4605B090BDC04652010020DC05000054010020E70300001001002090B583B000AF374B1B78012B08D002DCA6
:401AC000002B30D02BE0022B07D0032B2DD026E0314B181C01F032FE28E0BC1D2F4B181C14211522FFF76EF8031C2380BB1D1A88FA23DB009A420AD8BB1D1A88284B9A4298
:401B000005D9BB1D1B88181C01F018FE03E0224B181C01F00FFC234B00221A7006E01D4B00221A7002E0C04600E0C046194B1B78012B0CD002DC002B05D024E0022B0AD0C7
:401B4000032B14D01FE0134B01221A701FE0114B03221A701BE0134B1B78002B03D00D4B02221A7013E00B4B03221A700FE00D4B1B78002B03D0074B02221A7007E0054B48
:401B800003221A7003E0034B00221A70C046BD4603B090BD6E010020DC05000054010020E70300001101002080B582B000AF002001F03AF80A2000F033FF012001F034F8AC
:401BC000012001F057F8FB1D00221A700DE001F00FF8031C002B00D00BE0042000F020FFFB1D1A78FB1D01321A70FB1D1B78632BEDD9384B00221A70374B00221A70374B46
:401C000000221A70364B00221A70364B00221A70354B00221A7001F013FC00F035FD00F025FD00F04BFF01F057FB01F0F5F901F0A3FA01F0DFFC01F043F801F065F92B4B97
:401C4000042001211A1C00F065F9FE206421FFF735F9274BFE20191CFFF7E4F8012000F07BFD244B181C01F0B5FA224B181C01F061FB214B181C00F0D3FE002000F06CFDA8
:401C80001E4B181CFEF7EEFC031C1A1C1C4B1A601C4B181CFEF7E6FC031C1A1C1A4B1A60164B181CFEF716FC031C1A1C174B1A60144B181CFEF70EFC031C1A1C144B1A603F
:401CC00062B6144B181C00F0EDFC00F0A3FDBD4602B080BD520100206A0100206F0100206B0100206D0100206E01002087690000FF030000DC050000B80B0000A406000067
:401D0000D400002014050000D8000020CC000020D0000020AD04000090B5B7B000AF3B1CD23300221A703B1CCA33624A1A80FFF73BFF01F051FC031C002B03D0012000F078
:401D40000BFD02E0002000F007FD00F05FFF031C002B20D100F0B8F9FFF70CF8564B01221A70564B01221A70554B01221A70554B01221A70544B01221A70544B01221A7073
:401D8000534B01221A703B1CD23300221A700120FEF76EFF06E03B1CD2333A1CD232127801321A703B1CD2331B78312B2CD93B1CCA33404A1A800023CC20C01903601DE05A
:401DC0003B1CCA3300229B5E1B129BB2DAB24149CC20C0190368CB181A70CC22D219136801333A1CCA321288D1B23A4AD154CC20C01903680233CC22D2191360CC20C01931
:401E00000368152BDCDD4AE03C1CD7343B1CD7331A783B1CA033101C191CFFF78BFD031C23703C1CD6343B1CD6331A783B1C7833101C191CFFF7CEFB031C23703C1CD5347A
:401E40003B1CD5331A783B1C5033101C191CFFF711FA031C23703C1CD4343B1CD4331A783B1C2833101C191CFFF774F8031C23703C1CD3343B1CD3331A783B1C101C191C06
:401E8000FFF730F9031C2370FFF712FE124B5B780133DAB2104B5A700020FEF7E9FEC0460E4B1B78DBB2002BFAD00C4B00221A703FE7C046DC050000100100200D01002057
:401EC0000C0100200F0100200E010020110100201201002054010020740100206C01002080B582B000AF021CFB1D1A70FB1D1B78181C01F0DFFAC04601F0BCFA031C1A1CD9
:401F000001231340F8D001F0EFFA031C181CBD4602B080BD80B590B000AFFB1D1870BB1D19703B1D1A803A1C2832524B111C1A1C1323081C111C1A1C01F00AFD3A1C14322B
:401F40004D4B111C1A1C1223081C111C1A1C01F0FFFC3B1C1433BA1D1278DA733B1D1B881B0A9BB2DAB23B1C14331A743B1D1B88DAB23B1C14335A743B1C0C33092000217A
:401F80001A1C062300F016FA3B1C28330A225A743B1C2833FA1D12789A743B1D1B881B0A9BB2DAB23B1C14331A713B1D1B88DAB23B1C14335A713B1C2833002000211A1C7A
:401FC000132300F06DF93B1C1433002001211A1C122300F065F93B1C0C33092000211A1C062300F05DF912200121642200F01EF9642000F015FD00F043F80020142100F060
:4020000077F8002000F036FE0020FFF769FF0020FFF766FF1420FFF763FF3B1C3E3300221A8016E03B1C3E331B881B0A9BB2DBB2181CFFF755FF3B1C3E331B88DBB2181CDA
:40204000FFF74EFF3B1C3E331A883B1C3E3301321A803B1C3E331A88084B9A42E2D9012000F008FE3B1C0C335B79181CBD4610B080BDC046783900008C390000FF03000097
:4020800080B500AF01200121012200F09FF8BD4680BDC04680B500AF0A4B1B88242001211A1C00F0C3F801200121202200F08EF82420012100F03EF9031C1A1C014B1A8023
:4020C000BD4680BD2401002080B500AF02200121FF2200F07BF817200021FF2200F076F815200021FF2200F071F8BD4680BDC04680B582B000AF0A1CFB1D011C1970BB1DF0
:402100001A70BB1D1B782C2001211A1C00F05EF818200021012200F059F8FB1D1B78162000211A1C00F052F8BD4602B080BDC04680B582B000AF78600A1CFB1C1A70114B88
:4021400019887A68FB1C1B78081C032100F032F92A20012100F0EEF8031C1A1C094B1A80084B1B88282001211A1C00F05FF801200121402200F02AF8024B1B88181CBD468F
:4021800002B080BD2601002080B582B000AF78600A1CFB1C1A700C4B19887A68FB1C1B78081C022100F07CF8FB1C1B789AB2064B1B88D3189AB2044B1A80034B1B88181CD6
:4021C000BD4602B080BDC0462401002080B582B000AFBB1D18807B1D19703B1D1A70002000F048FDBB1D1B881B0A9BB2DBB2181CFFF776FEBB1D1B88DBB2181CFFF770FE0C
:402200007B1D1B78DB00DBB204221343DBB2DBB2181CFFF765FE3B1D1B78181CFFF760FE012000F027FDBD4602B080BD80B582B000AFBB1D18807B1D1970BB1C1A80002016
:4022400000F018FDBB1D1B881B0A9BB2DBB2181CFFF746FEBB1D1B88DBB2181CFFF740FE7B1D1B78DB00DBB204221343DBB2DBB2181CFFF735FEBB1C1B881B0A9BB2DBB202
:40228000181CFFF72DFEBB1C1B88DBB2181CFFF727FE012000F0EEFCBD4602B080BDC04680B584B000AF3A601A1CBB1D18807B1D19703B1D1A70002000F0DCFCBB1D1B88C2
:4022C0001B0A9BB2DBB2181CFFF70AFEBB1D1B88DBB2181CFFF704FE7B1D1B78DB00DBB204221343DBB2DBB2181CFFF7F9FD3B1C0F3300221A700FE03B1C0F331B783A682E
:40230000D3181B78181CFFF7EBFD3B1C0F331A783B1C0F3301321A703A1C0F323B1D12781B789A42E8D3012000F0A4FCBD4604B080BDC04680B584B000AF0A1CBB1D011C0B
:4023400019807B1D1A70002000F094FCBB1D1B881B0A9BB2DBB2181CFFF7C2FDBB1D1B88DBB2181CFFF7BCFD7B1D1B78DB00DBB2181CFFF7B5FD0020FFF7B2FD031C1A1C2B
:402380003B1C0E3312021A800020FFF7A9FD031C191C3B1C0E333A1C0E3212880A431A80012000F067FC3B1C0E331B88181CBD4604B080BD90B585B000AF3A601A1CBB1D70
:4023C00018807B1D19703B1D1A70002000F052FCBB1D1B881B0A9BB2DBB2181CFFF780FDBB1D1B88DBB2181CFFF77AFD7B1D1B78DB00DBB2181CFFF773FD3B1C0F33002232
:402400001A7010E03B1C0F331B783A68D4180020FFF766FD031C23703B1C0F331A783B1C0F3301321A703A1C0F323B1D12781B789A42E7D3012000F01DFCBD4605B090BDEB
:4024400080B500AFFEE7C04680B586B000AF224B7B61224B3B61204B7B6135E03B691B68FB603B695B68BB603B699B683B6000237B600CE0FB681A68BB681A60BB680433B9
:40248000BB60FB680433FB607B6804337B607A683B689A42EED13B69DB683B6000237B6008E0BB6800221A60BB680433BB607B6804337B607A683B689A42F2D13B6910335B
:4024C0003B617B69013B7B617B69002BC6D101F019FAFFF721FCFEE701000000E83C000080B582B000AF00237B600FE07B68032B04D8104B7A689200D35800E00E4B0F4A01
:40250000796889008B507B6801337B607B682F2BECD9FDF753FE0A4B00221A608023DB058022D205126801210A431A60BD4602B080BDC04600000000412400000000002050
:40254000C000002080B582B000AF786039607A683B68101C00211A1C01F003FABD4602B080BDC04680B584B000AFF860B9607A60F968BA687B68081C111C1A1C01F0E8F9E4
:40258000BD4604B080BDC04680B586B000AF7860396000233B6100237B612EE07B699B007A68D3181B68BB603B1C0F33BA681A70BB68FF229343BB6017E03B695B003A68CE
:4025C000D3181B781A1CBB68D3183A69520039688A1852781A703B6901333B613B1C0F331A783B1C0F33013A1A703B1C0F331B78002BE2D17B6901337B617B69092BCDD9D4
:40260000BD4606B080BDC04680B500AF054B0F221A60054B0F221A60012000F007F8BD4680BDC04600031A4040031A4080B584B000AF021CFB1D1A700B4B1B68FB60FB1D50
:402640001B78002B05D0FB68802212061343FB6003E0FB685B005B08FB60034BFA681A60BD4604B080BDC04680031A4080B500AF044B044A1268802109060A431A60BD4624
:4026800080BDC0468000024080B500AF044B044A1268802109060A431A60BD4680BDC0464400024080B582B000AF786000F04AF87B68181C00F008F8032000F013F800F0A2
:4026C00037F8BD4602B080BD80B582B000AF7860034A8C237968D150BD4602B080BDC0460000002090B585B000AF021CFB1D1A701E23FB603C1C0B3400F004F9031C2370FA
:402700000A4B0A4A126892009108FA1D1078FA68041C9440221C0A431A603B1C0B331B78181C00F0F3F8BD4605B090BD10E400E080B500AF024B802212031A60BD4680BD9F
:4027400000E100E080B500AF024B802212031A60BD4680BD80E100E080B584B000AF021CFB1D1A700E4B1B68DAB23B1C0F3340218A431A70FB1D1B789B01DAB2402313409B
:40278000D9B23B1C0F333A1C0F3212780A431A70034B3A1C0F3212781A60BD4604B080BD0001044080B500AF094B802292041A60084B0C221A60012000F078F8064B181CF0
:4027C00000F048F8002000F037F8BD4680BDC046C0010540E40105401027000090B583B000AFFC1D00F08EF8031C2370084B084A126808210A431A60FB1D1B78181C00F077
:4028000085F80820182100F033F8BD4603B090BD0000054080B500AF064B1B78002B04D1FFF7C0FF034B01221A70FFF7D7FFBD4680BDC0462801002080B582B000AF786096
:40284000034B7A681204120C1A60BD4602B080BDC801054080B582B000AF7860034B7A681204120C1A60BD4602B080BDD401054090B585B000AF786039603C1C0F3400F07D
:4028800041F8031C2370084B3A687968081C9040021C1A603B1C0F331B78181C00F036F8BD4605B090BDC0460800054080B582B000AF7860024B7A681A60BD4602B080BD6C
:4028C000F801054080B500AF024B1B68181CBD4680BDC046FC01054080B582B000AF7860024B7A681A60BD4602B080BDF00105400230800804D0C0460138FDD1C046C046C4
:40290000C0467047EFF3108072B6704780F310887047C046C046C04680B584B000AF021C3960FB1D1A7080239B05FB60FB1D1B781F2B02D9002000F069F8FB1D1B78103377
:402940009B00FA68D3181B68BB60FB1D1B7810339B00FA68D3183A681A60BB68181CBD4604B080BD90B587B000AF0A1CFB1D011C1970BB1D1A70BB1D1B78032B02D900208F
:4029800000F044F8FB1D1B781F2B02D9002000F03DF8FB1D1A7803231340DB0006337B613C1C1334FFF7AEFF031C2370FB1D1B789B08DBB29B0014495B181B68FB607B69C7
:4029C0000322111C99400B1CDA43FB681340FB60BB1D1A787B69111C99400B1CFA681343FB60FB1D1B789B08DBB29B00064A9B18FA681A603B1C13331B78181CFFF786FF95
:402A0000BD4607B090BDC04600E400E080B582B000AF021CFB1D1A7001BEBD4602B080BD80B582B000AF786008E00C4B1B68181CFFF75EFF7B680A4A9B187B607A688023BD
:402A40001B029A42F1D8074B1B687A685343181CFFF74EFFBD4602B080BDC046EC0000200080FFFFE400002080B582B000AF021CBB1D1A80BB1D1B88044A12785343181C87
:402A8000FFF736FFBD4602B080BDC046E800002080B500AF00F058F8BD4680BD80B500AF054B054A1268802109060A431A6000F017F8BD4680BDC0460000064080B500AFA4
:402AC000064B1B78002B04D1FFF7E2FF034B01221A70FFF7E3FFBD4680BDC0462C01002080B500AFBD4680BD80B582B000AF7860C046064B1A680F231340082BF9D0044BFA
:402B00007A681A60BD4602B080BDC046080206404002064080B584B000AF786039600023FB6009E07A68FB68D3181B78181CFFF7DBFFFB680133FB60FA683B689A42F1D31B
:402B4000BD4604B080BDC04680B500AF174B184A1A60184B00221A60174B01221A60174B174A1A60174B07221A60174B00221A60164B01221A60164B114A1A60154B002245
:402B80001A60154B00221A60144B00221A60144B00221A60134B00221A60134B00221A60124B00221A60BD4680BDC046000006400B000002400006404800064000030640C6
:402BC000070000800403064010030640440006400002064004020640880E0640C80E0640480F0640080F0640C80F0640880F064080B500AF044B1A68022313405B08DBB281
:402C0000181CBD4680BDC0460400044080B500AF044B1B68DAB201231340DBB2181CBD4680BDC0460400044080B584B000AF021CFB1D1A700E4B1B68DAB23B1C0F330421CC
:402C40008A431A70FB1D1B789B00DAB204231340D9B23B1C0F333A1C0F3212780A431A70034B3A1C0F3212781A60BD4604B080BD0000044080B584B000AF021CFB1D1A709C
:402C80000E4B1B68DAB23B1C0F3308218A431A70FB1D1B78DB00DAB208231340D9B23B1C0F333A1C0F3212780A431A70034B3A1C0F3212781A60BD4604B080BD00000440C6
:402CC00080B500AF064B1B78002B04D100F00AF8034B01221A7000F003F9BD4680BDC0463401002090B585B000AF0E200321FFF739FE604B0E20191CFFF70EFE5E4B0F2206
:402D00001A605E4B5E4A1A605E4B5F4A1A605F4B5F4A1A605F4B8022D2051A605E4B5F4A1A605F4B5D4A1A605E4B5E4A1268802149020A431A605C4B5B4A12688021490251
:402D40000A431A60594B00221A60594B00221A60584B01221A60584B02221A60574B1B687B607A68564B13407B607B68012213437B60524B7A681A600023FB6073E0514B3D
:402D8000FA689200D258DC239B0113407B604E4AFB68D3181B787A6813437B60FB689B004A4A9B187A681A60464BFA689200D258012313400AD03D4B3C4A1168FA680120F5
:402DC000041C9440221C92B20A431A603D4BFA689200D258022313400AD0354B344A1168FA680120041C9440221C92B20A431A60344BFA689200D25880239B00134003D066
:402E000080235B00BB6002E080235B01BB602D4BFA689200D25880235B00134005D12C4BFA6852000021D15209E0BB68002B00DA01335B1099B2264BFA685200D152BB68EB
:402E4000244A53438022D2009B18002B01DA224C1B19DB129BB219B2204BFA689200D150FB680133FB60FB68032B88D9BD4605B090BDC046692F000020001A4000001A409F
:402E80004020001304001A408400008018001A400000FF071C001A4010001A400200020014001A4000031A4040031A4028021A4038021A4018021A40000F1A4030001A40FA
:402EC000FFFFFFDFB03C0000C03C000080001A409401002010270000FF0700008401002080B500AF074B1B68002B09DB054B054A1268802109060A431A600A20FFF7B4FD74
:402F0000BD4680BD00001A4080B500AF044B044A1268802149020A431A60BD4680BDC04604001A4080B584B000AF78607B68032B02D90020FFF76AFD7B68032B08D87B6878
:402F40009B00084A9B181B681B041B0CFB6001E00023FB60FB689BB21BB2181CBD4604B080BDC04680011A4080B582B000AF044B1B687B60024B7A681A60BD4602B080BD4A
:402F800010021A4080B500AF104B8022D2041A600E4B0E4A12681A60002000F04FF80B4B0A4A12681A600A4B0C221A60012000F08DF8084B31221A60074B181C00F04CF86D
:402FC000064B181C00F056F8BD4680BD400105406401054068010540204E0000DC05000090B583B000AFFC1DFFF78CFC031C2370084B084A126802210A431A60FB1D1B787D
:40300000181CFFF783FC0220182100F041F8BD4603B090BD0000054080B500AF064B1B78002B04D1FFF7AEFF034B01221A70FFF7D7FFBD4680BDC0463501002080B582B0E6
:4030400000AF7860034B7A681204120C1A60BD4602B080BD4801054080B582B000AF7860034B7A681204120C1A60BD4602B080BD5401054080B582B000AF7860034B7A68F5
:403080001204120C1A60BD4602B080BD4C01054090B585B000AF786039603C1C0F34FFF731FC031C2370084B3A687968081C9040021C1A603B1C0F331B78181CFFF726FCFA
:4030C000BD4605B090BDC0460800054080B582B000AF7860024B7A681A60BD4602B080BD7801054080B500AF104B8022D2041A600E4B0E4A12681A60002000F04FF80B4BAE
:403100000A4A12681A600A4B0C221A60012000F08DF8084B31221A60074B181C00F04CF8064B181C00F056F8BD4680BD80010540A4010540A8010540204E0000DC050000EA
:4031400090B583B000AFFC1DFFF7DCFB031C2370084B084A126804210A431A60FB1D1B78181CFFF7D3FB0420182100F041F8BD4603B090BD0000054080B500AF064B1B784C
:40318000002B04D1FFF7AEFF034B01221A70FFF7D7FFBD4680BDC0463601002080B582B000AF7860034B7A681204120C1A60BD4602B080BD8801054080B582B000AF78608E
:4031C000034B7A681204120C1A60BD4602B080BD9401054080B582B000AF7860034B7A681204120C1A60BD4602B080BD8C01054090B585B000AF786039603C1C0F34FFF76A
:4032000081FB031C2370084B3A687968081C9040021C1A603B1C0F331B78181CFFF776FBBD4605B090BDC0460800054080B582B000AF7860024B7A681A60BD4602B080BD56
:40324000B801054080B500AF104B8022D2041A600E4B0E4A12681A60002000F04FF80B4B0A4A12681A600A4B0C221A60012000F08DF8084B31221A60074B181C00F04CF818
:40328000064B181C00F056F8BD4680BD000105402401054028010540204E0000DC05000090B583B000AFFC1DFFF72CFB031C2370084B084A126801210A431A60FB1D1B78DC
:4032C000181CFFF723FB0120182100F041F8BD4603B090BD0000054080B500AF064B1B78002B04D1FFF7AEFF034B01221A70FFF7D7FFBD4680BDC0463701002080B582B084
:4033000000AF7860034B7A681204120C1A60BD4602B080BD0801054080B582B000AF7860034B7A681204120C1A60BD4602B080BD1401054080B582B000AF7860034B7A68B2
:403340001204120C1A60BD4602B080BD0C01054090B585B000AF786039603C1C0F34FFF7D1FA031C2370084B3A687968081C9040021C1A603B1C0F331B78181CFFF7C6FA3B
:40338000BD4605B090BDC0460800054080B582B000AF7860024B7A681A60BD4602B080BD3801054080B500AF084B0F221A7000F0ABF800F05FF800F06DF8054B00221A7091
:4033C000044B00221A70BD4680BDC04680000F4081000F4083000F4090B583B000AFFC1DFFF790FA031C2370124B124A1278D2B220210A43D2B21A700F4B0F4A1278D2B285
:4034000010210A43D2B21A700C4B0C4A1278D2B210210A43D2B21A70FB1D1B78181CFFF775FA00F0A1F800F01DF800F01FF8BD4603B090BD90000F4091000F4093000F403C
:4034400080B500AF064B1B78002B04D1FFF7AAFF034B01221A70FFF7BFFFBD4680BDC0463801002080B500AFBD4680BD80B500AFBD4680BD80B582B000AF054AFB1D127848
:403480001A70FB1D1B78181CBD4602B080BDC04661000F4080B582B000AF054AFB1D12781A70FB1D1B78181CBD4602B080BDC04663000F4080B582B000AF021CFB1D1A700B
:4034C000C046074B1B78DBB21A1C04231340F8D0044BFA1D12781A70BD4602B080BDC04661000F4043000F4080B582B000AF054AFB1D12781A70FB1D1B78181CBD4602B003
:4035000080BDC04653000F4090B583B000AF01E0124B1B78124B1B78DBB21A1C20231340F6D1FC1DFFF7EEF9031C23700D4B0D4A1278D2B201210A43D2B21A70094B094A15
:403540001278D2B201218A43D2B21A70FB1D1B78181CFFF7DBF9BD4603B090BD53000F4063000F4093000F4080B500AF044B044A1268802109060A431A60BD4680BDC046A6
:403580000000024080B500AF044B1A68102313401B09DBB2181CBD4680BDC0460403044080B500AF044B1A68202313405B09DBB2181CBD4680BDC0460403044080B500AF33
:4035C000044B1A68402313409B09DBB2181CBD4680BDC0460403044080B500AF044B1A6880231340DB09DBB2181CBD4680BDC0460403044080B500AF064B1B78002B04D1A5
:4036000000F00AF8034B01221A7000F059F8BD4680BDC0463901002090B583B000AF224B1B78DAB2FB1D3F218A431A701E4BFA1D12780B210A43D2B21A701C4B1B4A127853
:40364000D2B201210A43D2B21A70194B184A1278D2B201210A43D2B21A70164B181C00F03FF8144B181C00F059F8134B181C00F065F8002000F072F8BC1DFFF743F9031CE5
:4036800023700E4B0D4A1278D2B210210A43D2B21A70BB1D1B78181CFFF738F900F030F8BD4603B090BDC04672000F4090000F4091000F40204E00004448000092000F40EB
:4036C00080B500AF054B054A1278D2B2802149420A43D2B21A70BD4680BDC04672000F4080B582B000AF021CBB1D1A80034BBA1D12881A80BD4602B080BDC04600100F4055
:4037000080B500AF01E000F043F800F037F8031C1A1C10231340F6D1BD4680BD80B582B000AF021CBB1D1A80034BBA1D12881A80BD4602B080BDC04680100F4080B582B05B
:4037400000AF021CBB1D1A80034BBA1D12881A80BD4602B080BDC04640100F4080B582B000AF021CFB1D1A70034BFA1D12781A70BD4602B080BDC04682000F4080B500AF1E
:40378000024B1B78DBB2181CBD4680BD62000F4080B500AF024B1B889BB2181CBD4680BDA0100F40002934D00123002210B488422CD301242407A14204D2814202D2090139
:4037C0001B01F8E7E400A14204D2814202D249005B00F8E7884201D3401A1A434C08A04202D3001B5C0822438C08A04202D3001B9C082243CC08A04202D3001BDC08224375
:40380000002803D01B0901D00909E3E7101C10BC7047002801D00020C04307B4024802A14018029003BDC046D90000000029F0D003B5FFF7B9FF0EBC4243891A1847C0461A
:40384000002941D010B4041C4C40A44601230022002900D54942002800D5404288422CD301242407A14204D2814202D209011B01F8E7E400A14204D2814202D249005B0020
:40388000F8E7884201D3401A1A434C08A04202D3001B5C0822438C08A04202D3001B9C082243CC08A04202D3001BDC082243002803D01B0901D00909E3E7101C6446002CB9
:4038C00000D5404210BC7047002806D003DB0020C043400801E08020000607B4024802A14018029003BDC046190000000029EBD003B5FFF7A7FF0EBC4243891A1847C04620
:403900007047C04670B50E4B0E4D0024ED1AAD101E1CAC4204D0A300F35898470134F8E700F0D0F9084B094D0024ED1AAD101E1CAC4204D0A300F35898470134F8E770BDD8
:40394000D03C0000D03C0000D03C0000D83C000010B50023934203D0CC5CC4540133F9E710BD031C8218934202D019700133FAE7704700000000000000C0A80101FFFFFF42
:40398000000008DCFFFFFFC0A801FE000200FF00FE01000000000000C0A80101698700000A090000255809000400000080300F40000200330F40000100400F4000040000B1
:4039C00000300F40303C0000800080320F40B03B0000800002000F4029300F4035310F4016320F4049330F4005400F400A410F4002420F4007430F4002600F40800F820DB7
:403A0000800484098612940C9610A81EAA01B010B207B608BA08BE41C040C103C5D0C620C710C83AC9FFCAFFCBFFCDAFCE0FCF04D018D409D804DA04DB04DC01DD13DF0184
:403A4000E040E2C0E440E540E6C0E8C0EAC0ECC0EEC0008601200404050109800A900B080E2010201312172019A01A011D401EA01F0C20042250233029012B8830083251A9
:403A800039443A023B10404042204301462047014D01562857015C205E815F0462086540686969446A5272027302C03FC22FC44ECA05CC0FCE0FD0C3D6F0D8120101050146
:403AC0000E0219011C0C2602280C2E05300132083402360437013E1052805405580459045B045C335D305F0100840102030804400A410B100F02102A13021628174018106C
:403B000019021A011C401E281F80221826402B083218361038043B103E083F024006430849814B145002518152105D015E8860106290774079027A808780880289029004DB
:403B40009101924093109440970499809A289B029D01A068A309A580A608A820AB80AD20C08FC28DC4EFCA04CC26CEC6D00ED20CD6D0D80EE020E285E4080E8060206410B0
:403B8000C220D8C0520A820A88208A409C20A240AC10D4A0E2A0EE406302D60219011E10810182108701A701C60C100A11010000000010002133024C025538AA4D000000B4
:403BC0000D0040000202340D00E0000002000D004D0000004D0000004D490096000040003000400F00F00F0000208008000004006302500001CEFBD02FFFFFFF2200F0087F
:403C0000040000004000000004040404111100010000C00040011011C00100114001400100000000000000000000000000000000049A800007983802012100D88498000288
:403C4000049A00008002049856130964603800C084020000840000000AFC1003000000000000000F7F1380E02000008800004000400300000000000000FFFFFF00A000046A
:403C8000180000000000022804040404111300014000C0004040C000C000C000C000C000000000000000000000000000000000000200000002000000000000000000000049
:403CC00000010203F8B5C046F8BC08BC9E46704775040000E1240000F8B5C046F8BC08BC9E4670474D040000F83C0000C800002028000000B000000000000000E803000084
:403D0000640000002003000018010000C0F1FF0F00366E01C05D0000180000000000E02E00000000000000000000000000000000000000000000000000000000000000003C
:403D40000000000000000000000000000000000000000000000000000000000000000000000000000000000000000000000000000000000000000000000000000000000043
:403D80000000000000000000000000000000000000000000000000000000000000000000000000000000000000000000000000000000000000000000000000000000000003
:403DC00000000000000000000000000000000000000000000000000000000000000000000000000000000000000000000000000000000000000000000000000000000000C3
:403E00000000000000000000000000000000000000000000000000000000000000000000000000000000000000000000000000000000000000000000000000000000000082
:0200000490303A
:02000000191CC9
:0200000490402A
:200000000000000000000000000000000000000000000000000000000000000000000000E0
:0200000490501A
:0C000000000204C81193110104DC2AAFB7
:0200000490600A
:0100000001FE
:00000001FF