:4000000000100020110000006D0300006D03000008B500F09BFD00F0ABF90000F8B572B680220021D2004A4800F00FFF8023DA004848002100F009FF0023181C4649FF259C
:400040005C584700261CAE431031E2B2351CC919002A07D00E784F787619013A3770D2B20231F5E7E4B204330019102BE6D1C0233A4D3B4F9904802499263A483A4B29609C
:400080003E60E103394E046040251960C0273848384935607C03384B384E046031250A6002221A609927356035488021354D3C040B06354E046080272B6034483449354B56
:4000C0003460354DBC05046019602E78062732432A702A78314C3A432A7020688021CB0203432F4D2F4E236028782F4F31783A78172A05D92D4B7878B978033F9F42F6D161
:400100002B4D2C4E2C4F19222860316005203A6000F0DEFA29482A4B01780520196000F00BFB284E2568284A2E4028482660202710241460264D0760264E274F8021274CE4
:40014000274A28480B062B60336014600760F8BD00300F4000400F40680E0000040001401000014000000440080004400001044008010440080304400004044008040440BC
:4001800000500F4004500F4010500F4018500F40100001002001054000700F4000010B40CCF1FF0FCDF1FF0FC9F1FF0FBDF1FF0F1CFF0B4020FF0B402CFF0B40E5F1FF0FD0
:4001C00028FF0B40FFFFFBFF080202402002024008010B4004010B40AF04008010000080000002404000024010B5064C2378002B07D10548002802D0044800E000BF0121B1
:40020000217010BDF000002000000000640E000008B5084B002B03D00748084900E000BF07480168002903D0064A002A00D0904708BDC04600000000640E0000F40000206B
:40024000D00000200000000010B562B600F0E2FC00280ED16524012000F058FA00F0DAFC002806D1013CE4B2002CF4D1034B40221A6000F0C1FC00F03BFCFEE7C0000020A4
:4002800008B500F0CDF800F005F900F06DF908BD70B5054B0D1C161C0024C9B21C8000F057F93580201C70BD0C010020F0B50A275F4387B002900591161C00252A4CBD428A
:4002C00019DA00F0D5F880B220802388002B0CD00220278800F01AFA00F0CAF881B221802288BA42F4D8002706E00120013500F00DFAADB2E2E705270025358020880028A4
:400300002FD023883088019301994218059993B233808B4221D201982A1893B2049304998D4209D002994819039000F087F8039A01351070ADB2F2E772B62088019A831AF0
:4003400099B2218062B602984219013A1378172BD4D0052000F0DAF9D0E7308000F09AF80527381C07B0F0BD0C01002000B5FEE770B50F490F4A01394B1C14D0506895684C
:400380001468031C1E1AAE4202D040CC40C3F9E7D0681D1C5C1B844202D0002640C3F9E710320139E8E700F021FDFFF74DFFFEE701000000B80E000008B500239A00032B41
:4003C00002D80C48815800E00B490C4801338150302BF3D1FFF722FE09490A4B086800221A60002800D1086080230122D9050A6008BDC046000000006D03000000000020B7
:40040000C0000020C800002008B5044B8022196810060843186000F049F908BD0000064008B5054B1A78002A03D10120187000F0BDF8FFF7E9FF08BD10010020094B00B5E7
:400440001968094B1A6891420AD019684A1C4039481E8141484205490240885C1A6000E0002000BDAC0100202401002068010020064B074A1B68116800B58B4202D31268B1
:40048000981A02E010684133181A00BDAC010020240100200C4A0D4B002130B5106811601D68802464022C431C601D68084C2C401C60084B084C1D68084B25601970084D01
:4004C00008492960106030BDC80F064004030640FFFFFEFF24010020AC010020A9010020C00F0640ED0F0000124910B50A68531C3F3A541EA241544223400F4A1468A342F1
:40050000FBD00C681268944208D10C4C0F2224682240082A02D00A4A10600AE0094C02222260094CC0B2E0540B60084B19680A431A6010BD200100201C0100200802064093
:4005400040020640800F064028010020880F064038B5041C4518AC4204D02078FFF7C4FF0134F8E738BD00000B4A0023116810B513600A4B80201C684002204318601C682F
:40058000074820401860074B07481C68022399430460116010BDC046880F064004020640FFFFFEFF1C010020200100201B4A1C4B1C4810B51C4900241A60046001221B4BBF
:4005C0001B480A601B490360072008601A491B4804600A601A4A13601A4B1C6000F06EF8194800F049F8032000F04CF817481849184A194B04600C60146018491C60184A44
:40060000184B04200860146017481C601749184A184B04600C7014601C6010BD0B000002000006404000064048000640070000800003064004030640440006401003064053
:400640000002064004020640250C0000880E0640C80E0640480F0640080F0640C80F0640880F0640AC01002024010020A9010020200100201C010020014B98667047C04668
:400680000000002038B5041C00F02BF8054B06491D68A2052C1C0C4014431C6000F025F838BDC04608E400E0FFFF3FFF8022024BD00018607047C04600E100E08022024B14
:4006C000D00018607047C04680E100E0000000000230800804D0C0460138FDD1C046C0467047EFF3108072B6704780F31088704701BE7047034B04491A6890B208431860AB
:400700007047C0460CED00E00400FA0510B5041C8022074B1002844205D91868FFF7D8FF04496418F4E758686043FFF7D1FF10BDD40000200080FFFF08B5034B197A48430F
:40074000FFF7C6FF08BDC046D40000200047000038B5041C013806280BD800F03DFB2406260F11080400174820E0174B09E0174B07E00020FFF7BCFF002302E0144B00E0B5
:40078000144B5A78187800021043022C04D0032C07D0012C15D104E0040A0302234398B20FE000BA0DE00C4800E00C48C578817842780378180628430D0228431104084375
:4007C000E3E738BDD87F0000C57F0000D47F0000D27F0000D67F0000C17F0000C97F000038B50220FFF7B4FF051C0320FFF7B0FF6C1CE1010C180220FFF7AAFF0023421CAD
:40080000D201191CA24209D21078451EEDB2FD2D00D80121C318DBB20132F3E705485B420578DCB2AC4201D0062002E00029FBD0002038BDC07F0000F0B5A34CA544FFF757
:400840001FFD62B600250095002603AF962124A849003A1CFF23FFF729FD0028F5D139880423062967D924AA1478012C63D193236B4492221F786A4413783C021C4324AFF9
:400880003A19177953790197E71D9C4603238F4251D89179042317294DD1E3189BB2002B08D0BAAA8949D7187A181778013BC01980B2F3E762464042019F110282B239431D
:4008C0000823914237D168E0342900D09AE0012D00D0F6E0032C00D0F3E06FA80021802200F0B3FA80266FA9881935192639E21EFF39AEB200F0A0FA832E00D0DAE0BC7948
:400900007979009F26020E43002F0AD1391C802204A800F09AFAFF2004A900F0F3F901200090301C6FA900F0EDF90125002800D1C3E000260A2300216846913001270370A9
:400940006A4624AC6B4692330E32277000200F1D197058701180BBB25C4FBAACE418E4192778013BC0199BB280B2002BF4D14442A0B2BAAF564C7B181F19564C38701F19B2
:40098000554C000A38701B19172707311F7089B224A89623FFF77CFC57E724AF79783B79081C31380A2801D90523C4E700F00AFA0611FC8C2FFC32428C507800012D00D0D7
:4009C0007FE0002C7DD1FFF70BFF434243413B7163E0012D75D1012C73D1002B71D13F4A25A8146821889524CF0907703A0A97209627FF216C446F446844397022700370BC
:400A0000042199E7012D5CD1022C5AD96BE7012D57D119E7012D54D19620371943009F424DD86FAA901925A9221C00F005FABEB2002380E7002C44D104AB294A191CA0CA52
:400A4000A0C125AF21CB21C708210125231C73E7012D36D1032C34D196226A449521177869440C7838021A0220438718FF01002280210139CC5D1219D2B20029F9D1002BF5
:400A800008D1FF2806D1174B174918780C78171A3A1BD2B2504224AB1871002301214BE7FFF79EFE002802D1104880240460FFF721FE06E00125002601E0061CB8E7032322
:400AC00039E7042337E7C04614FDFFFFA7FDFFFFACFDFFFFADFDFFFFAEFDFFFFE40000208C0E0000D07F0000D17F0000C0000020144810B50368002219680B1C013BBF2B49
:400B000003D01C781219D2B2F8E740680478A21AD3B2A34201D1002902D10020FFF7E8FDFFF75EFE084C2168221C402901D0002803D000231360FFF77FFE80202060FFF7EC
:400B4000D9FD10BDE4000020C000002008B50B4B10201A680A49024000D10A600B68802B0BD1002201200A60FFF7F2FD002804D00120FFF7EDFDFFF7E9FD08BD00030B40E1
:400B8000C00000200D4B8422D004186019688022500208431860196809481960C3239A000260084B084A09480021196002600849084B09481C2219600260704700010540A9
:400BC00024010540380105401027000014010540881300000C0105402801054008B5FFF780FD044B01211A680A431A60FFF77DFD08BDC0460000054010B5054C2378002BDB
:400C000003D1FFF7BFFF01202070FFF7E7FF10BD18010020024B18680106C80F7047C04604000440264B10B51868002800D0804724490A6852071DD5234C23681A0716D049
:400C4000224B234A186811684B1C40394C1EA1414C42204923400C68A34203D11E4B20221A70E9E71D49C0B2C8541360E4E71C49042008601B4A1468A20720D51A4B0F21B2
:400C800018680140082917D0184A194B1468186884420CD01C68621C3F3C601E8441614214480A40845C14490C601A60E6E7134C022122688A432260114B0220186010BDE0
:400CC00014010020CC0F06400803064040030640AC01002024010020A901002068010020C00F06408C0F064008020640200100201C0100202801002040020640880F0640ED
:400D0000800F0640F0B50023A7B0071C0193FF2845D8994243D0244A244C04AE26607F25049206A88022756000F086F8204D214929602B68002BFCDB2068A0210290029A87
:400D40000B069A4201D1002004E00298020F0F2A02D10920019003E021680B0F0A2BFBD1019A002A1DD12660134E3F0437430497FFF7B7FC1149124A0B6803932A602F683D
:400D8000002FFCDB039DA0260D60FFF7AEFC2468310602940298884203D0029800E001200190019827B0F0BDB6D70000080000400400004004000080B6D8000008010B4062
:400DC0000500008002B4714649084900095649008E4402BC7047C04602B4714649084900095C49008E4402BC7047C04670B50E4B0E4D0024E81A85101E1CAC4204D0A1003F
:400E0000725890470134F8E700F044F80849094A0E1C541AA5100024AC4204D0A300F05880470134F8E770BDA00E0000A00E0000A00E0000A80E000010B50023934203D0B7
:400E4000CC5CC4540133F9E710BD00B58218031C934202D019700133FAE700BDE80E0000050000000000000001330F4003410F4004430F4002600F40E61062048E04D84083
:400E800018808C40C608E608020111019311C80411140101F8B5C046F8BC08BC9E46704711020000B9030000F8B5C046F8BC08BC9E467047E9010000C80E0000D00000205B
:400EC00020000000C0000000000000000000E02EC05D00001800000000366E015C0E0000600E00000000000000000000000000000000000000000000000000000000000052
:400F000000100020110F0000811C0000811C000080B500AF024B83F3088800F0DDFEC0460010002080B584B000AF021CFB1D1A70204A3B1C0B3312781A701F4A3B1C0A3307
:400F400012781A700423013BFB6018E01B4B1868391C0B31FA68131C5B009B18C3185B780B70164B1868391C0A31FA68131C5B009B18C3189B780B70FB68013BFB60FB6892
:400F8000002B0ADB0D4B1968FA68131C5B009B185B5CFA1D12789A42D8D9094B3A1C0B3212781A60074B3A1C0A3212781A60BD4604B080BDCCF1FF0FCDF1FF0FD80000206E
:400FC0001CFF0B4020FF0B4080B500AF254B254A12688021C9020A431A601820FFF7A2FF214B19221A60052001F09EF81F4B204A1278D2B21A60052001F052F9194B194A91
:4010000011681C4A0A401A601B4B1C4A1A601C4B20221A601B4B10221A601B4B11221A601A4B21221A601A4B21221A60194B21221A60194B30221A60184B822212061A6051
:40104000174B802212061A60164B174A1A60174B174A1A60174B164A1A60174B144A1A60BD4680BD00010B402CFF0B4028FF0B40E5F1FF0FFFFFFBFF04010B4006000080C5
:40108000080202400C0202401C0202402002024024020240280202402C02024008010B400000024040000240100000808000024017000080040002404400024080B582B058
:4010C00000AF72B6FB1D00221A7023E0FB1D1A78131C5B009B185B004D4A9B183B603B681A78597809020A43997809040A43DB781B0613431A1C3B6819795B791B020B43EE
:401100009BB2101C191C00F06DFEFB1D1A78FB1D01321A70FB1D1B78012BD7D93D4A3E4B101C191C00F06EFE3C4B3D4A1A603D4BCE2292001A603C4B3C4A1A603C4B9922FE
:401140001A603C4B20221A603B4B3C4A1A603C4B20221A603B4B07221A603B4BDB2252001A603A4B03221A60394B03221A60394B80221A60384BD82212011A60374B80225C
:401180001A60374B02221A60364B31221A60364B02221A60354B992212041A60344BA02212031A60334B992212041A60324B902212031A60314B992212041A60304B992209
:4011C00012041A602F4B802212061A602E4B2E4A1278D2B202210A43D2B21A702B4B2B4A1278D2B20C218A43D2B204210A43D2B21A70254B244A1278D2B216210A43D2B249
:401200001A70FFF7E1FE00F03DFEBD4602B080BD8C2E0000982E0000B02E0000000001400000FFFF040001400C00014000EE0060100001400000044008000440891D270007
:40124000180004400001044008010440000204401802044000030440080304401803044000040440080404401804044000500F4004500F4010500F4018500F4020500F4088
:4012800030500F4038500F4000700F4001700F4010B5064C2378002B07D1054B002B02D0044800E000BF0123237010BD5001002000000000802E000008B5084B002B03D06B
:4012C0000748084900E000BF07480368002B03D0064B002B00D0984708BDC04600000000802E000054010020D00000200000000080B582B000AF00F0FFFE031C7B60054BA1
:4013000001221A707B68181C00F000FFBD4602B080BDC0461002002080B586B000AF786000237B617B68181C01F002FD031C013B3B611BE07B697A68D2183B1C0F33127813
:401340001A707B697A68D3183A6979688A1812781A703B697A68D3183A1C0F3212781A707B6901337B613B69013B3B617A693B699A42DFDBBD4606B080BDC04690B585B0D9
:4013800000AF786039607B68BB60BB68002B02DA7B685B427B600023FB60FB685A1CFA603A68D4187B68181C0A2101F053FC0B1CDBB23033DBB223707B68181C0A2101F05F
:4013C000F3FB031C7B607B68002BE6DCBB68002B06DAFB685A1CFA603A68D3182D221A70FB683A68D31800221A703B68181CFFF793FFBD4605B090BD80B584B000AF78607E
:401400007B68181C01F02CF9031C1A1C3B1C0E331A803B1C0E331B88181CBD4604B080BD80B582B000AFFB1D00221A70FB1D00221A700FE0FB1D1A78FB1D1978094B490018
:40144000CB5A99B2084B5200D152FB1D1A78FB1D01321A70FB1D1B78092BEBD9BD4602B080BDC04684010020C801002080B586B000AF78600A1CFB1C1A7000233B613B1CBD
:401480000E3300221A803B1C173300221A7010E03B1C17331B785B007A68D3181B883A69D3183B613B1C17331A783B1C173301321A703A1C1732FB1C12781B789A42E7D3CF
:4014C000FB1C1B783869191C01F020FB031C1A1C3B1C0E331A803B1C0E331B88181CBD4606B080BD90B589B000AF3C1C1C340120FFF782FF031C23808D4B1B78012B07D0D7
:4015000000DCE3E0022B1FD0032B00D1CDE0DEE03B1C1F3300221A700DE03B1C1F331A78844B52008449D1523B1C1F331A783B1C1F3301321A703B1C1F331B78132BECD918
:401540007E4B00221A70C2E07D4B1B8A1A027C4B5B8A134300D501335B109AB23B1C1A33754952181A80754B1B781A1C714B5200391C1A310988D152704B1B78122B06D84F
:401580006E4B1B780133DAB26C4B1A7002E06B4B00221A703C1C1834664B181C1421FFF765FF031C23803B1C18331A883B1D101C191CFFF7E3FE3B1D181C00F005FF614BC0
:4015C000181C00F001FF3B1C1C331B88642B23D83B1C18331A885C4B9A4204D8564B181C01F096F95AE03B1C18331A88FA23DB009A420CD83B1C18331A88544B9A4206D928
:401600003B1C18331B88181C01F082F946E04A4B181C01F07DF941E03B1C1C331A884B4B9A4223D93B1C18331A88434B9A4204D9414B181C01F06CF930E03B1C18331A88A3
:40164000FA23DB009A420CD83B1C18331A883F4B9A4206D93B1C18331B88181C01F058F91CE0354B181C01F053F917E03B1C18331A88FA23DB009A420CD83B1C18331A884A
:40168000324B9A4206D93B1C18331B88181C01F03FF903E0284B181C01F03AF92C4B1B780133DAB22A4B1A7011E03B1C1C331B88642B05D93B1C1C331A88244B9A4203D9C3
:4016C0001D4B181C01F024F9C04600E0C046184B1B78012B0CD002DC002B05D024E0022B0AD0032B14D01FE0114B01221A701BE00F4B03221A7017E0164B1B78002B03D066
:401700000B4B02221A700FE0094B03221A700BE0104B1B78002B03D0054B02221A7002E0034B03221A70C046BD4609B090BDC046110200209C010020DC050000C501002033
:40174000C8010020842E0000DB050000E7030000120200200F02002090B583B000AF3C1D0020FFF749FE031C23807A4B1B78012B07D000DCBCE0022B1AD0032B00D1A8E08F
:40178000B7E0FB1D00221A700AE0FB1D1A78724B52007249D152FB1D1A78FB1D01321A70FB1D1B78132BF0D96D4B00221A70A0E06C4B9B891A026B4BDB89134300D50133C8
:4017C0005B109AB2BB1C654952181A80644B1B781A1C614B5200B91C0988D152604B1B78122B06D85E4B1B780133DAB25C4B1A7002E05B4B00221A703C1C574B181C14218D
:40180000FFF734FE031C23803B1D1B88002B1FD13B1C1A88544B9A4204D8504B181C01F027F94FE03B1C1A88FA23DB009A420AD83B1C1A884D4B9A4205D93B1C1B88181C21
:4018400001F016F93EE0454B181C01F011F939E03B1D1A88464B9A421FD93B1C1A883F4B9A4204D93D4B181C01F002F92AE03B1C1A88FA23DB009A420AD83B1C1A883B4BF7
:401880009A4205D93B1C1B88181C01F0F1F819E0324B181C01F0ECF814E03B1C1A88FA23DB009A420AD83B1C1A88304B9A4205D93B1C1B88181C01F0DBF803E0274B181C9B
:4018C00001F0D6F82B4B1B780133DAB2294B1A700FE03B1D1B88002B04D03B1D1A88244B9A4204D91D4B181C01F0C2F801E000E0C046184B1B78012B0CD002DC002B05D06D
:4019000024E0022B0AD0032B14D01FE0114B01221A701BE00F4B03221A7017E0164B1B78002B03D00B4B02221A700FE0094B03221A700BE0104B1B78002B03D0054B022254
:401940001A7002E0034B03221A70C046BD4603B090BDC0460D02002068020020DC050000C4010020C8010020DB050000E7030000FFF90000120200200F02002090B583B0E8
:4019800000AF4C4B1B78012B03D061DD022B17D05FE0FB1D00221A700AE0FB1D1A78464B52004649D152FB1D1A78FB1D01321A70FB1D1B78132BF0D9414B00221A7048E040
:4019C000404B1B891A023F4B5B89134300D501335B109AB23B1D394952181A80384B1B781A1C354B5200391D0988D152344B1B78122B06D8324B1B780133DAB2304B1A7010
:401A000002E02F4B00221A70BC1C2B4B181C1421FFF72CFD031C2380BB1C1A88FA23DB009A420AD8BB1C1A88274B9A4205D9BB1C1B88181C00F0BCFE03E0204B181C00F068
:401A4000B7FE224B1B780133DAB2204B1A7000E0C046184B1B78012B0CD002DC002B05D024E0022B0AD0032B14D01FE0114B01221A701BE00F4B03221A7017E0144B1B7828
:401A8000002B03D00B4B02221A700FE0094B03221A700BE00E4B1B78002B03D0054B02221A7002E0034B03221A70C046BD4603B090BDC046C601002040020020DC05000047
:401AC000C7010020C8010020E7030000120200200F02002080B586B000AF62B60023FB6000F012FA00F002FA00F004FC00F092FF00F030FE00F0DEFE584B181C00F008FF05
:401B0000564B181C00F0B4FF554B181C00F0A4FB00F09AFA00F072FC00F094FD514B181C00F000FA3B1C181C01F00AF9031C181C01F0D0F84C4B1B78002B07D0FFF770FC94
:401B40004A4B01221A704A4B00221A70FFF716FFFFF702FEFFF7C6FC454B1B78032B03D1424B00221A70FFE7C046424B1B78002BFBD0404B00221A703B1C17331A783B1C08
:401B8000173301321A703B1C17331B78142B63D1022000F065FD031C1A1C3B1C0A331A803B1C0833FA2292001A80BB1D324A1A8000233B6145E03B1C0A331A88FA235B0026
:401BC0009A4215D93B1C083300229B5E1B1299B22A4B3A695200D1523B695A1C3B1C08331988FF230B4099B2244B5200D15225E03B1C0A331A88F423FF339A4213D8BB1D5D
:401C000000229B5E1B1299B21C4B3A695200D1523B695A1CBB1D1988FF230B4099B2174B5200D1520AE0154B3A6952000021D1523B695A1C114B52000021D1523B69023308
:401C40003B613B69092BB6DD3B1C173300221A70054B01221A706DE76CE7C046DC05000010270000F1120000900200200F020020120200201002002018FCFFFF840100204B
:401C800080B500AFFEE7C04680B584B000AF78600F4B1A687B68D3181A1C0E4BD31A802B09DC0B4B1B68FB60094B1A687B68D218074B1A6007E000F0D9FF031C0C221A6096
:401CC00001235B42FB60FB68181CBD4604B080BDD4000020B002002080B586B000AF224B7B61224B3B61204B7B6135E03B691B68FB603B695B68BB603B699B683B60002346
:401D00007B600CE0FB681A68BB681A60BB680433BB60FB680433FB607B6804337B607A683B689A42EED13B69DB683B6000237B6008E0BB6800221A60BB680433BB607B685C
:401D400004337B607A683B689A42F2D13B6910333B617B69013B7B617B69002BC6D100F08BFFFFF7B7FEFEE701000000802F000080B582B000AF00237B600FE07B68032B3A
:401D800004D8134B7A689200D35800E0114B124A796889008B507B6801337B607B682F2BECD9FFF78BF90D4B00221A600C4B1B68002B02D10A4B00221A608023DB0580221D
:401DC000D205126801210A431A60BD4602B080BD000F0000811C000000000020C8000020C000002080B582B000AF786039607A683B68101C00211A1C00F064FFBD4602B08C
:401E000080BDC04680B586B000AF7860396000233B6100237B612EE07B699B007A68D3181B68BB603B1C0F33BA681A70BB68FF229343BB6017E03B695B003A68D3181B788E
:401E40001A1CBB68D3183A69520039688A1852781A703B6901333B613B1C0F331A783B1C0F33013A1A703B1C0F331B78002BE2D17B6901337B617B69052BCDD9BD4606B024
:401E800080BDC04680B500AF054B064A1A60064B044A1A60012000F009F8BD4680BDC04600031A400300040040031A4080B584B000AF021CFB1D1A700B4B1B68FB60FB1D4B
:401EC0001B78002B05D0FB68802212061343FB6003E0FB685B005B08FB60034BFA681A60BD4604B080BDC04680031A4080B500AF044B044A1268802109060A431A60BD46AC
:401F000080BDC0468000024080B500AF044B044A1268802109060A431A60BD4680BDC0464400024080B582B000AF786000F04AF87B68181C00F008F8032000F013F800F029
:401F400037F8BD4602B080BD80B582B000AF7860034A8C237968D150BD4602B080BDC0460000002090B585B000AF021CFB1D1A701E23FB603C1C0B3400F0E0F8031C2370A6
:401F80000A4B0A4A126892009108FA1D1078FA68041C9440221C0A431A603B1C0B331B78181C00F0CFF8BD4605B090BD10E400E080B500AF024B802212031A60BD4680BD4B
:401FC00000E100E080B500AF024B802212031A60BD4680BD80E100E080B500AF094B802292041A60084B0C221A60012000F078F8064B181C00F048F8002000F037F8BD46E0
:4020000080BDC046C0010540E40105401027000090B583B000AFFC1D00F090F8031C2370084B084A126808210A431A60FB1D1B78181C00F087F80820182100F033F8BD46B0
:4020400003B090BD0000054080B500AF064B1B78002B04D1FFF7C0FF034B01221A70FFF7D7FFBD4680BDC0466C01002080B582B000AF7860034B7A681204120C1A60BD4635
:4020800002B080BDC801054080B582B000AF7860034B7A681204120C1A60BD4602B080BDD401054090B585B000AF786039603C1C0F3400F043F8031C2370084B3A68796863
:4020C000081C9040021C1A603B1C0F331B78181C00F038F8BD4605B090BDC0460800054080B582B000AF7860024B7A681A60BD4602B080BDF801054080B500AF024B1B6801
:40210000181CBD4680BDC046FC01054080B582B000AF7860024B7A681A60BD4602B080BDF0010540000000000230800804D0C0460138FDD1C046C046C0467047EFF310804E
:4021400072B6704780F310887047C046C046C04680B584B000AF021C3960FB1D1A7080239B05FB60FB1D1B781F2B02D9002000F069F8FB1D1B7810339B00FA68D3181B6803
:40218000BB60FB1D1B7810339B00FA68D3183A681A60BB68181CBD4604B080BD90B587B000AF0A1CFB1D011C1970BB1D1A70BB1D1B78032B02D9002000F044F8FB1D1B78EB
:4021C0001F2B02D9002000F03DF8FB1D1A7803231340DB0006337B613C1C1334FFF7AEFF031C2370FB1D1B789B08DBB29B0014495B181B68FB607B690322111C99400B1C14
:40220000DA43FB681340FB60BB1D1A787B69111C99400B1CFA681343FB60FB1D1B789B08DBB29B00064A9B18FA681A603B1C13331B78181CFFF786FFBD4607B090BDC046A1
:4022400000E400E080B582B000AF021CFB1D1A7001BEBD4602B080BD80B582B000AF786008E00C4B1B68181CFFF75EFF7B680A4A9B187B607A6880231B029A42F1D8074B7E
:402280001B687A685343181CFFF74EFFBD4602B080BDC046E80000200080FFFFE000002080B582B000AF021CBB1D1A80BB1D1B88044A12785343181CFFF736FFBD4602B08B
:4022C00080BDC046E400002080B500AF00F028F8BD4680BD80B500AF054B054A1268802109060A431A6000F017F8BD4680BDC0460000064080B500AF064B1B78002B04D19C
:40230000FFF7E2FF034B01221A70FFF7E3FFBD4680BDC0467001002080B500AFBD4680BD80B500AF174B184A1A60184B00221A60174B01221A60174B174A1A60174B072210
:402340001A60174B00221A60164B01221A60164B114A1A60154B00221A60154B00221A60144B00221A60144B00221A60134B00221A60134B00221A60124B00221A60BD46D3
:4023800080BDC046000006400B000002400006404800064000030640070000800403064010030640440006400002064004020640880E0640C80E0640480F0640080F0640ED
:4023C000C80F0640880F064080B584B000AF78600023FB6009E07A68FB68D3181B78181C00F07EFBFB680133FB607A68FB68D3181B78002BEFD1BD4604B080BD80B500AFB4
:40240000064B1B78002B04D100F00AF8034B01221A7000F003F9BD4680BDC0467801002090B585B000AF0E200321FFF7B7FE604B0E20191CFFF78CFE5E4B07221A605E4B57
:402440005E4A1A605E4B5F4A1A605F4B5F4A1A605F4B8022D2051A605E4B5F4A1A605F4B5D4A1A605E4B5E4A1268802149020A431A605C4B5B4A1268802149020A431A6076
:40248000594B00221A60594B00221A60584B01221A60584B02221A60574B1B687B607A68564B13407B607B68012213437B60524B7A681A600023FB6073E0514BFA689200D9
:4024C000D258DC239B0113407B604E4AFB68D3181B787A6813437B60FB689B004A4A9B187A681A60464BFA689200D258012313400AD03D4B3C4A1168FA680120041C9440BE
:40250000221C92B20A431A603D4BFA689200D258022313400AD0354B344A1168FA680120041C9440221C92B20A431A60344BFA689200D25880239B00134003D080235B0024
:40254000BB6002E080235B01BB602D4BFA689200D25880235B00134005D12C4BFA6852000021D15209E0BB68002B00DA01335B1099B2264BFA685200D152BB68244A5343AE
:402580008022D2009B18002B01DA224C1B19DB129BB219B2204BFA689200D150FB680133FB60FB68022B88D9BD4605B090BDC046A526000020001A4000001A4040200013C7
:4025C00004001A408400008018001A400000FF071C001A4010001A400200020014001A4000031A4040031A4028021A4038021A4018021A40000F1A4030001A40FFFFFFDF5A
:40260000E82E0000F42E000080001A40A002002010270000FF0700009402002080B500AF074B1B68002B09DB054B054A1268802109060A431A600A20FFF732FEBD4680BDEB
:4026400000001A4080B500AF044B044A1268802149020A431A60BD4680BDC04604001A4080B584B000AF78607B68022B02D90020FFF7E8FD7B68022B08D87B689B00084A18
:402680009B181B681B041B0CFB6001E00023FB60FB689BB21BB2181CBD4604B080BDC04680011A4080B582B000AF044B1B687B60024B7A681A60BD4602B080BD10021A4094
:4026C00080B500AF104B8022D2041A600E4B0E4A12681A60002000F04FF80B4B0A4A12681A600A4B0C221A60012000F08DF8084B31221A60074B181C00F04CF8064B181C1D
:4027000000F056F8BD4680BD400105406401054068010540204E0000DC05000090B583B000AFFC1DFFF70AFD031C2370084B084A126802210A431A60FB1D1B78181CFFF721
:4027400001FD0220182100F041F8BD4603B090BD0000054080B500AF064B1B78002B04D1FFF7AEFF034B01221A70FFF7D7FFBD4680BDC0467901002080B582B000AF78608F
:40278000034B7A681204120C1A60BD4602B080BD4801054080B582B000AF7860034B7A681204120C1A60BD4602B080BD5401054080B582B000AF7860034B7A681204120C11
:4027C0001A60BD4602B080BD4C01054090B585B000AF786039603C1C0F34FFF7AFFC031C2370084B3A687968081C9040021C1A603B1C0F331B78181CFFF7A4FCBD4605B043
:4028000090BDC0460800054080B582B000AF7860024B7A681A60BD4602B080BD7801054080B500AF104B8022D2041A600E4B0E4A12681A60002000F04FF80B4B0A4A126860
:402840001A600A4B0C221A60012000F08DF8084B31221A60074B181C00F04CF8064B181C00F056F8BD4680BD80010540A4010540A8010540204E0000DC05000090B583B009
:4028800000AFFC1DFFF75AFC031C2370084B084A126804210A431A60FB1D1B78181CFFF751FC0420182100F041F8BD4603B090BD0000054080B500AF064B1B78002B04D18F
:4028C000FFF7AEFF034B01221A70FFF7D7FFBD4680BDC0467A01002080B582B000AF7860034B7A681204120C1A60BD4602B080BD8801054080B582B000AF7860034B7A68E3
:402900001204120C1A60BD4602B080BD9401054080B582B000AF7860034B7A681204120C1A60BD4602B080BD8C01054090B585B000AF786039603C1C0F34FFF7FFFB031C49
:402940002370084B3A687968081C9040021C1A603B1C0F331B78181CFFF7F4FBBD4605B090BDC0460800054080B582B000AF7860024B7A681A60BD4602B080BDB80105403E
:4029800080B500AF104B8022D2041A600E4B0E4A12681A60002000F04FF80B4B0A4A12681A600A4B0C221A60012000F08DF8084B31221A60074B181C00F04CF8064B181C5A
:4029C00000F056F8BD4680BD000105402401054028010540204E0000DC05000090B583B000AFFC1DFFF7AAFB031C2370084B084A126801210A431A60FB1D1B78181CFFF782
:402A0000A1FB0120182100F041F8BD4603B090BD0000054080B500AF064B1B78002B04D1FFF7AEFF034B01221A70FFF7D7FFBD4680BDC0467B01002080B582B000AF78602D
:402A4000034B7A681204120C1A60BD4602B080BD0801054080B582B000AF7860034B7A681204120C1A60BD4602B080BD1401054080B582B000AF7860034B7A681204120CCE
:402A80001A60BD4602B080BD0C01054090B585B000AF786039603C1C0F34FFF74FFB031C2370084B3A687968081C9040021C1A603B1C0F331B78181CFFF744FBBD4605B082
:402AC00090BDC0460800054080B582B000AF7860024B7A681A60BD4602B080BD3801054080B582B000AF7860C046064B1A680F231340082BF9D0044B7A681A60BD4602B087
:402B000080BDC0460802064040020640002934D00123002210B488422CD301242407A14204D2814202D209011B01F8E7E400A14204D2814202D249005B00F8E7884201D380
:402B4000401A1A434C08A04202D3001B5C0822438C08A04202D3001B9C082243CC08A04202D3001BDC082243002803D01B0901D00909E3E7101C10BC7047002801D00020BD
:402B8000C04307B4024802A14018029003BDC046D90000000029F0D003B5FFF7B9FF0EBC4243891A1847C046002941D010B4041C4C40A44601230022002900D549420028B0
:402BC00000D5404288422CD301242407A14204D2814202D209011B01F8E7E400A14204D2814202D249005B00F8E7884201D3401A1A434C08A04202D3001B5C0822438C0881
:402C0000A04202D3001B9C082243CC08A04202D3001BDC082243002803D01B0901D00909E3E7101C6446002C00D5404210BC7047002806D003DB0020C043400801E080205A
:402C4000000607B4024802A14018029003BDC046190000000029EBD003B5FFF7A7FF0EBC4243891A1847C0467047C046014B18687047C0464C01002070B50E4B0E4D00249E
:402C8000ED1AAD101E1CAC4204D0A300F35898470134F8E700F062F9084B094D0024ED1AAD101E1CAC4204D0A300F35898470134F8E770BD682F0000682F0000682F0000C8
:402CC000702F0000031C8218934202D019700133FAE7704738B5104B051C1C68A36B002B15D1182000F054F80C4BA06303800C4B43800C4B83800C4BC3800C4B0381052312
:402D000043810B2383810122002302614361A36B00221D615A6138BD4C0100200E330000CDABFFFF341200006DE6FFFFECDEFFFF0023C25C0133002AFBD1581E70470000D7
:402D400013B5094B041C69461868002200F00EF8002805DB002C01D0009B2360009801E00120404216BDC0464C01002038B5074C0023051C081C111C236000F079F8431C33
:402D800003D12368002B00D02B6038BDA802002008B5034B011C186800F004F808BDC0464C01002070B50323CD1C9D430835061C0C2D01D20C2501E0002D3FDB8D423DD3EC
:402DC000204B1C681A1C211C002913D00868431B0DD40B2B02D90B60CC181EE08C4202D1636813601AE0486860600C1C16E00C1C4968E9E7144C2068002803D1301C00F028
:402E000025F82060301C291C00F020F8431C15D0C41C03239C4384420AD12560201C0B300722231D9043C31A0BD05A42E25008E0211A301C00F00AF80130EED10C233360C1
:402E4000002070BD800100207C01002038B5074C0023051C081C2360FEF716FF431C03D12368002B00D02B6038BDC046A8020020024B5822012040421A607047A802002024
:402E8000000000000D0A00000400000000300F40000400400F40000404300F4001310F4003330F4007410F400A430F4002600F4036013E4058045F011801B401E204E60267
:402EC0005208581082088410D4A0E220E6401B081D01610281018708A102B502C60CD802EC08020111010000020000000200000000000000000172004300000000000000D8
:402F00000000000000000000000000000000000000000000000000000000000000000000000000000000000000000000000000000000000000000000000000000000000091
:402F400000000000000000000000000000000000000000000000000000000000F8B5C046F8BC08BC9E467047B9120000711D0000F8B5C046F8BC08BC9E46704791120000C9
:402F8000902F0000D0000020800000006001000000000000B0020020C0F1FF0F00366E01C05D0000180000000000E02E00000000FC2E00001C2F00003C2F00000000000028
:402FC000000000000000000000000000F82E0000000000000000000000000000000000000000000000000000000000000000000000000000000000000000000000000000AB
:40300000000000000000000000000000EC00002000000000000000000000000000000000000000000000000000000000000000000000000000000000000000000000000084
:403040000000000000000000000000000000000000000000000000000000000000000000000000000000000000000000000000000000000000000000000000000000000050
:403080000000000000000000000000000000000000000000000000000000000000000000000000000000000000000000000000000000000000000000000000000000000010
:4030C00000000000000000000000000000000000000000000000000000000000000000000000000000000000000000000000000000000000000000000000000000000000D0
:40310000000000000000000000000000000000000000000000000000000000000000000000000000000000000000000000000000000000000000000000000000000000008F
:407FC00086110F00001D000000802100000000000000010000000000000000000000000000000000000000000000000000000000000000000000000000000000000000001C
:0200000490303A
:0200000046D1E7
:0200000490402A
:20000000FFFF010000000000000000000000000000000000000000000000000000000000E1
:0200000490501A
:0C000000000204C81193110004D75864DA
:0200000490600A
:0100000001FE
:00000001FF