:400000000010002011000000811C0000811C000080B500AF01F038FE80B584B000AF021CFB1D1A70204A3B1C0B3312781A701F4A3B1C0A3312781A700423013BFB6018E088
:400040001B4B1868391C0B31FA68131C5B009B18C3185B780B70164B1868391C0A31FA68131C5B009B18C3189B780B70FB68013BFB60FB68002B0ADB0D4B1968FA68131CF1
:400080005B009B185B5CFA1D12789A42D8D9094B3A1C0B3212781A60074B3A1C0A3212781A60BD4604B080BDCCF1FF0FCDF1FF0FCC0000201CFF0B4020FF0B4080B500AF4F
:4000C000294B294A12688021C9020A431A601820FFF7A2FF254B19221A60052002F028F8234B244A1278D2B21A60052002F0DCF81D4B1D4A1168204A0A401A601F4B204AA8
:400100001A60204B30221A601F4B20221A601F4B21221A601E4B31221A601E4B31221A601D4B31221A601D4B11221A601C4B10221A601C4B31221A601B4B822212061A6028
:400140001A4B1B4A1A601B4B1B4A1A601B4B1A4A1A601B4B1B4A1A601B4B1A4A1A601B4B184A1A60BD4680BD00010B402CFF0B4028FF0B40E5F1FF0FFFFFFBFF04010B4047
:4001800006000080080202400C0202401C0202402002024024020240280202402C020240340202403C02024008010B40000002400B00008040000240100000808000024028
:4001C0000400024017000080440002408400024080B586B000AF72B63B1C173300221A7026E03B1C17331A78131C5B009B185B00794A9B183B613B691A78597809020A4305
:40020000997809040A43DB781B0613431A1C3B6919795B791B020B439BB2101C191C01F0B1FD3B1C17331A783B1C173301321A703B1C17331B78032BD3D93B1C173300222F
:400240001A7038E03B1C17331A78131C9B009B185B00624A9B18FB60FB681A78597809020A43997809040A43DB781B061343BB60FB681A79597909020A43997909040A431D
:40028000DB791B0613437B60BA1CFB68197A5B7A1B020B431380BB1C1B88B9687A68081C111C1A1C01F07EFD3B1C17331A783B1C173301321A703B1C17331B78012BC1D9FE
:4002C000474A484B101C191C01F07EFD464BA02212011A80454B01221A70454B454A1A60454BCE2292001A60444BC02292021A60434B444A1A60444B99221A60434B5022D2
:400300001A60434B434A1A60434B07221A60434B434A1A60434B1F221A60434BC022D2011A60424B0F221A60414B02221A60414B414A1A60414B02221A60414B02221A609B
:40034000404B31221A60404B02221A603F4B992212041A603E4BA02212031A603D4B902252051A603C4B992212041A603B4B842292031A603A4B992212041A60394BC022FF
:4003800092041A60384B992212041A60374BAA2212061A60364B364A1278D2B202210A43D2B21A70334B334A1278D2B20C218A43D2B204210A43D2B21A702D4B2C4A127873
:4003C000D2B216210A43D2B21A70FFF777FE01F03BFDBD4606B080BD98300000B0300000C4300000EC30000000600F4002600F400000014000000303040001400800014070
:400400000C00014099EE000010000140000004400800044089ED18000001044008010440B60118000002044008020440180204400003044008030440B19D240018030440BF
:4004400000040440080404401804044000500F4004500F4008500F4010500F4018500F4020500F4028500F4030500F4034500F4000700F4001700F4010B5064C2378002BB1
:4004800007D1054B002B02D0044800E000BF0123237010BDE0000020000000006030000008B5084B002B03D00748084900E000BF07480368002B03D0064B002B00D09847E8
:4004C00008BDC0460000000060300000E4000020C80000200000000080B582B000AF01F011FE031C7B60054B01221A707B68181C01F012FEBD4602B080BDC046580100201F
:4005000080B586B000AF78600A1CFB1C1A7000233B613B1C0E3300221A803B1C173300221A7010E03B1C17331B785B007A68D3181B883A69D3183B613B1C17331A783B1CFF
:40054000173301321A703A1C1732FB1C12781B789A42E7D3FB1C1B783869191C02F0F8FC031C1A1C3B1C0E331A803B1C0E331B88181CBD4606B080BD80B582B000AF0A1C7D
:40058000FB1D011C1970BB1D1A70FB1D1A78BB1D1B78013B9A4205DAFB1D1A78FB1D01321A7002E0FB1D00221A70FB1D1B78181CBD4602B080BDC04680B586B000AFF860A1
:4005C0007B603B1C0B3319703B1C0A331A703B1C0B331B78002B07D03B1C17333A1C0B321278013A1A7006E03B1C17333A1C0A321278013A1A707B68002B2ADA3B1C17331C
:400600001B785B00FA68D3181B881A1C7B68FA218900CB1A9A4212DB3B1C0B331B785B00FA68D3183A1C173212785200F9688A1811887A6892B28A1892B21A8033E03B1C7A
:400640000B331B785B00FA68D318FA2292001A8029E03B1C17331B785B00FA68D3181B881A1C7B68FA21C900CB1A9A4212DC3B1C0B331B785B00FA68D3183A1C173212788C
:400680005200F9688A1811887A6892B28A1892B21A8008E03B1C0B331B785B00FA68D318FA22D2001A803B1C0B331A783B1C0A331B78101C191CFFF75FFF031C181CBD460D
:4006C00006B080BD90B583B000AF3960111C1A1CFB1D1870BB1D19703B1D1A803B1D1A88724B9A4211D93B1D1A88714B9A420CD8FC1D3868FB1D1978BB1D1A7864235B420E
:40070000FFF75AFF031C2370CAE03B1D1A88684B9A4211D93B1D1A88664B9A420CD8FC1D3868FB1D1978BB1D1A7832235B42FFF743FF031C2370B3E03B1D1A885D4B9A4277
:4007400011D93B1D1A885C4B9A420CD8FC1D3868FB1D1978BB1D1A780A235B42FFF72CFF031C23709CE03B1D1A88534B9A4211D93B1D1A88514B9A420CD8FC1D3868FB1DC4
:400780001978BB1D1A7805235B42FFF715FF031C237085E03B1D1A88494B9A4210D83B1D1A88464B9A420BD9FC1DFB1D1A78BB1D1B78101C191CFFF7DFFE031C23706FE058
:4007C0003B1D1A883E4B9A4213D93B1D1A883D4B9A420ED8FC1D3968FB1D1A78BB1D1B78081C111C1A1C0523FFF7E6FE031C237056E03B1D1A88334B9A4213D93B1D1A88F0
:40080000314B9A420ED8FC1D3968FB1D1A78BB1D1B78081C111C1A1C0A23FFF7CDFE031C23703DE03B1D1A88274B9A4213D93B1D1A88264B9A420ED8FC1D3968FB1D1A78A2
:40084000BB1D1B78081C111C1A1C3223FFF7B4FE031C237024E03B1D1A881C4B9A4214D93B1D1A88FA23DB009A420ED8FC1D3968FB1D1A78BB1D1B78081C111C1A1C642318
:40088000FFF79AFE031C23700AE0FC1DFB1D1A78BB1D1B78101C191CFFF76EFE031C2370FB1D1B78181CBD4603B090BDE703000064040000E10400005E050000D105000019
:4008C000E605000059060000D60600005307000080B584B000AF7860FB1C1970BB1C1A70FB1C1B787A68D3181B785BB21A023B1C0E331A80BB1C1B787A68D3181B785BB24B
:400900009AB23B1C0C33111CFF220A401A803B1C0A33391C0E313A1C0C32098812880A431A803B1C0A3300215B5E002B00DA01335B109BB29AB23B1C0833054952181A8046
:400940003B1C08331B88181CBD4604B080BDC046DC05000080B584B000AF78603B1C0E33FA2252001A803B1C0E331B88181CBD4604B080BD80B500AFBD4680BD80B500AF38
:40098000034B181C162101F015F8BD4680BDC0464001002080B586B000AF0A1CFB1D011C19703B1D1A803B1C0C33FF221A703B1C0C33FF225A703B1C0C33FA1D12789A70E6
:4009C0003B1C0C330522DA703B1C0C3303221A713B1C0C331E225A713B1D1B88DAB23B1C0C339A713B1D1B881B0A9BB2DAB23B1C0C33DA713B1C0C339A79FB1D1B78D318C8
:400A0000DAB23B1C0C33DB79D318DBB22633DBB2DB43DAB23B1C0C331A723B1C0C33181C092101F097FCBD4606B080BD80B586B000AF0A1CFB1D011C19703B1D1A803B1C61
:400A40000C33FF221A703B1C0C33FF225A703B1C0C33FA1D12789A703B1C0C330522DA703B1C0C3303221A713B1C0C330E225A713B1D1B88DAB23B1C0C339A713B1D1B88C9
:400A80001B0A9BB2DAB23B1C0C33DA713B1C0C339A79FB1D1B78D318DAB23B1C0C33DB79D318DBB21633DBB2DB43DAB23B1C0C331A723B1C0C33181C092101F04BFCBD4659
:400AC00006B080BD80B586B000AF0A1CFB1D011C19703B1D1A803B1C0C33FF221A703B1C0C33FF225A703B1C0C33FA1D12789A703B1C0C330522DA703B1C0C3303221A71C3
:400B00003B1C0C3320225A713B1D1B88DAB23B1C0C339A713B1D1B881B0A9BB2DAB23B1C0C33DA713B1C0C339A79FB1D1B78D318DAB23B1C0C33DB79D318DBB22833DBB2FB
:400B4000DB43DAB23B1C0C331A723B1C0C33181C092101F0FFFBBD4606B080BD90B585B000AF021C3960FB1D1A70524B1B78012B03D06BDD022B22D069E03B1C0F330022B8
:400B80001A700EE03B1C0F331B785B003A68D318494A1A803B1C0F331A783B1C0F3301321A703B1C0F331B78132BEBD9FB1D00221A70414B0220191CFFF7ECFE47E03C1CC7
:400BC0000C343E4B181C10211122FFF781FE031C2380FB1D1B785B003A68D3183A1C0C3212881A80FB1D1B78122B05D8FB1D1A78FB1D01321A7002E0FB1D00221A703C1CC0
:400C00000A343B68181C1421FFF77AFC031C23803B1C0A331A88FA23DB009A420DD83B1C0A331A88264B9A4207D93B1C0A331B880220191CFFF7AEFE04E01F4B0220191C15
:400C4000FFF7A8FE1F4B00221A7000E0C046194B1B78012B0CD002DC002B05D024E0022B0AD0032B14D01FE0124B01221A701BE0104B03221A7017E0124B1B78002B03D0EF
:400C80000C4B02221A700FE00A4B03221A700BE00C4B1B78002B03D0064B02221A7002E0044B03221A70C046FB1D1B78181CBD4605B090BD56010020DC05000040010020E7
:400CC000E7030000FC00002090B585B000AF021C3960FB1D1A70524B1B78012B03D06BDD022B22D069E03B1C0F3300221A700EE03B1C0F331B785B003A68D318494A1A8019
:400D00003B1C0F331A783B1C0F3301321A703B1C0F331B78132BEBD9FB1D00221A70414B0120191CFFF736FE47E03C1C0C343E4B181C12211322FFF7CBFD031C2380FB1DB8
:400D40001B785B003A68D3183A1C0C3212881A80FB1D1B78122B05D8FB1D1A78FB1D01321A7002E0FB1D00221A703C1C0A343B68181C1421FFF7C4FB031C23803B1C0A3399
:400D80001A88FA23DB009A420DD83B1C0A331A88264B9A4207D93B1C0A331B880120191CFFF7F8FD04E01F4B0120191CFFF7F2FD1F4B00221A7000E0C046194B1B78012B55
:400DC0000CD002DC002B05D024E0022B0AD0032B14D01FE0124B01221A701BE0104B03221A7017E0124B1B78002B03D00C4B02221A700FE00A4B03221A700BE00C4B1B785C
:400E0000002B03D0064B02221A7002E0044B03221A70C046FB1D1B78181CBD4605B090BD5B010020DC05000040010020E7030000FD00002090B585B000AF021C3960FB1D2E
:400E40001A703C1C0C340120FFF784FD031C2380844B1B78012B07D000DCCFE0022B24D0032B00D1B9E0CAE03B1C0F3300221A700EE03B1C0F331B785B003A68D3187A4A98
:400E80001A803B1C0F331A783B1C0F3301321A703B1C0F331B78132BEBD9FB1D00221A70714B181C01F094FDA9E03C1C0A346F4B181C0E210F22FFF70BFD031C2380FB1D6E
:400EC0001B785B003A68D3183A1C0A3212881A80FB1D1B78122B05D8FB1D1A78FB1D01321A7002E0FB1D00221A703C1C08343B68181C1421FFF704FB031C23803B1C0C33DA
:400F00001B88642B23D83B1C08331A88584B9A4204D8554B181C01F05BFD5AE03B1C08331A88FA23DB009A420CD83B1C08331A88504B9A4206D93B1C08331B88181C01F0CE
:400F400047FD46E0484B181C01F042FD41E03B1C0C331A88474B9A4223D93B1C08331A88414B9A4204D9404B181C01F031FD30E03B1C08331A88FA23DB009A420CD83B1CA3
:400F800008331A883B4B9A4206D93B1C08331B88181C01F01DFD1CE0334B181C01F018FD17E03B1C08331A88FA23DB009A420CD83B1C08331A882F4B9A4206D93B1C08330D
:400FC0001B88181C01F004FD03E0274B181C01F0FFFC294B00221A7011E03B1C0C331B88642B05D93B1C0C331A88224B9A4204D91D4B181C01F0ECFC01E000E0C046194BFE
:401000001B78012B0CD002DC002B05D024E0022B0AD0032B14D01FE0124B01221A701BE0104B03221A7017E0134B1B78002B03D00C4B02221A700FE00A4B03221A700BE043
:401040000D4B1B78002B03D0064B02221A7002E0044B03221A70C046FB1D1B78181CBD4605B090BD59010020DC05000040010020DB050000E7030000FE00002090B585B0A0
:4010800000AF021C3960FB1D1A703C1C0C340020FFF760FC031C2380864B1B78012B07D000DCD3E0022B24D0032B00D1BBE0CEE03B1C0F3300221A700EE03B1C0F331B789E
:4010C0005B003A68D3187C4A1A803B1C0F331A783B1C0F3301321A703B1C0F331B78132BEBD9FB1D00221A70734B181C01F020FDADE03C1C0A34714B181C0C210D22FFF7D0
:40110000E7FB031C2380FB1D1B785B003A68D3183A1C0A3212881A80FB1D1B78122B05D8FB1D1A78FB1D01321A7002E0FB1D00221A703C1C08343B68181C1421FFF7E0F959
:40114000031C23803B1C0C331A888C235B009A4223D83B1C08331A88594B9A4204D8564B181C01F0E5FC5AE03B1C08331A88FA23DB009A420CD83B1C08331A88514B9A428B
:4011800006D93B1C08331B88181C01F0D1FC46E0494B181C01F0CCFC41E03B1C0C331A88494B9A4223D93B1C08331A88424B9A4204D9414B181C01F0BBFC30E03B1C083339
:4011C0001A88FA23DB009A420CD83B1C08331A883C4B9A4206D93B1C08331B88181C01F0A7FC1CE0344B181C01F0A2FC17E03B1C08331A88FA23DB009A420CD83B1C08336F
:401200001A88304B9A4206D93B1C08331B88181C01F08EFC03E0284B181C01F089FC2B4B00221A7013E03B1C0C331A888C235B009A4205D93B1C0C331A88234B9A4204D982
:401240001D4B181C01F074FC01E000E0C046194B1B78012B0CD002DC002B05D024E0022B0AD0032B14D01FE0124B01221A701BE0104B03221A7017E0144B1B78002B03D0BB
:401280000C4B02221A700FE00A4B03221A700BE00E4B1B78002B03D0064B02221A7002E0044B03221A70C046FB1D1B78181CBD4605B090BD57010020DC05000040010020DE
:4012C000DB050000E70300001F030000FF00002090B585B000AF021C3960FB1D1A704E4B1B78012B03D063DD022B21D061E03B1C0F3300221A700EE03B1C0F331B785B00DD
:401300003A68D318454A1A803B1C0F331A783B1C0F3301321A703B1C0F331B78132BEBD9FB1D00221A703D4B181C01F0A1FA40E03C1C0C343A4B181C0A210B22FFF7C8FABB
:40134000031C2380FC1DFB1D19783A683B1C0C331B88081C111C1422FFF7B4F9031C23703C1C0A343B68181C1421FFF7C9F8031C23803B1C0A331A88FA23DB009A420CD829
:401380003B1C0A331A88274B9A4206D93B1C0A331B88181C01F06CFA06E0012000F0FCFD1E4B181C01F064FA1F4B00221A7000E0C046194B1B78012B0CD002DC002B05D053
:4013C00024E0022B0AD0032B14D01FE0124B01221A701BE0104B03221A7017E0124B1B78002B03D00C4B02221A700FE00A4B03221A700BE00C4B1B78002B03D0064B02229D
:401400001A7002E0044B03221A70C046FB1D1B78181CBD4605B090BD3E010020DC05000040010020E70300000001002090B583B000AF304B1B78012B03D029DD022B05D070
:4014400027E02D4B181C01F03FFD22E0BC1D2B4B181C14211522FFF73BFA031C2380BB1D1A88FA23DB009A420AD8BB1D1A88244B9A4205D9BB1D1B88181C01F025FD03E036
:401480001D4B181C01F054FB1E4B00221A7000E0C046184B1B78012B0CD002DC002B05D024E0022B0AD0032B14D01FE0114B01221A701BE00F4B03221A7017E0114B1B786A
:4014C000002B03D00B4B02221A700FE0094B03221A700BE00B4B1B78002B03D0054B02221A7002E0034B03221A70C046BD4603B090BDC0465A010020DC050000400100207D
:40150000E70300000101002080B582B000AF002000F0AAFF0A2000F0A3FE012000F0A4FF012000F0C7FFFB1D00221A700DE000F07FFF031C002B00D00BE0042000F090FEC4
:40154000FB1D1A78FB1D01321A70FB1D1B78632BEDD9254B00221A70244B00221A70244B00221A70234B00221A70234B00221A70224B00221A7001F061FB00F0A5FC00F080
:4015800095FC00F0BBFE01F0A5FA01F043F901F0F1F901F0F5FB00F0B3FF01F0D5F8184B042001211A1C00F011F9FE206421FFF789FA144BFE20191CFFF738FA124B181CB8
:4015C00001F006FA104B181C01F0B2FA0F4B181C00F046FE62B60E4B181C00F083FC00F039FDBD4602B080BD3E010020560100205B01002057010020590100205A01002021
:4016000087690000FF030000DC050000B80B0000D904000090B5B7B000AF3B1CD23300221A703B1CCA33544A1A80FFF76DFF00F00DFF031C002B17D100F088F9FFF79EF9BA
:401640004E4B01221A704E4B01221A704D4B01221A704D4B01221A704C4B01221A703B1CD23300221A7006E03B1CD2333A1CD232127801321A703B1CD2331B78312B2CD9D5
:401680003B1CCA333C4A1A800023CC20C01903601DE03B1CCA3300229B5E1B129BB2DAB23B49CC20C0190368CB181A70CC22D219136801333A1CCA321288D1B2344AD1543E
:4016C000CC20C01903680233CC22D2191360CC20C0190368152BDCDD43E03C1CD7343B1CD7331A783B1CA033101C191CFFF7F0FD031C23703C1CD6343B1CD6331A783B1CCC
:401700007833101C191CFFF7B9FC031C23703C1CD5343B1CD5331A783B1C5033101C191CFFF788FB031C23703C1CD4343B1CD4331A783B1C2833101C191CFFF70FFA031C07
:4017400023703C1CD3343B1CD3331A783B1C101C191CFFF7B9FA031C2370FFF767FEFFF709F9C0460B4B1B78DBB2002BFAD0094B00221A705BE7C046DC0500000001002067
:40178000FD000020FC000020FF000020FE000020400100205801002080B582B000AF021CFB1D1A70FB1D1B78181C01F081FAC04601F05EFA031C1A1C01231340F8D001F0E4
:4017C00091FA031C181CBD4602B080BD80B590B000AFFB1D1870BB1D19703B1D1A803A1C2832524B111C1A1C1323081C111C1A1C01F024FC3A1C14324D4B111C1A1C1223B8
:40180000081C111C1A1C01F019FC3B1C1433BA1D1278DA733B1D1B881B0A9BB2DAB23B1C14331A743B1D1B88DAB23B1C14335A743B1C0C33092000211A1C062300F0DAF9B5
:401840003B1C28330A225A743B1C2833FA1D12789A743B1D1B881B0A9BB2DAB23B1C14331A713B1D1B88DAB23B1C14335A713B1C2833002000211A1C132300F031F93B1C79
:401880001433002001211A1C122300F029F93B1C0C33092000211A1C062300F021F912200121642200F0E2F8642000F0D9FC00F043F80020142100F05DF8002000F0FAFD20
:4018C0000020FFF769FF0020FFF766FF1420FFF763FF3B1C3E3300221A8016E03B1C3E331B881B0A9BB2DBB2181CFFF755FF3B1C3E331B88DBB2181CFFF74EFF3B1C3E33CA
:401900001A883B1C3E3301321A803B1C3E331A88084B9A42E2D9012000F0CCFD3B1C0C335B79181CBD4610B080BDC0466430000078300000FF03000080B500AF0120012139
:40194000012200F063F8BD4680BDC04680B500AF02200121FF2200F059F817200021FF2200F054F815200021FF2200F04FF8BD4680BDC04680B582B000AF0A1CFB1D011C0F
:401980001970BB1D1A70BB1D1B782C2001211A1C00F03CF818200021012200F037F8FB1D1B78162000211A1C00F030F8BD4602B080BDC04680B582B000AF78600A1CFB1CFB
:4019C0001A70114B19887A68FB1C1B78081C032100F010F92A20012100F0CCF8031C1A1C094B1A80084B1B88282001211A1C00F03DF801200121402200F008F8024B1B88F0
:401A0000181CBD4602B080BD1401002080B582B000AFBB1D18807B1D19703B1D1A70002000F048FDBB1D1B881B0A9BB2DBB2181CFFF7B2FEBB1D1B88DBB2181CFFF7ACFE3D
:401A40007B1D1B78DB00DBB204221343DBB2DBB2181CFFF7A1FE3B1D1B78181CFFF79CFE012000F027FDBD4602B080BD80B582B000AFBB1D18807B1D1970BB1C1A80002066
:401A800000F018FDBB1D1B881B0A9BB2DBB2181CFFF782FEBB1D1B88DBB2181CFFF77CFE7B1D1B78DB00DBB204221343DBB2DBB2181CFFF771FEBB1C1B881B0A9BB2DBB216
:401AC000181CFFF769FEBB1C1B88DBB2181CFFF763FE012000F0EEFCBD4602B080BDC04680B584B000AF3A601A1CBB1D18807B1D19703B1D1A70002000F0DCFCBB1D1B8812
:401B00001B0A9BB2DBB2181CFFF746FEBB1D1B88DBB2181CFFF740FE7B1D1B78DB00DBB204221343DBB2DBB2181CFFF735FE3B1C0F3300221A700FE03B1C0F331B783A6840
:401B4000D3181B78181CFFF727FE3B1C0F331A783B1C0F3301321A703A1C0F323B1D12781B789A42E8D3012000F0A4FCBD4604B080BDC04680B584B000AF0A1CBB1D011C96
:401B800019807B1D1A70002000F094FCBB1D1B881B0A9BB2DBB2181CFFF7FEFDBB1D1B88DBB2181CFFF7F8FD7B1D1B78DB00DBB2181CFFF7F1FD0020FFF7EEFD031C1A1C03
:401BC0003B1C0E3312021A800020FFF7E5FD031C191C3B1C0E333A1C0E3212880A431A80012000F067FC3B1C0E331B88181CBD4604B080BD90B585B000AF3A601A1CBB1DFC
:401C000018807B1D19703B1D1A70002000F052FCBB1D1B881B0A9BB2DBB2181CFFF7BCFDBB1D1B88DBB2181CFFF7B6FD7B1D1B78DB00DBB2181CFFF7AFFD3B1C0F33002245
:401C40001A7010E03B1C0F331B783A68D4180020FFF7A2FD031C23703B1C0F331A783B1C0F3301321A703A1C0F323B1D12781B789A42E7D3012000F01DFCBD4605B090BD77
:401C800080B500AFFEE7C04680B586B000AF224B7B61224B3B61204B7B6135E03B691B68FB603B695B68BB603B699B683B6000237B600CE0FB681A68BB681A60BB68043381
:401CC000BB60FB680433FB607B6804337B607A683B689A42EED13B69DB683B6000237B6008E0BB6800221A60BB680433BB607B6804337B607A683B689A42F2D13B69103323
:401D00003B617B69013B7B617B69002BC6D101F06FF9FFF77FFCFEE701000000CC33000080B582B000AF00237B600FE07B68032B04D8104B7A689200D35800E00E4B0F4A3A
:401D4000796889008B507B6801337B607B682F2BECD9FEF73DFA0A4B00221A608023DB058022D205126801210A431A60BD4602B080BDC04600000000811C000000000020F9
:401D8000C000002080B582B000AF786039607A683B68101C00211A1C01F059F9BD4602B080BDC04680B584B000AFF860B9607A60F968BA687B68081C111C1A1C01F03EF901
:401DC000BD4604B080BDC04680B586B000AF7860396000233B6100237B612EE07B699B007A68D3181B68BB603B1C0F33BA681A70BB68FF229343BB6017E03B695B003A6896
:401E0000D3181B781A1CBB68D3183A69520039688A1852781A703B6901333B613B1C0F331A783B1C0F33013A1A703B1C0F331B78002BE2D17B6901337B617B69092BCDD99B
:401E4000BD4606B080BDC04680B500AF054B0F221A60054B0F221A60012000F007F8BD4680BDC04600031A4040031A4080B584B000AF021CFB1D1A700B4B1B68FB60FB1D18
:401E80001B78002B05D0FB68802212061343FB6003E0FB685B005B08FB60034BFA681A60BD4604B080BDC04680031A4080B500AF044B044A1268802109060A431A60BD46EC
:401EC00080BDC0460400024080B500AF044B044A1268802109060A431A60BD4680BDC0468400024080B582B000AF786000F04AF87B68181C00F008F8032000F013F800F0A6
:401F000037F8BD4602B080BD80B582B000AF7860034A8C237968D150BD4602B080BDC0460000002090B585B000AF021CFB1D1A701E23FB603C1C0B3400F004F9031C2370C1
:401F40000A4B0A4A126892009108FA1D1078FA68041C9440221C0A431A603B1C0B331B78181C00F0F3F8BD4605B090BD10E400E080B500AF024B802212031A60BD4680BD67
:401F800000E100E080B500AF024B802212031A60BD4680BD80E100E080B584B000AF021CFB1D1A700E4B1B68DAB23B1C0F3340218A431A70FB1D1B789B01DAB24023134063
:401FC000D9B23B1C0F333A1C0F3212780A431A70034B3A1C0F3212781A60BD4604B080BD0001044080B500AF094B802292041A60084B0C221A60012000F078F8064B181CB8
:4020000000F048F8002000F037F8BD4680BDC046C0010540E40105401027000090B583B000AFFC1D00F08EF8031C2370084B084A126808210A431A60FB1D1B78181C00F03E
:4020400085F80820182100F033F8BD4603B090BD0000054080B500AF064B1B78002B04D1FFF7C0FF034B01221A70FFF7D7FFBD4680BDC0461601002080B582B000AF786070
:40208000034B7A681204120C1A60BD4602B080BDC801054080B582B000AF7860034B7A681204120C1A60BD4602B080BDD401054090B585B000AF786039603C1C0F3400F045
:4020C00041F8031C2370084B3A687968081C9040021C1A603B1C0F331B78181C00F036F8BD4605B090BDC0460800054080B582B000AF7860024B7A681A60BD4602B080BD34
:40210000F801054080B500AF024B1B68181CBD4680BDC046FC01054080B582B000AF7860024B7A681A60BD4602B080BDF00105400230800804D0C0460138FDD1C046C0468B
:40214000C0467047EFF3108072B6704780F310887047C046C046C04680B584B000AF021C3960FB1D1A7080239B05FB60FB1D1B781F2B02D9002000F069F8FB1D1B7810333F
:402180009B00FA68D3181B68BB60FB1D1B7810339B00FA68D3183A681A60BB68181CBD4604B080BD90B587B000AF0A1CFB1D011C1970BB1D1A70BB1D1B78032B02D9002057
:4021C00000F044F8FB1D1B781F2B02D9002000F03DF8FB1D1A7803231340DB0006337B613C1C1334FFF7AEFF031C2370FB1D1B789B08DBB29B0014495B181B68FB607B698F
:402200000322111C99400B1CDA43FB681340FB60BB1D1A787B69111C99400B1CFA681343FB60FB1D1B789B08DBB29B00064A9B18FA681A603B1C13331B78181CFFF786FF5C
:40224000BD4607B090BDC04600E400E080B582B000AF021CFB1D1A7001BEBD4602B080BD80B582B000AF786008E00C4B1B68181CFFF75EFF7B680A4A9B187B607A68802385
:402280001B029A42F1D8074B1B687A685343181CFFF74EFFBD4602B080BDC046DC0000200080FFFFD400002080B582B000AF021CBB1D1A80BB1D1B88044A12785343181C6F
:4022C000FFF736FFBD4602B080BDC046D800002080B500AF00F058F8BD4680BD80B500AF054B054A1268802109060A431A6000F017F8BD4680BDC0460000074080B500AF7B
:40230000064B1B78002B04D1FFF7E2FF034B01221A70FFF7E3FFBD4680BDC0461801002080B500AFBD4680BD80B582B000AF7860C046064B1A680F231340082BF9D0044BD5
:402340007A681A60BD4602B080BDC046080207404002074080B584B000AF786039600023FB6009E07A68FB68D3181B78181CFFF7DBFFFB680133FB60FA683B689A42F1D3E1
:40238000BD4604B080BDC04680B500AF174B184A1A60184B00221A60174B01221A60174B174A1A60174B07221A60174B00221A60164B01221A60164B114A1A60154B00220D
:4023C0001A60154B00221A60144B00221A60144B00221A60134B00221A60134B00221A60124B00221A60BD4680BDC046000007400B0000024000074048000740000307408A
:40240000070000800403074010030740440007400002074004020740880E0740C80E0740480F0740080F0740C80F0740880F074080B500AF044B1A68022313405B08DBB23D
:40244000181CBD4680BDC0460400044080B500AF044B1B68DAB201231340DBB2181CBD4680BDC0460400044080B584B000AF021CFB1D1A700E4B1B68DAB23B1C0F33042194
:402480008A431A70FB1D1B789B00DAB204231340D9B23B1C0F333A1C0F3212780A431A70034B3A1C0F3212781A60BD4604B080BD0000044080B584B000AF021CFB1D1A7064
:4024C0000E4B1B68DAB23B1C0F3308218A431A70FB1D1B78DB00DAB208231340D9B23B1C0F333A1C0F3212780A431A70034B3A1C0F3212781A60BD4604B080BD000004408E
:4025000080B500AF064B1B78002B04D100F00AF8034B01221A7000F003F9BD4680BDC0462001002090B585B000AF0E200321FFF739FE604B0E20191CFFF70EFE5E4B0F22E1
:402540001A605E4B5E4A1A605E4B5F4A1A605F4B5F4A1A605F4B8022D2051A605E4B5F4A1A605F4B5D4A1A605E4B5E4A1268802149020A431A605C4B5B4A12688021490219
:402580000A431A60594B00221A60594B00221A60584B01221A60584B02221A60574B1B687B607A68564B13407B607B68012213437B60524B7A681A600023FB6073E0514B05
:4025C000FA689200D258DC239B0113407B604E4AFB68D3181B787A6813437B60FB689B004A4A9B187A681A60464BFA689200D258012313400AD03D4B3C4A1168FA680120BD
:40260000041C9440221C92B20A431A603D4BFA689200D258022313400AD0354B344A1168FA680120041C9440221C92B20A431A60344BFA689200D25880239B00134003D02D
:4026400080235B00BB6002E080235B01BB602D4BFA689200D25880235B00134005D12C4BFA6852000021D15209E0BB68002B00DA01335B1099B2264BFA685200D152BB68B3
:40268000244A53438022D2009B18002B01DA224C1B19DB129BB219B2204BFA689200D150FB680133FB60FB68032B88D9BD4605B090BDC0466527000020001A4000001A4073
:4026C0004020001304001A408400008018001A400000FF071C001A4010001A400200020014001A4000031A4040031A4028021A4038021A4018021A40000F1A4030001A40C2
:40270000FFFFFFDF94330000A433000080001A407001002010270000FF0700006001002080B500AF074B1B68002B09DB054B054A1268802109060A431A600A20FFF7B4FDCD
:40274000BD4680BD00001A4080B500AF044B044A1268802149020A431A60BD4680BDC04604001A4080B582B000AF044B1B687B60024B7A681A60BD4602B080BD10021A40A3
:4027800080B500AF104B8022D2041A600E4B0E4A12681A60002000F04FF80B4B0A4A12681A600A4B0C221A60012000F08DF8084B31221A60074B181C00F04CF8064B181C5C
:4027C00000F056F8BD4680BD400105406401054068010540204E0000DC05000090B583B000AFFC1DFFF7AEFC031C2370084B084A126802210A431A60FB1D1B78181CFFF7BE
:40280000A5FC0220182100F041F8BD4603B090BD0000054080B500AF064B1B78002B04D1FFF7AEFF034B01221A70FFF7D7FFBD4680BDC0462101002080B582B000AF786083
:40284000034B7A681204120C1A60BD4602B080BD4801054080B582B000AF7860034B7A681204120C1A60BD4602B080BD5401054080B582B000AF7860034B7A681204120C50
:402880001A60BD4602B080BD4C01054090B585B000AF786039603C1C0F34FFF753FC031C2370084B3A687968081C9040021C1A603B1C0F331B78181CFFF748FCBD4605B03A
:4028C00090BDC0460800054080B582B000AF7860024B7A681A60BD4602B080BD7801054080B500AF104B8022D2041A600E4B0E4A12681A60002000F04FF80B4B0A4A1268A0
:402900001A600A4B0C221A60012000F08DF8084B31221A60074B181C00F04CF8064B181C00F056F8BD4680BD80010540A4010540A8010540204E0000DC05000090B583B048
:4029400000AFFC1DFFF7FEFB031C2370084B084A126804210A431A60FB1D1B78181CFFF7F5FB0420182100F041F8BD4603B090BD0000054080B500AF064B1B78002B04D188
:40298000FFF7AEFF034B01221A70FFF7D7FFBD4680BDC0462201002080B582B000AF7860034B7A681204120C1A60BD4602B080BD8801054080B582B000AF7860034B7A687A
:4029C0001204120C1A60BD4602B080BD9401054080B582B000AF7860034B7A681204120C1A60BD4602B080BD8C01054090B585B000AF786039603C1C0F34FFF7A3FB031CE5
:402A00002370084B3A687968081C9040021C1A603B1C0F331B78181CFFF798FBBD4605B090BDC0460800054080B582B000AF7860024B7A681A60BD4602B080BDB8010540D9
:402A400080B500AF104B8022D2041A600E4B0E4A12681A60002000F04FF80B4B0A4A12681A600A4B0C221A60012000F08DF8084B31221A60074B181C00F04CF8064B181C99
:402A800000F056F8BD4680BD000105402401054028010540204E0000DC05000090B583B000AFFC1DFFF74EFB031C2370084B084A126801210A431A60FB1D1B78181CFFF71D
:402AC00045FB0120182100F041F8BD4603B090BD0000054080B500AF064B1B78002B04D1FFF7AEFF034B01221A70FFF7D7FFBD4680BDC0462301002080B582B000AF786021
:402B0000034B7A681204120C1A60BD4602B080BD0801054080B582B000AF7860034B7A681204120C1A60BD4602B080BD1401054080B582B000AF7860034B7A681204120C0D
:402B40001A60BD4602B080BD0C01054090B585B000AF786039603C1C0F34FFF7F3FA031C2370084B3A687968081C9040021C1A603B1C0F331B78181CFFF7E8FABD4605B07B
:402B800090BDC0460800054080B582B000AF7860024B7A681A60BD4602B080BD3801054080B500AF084B0F221A7000F0ABF800F05FF800F06DF8054B00221A70044B0022E0
:402BC0001A70BD4680BDC04681000F4080000F4082000F4090B583B000AFFC1DFFF7B2FA031C2370124B124A1278D2B220210A43D2B21A700F4B0F4A1278D2B210210A435F
:402C0000D2B21A700C4B0C4A1278D2B210210A43D2B21A70FB1D1B78181CFFF797FA00F0A1F800F01DF800F01FF8BD4603B090BD91000F4090000F4092000F4080B500AFBD
:402C4000064B1B78002B04D1FFF7AAFF034B01221A70FFF7BFFFBD4680BDC0462401002080B500AFBD4680BD80B500AFBD4680BD80B582B000AF054AFB1D12781A70FB1DA6
:402C80001B78181CBD4602B080BDC04660000F4080B582B000AF054AFB1D12781A70FB1D1B78181CBD4602B080BDC04662000F4080B582B000AF021CFB1D1A70C046074B5F
:402CC0001B78DBB21A1C04231340F8D0044BFA1D12781A70BD4602B080BDC04660000F4042000F4080B582B000AF054AFB1D12781A70FB1D1B78181CBD4602B080BDC04622
:402D000052000F4090B583B000AF01E0124B1B78124B1B78DBB21A1C20231340F6D1FC1DFFF710FA031C23700D4B0D4A1278D2B201210A43D2B21A70094B094A1278D2B230
:402D400001218A43D2B21A70FB1D1B78181CFFF7FDF9BD4603B090BD52000F4062000F4092000F4080B500AF044B044A1268802109060A431A60BD4680BDC046000002405B
:402D800080B500AF064B1B78002B04D100F00AF8034B01221A7000F059F8BD4680BDC0462501002090B583B000AF234B1B78DAB2FB1D3F218A431A701F4BFA1D12780921D9
:402DC0000A43D2B21A701D4B1C4A1278D2B201210A43D2B21A701A4B194A1278D2B201210A43D2B21A70174B181C00F03FF8154B181C00F059F87F2000F066F83F2000F0FE
:402E000073F8002000F080F8BC1DFFF79BF9031C23700D4B0C4A1278D2B210210A43D2B21A70BB1D1B78181CFFF790F900F02EF8BD4603B090BDC04673000F4090000F4064
:402E400091000F40FFFF000093000F4080B500AF054B054A1278D2B2802149420A43D2B21A70BD4680BDC04673000F4080B582B000AF021CBB1D1A80034BBA1D12881A8073
:402E8000BD4602B080BDC04600100F4080B500AF01E000F053F800F047F8031C1A1C10231340F6D1BD4680BD80B582B000AF021CBB1D1A80034BBA1D12881A80BD4602B0F6
:402EC00080BDC04680100F4080B582B000AF021CBB1D1A80034BBA1D12881A80BD4602B080BDC04640100F4080B582B000AF021CBB1D1A80034BBA1D12881A80BD4602B066
:402F000080BDC04660100F4080B582B000AF021CFB1D1A70034BFA1D12781A70BD4602B080BDC04683000F4080B500AF024B1B78DBB2181CBD4680BD63000F4080B500AF1B
:402F4000024B1B889BB2181CBD4680BDA0100F40002934D00123002210B488422CD301242407A14204D2814202D209011B01F8E7E400A14204D2814202D249005B00F8E745
:402F8000884201D3401A1A434C08A04202D3001B5C0822438C08A04202D3001B9C082243CC08A04202D3001BDC082243002803D01B0901D00909E3E7101C10BC70470028CC
:402FC00001D00020C04307B4024802A14018029003BDC046190000000029F0D003B5FFF7B9FF0EBC4243891A1847C0467047C04670B50E4B0E4D0024ED1AAD101E1CAC4220
:4030000004D0A300F35898470134F8E700F0CCF9084B094D0024ED1AAD101E1CAC4204D0A300F35898470134F8E770BDB4330000B4330000B4330000BC33000010B50023FF
:40304000934203D0CC5CC4540133F9E710BD031C8218934202D019700133FAE7704700000000000000C0A80101FFFFFF000008DCFFFFFFC0A801FE000200FF00FE01000023
:4030800000000000C0A80101698700000A090000255809000400000000300F40800000310F40000180320F40800100400F40000480300F4014330000800000320F40943277
:4030C0000000800002000F4021300F4031310F401A320F404C330F4006400F4009410F4002420F4007430F4002600F40810F830F0802170126032F013201330134023F04BD
:403100004050410649FF4AFF4BFF4DA04F0450185409580459045A045B045C035D135F01604062C06440654066C068C06AC06CC06EC00010050407490D800E981020150174
:403140001714181019101D201E51220424202510260C276829802C102D012E082F0A3008350437613D24480449804C284D82540C550158145A41628067026D056EA06F1E6E
:403180007701C0F2C2F0C474CAF8CCF2CE60D23CD60FD818880289158B0A910E9D139F04A20EA514A709AE05B002B10FB208B404B601B710B902BF40D280D407D804D904ED
:4031C000DB04DC13DD30DF0100100421050407010EA00F0811021340150516081740181019A01A401C011D0C1F182102228024022540272029042F083102334036083760E6
:4032000038223B023D80452847404E094F0955805618570259125A486610672173408520872088048A018B02902091059208970299129B419C049D849E08A121A258A58005
:40324000A680B610C0F2C270C4F9CA22CC79CE14D070D230D60FD870E020E205E402EE100D0162046401C220D680D840520A820A8401890191029C01B604D4A0E2E067408D
:40328000D80119011E108101821087409740C60C100A110102000D0042000800620014008D02000D0D0080008D05003A000080100023000C8D0000008D0000004009003621
:4032C000110022000000703080000F0F00008880000010006301200005DDFBEC3FFFFFFF2200F008040000004000000004040404111100010000C00040011011C001001137
:4033000040014001000000000000000000000000000000000700380056980902043800C084000000049A800001FC00030A2110D860130064849A0000800204008402009889
:403340000098000208137F0F80E0800008000028000051005006000000D5001233FFFFFF00AF0F04180000000000022004040404111300014000C0004040C000C000C0004B
:40338000C000C000000000000000000000000000000000000200000002000000000000000000000000010203F8B5C046F8BC08BC9E467047A1040000211D0000F8B5C04627
:4033C000F8BC08BC9E46704779040000E0330000C800002018000000980000000000000000000000C0F1FF0F00366E01C05D0000180000000000E02E0000000000000000EB
:40340000000000000000000000000000000000000000000000000000000000000000000000000000000000000000000000000000000000000000000000000000000000008C
:40344000000000000000000000000000000000000000000000000000000000000000000000000000000000000000000000000000000000000000000000000000000000004C
:40348000000000000000000000000000000000000000000000000000000000000000000000000000000000000000000000000000000000000000000000000000000000000C
:4034C00000000000000000000000000000000000000000000000000000000000000000000000000000000000000000000000000000000000000000000000000000000000CC
:0200000490303A
:020000001D627F
:0200000490402A
:200000000000000000000000000000000000000000000000000000000000000000000000E0
:0200000490501A
:0C000000000204C81193110104D92EF570
:0200000490600A
:0100000001FE
:00000001FF